{"contracts/ApeBeatsMetadataLib.sol":{"ApeBeatsMetadataLib":{"abi":[{"inputs":[],"stateMutability":"nonpayable","type":"constructor"},{"inputs":[{"internalType":"address","name":"owner","type":"address"}],"name":"OwnableInvalidOwner","type":"error"},{"inputs":[{"internalType":"address","name":"account","type":"address"}],"name":"OwnableUnauthorizedAccount","type":"error"},{"anonymous":false,"inputs":[{"indexed":true,"internalType":"address","name":"previousOwner","type":"address"},{"indexed":true,"internalType":"address","name":"newOwner","type":"address"}],"name":"OwnershipTransferred","type":"event"},{"anonymous":false,"inputs":[{"indexed":true,"internalType":"uint256","name":"tokenId","type":"uint256"},{"indexed":false,"internalType":"string","name":"uri","type":"string"}],"name":"WaveformURIUpdated","type":"event"},{"inputs":[{"internalType":"uint256","name":"","type":"uint256"}],"name":"COLORS","outputs":[{"internalType":"string","name":"","type":"string"}],"stateMutability":"view","type":"function"},{"inputs":[{"internalType":"uint256","name":"","type":"uint256"}],"name":"bassLoops","outputs":[{"internalType":"string","name":"","type":"string"}],"stateMutability":"view","type":"function"},{"inputs":[{"internalType":"uint256","name":"","type":"uint256"}],"name":"drumLoops","outputs":[{"internalType":"string","name":"","type":"string"}],"stateMutability":"view","type":"function"},{"inputs":[{"internalType":"uint256","name":"","type":"uint256"}],"name":"fxLoops","outputs":[{"internalType":"string","name":"","type":"string"}],"stateMutability":"view","type":"function"},{"inputs":[{"internalType":"uint256","name":"tokenId","type":"uint256"},{"internalType":"string[5]","name":"bassLoopsArg","type":"string[5]"},{"internalType":"string[5]","name":"drumLoopsArg","type":"string[5]"},{"internalType":"string[5]","name":"melodyLoopsArg","type":"string[5]"},{"internalType":"string[5]","name":"fxLoopsArg","type":"string[5]"},{"components":[{"internalType":"uint8","name":"bass","type":"uint8"},{"internalType":"uint8","name":"drums","type":"uint8"},{"internalType":"uint8","name":"melody","type":"uint8"},{"internalType":"uint8","name":"fx","type":"uint8"},{"internalType":"uint8","name":"colorWave","type":"uint8"},{"internalType":"uint8","name":"colorBg","type":"uint8"}],"internalType":"struct ApeBeatsMetadataLib.WaveData","name":"data","type":"tuple"},{"internalType":"uint256","name":"rarity","type":"uint256"},{"internalType":"string","name":"mixedAudioURI","type":"string"},{"internalType":"string","name":"waveformURI","type":"string"},{"internalType":"string[11]","name":"colors","type":"string[11]"}],"name":"getRevealedURI","outputs":[{"internalType":"string","name":"","type":"string"}],"stateMutability":"pure","type":"function"},{"inputs":[{"internalType":"uint256","name":"tokenId","type":"uint256"},{"internalType":"string","name":"prerevealNoiseBase64","type":"string"},{"internalType":"address","name":"tokenOwner","type":"address"}],"name":"getTokenURI","outputs":[{"internalType":"string","name":"","type":"string"}],"stateMutability":"view","type":"function"},{"inputs":[{"internalType":"uint256","name":"","type":"uint256"}],"name":"melodyLoops","outputs":[{"internalType":"string","name":"","type":"string"}],"stateMutability":"view","type":"function"},{"inputs":[{"internalType":"uint256","name":"","type":"uint256"}],"name":"mixedAudioURIs","outputs":[{"internalType":"string","name":"","type":"string"}],"stateMutability":"view","type":"function"},{"inputs":[],"name":"owner","outputs":[{"internalType":"address","name":"","type":"address"}],"stateMutability":"view","type":"function"},{"inputs":[{"internalType":"uint256","name":"","type":"uint256"}],"name":"rarityScore","outputs":[{"internalType":"uint256","name":"","type":"uint256"}],"stateMutability":"view","type":"function"},{"inputs":[],"name":"renounceOwnership","outputs":[],"stateMutability":"nonpayable","type":"function"},{"inputs":[{"internalType":"uint256","name":"tokenId","type":"uint256"},{"internalType":"address","name":"tokenOwner","type":"address"}],"name":"reveal","outputs":[],"stateMutability":"nonpayable","type":"function"},{"inputs":[],"name":"revealed","outputs":[{"internalType":"bool","name":"","type":"bool"}],"stateMutability":"view","type":"function"},{"inputs":[{"internalType":"uint256","name":"tokenId","type":"uint256"},{"internalType":"string","name":"uri","type":"string"}],"name":"setMixedAudioURI","outputs":[],"stateMutability":"nonpayable","type":"function"},{"inputs":[{"internalType":"bool","name":"_revealed","type":"bool"}],"name":"setRevealed","outputs":[],"stateMutability":"nonpayable","type":"function"},{"inputs":[{"internalType":"uint256","name":"tokenId","type":"uint256"},{"internalType":"string","name":"uri","type":"string"}],"name":"setWaveformURI","outputs":[],"stateMutability":"nonpayable","type":"function"},{"inputs":[{"internalType":"address","name":"newOwner","type":"address"}],"name":"transferOwnership","outputs":[],"stateMutability":"nonpayable","type":"function"},{"inputs":[{"internalType":"uint256","name":"","type":"uint256"}],"name":"waveData","outputs":[{"internalType":"uint8","name":"bass","type":"uint8"},{"internalType":"uint8","name":"drums","type":"uint8"},{"internalType":"uint8","name":"melody","type":"uint8"},{"internalType":"uint8","name":"fx","type":"uint8"},{"internalType":"uint8","name":"colorWave","type":"uint8"},{"internalType":"uint8","name":"colorBg","type":"uint8"}],"stateMutability":"view","type":"function"},{"inputs":[{"internalType":"uint256","name":"","type":"uint256"}],"name":"waveformURIs","outputs":[{"internalType":"string","name":"","type":"string"}],"stateMutability":"view","type":"function"}],"evm":{"bytecode":{"linkReferences":{},"object":"60808060405234620003a15733156200038b5760008054336001600160a01b0319821681178355906001600160a01b03167f8be0079c531659141344cd1fd0a4f28419497f9722a3daafe3b4186f6b6457e08380a36040516001600160401b039161016082018381118382101762000377576040526200007e620003a6565b9160078084526020936611a11ca319232360c91b858201528252620000a2620003a6565b818152660234646443730360cc1b8582015284830152620000c2620003a6565b818152660234330433043360cc1b858201526040830152620000e3620003a6565b8181526611a1a21ba3199960c91b85820152606083015262000104620003a6565b818152665261696e626f7760c81b85820152608083015262000125620003a6565b818152660233030303030360cc1b8582015260a083015262000146620003a6565b818152660234646303030360cc1b8582015260c083015262000167620003a6565b818152661198181818232360c91b8582015260e083015262000188620003a6565b818152660233030464630360cc1b85820152610100830152620001aa620003a6565b818152660233830303038360cc1b85820152610120830152620001cc620003a6565b908152660234646413530360cc1b8482015261014082015260159282915b600b83106200020357604051611af79081620003dd8239f35b8051805191878311620003635786546001928382811c9216801562000358575b86831014620003445790859291601f91828111620002eb575b508391861160011462000283576001959189918362000277575b5050600019600383901b1c191690841b1788555b01950192019193620001ea565b015190508b8062000256565b898952838920959190601f1983168a5b818110620002d4575091600197918488959410620002ba575b505050811b0188556200026a565b015160001960f88460031b161c191690558b8080620002ac565b828401518955978701978996938401930162000293565b9091929350898952868920600584808901821c8301938a8a106200033a575b918a97968993969594929601901c01915b8281106200032b5750506200023c565b8b81558996508791016200031b565b935082936200030a565b634e487b7160e01b88526022600452602488fd5b91607f169162000223565b634e487b7160e01b86526041600452602486fd5b634e487b7160e01b82526041600452602482fd5b631e4fbdf760e01b815260006004820152602490fd5b600080fd5b60408051919082016001600160401b03811183821017620003c657604052565b634e487b7160e01b600052604160045260246000fdfe6040610100815260048036101561001557600080fd5b600091823560e01c806309aafb6114610ae95780630fb51ac41461099c5780631e4f8beb1461097257806332dbd6091461090f5780634dfa177f146108e157806351830227146108be5780635ac93a0a146108905780636ad81c7414610862578063715018a6146108085780637d330cdd14610660578063857a6f5b146106325780638da5cb5b1461060a578063a5573bd0146105e2578063ab95081d146105b4578063ac577140146103ce578063bfb70e04146101f6578063c0aa14b6146101bd578063e0a80853146101825763f2fde38b146100f257600080fd5b3461017e57602036600319011261017e576001600160a01b0382358181169391929084900361017a576101236117f6565b831561016457505082546001600160a01b0319811683178455167f8be0079c531659141344cd1fd0a4f28419497f9722a3daafe3b4186f6b6457e08380a380f35b51631e4fbdf760e01b8152908101849052602490fd5b8480fd5b8280fd5b5050346101b95760203660031901126101b957358015158091036101b9576101a86117f6565b60ff80196020541691161760205580f35b5080fd5b50903461017e57602036600319011261017e57816101f2936101e792358152602260205220610cd0565b905191829182610c38565b0390f35b508290346101b957806003193601126101b9578235906024356001600160a01b038116908190036103ca576102349061022d6117f6565b1515610dd8565b60ff602090610245818354166110bd565b8385526022825261025883862054610c96565b6103945782518281019042825285858201523360601b60608201526054815260808101918183106001600160401b038411176103815790829160649493875281519020926102a583610b41565b806005850616835260a08201918160058087040616835260c08101826005601988040616815260e0820190836005607d89040616825261012061010084019385600b6102718b0406168552019380600b611adb8a04061685528b8d5260218a528a8d2096511665ff000000000064ff0000000063ff00000062ff000061ff008b549a5160081b16955160101b16955160181b1695518c1b16955160281b169565ffffffffffff1916171717171717905506926001840180941161036e5784526024905282205580f35b634e487b7160e01b855260118652602485fd5b634e487b7160e01b885260418952602488fd5b825162461bcd60e51b8152808701839052601060248201526f105b1c9958591e481c995d99585b195960821b6044820152606490fd5b8380fd5b50823461058e576101e036600319011261058e576001600160401b039260243584811161017e576104029036908301610d75565b906044358581116103ca5761041a9036908301610d75565b60643586811161017a576104319036908401610d75565b6084358781116105b0576104489036908501610d75565b9060c03660a31901126105b05786519261046184610b41565b60ff9560a43587811681036105ac57855260c4359680881688036105ac57602097602087015260e43581811681036105a8578a8701526101043581811681036105a85760608701526101243581811681036105a85760808701526101443590811681036105ac5760a0860152610164610184358b81116105a8576104e89036908901610bc9565b976101a4358c81116105a4576105019036908a01610bc9565b998c6101c4359d8e116101b9573660238f0112156101b9578c519d8e610160810190811083821117610591578f908f52918582019336851161058e57828d01935b8585106105675750505050506101f28c6101e78f8e8e8e8e8e8e8e8e8e359535611135565b843583811161017e5787918f8392610583913691890101610bc9565b815201940193610542565b80fd5b634e487b7160e01b845260418c52602484fd5b8a80fd5b8980fd5b8880fd5b8580fd5b50903461017e57602036600319011261017e573591600583101561058e57506101e76101f292600b01610cd0565b50903461017e57602036600319011261017e5760209282913581526024845220549051908152f35b8382346101b957816003193601126101b957905490516001600160a01b039091168152602090f35b50903461017e57602036600319011261017e573591600b83101561058e57506101e76101f292601501610cd0565b503461017e5761066f36610c64565b91909261067a6117f6565b60209061068a60ff8354166110bd565b84865260238252828620918451916001600160401b0383116107f557506106b18354610c96565b601f81116107b2575b5080601f83116001146107285750918161071794927f77f0150fb3b30f6451acdccf70cd397383911429734276985d2b689849b00c2d9694899161071d575b508160011b916000199060031b1c19161790555b5191829182610c38565b0390a280f35b9050840151386106f9565b90601f1983168489528289209289905b82821061079a575050927f77f0150fb3b30f6451acdccf70cd397383911429734276985d2b689849b00c2d96949260019282610717989610610781575b5050811b01905561070d565b86015160001960f88460031b161c191690553880610775565b80600185968294968c01518155019501930190610738565b838852818820601f840160051c8101918385106107eb575b601f0160051c01905b8181106107e057506106ba565b8881556001016107d3565b90915081906107ca565b634e487b7160e01b885260419052602487fd5b833461058e578060031936011261058e576108216117f6565b80546001600160a01b03198116825581906001600160a01b03167f8be0079c531659141344cd1fd0a4f28419497f9722a3daafe3b4186f6b6457e08280a380f35b50903461017e57602036600319011261017e573591600583101561058e57506101e76101f292600101610cd0565b50903461017e57602036600319011261017e573591600583101561058e57506101e76101f292600601610cd0565b8382346101b957816003193601126101b95760209060ff82541690519015158152f35b50903461017e57602036600319011261017e573591600583101561058e57506101e76101f292601001610cd0565b50903461017e57602036600319011261017e5760c09282913581526021602052205460ff908251928282168452828260081c166020850152828260101c1690840152818160181c166060840152818160201c16608084015260281c1660a0820152f35b50903461017e57602036600319011261017e57816101f2936101e792358152602360205220610cd0565b508290346101b9576109ad36610c64565b9390916109b86117f6565b6020926109c860ff8554166110bd565b8452602283528320918451916001600160401b038311610ad657506109ed8354610c96565b601f8111610a93575b5080601f8311600114610a315750839482939492610a26575b50508160011b916000199060031b1c191617905580f35b015190508480610a0f565b90601f198316958486528286209286905b888210610a7b57505083600195969710610a62575b505050811b01905580f35b015160001960f88460031b161c19169055848080610a57565b80600185968294968601518155019501930190610a42565b838552818520601f840160051c810191838510610acc575b601f0160051c01905b818110610ac157506109f6565b858155600101610ab4565b9091508190610aab565b634e487b7160e01b855260419052602484fd5b50903461017e57606036600319011261017e576024356001600160401b0381116103ca57610b1a9036908301610bc9565b604435939091906001600160a01b038516850361058e5750926101e7916101f29435610e1b565b60c081019081106001600160401b03821117610b5c57604052565b634e487b7160e01b600052604160045260246000fd5b60a081019081106001600160401b03821117610b5c57604052565b90601f801991011681019081106001600160401b03821117610b5c57604052565b6001600160401b038111610b5c57601f01601f191660200190565b81601f82011215610c1057803590610be082610bae565b92610bee6040519485610b8d565b82845260208383010111610c1057816000926020809301838601378301015290565b600080fd5b60005b838110610c285750506000910152565b8181015183820152602001610c18565b60409160208252610c588151809281602086015260208686019101610c15565b601f01601f1916010190565b906040600319830112610c105760043591602435906001600160401b038211610c1057610c9391600401610bc9565b90565b90600182811c92168015610cc6575b6020831014610cb057565b634e487b7160e01b600052602260045260246000fd5b91607f1691610ca5565b90604051918260008254610ce381610c96565b90818452602094600191600181169081600014610d535750600114610d14575b505050610d1292500383610b8d565b565b600090815285812095935091905b818310610d3b575050610d129350820101388080610d03565b85548884018501529485019487945091830191610d22565b92505050610d1294925060ff191682840152151560051b820101388080610d03565b9080601f83011215610c105760405191610d8e83610b72565b60a081019083838311610c105781905b838210610dad57505050505090565b81356001600160401b038111610c1057602091610dcd8784938701610bc9565b815201910190610d9e565b15610ddf57565b60405162461bcd60e51b8152602060048201526014602482015273151bdad95b88191bd95cc81b9bdd08195e1a5cdd60621b6044820152606490fd5b9291610e31906001600160a01b03161515610dd8565b60ff60205416156110b95750816000526022602052610e54604060002054610c96565b1561108057816000526023602052610e70604060002054610c96565b1561104457816000526021602052604060002060246020526040600020546022602052604060002090602360205260406000209060405193610eb185610b72565b60016000865b600582106110275750505060405193610ecf85610b72565b60066000865b6005821061100a57505050604051610eec81610b72565b600b6000825b60058210610fed5750505060405191610f0a83610b72565b60106000845b60058210610fd057505050610f71610f779160ff60405196610f3188610b41565b548181168852818160081c166020890152818160101c166040890152818160181c166060890152818160201c16608089015260281c1660a0870152610cd0565b95610cd0565b956040519761016089018981106001600160401b03821117610b5c5760405260159a60008a5b600b8210610fb2575050610c939a9b50611135565b600160208f92610fc28394610cd0565b8152019e019101909c610f9d565b600160208192610fdf86610cd0565b815201930191019091610f10565b600160208192610ffc86610cd0565b815201930191019091610ef2565b60016020819261101986610cd0565b815201930191019091610ed5565b60016020819261103686610cd0565b815201930191019091610eb7565b60405162461bcd60e51b815260206004820152601460248201527315d85d99599bdc9b48155492481b9bdd081cd95d60621b6044820152606490fd5b60405162461bcd60e51b8152602060048201526011602482015270105d591a5bc8155492481b9bdd081cd95d607a1b6044820152606490fd5b9150565b156110c457565b60405162461bcd60e51b815260206004820152601160248201527052657665616c206e6f742061637469766560781b6044820152606490fd5b90600581101561110e5760051b0190565b634e487b7160e01b600052603260045260246000fd5b90600b81101561110e5760051b0190565b90929493969897919860e05261114a90611854565b60a052825160ff1661115c90836110fd565b5196602084015160ff16611170908a6110fd565b51604085015160ff1661118390876110fd565b51606086015160ff16611196908a6110fd565b5190608087015160ff166111aa9085611124565b519260a088015160ff166111be9086611124565b51946111c98b611854565b97895160ff166111d8916110fd565b519d60208a015160ff166111eb916110fd565b519960408a015160ff166111fe916110fd565b519b60608a015160ff16611211916110fd565b51608052608089015160ff166112279082611124565b519860a0015160ff1661123991611124565b519961124490611854565b9b60405160c05260c0516020017f7b226e616d65223a22417065426561747347656e657369732023000000000000905260a0515160c051603a018160a0516020019161128f92610c15565b60c051019661088b60f21b9788603a820152603c81017f226465736372697074696f6e223a22556e6971756520617564696f2d76697375905267185b08139195088b60c21b605c820152681134b6b0b3b2911d1160b91b606482015281519182606d8301916020019161130192610c15565b0187606d820152701130b734b6b0ba34b7b72fbab936111d1160791b606f82015260e0515190608081018260e0516020019161133c92610c15565b01608081018890526f226f6e636861696e5f64617461223a7b60801b608282015267113130b9b9911d1160c11b6092820152815191611384908390609a840190602001610c15565b0186609a820152681132393ab6b9911d1160b91b609c8201528151918260a5830191602001916113b392610c15565b018560a5820152691136b2b637b23c911d1160b11b60a78201528151918260b1830191602001916113e392610c15565b018460b18201526511333c111d1160d11b60b38201528151918260b98301916020019161140f92610c15565b018360b98201526d113bb0bb32afb1b7b637b9111d1160911b60bb8201528151918260c98301916020019161144392610c15565b018260c98201526b113133afb1b7b637b9111d1160a11b60cb8201528151918260d78301916020019161147592610c15565b019060d782015269113930b934ba3c911d1160b11b60d98201528151918260e3830191602001916114a592610c15565b601160f91b60e39290910191820152611f4b60f21b60e48201527f2261747472696275746573223a5b7b2274726169745f74797065223a2242617360e68201526b399116113b30b63ab2911d1160a11b6101068201528651610112979091906115169083908a840190602001610c15565b019562089f4b60ea1b948580948180948b01526101158a017f7b2274726169745f74797065223a224472756d73222c2276616c7565223a2200905261013499815191828c8301916020019161156a92610c15565b019889015261013788017f7b2274726169745f74797065223a224d656c6f6479222c2276616c7565223a22905261015797815191828a830191602001916115b092610c15565b01968701527f7b2274726169745f74797065223a224658222c2276616c7565223a220000000061015a87015260805180516101769784926115f99083908b840190602001610c15565b01968701527f7b2274726169745f74797065223a225761766520436f6c6f72222c2276616c756101798701526332911d1160e11b610199870152805161019d96909161164d90839089840190602001610c15565b01948501527f7b2274726169745f74797065223a224261636b67726f756e6420436f6c6f72226101a08501526916113b30b63ab2911d1160b11b6101c085015280516101ca9490916116a790839087840190602001610c15565b01928301527f7b2274726169745f74797065223a225261726974792053636f7265222c2276616101cd83015265363ab2911d1160d11b6101ed83015280516101f39290916116fd90839085840190602001610c15565b019063227d5d7d60e01b9082015260c05190036101d7810160c051526101f70160c0519061172a91610b8d565b60405160608101908082106001600160401b03831117610b5c576117a391604052604081527f4142434445464748494a4b4c4d4e4f505152535455565758595a61626364656660208201527f6768696a6b6c6d6e6f707172737475767778797a303132333435363738392b2f604082015260c051611998565b610c93603d60405180937f646174613a6170706c69636174696f6e2f6a736f6e3b6261736536342c00000060208301526117e68151809260208686019101610c15565b810103601d810184520182610b8d565b6000546001600160a01b0316330361180a57565b60405163118cdaa760e01b8152336004820152602490fd5b9061182c82610bae565b6118396040519182610b8d565b828152809261184a601f1991610bae565b0190602036910137565b806000917a184f03e93ff9f4daa797ed6e38ed64bf6a1f0100000000000000008082101561198a575b506d04ee2d6d415b85acef81000000008083101561197b575b50662386f26fc100008083101561196c575b506305f5e1008083101561195d575b506127108083101561194e575b50606482101561193e575b600a80921015611934575b6001908160216118ec60018701611822565b95860101905b6118fe575b5050505090565b600019019083906f181899199a1a9b1b9c1cb0b131b232b360811b8282061a83530491821561192f579190826118f2565b6118f7565b91600101916118da565b91906064600291049101916118cf565b600491939204910191386118c4565b600891939204910191386118b7565b601091939204910191386118a8565b60209193920491019138611896565b60409350810491503861187d565b919091805115611a9b5780519260029160028501809511611a85576003948590046001600160fe1b0381168103611a85576119d89060029694961b611822565b926020840192829183518401976020890192835194600085525b8a8110611a3857505050506003939495965052510680600114611a2557600214611a1a575090565b603d90600019015390565b50603d9081600019820153600119015390565b836004919b989b019a8b51600190603f9082828260121c16870101518453828282600c1c16870101518385015382828260061c1687010151878501531684010151858201530196996119f2565b634e487b7160e01b600052601160045260246000fd5b509050604051602081018181106001600160401b03821117610b5c57604052600081529056fea2646970667358221220fa1b8f3ea164fec6d409e20a2bfc36523809516e445052cd5269cd6ea846579564736f6c63430008180033","opcodes":"PUSH1 0x80 DUP1 PUSH1 0x40 MSTORE CALLVALUE PUSH3 0x3A1 JUMPI CALLER ISZERO PUSH3 0x38B JUMPI PUSH1 0x0 DUP1 SLOAD CALLER PUSH1 0x1 PUSH1 0x1 PUSH1 0xA0 SHL SUB NOT DUP3 AND DUP2 OR DUP4 SSTORE SWAP1 PUSH1 0x1 PUSH1 0x1 PUSH1 0xA0 SHL SUB AND PUSH32 0x8BE0079C531659141344CD1FD0A4F28419497F9722A3DAAFE3B4186F6B6457E0 DUP4 DUP1 LOG3 PUSH1 0x40 MLOAD PUSH1 0x1 PUSH1 0x1 PUSH1 0x40 SHL SUB SWAP2 PUSH2 0x160 DUP3 ADD DUP4 DUP2 GT DUP4 DUP3 LT OR PUSH3 0x377 JUMPI PUSH1 0x40 MSTORE PUSH3 0x7E PUSH3 0x3A6 JUMP JUMPDEST SWAP2 PUSH1 0x7 DUP1 DUP5 MSTORE PUSH1 0x20 SWAP4 PUSH7 0x11A11CA3192323 PUSH1 0xC9 SHL DUP6 DUP3 ADD MSTORE DUP3 MSTORE PUSH3 0xA2 PUSH3 0x3A6 JUMP JUMPDEST DUP2 DUP2 MSTORE PUSH7 0x2346464437303 PUSH1 0xCC SHL DUP6 DUP3 ADD MSTORE DUP5 DUP4 ADD MSTORE PUSH3 0xC2 PUSH3 0x3A6 JUMP JUMPDEST DUP2 DUP2 MSTORE PUSH7 0x2343304330433 PUSH1 0xCC SHL DUP6 DUP3 ADD MSTORE PUSH1 0x40 DUP4 ADD MSTORE PUSH3 0xE3 PUSH3 0x3A6 JUMP JUMPDEST DUP2 DUP2 MSTORE PUSH7 0x11A1A21BA31999 PUSH1 0xC9 SHL DUP6 DUP3 ADD MSTORE PUSH1 0x60 DUP4 ADD MSTORE PUSH3 0x104 PUSH3 0x3A6 JUMP JUMPDEST DUP2 DUP2 MSTORE PUSH7 0x5261696E626F77 PUSH1 0xC8 SHL DUP6 DUP3 ADD MSTORE PUSH1 0x80 DUP4 ADD MSTORE PUSH3 0x125 PUSH3 0x3A6 JUMP JUMPDEST DUP2 DUP2 MSTORE PUSH7 0x2330303030303 PUSH1 0xCC SHL DUP6 DUP3 ADD MSTORE PUSH1 0xA0 DUP4 ADD MSTORE PUSH3 0x146 PUSH3 0x3A6 JUMP JUMPDEST DUP2 DUP2 MSTORE PUSH7 0x2346463030303 PUSH1 0xCC SHL DUP6 DUP3 ADD MSTORE PUSH1 0xC0 DUP4 ADD MSTORE PUSH3 0x167 PUSH3 0x3A6 JUMP JUMPDEST DUP2 DUP2 MSTORE PUSH7 0x11981818182323 PUSH1 0xC9 SHL DUP6 DUP3 ADD MSTORE PUSH1 0xE0 DUP4 ADD MSTORE PUSH3 0x188 PUSH3 0x3A6 JUMP JUMPDEST DUP2 DUP2 MSTORE PUSH7 0x2330304646303 PUSH1 0xCC SHL DUP6 DUP3 ADD MSTORE PUSH2 0x100 DUP4 ADD MSTORE PUSH3 0x1AA PUSH3 0x3A6 JUMP JUMPDEST DUP2 DUP2 MSTORE PUSH7 0x2338303030383 PUSH1 0xCC SHL DUP6 DUP3 ADD MSTORE PUSH2 0x120 DUP4 ADD MSTORE PUSH3 0x1CC PUSH3 0x3A6 JUMP JUMPDEST SWAP1 DUP2 MSTORE PUSH7 0x2346464135303 PUSH1 0xCC SHL DUP5 DUP3 ADD MSTORE PUSH2 0x140 DUP3 ADD MSTORE PUSH1 0x15 SWAP3 DUP3 SWAP2 JUMPDEST PUSH1 0xB DUP4 LT PUSH3 0x203 JUMPI PUSH1 0x40 MLOAD PUSH2 0x1AF7 SWAP1 DUP2 PUSH3 0x3DD DUP3 CODECOPY RETURN JUMPDEST DUP1 MLOAD DUP1 MLOAD SWAP2 DUP8 DUP4 GT PUSH3 0x363 JUMPI DUP7 SLOAD PUSH1 0x1 SWAP3 DUP4 DUP3 DUP2 SHR SWAP3 AND DUP1 ISZERO PUSH3 0x358 JUMPI JUMPDEST DUP7 DUP4 LT EQ PUSH3 0x344 JUMPI SWAP1 DUP6 SWAP3 SWAP2 PUSH1 0x1F SWAP2 DUP3 DUP2 GT PUSH3 0x2EB JUMPI JUMPDEST POP DUP4 SWAP2 DUP7 GT PUSH1 0x1 EQ PUSH3 0x283 JUMPI PUSH1 0x1 SWAP6 SWAP2 DUP10 SWAP2 DUP4 PUSH3 0x277 JUMPI JUMPDEST POP POP PUSH1 0x0 NOT PUSH1 0x3 DUP4 SWAP1 SHL SHR NOT AND SWAP1 DUP5 SHL OR DUP9 SSTORE JUMPDEST ADD SWAP6 ADD SWAP3 ADD SWAP2 SWAP4 PUSH3 0x1EA JUMP JUMPDEST ADD MLOAD SWAP1 POP DUP12 DUP1 PUSH3 0x256 JUMP JUMPDEST DUP10 DUP10 MSTORE DUP4 DUP10 KECCAK256 SWAP6 SWAP2 SWAP1 PUSH1 0x1F NOT DUP4 AND DUP11 JUMPDEST DUP2 DUP2 LT PUSH3 0x2D4 JUMPI POP SWAP2 PUSH1 0x1 SWAP8 SWAP2 DUP5 DUP9 SWAP6 SWAP5 LT PUSH3 0x2BA JUMPI JUMPDEST POP POP POP DUP2 SHL ADD DUP9 SSTORE PUSH3 0x26A JUMP JUMPDEST ADD MLOAD PUSH1 0x0 NOT PUSH1 0xF8 DUP5 PUSH1 0x3 SHL AND SHR NOT AND SWAP1 SSTORE DUP12 DUP1 DUP1 PUSH3 0x2AC JUMP JUMPDEST DUP3 DUP5 ADD MLOAD DUP10 SSTORE SWAP8 DUP8 ADD SWAP8 DUP10 SWAP7 SWAP4 DUP5 ADD SWAP4 ADD PUSH3 0x293 JUMP JUMPDEST SWAP1 SWAP2 SWAP3 SWAP4 POP DUP10 DUP10 MSTORE DUP7 DUP10 KECCAK256 PUSH1 0x5 DUP5 DUP1 DUP10 ADD DUP3 SHR DUP4 ADD SWAP4 DUP11 DUP11 LT PUSH3 0x33A JUMPI JUMPDEST SWAP2 DUP11 SWAP8 SWAP7 DUP10 SWAP4 SWAP7 SWAP6 SWAP5 SWAP3 SWAP7 ADD SWAP1 SHR ADD SWAP2 JUMPDEST DUP3 DUP2 LT PUSH3 0x32B JUMPI POP POP PUSH3 0x23C JUMP JUMPDEST DUP12 DUP2 SSTORE DUP10 SWAP7 POP DUP8 SWAP2 ADD PUSH3 0x31B JUMP JUMPDEST SWAP4 POP DUP3 SWAP4 PUSH3 0x30A JUMP JUMPDEST PUSH4 0x4E487B71 PUSH1 0xE0 SHL DUP9 MSTORE PUSH1 0x22 PUSH1 0x4 MSTORE PUSH1 0x24 DUP9 REVERT JUMPDEST SWAP2 PUSH1 0x7F AND SWAP2 PUSH3 0x223 JUMP JUMPDEST PUSH4 0x4E487B71 PUSH1 0xE0 SHL DUP7 MSTORE PUSH1 0x41 PUSH1 0x4 MSTORE PUSH1 0x24 DUP7 REVERT JUMPDEST PUSH4 0x4E487B71 PUSH1 0xE0 SHL DUP3 MSTORE PUSH1 0x41 PUSH1 0x4 MSTORE PUSH1 0x24 DUP3 REVERT JUMPDEST PUSH4 0x1E4FBDF7 PUSH1 0xE0 SHL DUP2 MSTORE PUSH1 0x0 PUSH1 0x4 DUP3 ADD MSTORE PUSH1 0x24 SWAP1 REVERT JUMPDEST PUSH1 0x0 DUP1 REVERT JUMPDEST PUSH1 0x40 DUP1 MLOAD SWAP2 SWAP1 DUP3 ADD PUSH1 0x1 PUSH1 0x1 PUSH1 0x40 SHL SUB DUP2 GT DUP4 DUP3 LT OR PUSH3 0x3C6 JUMPI PUSH1 0x40 MSTORE JUMP JUMPDEST PUSH4 0x4E487B71 PUSH1 0xE0 SHL PUSH1 0x0 MSTORE PUSH1 0x41 PUSH1 0x4 MSTORE PUSH1 0x24 PUSH1 0x0 REVERT INVALID PUSH1 0x40 PUSH2 0x100 DUP2 MSTORE PUSH1 0x4 DUP1 CALLDATASIZE LT ISZERO PUSH2 0x15 JUMPI PUSH1 0x0 DUP1 REVERT JUMPDEST PUSH1 0x0 SWAP2 DUP3 CALLDATALOAD PUSH1 0xE0 SHR DUP1 PUSH4 0x9AAFB61 EQ PUSH2 0xAE9 JUMPI DUP1 PUSH4 0xFB51AC4 EQ PUSH2 0x99C JUMPI DUP1 PUSH4 0x1E4F8BEB EQ PUSH2 0x972 JUMPI DUP1 PUSH4 0x32DBD609 EQ PUSH2 0x90F JUMPI DUP1 PUSH4 0x4DFA177F EQ PUSH2 0x8E1 JUMPI DUP1 PUSH4 0x51830227 EQ PUSH2 0x8BE JUMPI DUP1 PUSH4 0x5AC93A0A EQ PUSH2 0x890 JUMPI DUP1 PUSH4 0x6AD81C74 EQ PUSH2 0x862 JUMPI DUP1 PUSH4 0x715018A6 EQ PUSH2 0x808 JUMPI DUP1 PUSH4 0x7D330CDD EQ PUSH2 0x660 JUMPI DUP1 PUSH4 0x857A6F5B EQ PUSH2 0x632 JUMPI DUP1 PUSH4 0x8DA5CB5B EQ PUSH2 0x60A JUMPI DUP1 PUSH4 0xA5573BD0 EQ PUSH2 0x5E2 JUMPI DUP1 PUSH4 0xAB95081D EQ PUSH2 0x5B4 JUMPI DUP1 PUSH4 0xAC577140 EQ PUSH2 0x3CE JUMPI DUP1 PUSH4 0xBFB70E04 EQ PUSH2 0x1F6 JUMPI DUP1 PUSH4 0xC0AA14B6 EQ PUSH2 0x1BD JUMPI DUP1 PUSH4 0xE0A80853 EQ PUSH2 0x182 JUMPI PUSH4 0xF2FDE38B EQ PUSH2 0xF2 JUMPI PUSH1 0x0 DUP1 REVERT JUMPDEST CALLVALUE PUSH2 0x17E JUMPI PUSH1 0x20 CALLDATASIZE PUSH1 0x3 NOT ADD SLT PUSH2 0x17E JUMPI PUSH1 0x1 PUSH1 0x1 PUSH1 0xA0 SHL SUB DUP3 CALLDATALOAD DUP2 DUP2 AND SWAP4 SWAP2 SWAP3 SWAP1 DUP5 SWAP1 SUB PUSH2 0x17A JUMPI PUSH2 0x123 PUSH2 0x17F6 JUMP JUMPDEST DUP4 ISZERO PUSH2 0x164 JUMPI POP POP DUP3 SLOAD PUSH1 0x1 PUSH1 0x1 PUSH1 0xA0 SHL SUB NOT DUP2 AND DUP4 OR DUP5 SSTORE AND PUSH32 0x8BE0079C531659141344CD1FD0A4F28419497F9722A3DAAFE3B4186F6B6457E0 DUP4 DUP1 LOG3 DUP1 RETURN JUMPDEST MLOAD PUSH4 0x1E4FBDF7 PUSH1 0xE0 SHL DUP2 MSTORE SWAP1 DUP2 ADD DUP5 SWAP1 MSTORE PUSH1 0x24 SWAP1 REVERT JUMPDEST DUP5 DUP1 REVERT JUMPDEST DUP3 DUP1 REVERT JUMPDEST POP POP CALLVALUE PUSH2 0x1B9 JUMPI PUSH1 0x20 CALLDATASIZE PUSH1 0x3 NOT ADD SLT PUSH2 0x1B9 JUMPI CALLDATALOAD DUP1 ISZERO ISZERO DUP1 SWAP2 SUB PUSH2 0x1B9 JUMPI PUSH2 0x1A8 PUSH2 0x17F6 JUMP JUMPDEST PUSH1 0xFF DUP1 NOT PUSH1 0x20 SLOAD AND SWAP2 AND OR PUSH1 0x20 SSTORE DUP1 RETURN JUMPDEST POP DUP1 REVERT JUMPDEST POP SWAP1 CALLVALUE PUSH2 0x17E JUMPI PUSH1 0x20 CALLDATASIZE PUSH1 0x3 NOT ADD SLT PUSH2 0x17E JUMPI DUP2 PUSH2 0x1F2 SWAP4 PUSH2 0x1E7 SWAP3 CALLDATALOAD DUP2 MSTORE PUSH1 0x22 PUSH1 0x20 MSTORE KECCAK256 PUSH2 0xCD0 JUMP JUMPDEST SWAP1 MLOAD SWAP2 DUP3 SWAP2 DUP3 PUSH2 0xC38 JUMP JUMPDEST SUB SWAP1 RETURN JUMPDEST POP DUP3 SWAP1 CALLVALUE PUSH2 0x1B9 JUMPI DUP1 PUSH1 0x3 NOT CALLDATASIZE ADD SLT PUSH2 0x1B9 JUMPI DUP3 CALLDATALOAD SWAP1 PUSH1 0x24 CALLDATALOAD PUSH1 0x1 PUSH1 0x1 PUSH1 0xA0 SHL SUB DUP2 AND SWAP1 DUP2 SWAP1 SUB PUSH2 0x3CA JUMPI PUSH2 0x234 SWAP1 PUSH2 0x22D PUSH2 0x17F6 JUMP JUMPDEST ISZERO ISZERO PUSH2 0xDD8 JUMP JUMPDEST PUSH1 0xFF PUSH1 0x20 SWAP1 PUSH2 0x245 DUP2 DUP4 SLOAD AND PUSH2 0x10BD JUMP JUMPDEST DUP4 DUP6 MSTORE PUSH1 0x22 DUP3 MSTORE PUSH2 0x258 DUP4 DUP7 KECCAK256 SLOAD PUSH2 0xC96 JUMP JUMPDEST PUSH2 0x394 JUMPI DUP3 MLOAD DUP3 DUP2 ADD SWAP1 TIMESTAMP DUP3 MSTORE DUP6 DUP6 DUP3 ADD MSTORE CALLER PUSH1 0x60 SHL PUSH1 0x60 DUP3 ADD MSTORE PUSH1 0x54 DUP2 MSTORE PUSH1 0x80 DUP2 ADD SWAP2 DUP2 DUP4 LT PUSH1 0x1 PUSH1 0x1 PUSH1 0x40 SHL SUB DUP5 GT OR PUSH2 0x381 JUMPI SWAP1 DUP3 SWAP2 PUSH1 0x64 SWAP5 SWAP4 DUP8 MSTORE DUP2 MLOAD SWAP1 KECCAK256 SWAP3 PUSH2 0x2A5 DUP4 PUSH2 0xB41 JUMP JUMPDEST DUP1 PUSH1 0x5 DUP6 MOD AND DUP4 MSTORE PUSH1 0xA0 DUP3 ADD SWAP2 DUP2 PUSH1 0x5 DUP1 DUP8 DIV MOD AND DUP4 MSTORE PUSH1 0xC0 DUP2 ADD DUP3 PUSH1 0x5 PUSH1 0x19 DUP9 DIV MOD AND DUP2 MSTORE PUSH1 0xE0 DUP3 ADD SWAP1 DUP4 PUSH1 0x5 PUSH1 0x7D DUP10 DIV MOD AND DUP3 MSTORE PUSH2 0x120 PUSH2 0x100 DUP5 ADD SWAP4 DUP6 PUSH1 0xB PUSH2 0x271 DUP12 DIV MOD AND DUP6 MSTORE ADD SWAP4 DUP1 PUSH1 0xB PUSH2 0x1ADB DUP11 DIV MOD AND DUP6 MSTORE DUP12 DUP14 MSTORE PUSH1 0x21 DUP11 MSTORE DUP11 DUP14 KECCAK256 SWAP7 MLOAD AND PUSH6 0xFF0000000000 PUSH5 0xFF00000000 PUSH4 0xFF000000 PUSH3 0xFF0000 PUSH2 0xFF00 DUP12 SLOAD SWAP11 MLOAD PUSH1 0x8 SHL AND SWAP6 MLOAD PUSH1 0x10 SHL AND SWAP6 MLOAD PUSH1 0x18 SHL AND SWAP6 MLOAD DUP13 SHL AND SWAP6 MLOAD PUSH1 0x28 SHL AND SWAP6 PUSH6 0xFFFFFFFFFFFF NOT AND OR OR OR OR OR OR SWAP1 SSTORE MOD SWAP3 PUSH1 0x1 DUP5 ADD DUP1 SWAP5 GT PUSH2 0x36E JUMPI DUP5 MSTORE PUSH1 0x24 SWAP1 MSTORE DUP3 KECCAK256 SSTORE DUP1 RETURN JUMPDEST PUSH4 0x4E487B71 PUSH1 0xE0 SHL DUP6 MSTORE PUSH1 0x11 DUP7 MSTORE PUSH1 0x24 DUP6 REVERT JUMPDEST PUSH4 0x4E487B71 PUSH1 0xE0 SHL DUP9 MSTORE PUSH1 0x41 DUP10 MSTORE PUSH1 0x24 DUP9 REVERT JUMPDEST DUP3 MLOAD PUSH3 0x461BCD PUSH1 0xE5 SHL DUP2 MSTORE DUP1 DUP8 ADD DUP4 SWAP1 MSTORE PUSH1 0x10 PUSH1 0x24 DUP3 ADD MSTORE PUSH16 0x105B1C9958591E481C995D99585B1959 PUSH1 0x82 SHL PUSH1 0x44 DUP3 ADD MSTORE PUSH1 0x64 SWAP1 REVERT JUMPDEST DUP4 DUP1 REVERT JUMPDEST POP DUP3 CALLVALUE PUSH2 0x58E JUMPI PUSH2 0x1E0 CALLDATASIZE PUSH1 0x3 NOT ADD SLT PUSH2 0x58E JUMPI PUSH1 0x1 PUSH1 0x1 PUSH1 0x40 SHL SUB SWAP3 PUSH1 0x24 CALLDATALOAD DUP5 DUP2 GT PUSH2 0x17E JUMPI PUSH2 0x402 SWAP1 CALLDATASIZE SWAP1 DUP4 ADD PUSH2 0xD75 JUMP JUMPDEST SWAP1 PUSH1 0x44 CALLDATALOAD DUP6 DUP2 GT PUSH2 0x3CA JUMPI PUSH2 0x41A SWAP1 CALLDATASIZE SWAP1 DUP4 ADD PUSH2 0xD75 JUMP JUMPDEST PUSH1 0x64 CALLDATALOAD DUP7 DUP2 GT PUSH2 0x17A JUMPI PUSH2 0x431 SWAP1 CALLDATASIZE SWAP1 DUP5 ADD PUSH2 0xD75 JUMP JUMPDEST PUSH1 0x84 CALLDATALOAD DUP8 DUP2 GT PUSH2 0x5B0 JUMPI PUSH2 0x448 SWAP1 CALLDATASIZE SWAP1 DUP6 ADD PUSH2 0xD75 JUMP JUMPDEST SWAP1 PUSH1 0xC0 CALLDATASIZE PUSH1 0xA3 NOT ADD SLT PUSH2 0x5B0 JUMPI DUP7 MLOAD SWAP3 PUSH2 0x461 DUP5 PUSH2 0xB41 JUMP JUMPDEST PUSH1 0xFF SWAP6 PUSH1 0xA4 CALLDATALOAD DUP8 DUP2 AND DUP2 SUB PUSH2 0x5AC JUMPI DUP6 MSTORE PUSH1 0xC4 CALLDATALOAD SWAP7 DUP1 DUP9 AND DUP9 SUB PUSH2 0x5AC JUMPI PUSH1 0x20 SWAP8 PUSH1 0x20 DUP8 ADD MSTORE PUSH1 0xE4 CALLDATALOAD DUP2 DUP2 AND DUP2 SUB PUSH2 0x5A8 JUMPI DUP11 DUP8 ADD MSTORE PUSH2 0x104 CALLDATALOAD DUP2 DUP2 AND DUP2 SUB PUSH2 0x5A8 JUMPI PUSH1 0x60 DUP8 ADD MSTORE PUSH2 0x124 CALLDATALOAD DUP2 DUP2 AND DUP2 SUB PUSH2 0x5A8 JUMPI PUSH1 0x80 DUP8 ADD MSTORE PUSH2 0x144 CALLDATALOAD SWAP1 DUP2 AND DUP2 SUB PUSH2 0x5AC JUMPI PUSH1 0xA0 DUP7 ADD MSTORE PUSH2 0x164 PUSH2 0x184 CALLDATALOAD DUP12 DUP2 GT PUSH2 0x5A8 JUMPI PUSH2 0x4E8 SWAP1 CALLDATASIZE SWAP1 DUP10 ADD PUSH2 0xBC9 JUMP JUMPDEST SWAP8 PUSH2 0x1A4 CALLDATALOAD DUP13 DUP2 GT PUSH2 0x5A4 JUMPI PUSH2 0x501 SWAP1 CALLDATASIZE SWAP1 DUP11 ADD PUSH2 0xBC9 JUMP JUMPDEST SWAP10 DUP13 PUSH2 0x1C4 CALLDATALOAD SWAP14 DUP15 GT PUSH2 0x1B9 JUMPI CALLDATASIZE PUSH1 0x23 DUP16 ADD SLT ISZERO PUSH2 0x1B9 JUMPI DUP13 MLOAD SWAP14 DUP15 PUSH2 0x160 DUP2 ADD SWAP1 DUP2 LT DUP4 DUP3 GT OR PUSH2 0x591 JUMPI DUP16 SWAP1 DUP16 MSTORE SWAP2 DUP6 DUP3 ADD SWAP4 CALLDATASIZE DUP6 GT PUSH2 0x58E JUMPI DUP3 DUP14 ADD SWAP4 JUMPDEST DUP6 DUP6 LT PUSH2 0x567 JUMPI POP POP POP POP POP PUSH2 0x1F2 DUP13 PUSH2 0x1E7 DUP16 DUP15 DUP15 DUP15 DUP15 DUP15 DUP15 DUP15 DUP15 DUP15 CALLDATALOAD SWAP6 CALLDATALOAD PUSH2 0x1135 JUMP JUMPDEST DUP5 CALLDATALOAD DUP4 DUP2 GT PUSH2 0x17E JUMPI DUP8 SWAP2 DUP16 DUP4 SWAP3 PUSH2 0x583 SWAP2 CALLDATASIZE SWAP2 DUP10 ADD ADD PUSH2 0xBC9 JUMP JUMPDEST DUP2 MSTORE ADD SWAP5 ADD SWAP4 PUSH2 0x542 JUMP JUMPDEST DUP1 REVERT JUMPDEST PUSH4 0x4E487B71 PUSH1 0xE0 SHL DUP5 MSTORE PUSH1 0x41 DUP13 MSTORE PUSH1 0x24 DUP5 REVERT JUMPDEST DUP11 DUP1 REVERT JUMPDEST DUP10 DUP1 REVERT JUMPDEST DUP9 DUP1 REVERT JUMPDEST DUP6 DUP1 REVERT JUMPDEST POP SWAP1 CALLVALUE PUSH2 0x17E JUMPI PUSH1 0x20 CALLDATASIZE PUSH1 0x3 NOT ADD SLT PUSH2 0x17E JUMPI CALLDATALOAD SWAP2 PUSH1 0x5 DUP4 LT ISZERO PUSH2 0x58E JUMPI POP PUSH2 0x1E7 PUSH2 0x1F2 SWAP3 PUSH1 0xB ADD PUSH2 0xCD0 JUMP JUMPDEST POP SWAP1 CALLVALUE PUSH2 0x17E JUMPI PUSH1 0x20 CALLDATASIZE PUSH1 0x3 NOT ADD SLT PUSH2 0x17E JUMPI PUSH1 0x20 SWAP3 DUP3 SWAP2 CALLDATALOAD DUP2 MSTORE PUSH1 0x24 DUP5 MSTORE KECCAK256 SLOAD SWAP1 MLOAD SWAP1 DUP2 MSTORE RETURN JUMPDEST DUP4 DUP3 CALLVALUE PUSH2 0x1B9 JUMPI DUP2 PUSH1 0x3 NOT CALLDATASIZE ADD SLT PUSH2 0x1B9 JUMPI SWAP1 SLOAD SWAP1 MLOAD PUSH1 0x1 PUSH1 0x1 PUSH1 0xA0 SHL SUB SWAP1 SWAP2 AND DUP2 MSTORE PUSH1 0x20 SWAP1 RETURN JUMPDEST POP SWAP1 CALLVALUE PUSH2 0x17E JUMPI PUSH1 0x20 CALLDATASIZE PUSH1 0x3 NOT ADD SLT PUSH2 0x17E JUMPI CALLDATALOAD SWAP2 PUSH1 0xB DUP4 LT ISZERO PUSH2 0x58E JUMPI POP PUSH2 0x1E7 PUSH2 0x1F2 SWAP3 PUSH1 0x15 ADD PUSH2 0xCD0 JUMP JUMPDEST POP CALLVALUE PUSH2 0x17E JUMPI PUSH2 0x66F CALLDATASIZE PUSH2 0xC64 JUMP JUMPDEST SWAP2 SWAP1 SWAP3 PUSH2 0x67A PUSH2 0x17F6 JUMP JUMPDEST PUSH1 0x20 SWAP1 PUSH2 0x68A PUSH1 0xFF DUP4 SLOAD AND PUSH2 0x10BD JUMP JUMPDEST DUP5 DUP7 MSTORE PUSH1 0x23 DUP3 MSTORE DUP3 DUP7 KECCAK256 SWAP2 DUP5 MLOAD SWAP2 PUSH1 0x1 PUSH1 0x1 PUSH1 0x40 SHL SUB DUP4 GT PUSH2 0x7F5 JUMPI POP PUSH2 0x6B1 DUP4 SLOAD PUSH2 0xC96 JUMP JUMPDEST PUSH1 0x1F DUP2 GT PUSH2 0x7B2 JUMPI JUMPDEST POP DUP1 PUSH1 0x1F DUP4 GT PUSH1 0x1 EQ PUSH2 0x728 JUMPI POP SWAP2 DUP2 PUSH2 0x717 SWAP5 SWAP3 PUSH32 0x77F0150FB3B30F6451ACDCCF70CD397383911429734276985D2B689849B00C2D SWAP7 SWAP5 DUP10 SWAP2 PUSH2 0x71D JUMPI JUMPDEST POP DUP2 PUSH1 0x1 SHL SWAP2 PUSH1 0x0 NOT SWAP1 PUSH1 0x3 SHL SHR NOT AND OR SWAP1 SSTORE JUMPDEST MLOAD SWAP2 DUP3 SWAP2 DUP3 PUSH2 0xC38 JUMP JUMPDEST SUB SWAP1 LOG2 DUP1 RETURN JUMPDEST SWAP1 POP DUP5 ADD MLOAD CODESIZE PUSH2 0x6F9 JUMP JUMPDEST SWAP1 PUSH1 0x1F NOT DUP4 AND DUP5 DUP10 MSTORE DUP3 DUP10 KECCAK256 SWAP3 DUP10 SWAP1 JUMPDEST DUP3 DUP3 LT PUSH2 0x79A JUMPI POP POP SWAP3 PUSH32 0x77F0150FB3B30F6451ACDCCF70CD397383911429734276985D2B689849B00C2D SWAP7 SWAP5 SWAP3 PUSH1 0x1 SWAP3 DUP3 PUSH2 0x717 SWAP9 SWAP7 LT PUSH2 0x781 JUMPI JUMPDEST POP POP DUP2 SHL ADD SWAP1 SSTORE PUSH2 0x70D JUMP JUMPDEST DUP7 ADD MLOAD PUSH1 0x0 NOT PUSH1 0xF8 DUP5 PUSH1 0x3 SHL AND SHR NOT AND SWAP1 SSTORE CODESIZE DUP1 PUSH2 0x775 JUMP JUMPDEST DUP1 PUSH1 0x1 DUP6 SWAP7 DUP3 SWAP5 SWAP7 DUP13 ADD MLOAD DUP2 SSTORE ADD SWAP6 ADD SWAP4 ADD SWAP1 PUSH2 0x738 JUMP JUMPDEST DUP4 DUP9 MSTORE DUP2 DUP9 KECCAK256 PUSH1 0x1F DUP5 ADD PUSH1 0x5 SHR DUP2 ADD SWAP2 DUP4 DUP6 LT PUSH2 0x7EB JUMPI JUMPDEST PUSH1 0x1F ADD PUSH1 0x5 SHR ADD SWAP1 JUMPDEST DUP2 DUP2 LT PUSH2 0x7E0 JUMPI POP PUSH2 0x6BA JUMP JUMPDEST DUP9 DUP2 SSTORE PUSH1 0x1 ADD PUSH2 0x7D3 JUMP JUMPDEST SWAP1 SWAP2 POP DUP2 SWAP1 PUSH2 0x7CA JUMP JUMPDEST PUSH4 0x4E487B71 PUSH1 0xE0 SHL DUP9 MSTORE PUSH1 0x41 SWAP1 MSTORE PUSH1 0x24 DUP8 REVERT JUMPDEST DUP4 CALLVALUE PUSH2 0x58E JUMPI DUP1 PUSH1 0x3 NOT CALLDATASIZE ADD SLT PUSH2 0x58E JUMPI PUSH2 0x821 PUSH2 0x17F6 JUMP JUMPDEST DUP1 SLOAD PUSH1 0x1 PUSH1 0x1 PUSH1 0xA0 SHL SUB NOT DUP2 AND DUP3 SSTORE DUP2 SWAP1 PUSH1 0x1 PUSH1 0x1 PUSH1 0xA0 SHL SUB AND PUSH32 0x8BE0079C531659141344CD1FD0A4F28419497F9722A3DAAFE3B4186F6B6457E0 DUP3 DUP1 LOG3 DUP1 RETURN JUMPDEST POP SWAP1 CALLVALUE PUSH2 0x17E JUMPI PUSH1 0x20 CALLDATASIZE PUSH1 0x3 NOT ADD SLT PUSH2 0x17E JUMPI CALLDATALOAD SWAP2 PUSH1 0x5 DUP4 LT ISZERO PUSH2 0x58E JUMPI POP PUSH2 0x1E7 PUSH2 0x1F2 SWAP3 PUSH1 0x1 ADD PUSH2 0xCD0 JUMP JUMPDEST POP SWAP1 CALLVALUE PUSH2 0x17E JUMPI PUSH1 0x20 CALLDATASIZE PUSH1 0x3 NOT ADD SLT PUSH2 0x17E JUMPI CALLDATALOAD SWAP2 PUSH1 0x5 DUP4 LT ISZERO PUSH2 0x58E JUMPI POP PUSH2 0x1E7 PUSH2 0x1F2 SWAP3 PUSH1 0x6 ADD PUSH2 0xCD0 JUMP JUMPDEST DUP4 DUP3 CALLVALUE PUSH2 0x1B9 JUMPI DUP2 PUSH1 0x3 NOT CALLDATASIZE ADD SLT PUSH2 0x1B9 JUMPI PUSH1 0x20 SWAP1 PUSH1 0xFF DUP3 SLOAD AND SWAP1 MLOAD SWAP1 ISZERO ISZERO DUP2 MSTORE RETURN JUMPDEST POP SWAP1 CALLVALUE PUSH2 0x17E JUMPI PUSH1 0x20 CALLDATASIZE PUSH1 0x3 NOT ADD SLT PUSH2 0x17E JUMPI CALLDATALOAD SWAP2 PUSH1 0x5 DUP4 LT ISZERO PUSH2 0x58E JUMPI POP PUSH2 0x1E7 PUSH2 0x1F2 SWAP3 PUSH1 0x10 ADD PUSH2 0xCD0 JUMP JUMPDEST POP SWAP1 CALLVALUE PUSH2 0x17E JUMPI PUSH1 0x20 CALLDATASIZE PUSH1 0x3 NOT ADD SLT PUSH2 0x17E JUMPI PUSH1 0xC0 SWAP3 DUP3 SWAP2 CALLDATALOAD DUP2 MSTORE PUSH1 0x21 PUSH1 0x20 MSTORE KECCAK256 SLOAD PUSH1 0xFF SWAP1 DUP3 MLOAD SWAP3 DUP3 DUP3 AND DUP5 MSTORE DUP3 DUP3 PUSH1 0x8 SHR AND PUSH1 0x20 DUP6 ADD MSTORE DUP3 DUP3 PUSH1 0x10 SHR AND SWAP1 DUP5 ADD MSTORE DUP2 DUP2 PUSH1 0x18 SHR AND PUSH1 0x60 DUP5 ADD MSTORE DUP2 DUP2 PUSH1 0x20 SHR AND PUSH1 0x80 DUP5 ADD MSTORE PUSH1 0x28 SHR AND PUSH1 0xA0 DUP3 ADD MSTORE RETURN JUMPDEST POP SWAP1 CALLVALUE PUSH2 0x17E JUMPI PUSH1 0x20 CALLDATASIZE PUSH1 0x3 NOT ADD SLT PUSH2 0x17E JUMPI DUP2 PUSH2 0x1F2 SWAP4 PUSH2 0x1E7 SWAP3 CALLDATALOAD DUP2 MSTORE PUSH1 0x23 PUSH1 0x20 MSTORE KECCAK256 PUSH2 0xCD0 JUMP JUMPDEST POP DUP3 SWAP1 CALLVALUE PUSH2 0x1B9 JUMPI PUSH2 0x9AD CALLDATASIZE PUSH2 0xC64 JUMP JUMPDEST SWAP4 SWAP1 SWAP2 PUSH2 0x9B8 PUSH2 0x17F6 JUMP JUMPDEST PUSH1 0x20 SWAP3 PUSH2 0x9C8 PUSH1 0xFF DUP6 SLOAD AND PUSH2 0x10BD JUMP JUMPDEST DUP5 MSTORE PUSH1 0x22 DUP4 MSTORE DUP4 KECCAK256 SWAP2 DUP5 MLOAD SWAP2 PUSH1 0x1 PUSH1 0x1 PUSH1 0x40 SHL SUB DUP4 GT PUSH2 0xAD6 JUMPI POP PUSH2 0x9ED DUP4 SLOAD PUSH2 0xC96 JUMP JUMPDEST PUSH1 0x1F DUP2 GT PUSH2 0xA93 JUMPI JUMPDEST POP DUP1 PUSH1 0x1F DUP4 GT PUSH1 0x1 EQ PUSH2 0xA31 JUMPI POP DUP4 SWAP5 DUP3 SWAP4 SWAP5 SWAP3 PUSH2 0xA26 JUMPI JUMPDEST POP POP DUP2 PUSH1 0x1 SHL SWAP2 PUSH1 0x0 NOT SWAP1 PUSH1 0x3 SHL SHR NOT AND OR SWAP1 SSTORE DUP1 RETURN JUMPDEST ADD MLOAD SWAP1 POP DUP5 DUP1 PUSH2 0xA0F JUMP JUMPDEST SWAP1 PUSH1 0x1F NOT DUP4 AND SWAP6 DUP5 DUP7 MSTORE DUP3 DUP7 KECCAK256 SWAP3 DUP7 SWAP1 JUMPDEST DUP9 DUP3 LT PUSH2 0xA7B JUMPI POP POP DUP4 PUSH1 0x1 SWAP6 SWAP7 SWAP8 LT PUSH2 0xA62 JUMPI JUMPDEST POP POP POP DUP2 SHL ADD SWAP1 SSTORE DUP1 RETURN JUMPDEST ADD MLOAD PUSH1 0x0 NOT PUSH1 0xF8 DUP5 PUSH1 0x3 SHL AND SHR NOT AND SWAP1 SSTORE DUP5 DUP1 DUP1 PUSH2 0xA57 JUMP JUMPDEST DUP1 PUSH1 0x1 DUP6 SWAP7 DUP3 SWAP5 SWAP7 DUP7 ADD MLOAD DUP2 SSTORE ADD SWAP6 ADD SWAP4 ADD SWAP1 PUSH2 0xA42 JUMP JUMPDEST DUP4 DUP6 MSTORE DUP2 DUP6 KECCAK256 PUSH1 0x1F DUP5 ADD PUSH1 0x5 SHR DUP2 ADD SWAP2 DUP4 DUP6 LT PUSH2 0xACC JUMPI JUMPDEST PUSH1 0x1F ADD PUSH1 0x5 SHR ADD SWAP1 JUMPDEST DUP2 DUP2 LT PUSH2 0xAC1 JUMPI POP PUSH2 0x9F6 JUMP JUMPDEST DUP6 DUP2 SSTORE PUSH1 0x1 ADD PUSH2 0xAB4 JUMP JUMPDEST SWAP1 SWAP2 POP DUP2 SWAP1 PUSH2 0xAAB JUMP JUMPDEST PUSH4 0x4E487B71 PUSH1 0xE0 SHL DUP6 MSTORE PUSH1 0x41 SWAP1 MSTORE PUSH1 0x24 DUP5 REVERT JUMPDEST POP SWAP1 CALLVALUE PUSH2 0x17E JUMPI PUSH1 0x60 CALLDATASIZE PUSH1 0x3 NOT ADD SLT PUSH2 0x17E JUMPI PUSH1 0x24 CALLDATALOAD PUSH1 0x1 PUSH1 0x1 PUSH1 0x40 SHL SUB DUP2 GT PUSH2 0x3CA JUMPI PUSH2 0xB1A SWAP1 CALLDATASIZE SWAP1 DUP4 ADD PUSH2 0xBC9 JUMP JUMPDEST PUSH1 0x44 CALLDATALOAD SWAP4 SWAP1 SWAP2 SWAP1 PUSH1 0x1 PUSH1 0x1 PUSH1 0xA0 SHL SUB DUP6 AND DUP6 SUB PUSH2 0x58E JUMPI POP SWAP3 PUSH2 0x1E7 SWAP2 PUSH2 0x1F2 SWAP5 CALLDATALOAD PUSH2 0xE1B JUMP JUMPDEST PUSH1 0xC0 DUP2 ADD SWAP1 DUP2 LT PUSH1 0x1 PUSH1 0x1 PUSH1 0x40 SHL SUB DUP3 GT OR PUSH2 0xB5C JUMPI PUSH1 0x40 MSTORE JUMP JUMPDEST PUSH4 0x4E487B71 PUSH1 0xE0 SHL PUSH1 0x0 MSTORE PUSH1 0x41 PUSH1 0x4 MSTORE PUSH1 0x24 PUSH1 0x0 REVERT JUMPDEST PUSH1 0xA0 DUP2 ADD SWAP1 DUP2 LT PUSH1 0x1 PUSH1 0x1 PUSH1 0x40 SHL SUB DUP3 GT OR PUSH2 0xB5C JUMPI PUSH1 0x40 MSTORE JUMP JUMPDEST SWAP1 PUSH1 0x1F DUP1 NOT SWAP2 ADD AND DUP2 ADD SWAP1 DUP2 LT PUSH1 0x1 PUSH1 0x1 PUSH1 0x40 SHL SUB DUP3 GT OR PUSH2 0xB5C JUMPI PUSH1 0x40 MSTORE JUMP JUMPDEST PUSH1 0x1 PUSH1 0x1 PUSH1 0x40 SHL SUB DUP2 GT PUSH2 0xB5C JUMPI PUSH1 0x1F ADD PUSH1 0x1F NOT AND PUSH1 0x20 ADD SWAP1 JUMP JUMPDEST DUP2 PUSH1 0x1F DUP3 ADD SLT ISZERO PUSH2 0xC10 JUMPI DUP1 CALLDATALOAD SWAP1 PUSH2 0xBE0 DUP3 PUSH2 0xBAE JUMP JUMPDEST SWAP3 PUSH2 0xBEE PUSH1 0x40 MLOAD SWAP5 DUP6 PUSH2 0xB8D JUMP JUMPDEST DUP3 DUP5 MSTORE PUSH1 0x20 DUP4 DUP4 ADD ADD GT PUSH2 0xC10 JUMPI DUP2 PUSH1 0x0 SWAP3 PUSH1 0x20 DUP1 SWAP4 ADD DUP4 DUP7 ADD CALLDATACOPY DUP4 ADD ADD MSTORE SWAP1 JUMP JUMPDEST PUSH1 0x0 DUP1 REVERT JUMPDEST PUSH1 0x0 JUMPDEST DUP4 DUP2 LT PUSH2 0xC28 JUMPI POP POP PUSH1 0x0 SWAP2 ADD MSTORE JUMP JUMPDEST DUP2 DUP2 ADD MLOAD DUP4 DUP3 ADD MSTORE PUSH1 0x20 ADD PUSH2 0xC18 JUMP JUMPDEST PUSH1 0x40 SWAP2 PUSH1 0x20 DUP3 MSTORE PUSH2 0xC58 DUP2 MLOAD DUP1 SWAP3 DUP2 PUSH1 0x20 DUP7 ADD MSTORE PUSH1 0x20 DUP7 DUP7 ADD SWAP2 ADD PUSH2 0xC15 JUMP JUMPDEST PUSH1 0x1F ADD PUSH1 0x1F NOT AND ADD ADD SWAP1 JUMP JUMPDEST SWAP1 PUSH1 0x40 PUSH1 0x3 NOT DUP4 ADD SLT PUSH2 0xC10 JUMPI PUSH1 0x4 CALLDATALOAD SWAP2 PUSH1 0x24 CALLDATALOAD SWAP1 PUSH1 0x1 PUSH1 0x1 PUSH1 0x40 SHL SUB DUP3 GT PUSH2 0xC10 JUMPI PUSH2 0xC93 SWAP2 PUSH1 0x4 ADD PUSH2 0xBC9 JUMP JUMPDEST SWAP1 JUMP JUMPDEST SWAP1 PUSH1 0x1 DUP3 DUP2 SHR SWAP3 AND DUP1 ISZERO PUSH2 0xCC6 JUMPI JUMPDEST PUSH1 0x20 DUP4 LT EQ PUSH2 0xCB0 JUMPI JUMP JUMPDEST PUSH4 0x4E487B71 PUSH1 0xE0 SHL PUSH1 0x0 MSTORE PUSH1 0x22 PUSH1 0x4 MSTORE PUSH1 0x24 PUSH1 0x0 REVERT JUMPDEST SWAP2 PUSH1 0x7F AND SWAP2 PUSH2 0xCA5 JUMP JUMPDEST SWAP1 PUSH1 0x40 MLOAD SWAP2 DUP3 PUSH1 0x0 DUP3 SLOAD PUSH2 0xCE3 DUP2 PUSH2 0xC96 JUMP JUMPDEST SWAP1 DUP2 DUP5 MSTORE PUSH1 0x20 SWAP5 PUSH1 0x1 SWAP2 PUSH1 0x1 DUP2 AND SWAP1 DUP2 PUSH1 0x0 EQ PUSH2 0xD53 JUMPI POP PUSH1 0x1 EQ PUSH2 0xD14 JUMPI JUMPDEST POP POP POP PUSH2 0xD12 SWAP3 POP SUB DUP4 PUSH2 0xB8D JUMP JUMPDEST JUMP JUMPDEST PUSH1 0x0 SWAP1 DUP2 MSTORE DUP6 DUP2 KECCAK256 SWAP6 SWAP4 POP SWAP2 SWAP1 JUMPDEST DUP2 DUP4 LT PUSH2 0xD3B JUMPI POP POP PUSH2 0xD12 SWAP4 POP DUP3 ADD ADD CODESIZE DUP1 DUP1 PUSH2 0xD03 JUMP JUMPDEST DUP6 SLOAD DUP9 DUP5 ADD DUP6 ADD MSTORE SWAP5 DUP6 ADD SWAP5 DUP8 SWAP5 POP SWAP2 DUP4 ADD SWAP2 PUSH2 0xD22 JUMP JUMPDEST SWAP3 POP POP POP PUSH2 0xD12 SWAP5 SWAP3 POP PUSH1 0xFF NOT AND DUP3 DUP5 ADD MSTORE ISZERO ISZERO PUSH1 0x5 SHL DUP3 ADD ADD CODESIZE DUP1 DUP1 PUSH2 0xD03 JUMP JUMPDEST SWAP1 DUP1 PUSH1 0x1F DUP4 ADD SLT ISZERO PUSH2 0xC10 JUMPI PUSH1 0x40 MLOAD SWAP2 PUSH2 0xD8E DUP4 PUSH2 0xB72 JUMP JUMPDEST PUSH1 0xA0 DUP2 ADD SWAP1 DUP4 DUP4 DUP4 GT PUSH2 0xC10 JUMPI DUP2 SWAP1 JUMPDEST DUP4 DUP3 LT PUSH2 0xDAD JUMPI POP POP POP POP POP SWAP1 JUMP JUMPDEST DUP2 CALLDATALOAD PUSH1 0x1 PUSH1 0x1 PUSH1 0x40 SHL SUB DUP2 GT PUSH2 0xC10 JUMPI PUSH1 0x20 SWAP2 PUSH2 0xDCD DUP8 DUP5 SWAP4 DUP8 ADD PUSH2 0xBC9 JUMP JUMPDEST DUP2 MSTORE ADD SWAP2 ADD SWAP1 PUSH2 0xD9E JUMP JUMPDEST ISZERO PUSH2 0xDDF JUMPI JUMP JUMPDEST PUSH1 0x40 MLOAD PUSH3 0x461BCD PUSH1 0xE5 SHL DUP2 MSTORE PUSH1 0x20 PUSH1 0x4 DUP3 ADD MSTORE PUSH1 0x14 PUSH1 0x24 DUP3 ADD MSTORE PUSH20 0x151BDAD95B88191BD95CC81B9BDD08195E1A5CDD PUSH1 0x62 SHL PUSH1 0x44 DUP3 ADD MSTORE PUSH1 0x64 SWAP1 REVERT JUMPDEST SWAP3 SWAP2 PUSH2 0xE31 SWAP1 PUSH1 0x1 PUSH1 0x1 PUSH1 0xA0 SHL SUB AND ISZERO ISZERO PUSH2 0xDD8 JUMP JUMPDEST PUSH1 0xFF PUSH1 0x20 SLOAD AND ISZERO PUSH2 0x10B9 JUMPI POP DUP2 PUSH1 0x0 MSTORE PUSH1 0x22 PUSH1 0x20 MSTORE PUSH2 0xE54 PUSH1 0x40 PUSH1 0x0 KECCAK256 SLOAD PUSH2 0xC96 JUMP JUMPDEST ISZERO PUSH2 0x1080 JUMPI DUP2 PUSH1 0x0 MSTORE PUSH1 0x23 PUSH1 0x20 MSTORE PUSH2 0xE70 PUSH1 0x40 PUSH1 0x0 KECCAK256 SLOAD PUSH2 0xC96 JUMP JUMPDEST ISZERO PUSH2 0x1044 JUMPI DUP2 PUSH1 0x0 MSTORE PUSH1 0x21 PUSH1 0x20 MSTORE PUSH1 0x40 PUSH1 0x0 KECCAK256 PUSH1 0x24 PUSH1 0x20 MSTORE PUSH1 0x40 PUSH1 0x0 KECCAK256 SLOAD PUSH1 0x22 PUSH1 0x20 MSTORE PUSH1 0x40 PUSH1 0x0 KECCAK256 SWAP1 PUSH1 0x23 PUSH1 0x20 MSTORE PUSH1 0x40 PUSH1 0x0 KECCAK256 SWAP1 PUSH1 0x40 MLOAD SWAP4 PUSH2 0xEB1 DUP6 PUSH2 0xB72 JUMP JUMPDEST PUSH1 0x1 PUSH1 0x0 DUP7 JUMPDEST PUSH1 0x5 DUP3 LT PUSH2 0x1027 JUMPI POP POP POP PUSH1 0x40 MLOAD SWAP4 PUSH2 0xECF DUP6 PUSH2 0xB72 JUMP JUMPDEST PUSH1 0x6 PUSH1 0x0 DUP7 JUMPDEST PUSH1 0x5 DUP3 LT PUSH2 0x100A JUMPI POP POP POP PUSH1 0x40 MLOAD PUSH2 0xEEC DUP2 PUSH2 0xB72 JUMP JUMPDEST PUSH1 0xB PUSH1 0x0 DUP3 JUMPDEST PUSH1 0x5 DUP3 LT PUSH2 0xFED JUMPI POP POP POP PUSH1 0x40 MLOAD SWAP2 PUSH2 0xF0A DUP4 PUSH2 0xB72 JUMP JUMPDEST PUSH1 0x10 PUSH1 0x0 DUP5 JUMPDEST PUSH1 0x5 DUP3 LT PUSH2 0xFD0 JUMPI POP POP POP PUSH2 0xF71 PUSH2 0xF77 SWAP2 PUSH1 0xFF PUSH1 0x40 MLOAD SWAP7 PUSH2 0xF31 DUP9 PUSH2 0xB41 JUMP JUMPDEST SLOAD DUP2 DUP2 AND DUP9 MSTORE DUP2 DUP2 PUSH1 0x8 SHR AND PUSH1 0x20 DUP10 ADD MSTORE DUP2 DUP2 PUSH1 0x10 SHR AND PUSH1 0x40 DUP10 ADD MSTORE DUP2 DUP2 PUSH1 0x18 SHR AND PUSH1 0x60 DUP10 ADD MSTORE DUP2 DUP2 PUSH1 0x20 SHR AND PUSH1 0x80 DUP10 ADD MSTORE PUSH1 0x28 SHR AND PUSH1 0xA0 DUP8 ADD MSTORE PUSH2 0xCD0 JUMP JUMPDEST SWAP6 PUSH2 0xCD0 JUMP JUMPDEST SWAP6 PUSH1 0x40 MLOAD SWAP8 PUSH2 0x160 DUP10 ADD DUP10 DUP2 LT PUSH1 0x1 PUSH1 0x1 PUSH1 0x40 SHL SUB DUP3 GT OR PUSH2 0xB5C JUMPI PUSH1 0x40 MSTORE PUSH1 0x15 SWAP11 PUSH1 0x0 DUP11 JUMPDEST PUSH1 0xB DUP3 LT PUSH2 0xFB2 JUMPI POP POP PUSH2 0xC93 SWAP11 SWAP12 POP PUSH2 0x1135 JUMP JUMPDEST PUSH1 0x1 PUSH1 0x20 DUP16 SWAP3 PUSH2 0xFC2 DUP4 SWAP5 PUSH2 0xCD0 JUMP JUMPDEST DUP2 MSTORE ADD SWAP15 ADD SWAP2 ADD SWAP1 SWAP13 PUSH2 0xF9D JUMP JUMPDEST PUSH1 0x1 PUSH1 0x20 DUP2 SWAP3 PUSH2 0xFDF DUP7 PUSH2 0xCD0 JUMP JUMPDEST DUP2 MSTORE ADD SWAP4 ADD SWAP2 ADD SWAP1 SWAP2 PUSH2 0xF10 JUMP JUMPDEST PUSH1 0x1 PUSH1 0x20 DUP2 SWAP3 PUSH2 0xFFC DUP7 PUSH2 0xCD0 JUMP JUMPDEST DUP2 MSTORE ADD SWAP4 ADD SWAP2 ADD SWAP1 SWAP2 PUSH2 0xEF2 JUMP JUMPDEST PUSH1 0x1 PUSH1 0x20 DUP2 SWAP3 PUSH2 0x1019 DUP7 PUSH2 0xCD0 JUMP JUMPDEST DUP2 MSTORE ADD SWAP4 ADD SWAP2 ADD SWAP1 SWAP2 PUSH2 0xED5 JUMP JUMPDEST PUSH1 0x1 PUSH1 0x20 DUP2 SWAP3 PUSH2 0x1036 DUP7 PUSH2 0xCD0 JUMP JUMPDEST DUP2 MSTORE ADD SWAP4 ADD SWAP2 ADD SWAP1 SWAP2 PUSH2 0xEB7 JUMP JUMPDEST PUSH1 0x40 MLOAD PUSH3 0x461BCD PUSH1 0xE5 SHL DUP2 MSTORE PUSH1 0x20 PUSH1 0x4 DUP3 ADD MSTORE PUSH1 0x14 PUSH1 0x24 DUP3 ADD MSTORE PUSH20 0x15D85D99599BDC9B48155492481B9BDD081CD95D PUSH1 0x62 SHL PUSH1 0x44 DUP3 ADD MSTORE PUSH1 0x64 SWAP1 REVERT JUMPDEST PUSH1 0x40 MLOAD PUSH3 0x461BCD PUSH1 0xE5 SHL DUP2 MSTORE PUSH1 0x20 PUSH1 0x4 DUP3 ADD MSTORE PUSH1 0x11 PUSH1 0x24 DUP3 ADD MSTORE PUSH17 0x105D591A5BC8155492481B9BDD081CD95D PUSH1 0x7A SHL PUSH1 0x44 DUP3 ADD MSTORE PUSH1 0x64 SWAP1 REVERT JUMPDEST SWAP2 POP JUMP JUMPDEST ISZERO PUSH2 0x10C4 JUMPI JUMP JUMPDEST PUSH1 0x40 MLOAD PUSH3 0x461BCD PUSH1 0xE5 SHL DUP2 MSTORE PUSH1 0x20 PUSH1 0x4 DUP3 ADD MSTORE PUSH1 0x11 PUSH1 0x24 DUP3 ADD MSTORE PUSH17 0x52657665616C206E6F7420616374697665 PUSH1 0x78 SHL PUSH1 0x44 DUP3 ADD MSTORE PUSH1 0x64 SWAP1 REVERT JUMPDEST SWAP1 PUSH1 0x5 DUP2 LT ISZERO PUSH2 0x110E JUMPI PUSH1 0x5 SHL ADD SWAP1 JUMP JUMPDEST PUSH4 0x4E487B71 PUSH1 0xE0 SHL PUSH1 0x0 MSTORE PUSH1 0x32 PUSH1 0x4 MSTORE PUSH1 0x24 PUSH1 0x0 REVERT JUMPDEST SWAP1 PUSH1 0xB DUP2 LT ISZERO PUSH2 0x110E JUMPI PUSH1 0x5 SHL ADD SWAP1 JUMP JUMPDEST SWAP1 SWAP3 SWAP5 SWAP4 SWAP7 SWAP9 SWAP8 SWAP2 SWAP9 PUSH1 0xE0 MSTORE PUSH2 0x114A SWAP1 PUSH2 0x1854 JUMP JUMPDEST PUSH1 0xA0 MSTORE DUP3 MLOAD PUSH1 0xFF AND PUSH2 0x115C SWAP1 DUP4 PUSH2 0x10FD JUMP JUMPDEST MLOAD SWAP7 PUSH1 0x20 DUP5 ADD MLOAD PUSH1 0xFF AND PUSH2 0x1170 SWAP1 DUP11 PUSH2 0x10FD JUMP JUMPDEST MLOAD PUSH1 0x40 DUP6 ADD MLOAD PUSH1 0xFF AND PUSH2 0x1183 SWAP1 DUP8 PUSH2 0x10FD JUMP JUMPDEST MLOAD PUSH1 0x60 DUP7 ADD MLOAD PUSH1 0xFF AND PUSH2 0x1196 SWAP1 DUP11 PUSH2 0x10FD JUMP JUMPDEST MLOAD SWAP1 PUSH1 0x80 DUP8 ADD MLOAD PUSH1 0xFF AND PUSH2 0x11AA SWAP1 DUP6 PUSH2 0x1124 JUMP JUMPDEST MLOAD SWAP3 PUSH1 0xA0 DUP9 ADD MLOAD PUSH1 0xFF AND PUSH2 0x11BE SWAP1 DUP7 PUSH2 0x1124 JUMP JUMPDEST MLOAD SWAP5 PUSH2 0x11C9 DUP12 PUSH2 0x1854 JUMP JUMPDEST SWAP8 DUP10 MLOAD PUSH1 0xFF AND PUSH2 0x11D8 SWAP2 PUSH2 0x10FD JUMP JUMPDEST MLOAD SWAP14 PUSH1 0x20 DUP11 ADD MLOAD PUSH1 0xFF AND PUSH2 0x11EB SWAP2 PUSH2 0x10FD JUMP JUMPDEST MLOAD SWAP10 PUSH1 0x40 DUP11 ADD MLOAD PUSH1 0xFF AND PUSH2 0x11FE SWAP2 PUSH2 0x10FD JUMP JUMPDEST MLOAD SWAP12 PUSH1 0x60 DUP11 ADD MLOAD PUSH1 0xFF AND PUSH2 0x1211 SWAP2 PUSH2 0x10FD JUMP JUMPDEST MLOAD PUSH1 0x80 MSTORE PUSH1 0x80 DUP10 ADD MLOAD PUSH1 0xFF AND PUSH2 0x1227 SWAP1 DUP3 PUSH2 0x1124 JUMP JUMPDEST MLOAD SWAP9 PUSH1 0xA0 ADD MLOAD PUSH1 0xFF AND PUSH2 0x1239 SWAP2 PUSH2 0x1124 JUMP JUMPDEST MLOAD SWAP10 PUSH2 0x1244 SWAP1 PUSH2 0x1854 JUMP JUMPDEST SWAP12 PUSH1 0x40 MLOAD PUSH1 0xC0 MSTORE PUSH1 0xC0 MLOAD PUSH1 0x20 ADD PUSH32 0x7B226E616D65223A22417065426561747347656E657369732023000000000000 SWAP1 MSTORE PUSH1 0xA0 MLOAD MLOAD PUSH1 0xC0 MLOAD PUSH1 0x3A ADD DUP2 PUSH1 0xA0 MLOAD PUSH1 0x20 ADD SWAP2 PUSH2 0x128F SWAP3 PUSH2 0xC15 JUMP JUMPDEST PUSH1 0xC0 MLOAD ADD SWAP7 PUSH2 0x88B PUSH1 0xF2 SHL SWAP8 DUP9 PUSH1 0x3A DUP3 ADD MSTORE PUSH1 0x3C DUP2 ADD PUSH32 0x226465736372697074696F6E223A22556E6971756520617564696F2D76697375 SWAP1 MSTORE PUSH8 0x185B08139195088B PUSH1 0xC2 SHL PUSH1 0x5C DUP3 ADD MSTORE PUSH9 0x1134B6B0B3B2911D11 PUSH1 0xB9 SHL PUSH1 0x64 DUP3 ADD MSTORE DUP2 MLOAD SWAP2 DUP3 PUSH1 0x6D DUP4 ADD SWAP2 PUSH1 0x20 ADD SWAP2 PUSH2 0x1301 SWAP3 PUSH2 0xC15 JUMP JUMPDEST ADD DUP8 PUSH1 0x6D DUP3 ADD MSTORE PUSH17 0x1130B734B6B0BA34B7B72FBAB936111D11 PUSH1 0x79 SHL PUSH1 0x6F DUP3 ADD MSTORE PUSH1 0xE0 MLOAD MLOAD SWAP1 PUSH1 0x80 DUP2 ADD DUP3 PUSH1 0xE0 MLOAD PUSH1 0x20 ADD SWAP2 PUSH2 0x133C SWAP3 PUSH2 0xC15 JUMP JUMPDEST ADD PUSH1 0x80 DUP2 ADD DUP9 SWAP1 MSTORE PUSH16 0x226F6E636861696E5F64617461223A7B PUSH1 0x80 SHL PUSH1 0x82 DUP3 ADD MSTORE PUSH8 0x113130B9B9911D11 PUSH1 0xC1 SHL PUSH1 0x92 DUP3 ADD MSTORE DUP2 MLOAD SWAP2 PUSH2 0x1384 SWAP1 DUP4 SWAP1 PUSH1 0x9A DUP5 ADD SWAP1 PUSH1 0x20 ADD PUSH2 0xC15 JUMP JUMPDEST ADD DUP7 PUSH1 0x9A DUP3 ADD MSTORE PUSH9 0x1132393AB6B9911D11 PUSH1 0xB9 SHL PUSH1 0x9C DUP3 ADD MSTORE DUP2 MLOAD SWAP2 DUP3 PUSH1 0xA5 DUP4 ADD SWAP2 PUSH1 0x20 ADD SWAP2 PUSH2 0x13B3 SWAP3 PUSH2 0xC15 JUMP JUMPDEST ADD DUP6 PUSH1 0xA5 DUP3 ADD MSTORE PUSH10 0x1136B2B637B23C911D11 PUSH1 0xB1 SHL PUSH1 0xA7 DUP3 ADD MSTORE DUP2 MLOAD SWAP2 DUP3 PUSH1 0xB1 DUP4 ADD SWAP2 PUSH1 0x20 ADD SWAP2 PUSH2 0x13E3 SWAP3 PUSH2 0xC15 JUMP JUMPDEST ADD DUP5 PUSH1 0xB1 DUP3 ADD MSTORE PUSH6 0x11333C111D11 PUSH1 0xD1 SHL PUSH1 0xB3 DUP3 ADD MSTORE DUP2 MLOAD SWAP2 DUP3 PUSH1 0xB9 DUP4 ADD SWAP2 PUSH1 0x20 ADD SWAP2 PUSH2 0x140F SWAP3 PUSH2 0xC15 JUMP JUMPDEST ADD DUP4 PUSH1 0xB9 DUP3 ADD MSTORE PUSH14 0x113BB0BB32AFB1B7B637B9111D11 PUSH1 0x91 SHL PUSH1 0xBB DUP3 ADD MSTORE DUP2 MLOAD SWAP2 DUP3 PUSH1 0xC9 DUP4 ADD SWAP2 PUSH1 0x20 ADD SWAP2 PUSH2 0x1443 SWAP3 PUSH2 0xC15 JUMP JUMPDEST ADD DUP3 PUSH1 0xC9 DUP3 ADD MSTORE PUSH12 0x113133AFB1B7B637B9111D11 PUSH1 0xA1 SHL PUSH1 0xCB DUP3 ADD MSTORE DUP2 MLOAD SWAP2 DUP3 PUSH1 0xD7 DUP4 ADD SWAP2 PUSH1 0x20 ADD SWAP2 PUSH2 0x1475 SWAP3 PUSH2 0xC15 JUMP JUMPDEST ADD SWAP1 PUSH1 0xD7 DUP3 ADD MSTORE PUSH10 0x113930B934BA3C911D11 PUSH1 0xB1 SHL PUSH1 0xD9 DUP3 ADD MSTORE DUP2 MLOAD SWAP2 DUP3 PUSH1 0xE3 DUP4 ADD SWAP2 PUSH1 0x20 ADD SWAP2 PUSH2 0x14A5 SWAP3 PUSH2 0xC15 JUMP JUMPDEST PUSH1 0x11 PUSH1 0xF9 SHL PUSH1 0xE3 SWAP3 SWAP1 SWAP2 ADD SWAP2 DUP3 ADD MSTORE PUSH2 0x1F4B PUSH1 0xF2 SHL PUSH1 0xE4 DUP3 ADD MSTORE PUSH32 0x2261747472696275746573223A5B7B2274726169745F74797065223A22426173 PUSH1 0xE6 DUP3 ADD MSTORE PUSH12 0x399116113B30B63AB2911D11 PUSH1 0xA1 SHL PUSH2 0x106 DUP3 ADD MSTORE DUP7 MLOAD PUSH2 0x112 SWAP8 SWAP1 SWAP2 SWAP1 PUSH2 0x1516 SWAP1 DUP4 SWAP1 DUP11 DUP5 ADD SWAP1 PUSH1 0x20 ADD PUSH2 0xC15 JUMP JUMPDEST ADD SWAP6 PUSH3 0x89F4B PUSH1 0xEA SHL SWAP5 DUP6 DUP1 SWAP5 DUP2 DUP1 SWAP5 DUP12 ADD MSTORE PUSH2 0x115 DUP11 ADD PUSH32 0x7B2274726169745F74797065223A224472756D73222C2276616C7565223A2200 SWAP1 MSTORE PUSH2 0x134 SWAP10 DUP2 MLOAD SWAP2 DUP3 DUP13 DUP4 ADD SWAP2 PUSH1 0x20 ADD SWAP2 PUSH2 0x156A SWAP3 PUSH2 0xC15 JUMP JUMPDEST ADD SWAP9 DUP10 ADD MSTORE PUSH2 0x137 DUP9 ADD PUSH32 0x7B2274726169745F74797065223A224D656C6F6479222C2276616C7565223A22 SWAP1 MSTORE PUSH2 0x157 SWAP8 DUP2 MLOAD SWAP2 DUP3 DUP11 DUP4 ADD SWAP2 PUSH1 0x20 ADD SWAP2 PUSH2 0x15B0 SWAP3 PUSH2 0xC15 JUMP JUMPDEST ADD SWAP7 DUP8 ADD MSTORE PUSH32 0x7B2274726169745F74797065223A224658222C2276616C7565223A2200000000 PUSH2 0x15A DUP8 ADD MSTORE PUSH1 0x80 MLOAD DUP1 MLOAD PUSH2 0x176 SWAP8 DUP5 SWAP3 PUSH2 0x15F9 SWAP1 DUP4 SWAP1 DUP12 DUP5 ADD SWAP1 PUSH1 0x20 ADD PUSH2 0xC15 JUMP JUMPDEST ADD SWAP7 DUP8 ADD MSTORE PUSH32 0x7B2274726169745F74797065223A225761766520436F6C6F72222C2276616C75 PUSH2 0x179 DUP8 ADD MSTORE PUSH4 0x32911D11 PUSH1 0xE1 SHL PUSH2 0x199 DUP8 ADD MSTORE DUP1 MLOAD PUSH2 0x19D SWAP7 SWAP1 SWAP2 PUSH2 0x164D SWAP1 DUP4 SWAP1 DUP10 DUP5 ADD SWAP1 PUSH1 0x20 ADD PUSH2 0xC15 JUMP JUMPDEST ADD SWAP5 DUP6 ADD MSTORE PUSH32 0x7B2274726169745F74797065223A224261636B67726F756E6420436F6C6F7222 PUSH2 0x1A0 DUP6 ADD MSTORE PUSH10 0x16113B30B63AB2911D11 PUSH1 0xB1 SHL PUSH2 0x1C0 DUP6 ADD MSTORE DUP1 MLOAD PUSH2 0x1CA SWAP5 SWAP1 SWAP2 PUSH2 0x16A7 SWAP1 DUP4 SWAP1 DUP8 DUP5 ADD SWAP1 PUSH1 0x20 ADD PUSH2 0xC15 JUMP JUMPDEST ADD SWAP3 DUP4 ADD MSTORE PUSH32 0x7B2274726169745F74797065223A225261726974792053636F7265222C227661 PUSH2 0x1CD DUP4 ADD MSTORE PUSH6 0x363AB2911D11 PUSH1 0xD1 SHL PUSH2 0x1ED DUP4 ADD MSTORE DUP1 MLOAD PUSH2 0x1F3 SWAP3 SWAP1 SWAP2 PUSH2 0x16FD SWAP1 DUP4 SWAP1 DUP6 DUP5 ADD SWAP1 PUSH1 0x20 ADD PUSH2 0xC15 JUMP JUMPDEST ADD SWAP1 PUSH4 0x227D5D7D PUSH1 0xE0 SHL SWAP1 DUP3 ADD MSTORE PUSH1 0xC0 MLOAD SWAP1 SUB PUSH2 0x1D7 DUP2 ADD PUSH1 0xC0 MLOAD MSTORE PUSH2 0x1F7 ADD PUSH1 0xC0 MLOAD SWAP1 PUSH2 0x172A SWAP2 PUSH2 0xB8D JUMP JUMPDEST PUSH1 0x40 MLOAD PUSH1 0x60 DUP2 ADD SWAP1 DUP1 DUP3 LT PUSH1 0x1 PUSH1 0x1 PUSH1 0x40 SHL SUB DUP4 GT OR PUSH2 0xB5C JUMPI PUSH2 0x17A3 SWAP2 PUSH1 0x40 MSTORE PUSH1 0x40 DUP2 MSTORE PUSH32 0x4142434445464748494A4B4C4D4E4F505152535455565758595A616263646566 PUSH1 0x20 DUP3 ADD MSTORE PUSH32 0x6768696A6B6C6D6E6F707172737475767778797A303132333435363738392B2F PUSH1 0x40 DUP3 ADD MSTORE PUSH1 0xC0 MLOAD PUSH2 0x1998 JUMP JUMPDEST PUSH2 0xC93 PUSH1 0x3D PUSH1 0x40 MLOAD DUP1 SWAP4 PUSH32 0x646174613A6170706C69636174696F6E2F6A736F6E3B6261736536342C000000 PUSH1 0x20 DUP4 ADD MSTORE PUSH2 0x17E6 DUP2 MLOAD DUP1 SWAP3 PUSH1 0x20 DUP7 DUP7 ADD SWAP2 ADD PUSH2 0xC15 JUMP JUMPDEST DUP2 ADD SUB PUSH1 0x1D DUP2 ADD DUP5 MSTORE ADD DUP3 PUSH2 0xB8D JUMP JUMPDEST PUSH1 0x0 SLOAD PUSH1 0x1 PUSH1 0x1 PUSH1 0xA0 SHL SUB AND CALLER SUB PUSH2 0x180A JUMPI JUMP JUMPDEST PUSH1 0x40 MLOAD PUSH4 0x118CDAA7 PUSH1 0xE0 SHL DUP2 MSTORE CALLER PUSH1 0x4 DUP3 ADD MSTORE PUSH1 0x24 SWAP1 REVERT JUMPDEST SWAP1 PUSH2 0x182C DUP3 PUSH2 0xBAE JUMP JUMPDEST PUSH2 0x1839 PUSH1 0x40 MLOAD SWAP2 DUP3 PUSH2 0xB8D JUMP JUMPDEST DUP3 DUP2 MSTORE DUP1 SWAP3 PUSH2 0x184A PUSH1 0x1F NOT SWAP2 PUSH2 0xBAE JUMP JUMPDEST ADD SWAP1 PUSH1 0x20 CALLDATASIZE SWAP2 ADD CALLDATACOPY JUMP JUMPDEST DUP1 PUSH1 0x0 SWAP2 PUSH27 0x184F03E93FF9F4DAA797ED6E38ED64BF6A1F010000000000000000 DUP1 DUP3 LT ISZERO PUSH2 0x198A JUMPI JUMPDEST POP PUSH14 0x4EE2D6D415B85ACEF8100000000 DUP1 DUP4 LT ISZERO PUSH2 0x197B JUMPI JUMPDEST POP PUSH7 0x2386F26FC10000 DUP1 DUP4 LT ISZERO PUSH2 0x196C JUMPI JUMPDEST POP PUSH4 0x5F5E100 DUP1 DUP4 LT ISZERO PUSH2 0x195D JUMPI JUMPDEST POP PUSH2 0x2710 DUP1 DUP4 LT ISZERO PUSH2 0x194E JUMPI JUMPDEST POP PUSH1 0x64 DUP3 LT ISZERO PUSH2 0x193E JUMPI JUMPDEST PUSH1 0xA DUP1 SWAP3 LT ISZERO PUSH2 0x1934 JUMPI JUMPDEST PUSH1 0x1 SWAP1 DUP2 PUSH1 0x21 PUSH2 0x18EC PUSH1 0x1 DUP8 ADD PUSH2 0x1822 JUMP JUMPDEST SWAP6 DUP7 ADD ADD SWAP1 JUMPDEST PUSH2 0x18FE JUMPI JUMPDEST POP POP POP POP SWAP1 JUMP JUMPDEST PUSH1 0x0 NOT ADD SWAP1 DUP4 SWAP1 PUSH16 0x181899199A1A9B1B9C1CB0B131B232B3 PUSH1 0x81 SHL DUP3 DUP3 MOD BYTE DUP4 MSTORE8 DIV SWAP2 DUP3 ISZERO PUSH2 0x192F JUMPI SWAP2 SWAP1 DUP3 PUSH2 0x18F2 JUMP JUMPDEST PUSH2 0x18F7 JUMP JUMPDEST SWAP2 PUSH1 0x1 ADD SWAP2 PUSH2 0x18DA JUMP JUMPDEST SWAP2 SWAP1 PUSH1 0x64 PUSH1 0x2 SWAP2 DIV SWAP2 ADD SWAP2 PUSH2 0x18CF JUMP JUMPDEST PUSH1 0x4 SWAP2 SWAP4 SWAP3 DIV SWAP2 ADD SWAP2 CODESIZE PUSH2 0x18C4 JUMP JUMPDEST PUSH1 0x8 SWAP2 SWAP4 SWAP3 DIV SWAP2 ADD SWAP2 CODESIZE PUSH2 0x18B7 JUMP JUMPDEST PUSH1 0x10 SWAP2 SWAP4 SWAP3 DIV SWAP2 ADD SWAP2 CODESIZE PUSH2 0x18A8 JUMP JUMPDEST PUSH1 0x20 SWAP2 SWAP4 SWAP3 DIV SWAP2 ADD SWAP2 CODESIZE PUSH2 0x1896 JUMP JUMPDEST PUSH1 0x40 SWAP4 POP DUP2 DIV SWAP2 POP CODESIZE PUSH2 0x187D JUMP JUMPDEST SWAP2 SWAP1 SWAP2 DUP1 MLOAD ISZERO PUSH2 0x1A9B JUMPI DUP1 MLOAD SWAP3 PUSH1 0x2 SWAP2 PUSH1 0x2 DUP6 ADD DUP1 SWAP6 GT PUSH2 0x1A85 JUMPI PUSH1 0x3 SWAP5 DUP6 SWAP1 DIV PUSH1 0x1 PUSH1 0x1 PUSH1 0xFE SHL SUB DUP2 AND DUP2 SUB PUSH2 0x1A85 JUMPI PUSH2 0x19D8 SWAP1 PUSH1 0x2 SWAP7 SWAP5 SWAP7 SHL PUSH2 0x1822 JUMP JUMPDEST SWAP3 PUSH1 0x20 DUP5 ADD SWAP3 DUP3 SWAP2 DUP4 MLOAD DUP5 ADD SWAP8 PUSH1 0x20 DUP10 ADD SWAP3 DUP4 MLOAD SWAP5 PUSH1 0x0 DUP6 MSTORE JUMPDEST DUP11 DUP2 LT PUSH2 0x1A38 JUMPI POP POP POP POP PUSH1 0x3 SWAP4 SWAP5 SWAP6 SWAP7 POP MSTORE MLOAD MOD DUP1 PUSH1 0x1 EQ PUSH2 0x1A25 JUMPI PUSH1 0x2 EQ PUSH2 0x1A1A JUMPI POP SWAP1 JUMP JUMPDEST PUSH1 0x3D SWAP1 PUSH1 0x0 NOT ADD MSTORE8 SWAP1 JUMP JUMPDEST POP PUSH1 0x3D SWAP1 DUP2 PUSH1 0x0 NOT DUP3 ADD MSTORE8 PUSH1 0x1 NOT ADD MSTORE8 SWAP1 JUMP JUMPDEST DUP4 PUSH1 0x4 SWAP2 SWAP12 SWAP9 SWAP12 ADD SWAP11 DUP12 MLOAD PUSH1 0x1 SWAP1 PUSH1 0x3F SWAP1 DUP3 DUP3 DUP3 PUSH1 0x12 SHR AND DUP8 ADD ADD MLOAD DUP5 MSTORE8 DUP3 DUP3 DUP3 PUSH1 0xC SHR AND DUP8 ADD ADD MLOAD DUP4 DUP6 ADD MSTORE8 DUP3 DUP3 DUP3 PUSH1 0x6 SHR AND DUP8 ADD ADD MLOAD DUP8 DUP6 ADD MSTORE8 AND DUP5 ADD ADD MLOAD DUP6 DUP3 ADD MSTORE8 ADD SWAP7 SWAP10 PUSH2 0x19F2 JUMP JUMPDEST PUSH4 0x4E487B71 PUSH1 0xE0 SHL PUSH1 0x0 MSTORE PUSH1 0x11 PUSH1 0x4 MSTORE PUSH1 0x24 PUSH1 0x0 REVERT JUMPDEST POP SWAP1 POP PUSH1 0x40 MLOAD PUSH1 0x20 DUP2 ADD DUP2 DUP2 LT PUSH1 0x1 PUSH1 0x1 PUSH1 0x40 SHL SUB DUP3 GT OR PUSH2 0xB5C JUMPI PUSH1 0x40 MSTORE PUSH1 0x0 DUP2 MSTORE SWAP1 JUMP INVALID LOG2 PUSH5 0x6970667358 0x22 SLT KECCAK256 STATICCALL SHL DUP16 RETURNDATACOPY LOG1 PUSH5 0xFEC6D409E2 EXP 0x2B 0xFC CALLDATASIZE MSTORE CODESIZE MULMOD MLOAD PUSH15 0x445052CD5269CD6EA846579564736F PUSH13 0x63430008180033000000000000 "},"methodIdentifiers":{"COLORS(uint256)":"857a6f5b","bassLoops(uint256)":"6ad81c74","drumLoops(uint256)":"5ac93a0a","fxLoops(uint256)":"4dfa177f","getRevealedURI(uint256,string[5],string[5],string[5],string[5],(uint8,uint8,uint8,uint8,uint8,uint8),uint256,string,string,string[11])":"ac577140","getTokenURI(uint256,string,address)":"09aafb61","melodyLoops(uint256)":"ab95081d","mixedAudioURIs(uint256)":"c0aa14b6","owner()":"8da5cb5b","rarityScore(uint256)":"a5573bd0","renounceOwnership()":"715018a6","reveal(uint256,address)":"bfb70e04","revealed()":"51830227","setMixedAudioURI(uint256,string)":"0fb51ac4","setRevealed(bool)":"e0a80853","setWaveformURI(uint256,string)":"7d330cdd","transferOwnership(address)":"f2fde38b","waveData(uint256)":"32dbd609","waveformURIs(uint256)":"1e4f8beb"}}}}}