{"contracts/ApeBeatsGenesis.sol":{"ApeBeatsGenesis":{"abi":[{"inputs":[],"stateMutability":"nonpayable","type":"constructor"},{"inputs":[{"internalType":"uint256","name":"numerator","type":"uint256"},{"internalType":"uint256","name":"denominator","type":"uint256"}],"name":"ERC2981InvalidDefaultRoyalty","type":"error"},{"inputs":[{"internalType":"address","name":"receiver","type":"address"}],"name":"ERC2981InvalidDefaultRoyaltyReceiver","type":"error"},{"inputs":[{"internalType":"uint256","name":"tokenId","type":"uint256"},{"internalType":"uint256","name":"numerator","type":"uint256"},{"internalType":"uint256","name":"denominator","type":"uint256"}],"name":"ERC2981InvalidTokenRoyalty","type":"error"},{"inputs":[{"internalType":"uint256","name":"tokenId","type":"uint256"},{"internalType":"address","name":"receiver","type":"address"}],"name":"ERC2981InvalidTokenRoyaltyReceiver","type":"error"},{"inputs":[{"internalType":"address","name":"sender","type":"address"},{"internalType":"uint256","name":"tokenId","type":"uint256"},{"internalType":"address","name":"owner","type":"address"}],"name":"ERC721IncorrectOwner","type":"error"},{"inputs":[{"internalType":"address","name":"operator","type":"address"},{"internalType":"uint256","name":"tokenId","type":"uint256"}],"name":"ERC721InsufficientApproval","type":"error"},{"inputs":[{"internalType":"address","name":"approver","type":"address"}],"name":"ERC721InvalidApprover","type":"error"},{"inputs":[{"internalType":"address","name":"operator","type":"address"}],"name":"ERC721InvalidOperator","type":"error"},{"inputs":[{"internalType":"address","name":"owner","type":"address"}],"name":"ERC721InvalidOwner","type":"error"},{"inputs":[{"internalType":"address","name":"receiver","type":"address"}],"name":"ERC721InvalidReceiver","type":"error"},{"inputs":[{"internalType":"address","name":"sender","type":"address"}],"name":"ERC721InvalidSender","type":"error"},{"inputs":[{"internalType":"uint256","name":"tokenId","type":"uint256"}],"name":"ERC721NonexistentToken","type":"error"},{"inputs":[],"name":"InvalidInitialization","type":"error"},{"inputs":[],"name":"NotInitializing","type":"error"},{"inputs":[{"internalType":"address","name":"owner","type":"address"}],"name":"OwnableInvalidOwner","type":"error"},{"inputs":[{"internalType":"address","name":"account","type":"address"}],"name":"OwnableUnauthorizedAccount","type":"error"},{"inputs":[],"name":"ReentrancyGuardReentrantCall","type":"error"},{"anonymous":false,"inputs":[{"indexed":true,"internalType":"address","name":"owner","type":"address"},{"indexed":true,"internalType":"address","name":"approved","type":"address"},{"indexed":true,"internalType":"uint256","name":"tokenId","type":"uint256"}],"name":"Approval","type":"event"},{"anonymous":false,"inputs":[{"indexed":true,"internalType":"address","name":"owner","type":"address"},{"indexed":true,"internalType":"address","name":"operator","type":"address"},{"indexed":false,"internalType":"bool","name":"approved","type":"bool"}],"name":"ApprovalForAll","type":"event"},{"anonymous":false,"inputs":[{"indexed":false,"internalType":"uint64","name":"version","type":"uint64"}],"name":"Initialized","type":"event"},{"anonymous":false,"inputs":[{"indexed":true,"internalType":"address","name":"to","type":"address"},{"indexed":true,"internalType":"uint256","name":"tokenId","type":"uint256"}],"name":"Minted","type":"event"},{"anonymous":false,"inputs":[{"indexed":true,"internalType":"address","name":"previousOwner","type":"address"},{"indexed":true,"internalType":"address","name":"newOwner","type":"address"}],"name":"OwnershipTransferred","type":"event"},{"anonymous":false,"inputs":[{"indexed":true,"internalType":"address","name":"from","type":"address"},{"indexed":true,"internalType":"address","name":"to","type":"address"},{"indexed":true,"internalType":"uint256","name":"tokenId","type":"uint256"}],"name":"Transfer","type":"event"},{"inputs":[],"name":"FCFS_DURATION","outputs":[{"internalType":"uint256","name":"","type":"uint256"}],"stateMutability":"view","type":"function"},{"inputs":[],"name":"FCFS_MAX_PER_WALLET","outputs":[{"internalType":"uint256","name":"","type":"uint256"}],"stateMutability":"view","type":"function"},{"inputs":[],"name":"FCFS_PRICE","outputs":[{"internalType":"uint256","name":"","type":"uint256"}],"stateMutability":"view","type":"function"},{"inputs":[],"name":"FOUNDER_MINT_AMOUNT","outputs":[{"internalType":"uint256","name":"","type":"uint256"}],"stateMutability":"view","type":"function"},{"inputs":[],"name":"GTD_DURATION","outputs":[{"internalType":"uint256","name":"","type":"uint256"}],"stateMutability":"view","type":"function"},{"inputs":[],"name":"GTD_MAX_PER_WALLET","outputs":[{"internalType":"uint256","name":"","type":"uint256"}],"stateMutability":"view","type":"function"},{"inputs":[],"name":"GTD_MINT_AMOUNT","outputs":[{"internalType":"uint256","name":"","type":"uint256"}],"stateMutability":"view","type":"function"},{"inputs":[],"name":"GTD_PRICE","outputs":[{"internalType":"uint256","name":"","type":"uint256"}],"stateMutability":"view","type":"function"},{"inputs":[],"name":"PUBLIC_MAX_PER_WALLET","outputs":[{"internalType":"uint256","name":"","type":"uint256"}],"stateMutability":"view","type":"function"},{"inputs":[],"name":"PUBLIC_PRICE","outputs":[{"internalType":"uint256","name":"","type":"uint256"}],"stateMutability":"view","type":"function"},{"inputs":[],"name":"ROYALTY_BASIS_POINTS","outputs":[{"internalType":"uint96","name":"","type":"uint96"}],"stateMutability":"view","type":"function"},{"inputs":[],"name":"TOTAL_SUPPLY","outputs":[{"internalType":"uint256","name":"","type":"uint256"}],"stateMutability":"view","type":"function"},{"inputs":[{"internalType":"address","name":"to","type":"address"},{"internalType":"uint256","name":"tokenId","type":"uint256"}],"name":"approve","outputs":[],"stateMutability":"nonpayable","type":"function"},{"inputs":[{"internalType":"address","name":"owner","type":"address"}],"name":"balanceOf","outputs":[{"internalType":"uint256","name":"","type":"uint256"}],"stateMutability":"view","type":"function"},{"inputs":[],"name":"claimPoolRoyalties","outputs":[],"stateMutability":"nonpayable","type":"function"},{"inputs":[],"name":"claimRoyalties","outputs":[],"stateMutability":"nonpayable","type":"function"},{"inputs":[],"name":"delegateRegistry","outputs":[{"internalType":"contract IDelegateRegistry","name":"","type":"address"}],"stateMutability":"view","type":"function"},{"inputs":[],"name":"fcfsMerkleRoot","outputs":[{"internalType":"bytes32","name":"","type":"bytes32"}],"stateMutability":"view","type":"function"},{"inputs":[],"name":"fcfsMintStart","outputs":[{"internalType":"uint256","name":"","type":"uint256"}],"stateMutability":"view","type":"function"},{"inputs":[],"name":"founder","outputs":[{"internalType":"address","name":"","type":"address"}],"stateMutability":"view","type":"function"},{"inputs":[],"name":"founderMintStart","outputs":[{"internalType":"uint256","name":"","type":"uint256"}],"stateMutability":"view","type":"function"},{"inputs":[],"name":"founderMinted","outputs":[{"internalType":"uint256","name":"","type":"uint256"}],"stateMutability":"view","type":"function"},{"inputs":[{"internalType":"uint256","name":"tokenId","type":"uint256"}],"name":"getApproved","outputs":[{"internalType":"address","name":"","type":"address"}],"stateMutability":"view","type":"function"},{"inputs":[],"name":"gtdMerkleRoot","outputs":[{"internalType":"bytes32","name":"","type":"bytes32"}],"stateMutability":"view","type":"function"},{"inputs":[],"name":"gtdMintStart","outputs":[{"internalType":"uint256","name":"","type":"uint256"}],"stateMutability":"view","type":"function"},{"inputs":[{"internalType":"bytes32","name":"_gtdMerkleRoot","type":"bytes32"},{"internalType":"bytes32","name":"_fcfsMerkleRoot","type":"bytes32"},{"internalType":"address","name":"_treasury","type":"address"},{"internalType":"address","name":"_metadataLib","type":"address"},{"internalType":"address payable","name":"_royaltiesContract","type":"address"},{"internalType":"address","name":"_delegateRegistry","type":"address"}],"name":"initialize","outputs":[],"stateMutability":"nonpayable","type":"function"},{"inputs":[{"internalType":"address","name":"owner","type":"address"},{"internalType":"address","name":"operator","type":"address"}],"name":"isApprovedForAll","outputs":[{"internalType":"bool","name":"","type":"bool"}],"stateMutability":"view","type":"function"},{"inputs":[],"name":"isFCFSMintActive","outputs":[{"internalType":"bool","name":"","type":"bool"}],"stateMutability":"view","type":"function"},{"inputs":[],"name":"isFounderMintActive","outputs":[{"internalType":"bool","name":"","type":"bool"}],"stateMutability":"view","type":"function"},{"inputs":[],"name":"isGTDMintActive","outputs":[{"internalType":"bool","name":"","type":"bool"}],"stateMutability":"view","type":"function"},{"inputs":[],"name":"isPublicMintActive","outputs":[{"internalType":"bool","name":"","type":"bool"}],"stateMutability":"view","type":"function"},{"inputs":[],"name":"metadataLib","outputs":[{"internalType":"contract ApeBeatsMetadataLib","name":"","type":"address"}],"stateMutability":"view","type":"function"},{"inputs":[{"internalType":"uint256","name":"amount","type":"uint256"},{"internalType":"address","name":"vault","type":"address"},{"internalType":"bytes32[]","name":"merkleProof","type":"bytes32[]"}],"name":"mintFCFS","outputs":[],"stateMutability":"payable","type":"function"},{"inputs":[{"internalType":"uint256","name":"amount","type":"uint256"}],"name":"mintFounder","outputs":[],"stateMutability":"nonpayable","type":"function"},{"inputs":[{"internalType":"address","name":"vault","type":"address"},{"internalType":"bytes32[]","name":"merkleProof","type":"bytes32[]"}],"name":"mintGTD","outputs":[],"stateMutability":"payable","type":"function"},{"inputs":[{"internalType":"uint256","name":"amount","type":"uint256"}],"name":"mintPublic","outputs":[],"stateMutability":"payable","type":"function"},{"inputs":[{"internalType":"address","name":"","type":"address"}],"name":"mintedPerWalletFCFS","outputs":[{"internalType":"uint256","name":"","type":"uint256"}],"stateMutability":"view","type":"function"},{"inputs":[{"internalType":"address","name":"","type":"address"}],"name":"mintedPerWalletGTD","outputs":[{"internalType":"uint256","name":"","type":"uint256"}],"stateMutability":"view","type":"function"},{"inputs":[{"internalType":"address","name":"","type":"address"}],"name":"mintedPerWalletPublic","outputs":[{"internalType":"uint256","name":"","type":"uint256"}],"stateMutability":"view","type":"function"},{"inputs":[],"name":"name","outputs":[{"internalType":"string","name":"","type":"string"}],"stateMutability":"view","type":"function"},{"inputs":[],"name":"owner","outputs":[{"internalType":"address","name":"","type":"address"}],"stateMutability":"view","type":"function"},{"inputs":[{"internalType":"uint256","name":"tokenId","type":"uint256"}],"name":"ownerOf","outputs":[{"internalType":"address","name":"","type":"address"}],"stateMutability":"view","type":"function"},{"inputs":[],"name":"prerevealNoiseBase64","outputs":[{"internalType":"string","name":"","type":"string"}],"stateMutability":"view","type":"function"},{"inputs":[],"name":"publicMintStart","outputs":[{"internalType":"uint256","name":"","type":"uint256"}],"stateMutability":"view","type":"function"},{"inputs":[],"name":"renounceOwnership","outputs":[],"stateMutability":"nonpayable","type":"function"},{"inputs":[{"internalType":"uint256","name":"tokenId","type":"uint256"}],"name":"reveal","outputs":[],"stateMutability":"nonpayable","type":"function"},{"inputs":[],"name":"royaltiesContract","outputs":[{"internalType":"contract ApeBeatsRoyalties","name":"","type":"address"}],"stateMutability":"view","type":"function"},{"inputs":[{"internalType":"uint256","name":"tokenId","type":"uint256"},{"internalType":"uint256","name":"salePrice","type":"uint256"}],"name":"royaltyInfo","outputs":[{"internalType":"address","name":"receiver","type":"address"},{"internalType":"uint256","name":"amount","type":"uint256"}],"stateMutability":"view","type":"function"},{"inputs":[{"internalType":"address","name":"from","type":"address"},{"internalType":"address","name":"to","type":"address"},{"internalType":"uint256","name":"tokenId","type":"uint256"}],"name":"safeTransferFrom","outputs":[],"stateMutability":"nonpayable","type":"function"},{"inputs":[{"internalType":"address","name":"from","type":"address"},{"internalType":"address","name":"to","type":"address"},{"internalType":"uint256","name":"tokenId","type":"uint256"},{"internalType":"bytes","name":"data","type":"bytes"}],"name":"safeTransferFrom","outputs":[],"stateMutability":"nonpayable","type":"function"},{"inputs":[{"internalType":"address","name":"operator","type":"address"},{"internalType":"bool","name":"approved","type":"bool"}],"name":"setApprovalForAll","outputs":[],"stateMutability":"nonpayable","type":"function"},{"inputs":[{"internalType":"uint256","name":"tokenId","type":"uint256"},{"internalType":"string","name":"uri","type":"string"}],"name":"setMixedAudioURI","outputs":[],"stateMutability":"nonpayable","type":"function"},{"inputs":[{"internalType":"string","name":"_prerevealNoiseBase64","type":"string"}],"name":"setPrerevealNoiseBase64","outputs":[],"stateMutability":"nonpayable","type":"function"},{"inputs":[{"internalType":"bool","name":"_revealed","type":"bool"}],"name":"setRevealed","outputs":[],"stateMutability":"nonpayable","type":"function"},{"inputs":[{"internalType":"uint256","name":"tokenId","type":"uint256"},{"internalType":"string","name":"uri","type":"string"}],"name":"setWaveformURI","outputs":[],"stateMutability":"nonpayable","type":"function"},{"inputs":[],"name":"startFCFSMint","outputs":[],"stateMutability":"nonpayable","type":"function"},{"inputs":[],"name":"startPublicMint","outputs":[],"stateMutability":"nonpayable","type":"function"},{"inputs":[{"internalType":"bytes4","name":"interfaceId","type":"bytes4"}],"name":"supportsInterface","outputs":[{"internalType":"bool","name":"","type":"bool"}],"stateMutability":"view","type":"function"},{"inputs":[],"name":"symbol","outputs":[{"internalType":"string","name":"","type":"string"}],"stateMutability":"view","type":"function"},{"inputs":[{"internalType":"uint256","name":"tokenId","type":"uint256"}],"name":"tokenURI","outputs":[{"internalType":"string","name":"","type":"string"}],"stateMutability":"view","type":"function"},{"inputs":[],"name":"totalMinted","outputs":[{"internalType":"uint256","name":"","type":"uint256"}],"stateMutability":"view","type":"function"},{"inputs":[{"internalType":"address","name":"from","type":"address"},{"internalType":"address","name":"to","type":"address"},{"internalType":"uint256","name":"tokenId","type":"uint256"}],"name":"transferFrom","outputs":[],"stateMutability":"nonpayable","type":"function"},{"inputs":[{"internalType":"address","name":"newOwner","type":"address"}],"name":"transferOwnership","outputs":[],"stateMutability":"nonpayable","type":"function"},{"inputs":[],"name":"treasury","outputs":[{"internalType":"address","name":"","type":"address"}],"stateMutability":"view","type":"function"},{"inputs":[],"name":"withdraw","outputs":[],"stateMutability":"nonpayable","type":"function"}],"evm":{"bytecode":{"linkReferences":{},"object":"60808060405234620000bd577ff0c57e16840df040f15088dc2f81fe391c3923bec73e23a9662efc9c229c6a009081549060ff8260401c16620000ae57506001600160401b036002600160401b03198282160162000068575b6040516136609081620000c38239f35b6001600160401b031990911681179091556040519081527fc7f505b2f371ae2175ee4913f4499e1f2633a7b5936321eed1cdaeb6115181d290602090a138808062000058565b63f92ee8a960e01b8152600490fd5b600080fdfe608080604052600436101561001357600080fd5b600090813560e01c90816301ffc9a71461260a57508063069b78201461259d57806306fdde03146124f3578063081812fc146124a9578063095ea7b3146123c05780630ea5891514610b4e5780630fb51ac41461236357806313bfffac1461233a57806318919d62146120bf57806323b872dd146120a757806324659318146120895780632a55205a14611fa15780632d63267814611b1b5780632d6b622414611f8657806334f8f26814611f6b5780633c404a9c14610fd55780633ccfd60b14611eaf5780633f2c0d6a14611c3657806340b5548014611c1357806342842e0e14611be55780634a7887c414611bc85780634d853ee514611b9f5780634e8117a914611b765780635270c75314611b595780635c121bc914611b20578063611f3f1014611b1b57806361d027b314611af25780636352211e14611ac15780636ac6319c14611aa557806370a0823114611a4f578063715018a6146119e457806374819ef7146119c857806376c25e6f1461199f57806376c64c621461191a5780637726c505146118ff5780637bb23e3a146118e15780637d330cdd1461186e5780637f0505f1146118355780638539cb821461181957806389d29c4c146110465780638cfec4c0146110285780638da5cb5b14610ff2578063902d55a514610fd55780639134d9c214610fb057806395d89b4114610ecf578063a22cb46514610e2d578063a2309ff814610e10578063a3eca3ed14610d78578063aa0f0d7f14610b92578063ab13c08914610b53578063b0660c7714610b4e578063b32395ca14610b15578063b4bbb18f14610910578063b88d4fde146108a4578063bfa4177714610886578063c2ca0ac514610812578063c87b56dd146106f7578063d0e8f26e146106d9578063d67f8d0b1461065b578063e0a80853146105d9578063e985e9c51461058a578063eafd48911461056c578063ef39154b1461054e578063efd0cbf91461031b5763f2fde38b146102ec57600080fd5b34610318576020366003190112610318576103156103086126d9565b610310612fbd565b612ebf565b80f35b80fd5b50602036600319011261031857600435610333612f33565b61033b612e39565b15610509576103586101a4610351838554612a08565b1115612a15565b600581116104cd573382526010602052610382600561037b836040862054612a08565b1115612a9b565b675fc1b971363200009080820291820481036104b9576103a482341015612a58565b3383526010602052604083206103bb828254612a08565b9055825b81811061040e575050818134116103e6575b600160008051602061358b8339815191525580f35b8080806103f66104079534612b86565b335af1610401612b93565b50612bc3565b38816103d1565b61042461041b8554612b77565b80865533613121565b600654845485916001600160a01b031690813b156104b557829160648392604051948593849263445a477560e11b84526004840152336024840152600160448401525af180156104aa57610492575b5090600191543360008051602061350b8339815191528780a3016103bf565b61049b90612721565b6104a6578338610473565b8380fd5b6040513d84823e3d90fd5b8280fd5b634e487b7160e01b83526011600452602483fd5b60405162461bcd60e51b8152602060048201526014602482015273115e18d959591cc81c1d589b1a58c81b1a5b5a5d60621b6044820152606490fd5b60405162461bcd60e51b815260206004820152601c60248201527f5075626c6963206d696e74207068617365206e6f7420616374697665000000006044820152606490fd5b50346103185780600319360112610318576020600154604051908152f35b50346103185780600319360112610318576020600b54604051908152f35b5034610318576040366003190112610318576105a46126d9565b6105b56105af6126ef565b916128e1565b9060018060a01b0316600052602052602060ff604060002054166040519015158152f35b503461031857602036600319011261031857600435801515809103610656578190610602612fbd565b6005546001600160a01b031690813b1561065257829160248392604051948593849263e0a8085360e01b845260048401525af180156104aa576106425750f35b61064b90612721565b6103185780f35b5050fd5b600080fd5b5034610318578060031936011261031857610674612f33565b60065481906001600160a01b0316803b156106d65781809160046040518094819363d67f8d0b60e01b83525af180156104aa576106c2575b50600160008051602061358b8339815191525580f35b6106cb90612721565b6103185780386106ac565b50fd5b50346103185780600319360112610318576020600a54604051908152f35b503461031857602080600319360112610802576005546004359083906001600160a01b0390811661072784612f63565b936040518095819482936309aafb6160e01b845260048401526060602484015261075360648401612954565b9116604483015203915afa928315610806578093610786575b50506107826040519282849384528301906126b4565b0390f35b909192503d8082843e610799818461276a565b8201918381840312610802578051906001600160401b0382116104b5570182601f82011215610802578051916107ce8361278b565b936107dc604051958661276a565b8385528584840101116103185750906107fa91848085019101612691565b90388061076c565b5080fd5b604051903d90823e3d90fd5b50346103185760203660031901126103185780600435610830612fbd565b6005546001600160a01b039190821661084882612f63565b90803b15610882578492836044926040519687958694632fedc38160e21b865260048601521660248401525af180156104aa576106425750f35b8480fd5b50346103185780600319360112610318576020600954604051908152f35b5034610318576080366003190112610318576108be6126d9565b6108c66126ef565b90604435606435926001600160401b0384116108825736602385011215610882576108fe6103159436906024816004013591016127a6565b9261090a838383612bff565b336133be565b50346103185760203660031901126103185760043561092d612f33565b6004546001600160a01b039081163303610ad857610949612ea8565b15610a9357600d54600461095d8483612a08565b11610a4e578261097d916109786101a4610351848954612a08565b612a08565b600d55825b8281106109b257836004600d54146109a957600160008051602061358b8339815191525580f35b42600a556103d1565b6109cc6109bf8554612b77565b8086558360045416613121565b83826006541681548460045416823b156104a6576064849283604051958694859363445a477560e11b855260048501526024840152600160448401525af180156104aa57610a3a575b5050600190826004541685549060008051602061350b8339815191528780a301610982565b610a4390612721565b6104a6578338610a15565b60405162461bcd60e51b815260206004820152601a60248201527f4578636565647320666f756e646572206d696e74206c696d69740000000000006044820152606490fd5b60405162461bcd60e51b815260206004820152601d60248201527f466f756e646572206d696e74207068617365206e6f74206163746976650000006044820152606490fd5b60405162461bcd60e51b815260206004820152601560248201527413db9b1e48199bdd5b99195c8818d85b881b5a5b9d605a1b6044820152606490fd5b5034610318576020366003190112610318576020906040906001600160a01b03610b3d6126d9565b168152600e83522054604051908152f35b612705565b5034610318578060031936011261031857610782604051610b7e81610b7781612954565b038261276a565b6040519182916020835260208301906126b4565b5034610318576020906020600319360112610318576001600160401b036004358181116104b557366023820112156104b55780600401359182116104b557602436602484840101116104a657610be6612fbd565b8215610d3357610bf760075461291a565b601f8111610cce575b508394601f8411600114610c4757505082938291610c339492610c39575b50508160011b916000199060031b1c19161790565b60075580f35b602492500101353880610c1e565b7fa66cc928b5edb82af9bd49922954155ab7b0942694bea4ce44661d9a8736c6889291601f1985169186915b838310610cb25750505094836001959610610c95575b505050811b0160075580f35b0160240135600019600384901b60f8161c19169055388080610c89565b908060018a978483969c89010135815501960198019190610c73565b60076000527fa66cc928b5edb82af9bd49922954155ab7b0942694bea4ce44661d9a8736c688601f850160051c81019160208610610d29575b601f0160051c01905b818110610d1d5750610c00565b60008155600101610d10565b9091508190610d07565b60405162461bcd60e51b815260206004820152601d60248201527f50726572657665616c205552492063616e6e6f7420626520656d7074790000006044820152606490fd5b5034610318578060031936011261031857610d91612fbd565b600a548015159081610de5575b5015610dab5742600b5580f35b60405162461bcd60e51b815260206004820152601260248201527111d511081b5a5b9d081b9bdd08195b99195960721b6044820152606490fd5b90506103848101809111610dfc5742101538610d9e565b634e487b7160e01b82526011600452602482fd5b503461031857806003193601126103185760209054604051908152f35b503461031857604036600319011261031857610e476126d9565b60243590811515809203610656576001600160a01b0316908115610eb657610e6e336128e1565b82600052602052604060002060ff1981541660ff83161790556040519081527f17307eab39ab6107e8899845ad3d59bd9653f200f220920489ca2b5937696c3160203392a380f35b604051630b61174360e31b815260048101839052602490fd5b50346103185780600319360112610318576040516000805160206135eb8339815191528054826000610f008361291a565b9283835260209460019186600182169182600014610f8e575050600114610f44575b5050610f309250038361276a565b6107826040519282849384528301906126b4565b85925060005260008051602061354b833981519152906000915b858310610f76575050610f3093508201018580610f22565b80548389018501528794508693909201918101610f5e565b9250935050610f3094915060ff191682840152151560051b8201018580610f22565b50346103185780600319360112610318576020610fcb612ea8565b6040519015158152f35b503461031857806003193601126103185760206040516101a48152f35b503461031857806003193601126103185760008051602061356b833981519152546040516001600160a01b039091168152602090f35b50346103185780600319360112610318576020600c54604051908152f35b50346103185760c0366003190112610318576044356001600160a01b038116810361065657606435906001600160a01b038216820361065657608435916001600160a01b03831683036104a65760a4356001600160a01b0381168103610656576000805160206135cb83398151915254926001600160401b03841680159081611809575b60011490816117ff575b1590816117f6575b506117e45760016001600160401b03198516176000805160206135cb8339815191525560ff8460401c16156117b7575b60405161111881612734565b600f81526e417065426561747347656e6573697360881b60208201526040519061114182612734565b600382526241424760e81b60208301526111596134db565b6111616134db565b8051906001600160401b0382116117a35761118a60008051602061352b8339815191525461291a565b601f811161172d575b50602090601f831160011461169e576111c392918a918361157a5750508160011b916000199060031b1c19161790565b60008051602061352b833981519152555b8051906001600160401b03821161168a576111fd6000805160206135eb8339815191525461291a565b601f8111611614575b50602090601f831160011461158557611236929189918361157a5750508160011b916000199060031b1c19161790565b6000805160206135eb833981519152555b61124f6134db565b6112576134db565b61126033612ebf565b6112686134db565b6112706134db565b600160008051602061358b8339815191525561128a6134db565b6001600160a01b03811615611535576001600160a01b038316156114e5576001600160a01b0385161561148e576001600160a01b038216156114385760048035600155602435600255600380546001600160a01b03199081166001600160a01b0394851617909155815481163317909155600580548216948316949094179093556006805480851687841690811790925560088054909516939092169290921790925590841690811792831561141f5760405193604085018581106001600160401b038211176114095760409081529085526101a46020909501949094526001600160a01b03908116911617606960a21b177fdaedc9ab023613a7caf35e703657e986ccfad7e3eb0af93a2853f8d65dd86b005542600955901c60ff16156113af5780f35b68ff0000000000000000196000805160206135cb83398151915254166000805160206135cb833981519152557fc7f505b2f371ae2175ee4913f4499e1f2633a7b5936321eed1cdaeb6115181d2602060405160018152a180f35b634e487b7160e01b600052604160045260246000fd5b604051635b6cc80560e11b815260048101869052602490fd5b60405162461bcd60e51b815260206004820152602860248201527f44656c65676174652072656769737472792063616e6e6f74206265207a65726f604482015267206164647265737360c01b6064820152608490fd5b60405162461bcd60e51b815260206004820152602960248201527f526f79616c7469657320636f6e74726163742063616e6e6f74206265207a65726044820152686f206164647265737360b81b6064820152608490fd5b60405162461bcd60e51b815260206004820152602260248201527f4d657461646174614c69622063616e6e6f74206265207a65726f206164647265604482015261737360f01b6064820152608490fd5b60405162461bcd60e51b815260206004820152601f60248201527f54726561737572792063616e6e6f74206265207a65726f2061646472657373006044820152606490fd5b015190503880610c1e565b6000805160206135eb833981519152895288929160008051602061354b833981519152915b601f19841685106115f9576001945083601f198116106115e0575b505050811b016000805160206135eb83398151915255611247565b015160001960f88460031b161c191690553880806115c5565b818101518355602094850194600190930192909101906115aa565b6000805160206135eb833981519152600052601f830160051c60008051602061354b8339815191520160208410611675575b601f820160051c60008051602061354b8339815191520181106116695750611206565b60008155600101611646565b5060008051602061354b833981519152611646565b634e487b7160e01b88526041600452602488fd5b60008051602061352b8339815191528a5289929160008051602061360b833981519152915b601f1984168510611712576001945083601f198116106116f9575b505050811b0160008051602061352b833981519152556111d4565b015160001960f88460031b161c191690553880806116de565b818101518355602094850194600190930192909101906116c3565b60008051602061352b833981519152600052601f830160051c60008051602061360b833981519152016020841061178e575b601f820160051c60008051602061360b8339815191520181106117825750611193565b6000815560010161175f565b5060008051602061360b83398151915261175f565b634e487b7160e01b89526041600452602489fd5b68ffffffffffffffffff19841668010000000000000001176000805160206135cb8339815191525561110c565b60405163f92ee8a960e01b8152600490fd5b905015386110dc565b303b1591506110d4565b604086901c60ff161591506110ca565b5034610318578060031936011261031857602060405160018152f35b5034610318576020366003190112610318576020906040906001600160a01b0361185d6126d9565b168152600f83522054604051908152f35b5034610318578061187e366127dd565b90611887612fbd565b6005546001600160a01b031691823b156118dc576118cb92849283604051809681958294637d330cdd60e01b845260048401526040602484015260448301906126b4565b03925af180156104aa576106425750f35b505050fd5b50346103185780600319360112610318576020600254604051908152f35b50346103185780600319360112610318576020610fcb612e7d565b5034610318578060031936011261031857611933612fbd565b600b548015159081611988575b501561194d5742600c5580f35b60405162461bcd60e51b81526020600482015260136024820152721190d194c81b5a5b9d081b9bdd08195b991959606a1b6044820152606490fd5b90506107088101809111610dfc5742101538611940565b50346103185780600319360112610318576006546040516001600160a01b039091168152602090f35b5034610318578060031936011261031857602060405160058152f35b50346103185780600319360112610318576119fd612fbd565b60008051602061356b83398151915280546001600160a01b031981169091556000906001600160a01b03167f8be0079c531659141344cd1fd0a4f28419497f9722a3daafe3b4186f6b6457e08280a380f35b503461031857602036600319011261031857611a696126d9565b906001600160a01b03821615611a8d576020611a84836128a8565b54604051908152f35b602490604051906322718ad960e21b82526004820152fd5b50346103185780600319360112610318576020604051602a8152f35b5034610318576020366003190112610318576020611ae0600435612f63565b6040516001600160a01b039091168152f35b50346103185780600319360112610318576003546040516001600160a01b039091168152602090f35b612885565b5034610318576020366003190112610318576020906040906001600160a01b03611b486126d9565b168152601083522054604051908152f35b503461031857806003193601126103185760206040516103848152f35b50346103185780600319360112610318576005546040516001600160a01b039091168152602090f35b50346103185780600319360112610318576004546040516001600160a01b039091168152602090f35b503461031857806003193601126103185760206040516107088152f35b503461031857610315611bf736612850565b9060405192611c058461274f565b85845261090a838383612bff565b50346103185780600319360112610318576020604051673a4965bf58a400008152f35b50604036600319011261031857611c4b6126d9565b60249081356001600160401b0381116104a657611c6c903690600401612820565b90611c75612f33565b611c7d612e7d565b15611e6b57845460018101809111611e1f576101a4611c9d911115612a15565b611cbb673a4965bf58a4000093611cb685341015612a58565b612ff6565b9060018060a01b039283831692838852600e6020526040882054611e325791611d1e91611d19611d239460405160208101916001600160601b03199060601b16825260148152611d0a81612734565b51902092600154923691612ade565b6130cd565b612b34565b8452600e6020526040842080549060018201809211611e1f579085929155611d57611d4e8354612b77565b80845533613121565b600654168154813b156104b557829160648392604051948593849263445a477560e11b84526004840152338a840152600160448401525af180156104aa57611e0b575b50543360008051602061350b8339815191528580a33411611dcb5750600160008051602061358b8339815191525580f35b673a4965bf58a3ffff19340190348211611df9575081808080611df394335af1610401612b93565b386106ac565b634e487b7160e01b8352601160045282fd5b611e1490612721565b6104b5578238611d9a565b634e487b7160e01b865260116004528486fd5b60405162461bcd60e51b81526020600482015260128189015271105b1c9958591e481b5a5b9d19590811d51160721b6044820152606490fd5b60405162461bcd60e51b8152602060048201526019818601527f475444206d696e74207068617365206e6f7420616374697665000000000000006044820152606490fd5b5034610318578060031936011261031857611ec8612fbd565b478015611f2f5760035482918291829182916001600160a01b03165af1611eed612b93565b5015611ef65780f35b60405162461bcd60e51b815260206004820152601160248201527015da5d1a191c985dd85b0819985a5b1959607a1b6044820152606490fd5b60405162461bcd60e51b81526020600482015260146024820152734e6f2066756e647320746f20776974686472617760601b6044820152606490fd5b50346103185780600319360112610318576020610fcb612e51565b50346103185780600319360112610318576020610fcb612e39565b50346103185760403660031901126103185760043581527fdaedc9ab023613a7caf35e703657e986ccfad7e3eb0af93a2853f8d65dd86b0160205260409020546001600160a01b03808216916024359160a09190911c908315612050575b506001600160601b03169081810291818304149015171561203a57604080516001600160a01b03939093168352612710909104602083015290f35b634e487b7160e01b600052601160045260246000fd5b7fdaedc9ab023613a7caf35e703657e986ccfad7e3eb0af93a2853f8d65dd86b0054908116935060a01c90506001600160601b03611fff565b50346103185780600319360112610318576020600d54604051908152f35b5034610318576103156120b936612850565b91612bff565b506060366003190112610318576004356120d76126ef565b90604480356001600160401b038111610882576120f8903690600401612820565b90612101612f33565b612109612e51565b156122f55761211f6101a4610351868954612a08565b600484116122bb57675fc1b971363200009484860295860485036122a757906121b5611d1e612156899594611cb68a341015612a58565b9260018060a01b0394611d1986861695868952600f602052612181600461037b8d60408d2054612a08565b60405160208101916001600160601b03199060601b168252601481526121a681612734565b51902092600254923691612ade565b8252600f602052604082206121cb858254612a08565b9055815b84811061220c578286818134116121f557600160008051602061358b8339815191525580f35b8080806103f66122059534612b86565b81816103d1565b6122226122198454612b77565b80855533613121565b81600654168354813b1561088257849160648392604051948593849263445a477560e11b8452600484015233602484015260018b8401525af190811561229c578491612288575b5090600191543360008051602061350b8339815191528680a3016121cf565b61229190612721565b6104b5578238612269565b6040513d86823e3d90fd5b634e487b7160e01b87526011600452602487fd5b60405162461bcd60e51b8152602060048201526012602482015271115e18d959591cc81190d194c81b1a5b5a5d60721b6044820152606490fd5b60405162461bcd60e51b815260206004820152601a60248201527f46434653206d696e74207068617365206e6f74206163746976650000000000006044820152606490fd5b50346103185780600319360112610318576008546040516001600160a01b039091168152602090f35b50346103185780612373366127dd565b9061237c612fbd565b6005546001600160a01b031691823b156118dc576118cb928492836040518096819582946303ed46b160e21b845260048401526040602484015260448301906126b4565b5034610318576040366003190112610318576123da6126d9565b6024356123e681612f63565b33151580612496575b80612476575b61245e576001600160a01b039283169282918491167f8c5be1e5ebec7d5bd14f71427d1e84f3dd0314c0f7b2291e5b200ac8c7c3b925600080a46000526000805160206135ab8339815191526020526040600020906001600160601b0360a01b82541617905580f35b60405163a9fbf51f60e01b8152336004820152602490fd5b50612480816128e1565b3360005260205260ff60406000205416156123f5565b506001600160a01b0381163314156123ef565b5034610318576020366003190112610318576020906004356124ca81612f63565b5081526000805160206135ab8339815191528252604060018060a01b0391205416604051908152f35b503461031857806003193601126103185760405160008051602061352b83398151915280548260006125248361291a565b9283835260209460019186600182169182600014610f8e575050600114612553575050610f309250038361276a565b85925060005260008051602061360b833981519152906000915b858310612585575050610f3093508201018580610f22565b8054838901850152879450869390920191810161256d565b50346103185780600319360112610318576125b6612f33565b60065481906001600160a01b0316803b156106d65781906004604051809481936234dbc160e51b83525af180156104aa576126015750600160008051602061358b8339815191525580f35b611df390612721565b9050346108025760203660031901126108025760043563ffffffff60e01b81168091036104b557602092506380ac58cd60e01b8114908115612680575b8115612655575b5015158152f35b63152a902d60e11b81149150811561266f575b503861264e565b6301ffc9a760e01b14905038612668565b635b5e139f60e01b81149150612647565b60005b8381106126a45750506000910152565b8181015183820152602001612694565b906020916126cd81518092818552858086019101612691565b601f01601f1916010190565b600435906001600160a01b038216820361065657565b602435906001600160a01b038216820361065657565b3461065657600036600319011261065657602060405160048152f35b6001600160401b03811161140957604052565b604081019081106001600160401b0382111761140957604052565b602081019081106001600160401b0382111761140957604052565b90601f801991011681019081106001600160401b0382111761140957604052565b6001600160401b03811161140957601f01601f191660200190565b9291926127b28261278b565b916127c0604051938461276a565b829481845281830111610656578281602093846000960137010152565b9060406003198301126106565760043591602435906001600160401b03821161065657806023830112156106565781602461281d936004013591016127a6565b90565b9181601f84011215610656578235916001600160401b038311610656576020808501948460051b01011161065657565b6060906003190112610656576001600160a01b0390600435828116810361065657916024359081168103610656579060443590565b34610656576000366003190112610656576020604051675fc1b971363200008152f35b6001600160a01b031660009081527f80bb2b638cc20bc4d0a60d66940f3ab4a00c1d7b313497ca82fb0b4ab00793036020526040902090565b6001600160a01b031660009081527f80bb2b638cc20bc4d0a60d66940f3ab4a00c1d7b313497ca82fb0b4ab00793056020526040902090565b90600182811c9216801561294a575b602083101461293457565b634e487b7160e01b600052602260045260246000fd5b91607f1691612929565b600754600092916129648261291a565b808252916020906001908181169081156129e35750600114612987575b50505050565b9293945060076000527fa66cc928b5edb82af9bd49922954155ab7b0942694bea4ce44661d9a8736c688926000935b8585106129d0575050506020925001019038808080612981565b80548585018401529382019381016129b6565b92505050602093945060ff929192191683830152151560051b01019038808080612981565b9190820180921161203a57565b15612a1c57565b60405162461bcd60e51b81526020600482015260146024820152734578636565647320746f74616c20737570706c7960601b6044820152606490fd5b15612a5f57565b60405162461bcd60e51b8152602060048201526014602482015273125b9cdd59999a58da595b9d081c185e5b595b9d60621b6044820152606490fd5b15612aa257565b60405162461bcd60e51b8152602060048201526014602482015273115e18d959591cc81dd85b1b195d081b1a5b5a5d60621b6044820152606490fd5b9092916001600160401b038411611409578360051b6020926020604051612b078285018261276a565b809781520191810192831161065657905b828210612b255750505050565b81358152908301908301612b18565b15612b3b57565b60405162461bcd60e51b815260206004820152601460248201527324b73b30b634b21026b2b935b63290383937b7b360611b6044820152606490fd5b600019811461203a5760010190565b9190820391821161203a57565b3d15612bbe573d90612ba48261278b565b91612bb2604051938461276a565b82523d6000602084013e565b606090565b15612bca57565b60405162461bcd60e51b815260206004820152600d60248201526c1499599d5b990819985a5b1959609a1b6044820152606490fd5b90916001600160a01b03808416928315612e20576000938385527f80bb2b638cc20bc4d0a60d66940f3ab4a00c1d7b313497ca82fb0b4ab007930294856020526040968488832054169633151580612d84575b50612c648815159283612d45576128a8565b8054600101905586835260205287822080546001600160a01b031916841790558751928690887fddf252ad1be2c89b69c2b068fc378daa952ba7f163c4a11628f55a4df523b3ef8580a480612d3d575b612ceb575b50501692838303612cca5750505050565b6064945051926364283d7b60e01b8452600484015260248301526044820152fd5b8360065416803b156108025782602481848094631d46f2b960e11b83528a60048401525af1908115612d325750612d23575b80612cb9565b612d2c90612721565b38612d1d565b8751903d90823e3d90fd5b506001612cb4565b60008981526000805160206135ab8339815191526020526040902080546001600160a01b0319169055612d778a6128a8565b80546000190190556128a8565b80612dd1575b15612d955738612c52565b888789612db2576024915190637e27328960e01b82526004820152fd5b905163177e802f60e01b81523360048201526024810191909152604490fd5b503388148015612e04575b80612d8a57508683526000805160206135ab83398151915260205233868a8520541614612d8a565b50612e0e886128e1565b33845260205260ff8984205416612ddc565b604051633250574960e11b815260006004820152602490fd5b600c54151580612e465790565b506101a46000541090565b600b548015159081612e67575b5080612e465790565b9050610708810180911161203a57421038612e5e565b600a548015159081612e92575080612e465790565b9050610384810180911161203a57421038612e5e565b600954151580612eb55790565b506004600d541090565b6001600160a01b03908116908115612f1a5760008051602061356b83398151915280546001600160a01b031981168417909155167f8be0079c531659141344cd1fd0a4f28419497f9722a3daafe3b4186f6b6457e0600080a3565b604051631e4fbdf760e01b815260006004820152602490fd5b60008051602061358b8339815191526002815414612f515760029055565b604051633ee5aeb560e01b8152600490fd5b60008181527f80bb2b638cc20bc4d0a60d66940f3ab4a00c1d7b313497ca82fb0b4ab007930260205260409020546001600160a01b0316908115612fa5575090565b60249060405190637e27328960e01b82526004820152fd5b60008051602061356b833981519152546001600160a01b03163303612fde57565b60405163118cdaa760e01b8152336004820152602490fd5b6001600160a01b03818116908161300e575050503390565b6020906008541691604460405180948193634e1cade160e11b835233600484015260248301525afa9081156130c157600091613086575b501561304e5790565b60405162461bcd60e51b815260206004820152601060248201526f496e76616c69642064656c656761746560801b6044820152606490fd5b6020813d6020116130b9575b8161309f6020938361276a565b810103126108025751908115158203610318575038613045565b3d9150613092565b6040513d6000823e3d90fd5b9091906000915b815183101561311a576020808460051b8401015191600083821060001461310a575060005252600160406000205b9201916130d4565b9060409260019483525220613102565b9150501490565b604080519261312f8461274f565b60008085526001600160a01b03948486169485156133a6578383527f80bb2b638cc20bc4d0a60d66940f3ab4a00c1d7b313497ca82fb0b4ab0079302602097818952808786205416908115159283613367575b61318b856128a8565b600181540190558787528a52878620896001600160601b0360a01b82541617905586898951937fddf252ad1be2c89b69c2b068fc378daa952ba7f163c4a11628f55a4df523b3ef8980a4828061335f575b61330d575b50506132f5573b6131f5575b505050505050565b856132329185969798955180938192630a85bd0160e11b9788845233600485015287602485015260448401526080606484015260848301906126b4565b0381858a5af1908290826132b1575b505061327957505050613252612b93565b8051939084613273578251633250574960e11b815260048101859052602490fd5b84925001fd5b9194506001600160e01b03199091160361329a5750503880808080806131ed565b602492505190633250574960e11b82526004820152fd5b909192508781813d83116132ee575b6132ca818361276a565b810103126108025751906001600160e01b0319821682036103185750903880613241565b503d6132c0565b84516339e3563760e11b815260048101849052602490fd5b60065416803b1561335b5781602481888094631d46f2b960e11b83528b60048401525af1801561335157613342575b806131e1565b61334b90612721565b3861333c565b87513d87823e3d90fd5b8580fd5b5060016131dc565b60008881526000805160206135ab8339815191526020526040902080546001600160a01b0319169055613399836128a8565b8054600019019055613182565b8451633250574960e11b815260048101849052602490fd5b9293823b6133ce575b5050505050565b6134129060018060a01b038094169560405194859481630a85bd0160e11b9889885216600487015216602485015260448401526080606484015260848301906126b4565b03906020816000938185885af190829082613492575b50506134605782613437612b93565b805191908261345957604051633250574960e11b815260048101839052602490fd5b6020915001fd5b6001600160e01b0319160361347a575038808080806133c7565b60249060405190633250574960e11b82526004820152fd5b909192506020813d6020116134d3575b816134af6020938361276a565b810103126108025751906001600160e01b0319821682036103185750903880613428565b3d91506134a2565b60ff6000805160206135cb8339815191525460401c16156134f857565b604051631afcd79f60e31b8152600490fdfe30385c845b448a36257a6a1716e6ad2e1bc2cbe333cde1e69fe849ad6511adfe80bb2b638cc20bc4d0a60d66940f3ab4a00c1d7b313497ca82fb0b4ab0079300f4bad0a69248f59680a4f2b3000328cec71a413447c96781cfe5996daa8c456e9016d09d72d40fdae2fd8ceac6b6234c7706214fd39c1cd1e609a0528c1993009b779b17422d0df92223018b32b4d1fa46e071723d6817e2486d003becc55f0080bb2b638cc20bc4d0a60d66940f3ab4a00c1d7b313497ca82fb0b4ab0079304f0c57e16840df040f15088dc2f81fe391c3923bec73e23a9662efc9c229c6a0080bb2b638cc20bc4d0a60d66940f3ab4a00c1d7b313497ca82fb0b4ab007930137c58c799b6609234b945e882912ee9ad34948a1dfaa20a97485e1a7752bbf81a26469706673582212200591bb335a061e208a8785a9e2abb13b01fb591a12492f59a82376c677dac61064736f6c63430008180033","opcodes":"PUSH1 0x80 DUP1 PUSH1 0x40 MSTORE CALLVALUE PUSH3 0xBD JUMPI PUSH32 0xF0C57E16840DF040F15088DC2F81FE391C3923BEC73E23A9662EFC9C229C6A00 SWAP1 DUP2 SLOAD SWAP1 PUSH1 0xFF DUP3 PUSH1 0x40 SHR AND PUSH3 0xAE JUMPI POP PUSH1 0x1 PUSH1 0x1 PUSH1 0x40 SHL SUB PUSH1 0x2 PUSH1 0x1 PUSH1 0x40 SHL SUB NOT DUP3 DUP3 AND ADD PUSH3 0x68 JUMPI JUMPDEST PUSH1 0x40 MLOAD PUSH2 0x3660 SWAP1 DUP2 PUSH3 0xC3 DUP3 CODECOPY RETURN JUMPDEST PUSH1 0x1 PUSH1 0x1 PUSH1 0x40 SHL SUB NOT SWAP1 SWAP2 AND DUP2 OR SWAP1 SWAP2 SSTORE PUSH1 0x40 MLOAD SWAP1 DUP2 MSTORE PUSH32 0xC7F505B2F371AE2175EE4913F4499E1F2633A7B5936321EED1CDAEB6115181D2 SWAP1 PUSH1 0x20 SWAP1 LOG1 CODESIZE DUP1 DUP1 PUSH3 0x58 JUMP JUMPDEST PUSH4 0xF92EE8A9 PUSH1 0xE0 SHL DUP2 MSTORE PUSH1 0x4 SWAP1 REVERT JUMPDEST PUSH1 0x0 DUP1 REVERT INVALID PUSH1 0x80 DUP1 PUSH1 0x40 MSTORE PUSH1 0x4 CALLDATASIZE LT ISZERO PUSH2 0x13 JUMPI PUSH1 0x0 DUP1 REVERT JUMPDEST PUSH1 0x0 SWAP1 DUP2 CALLDATALOAD PUSH1 0xE0 SHR SWAP1 DUP2 PUSH4 0x1FFC9A7 EQ PUSH2 0x260A JUMPI POP DUP1 PUSH4 0x69B7820 EQ PUSH2 0x259D JUMPI DUP1 PUSH4 0x6FDDE03 EQ PUSH2 0x24F3 JUMPI DUP1 PUSH4 0x81812FC EQ PUSH2 0x24A9 JUMPI DUP1 PUSH4 0x95EA7B3 EQ PUSH2 0x23C0 JUMPI DUP1 PUSH4 0xEA58915 EQ PUSH2 0xB4E JUMPI DUP1 PUSH4 0xFB51AC4 EQ PUSH2 0x2363 JUMPI DUP1 PUSH4 0x13BFFFAC EQ PUSH2 0x233A JUMPI DUP1 PUSH4 0x18919D62 EQ PUSH2 0x20BF JUMPI DUP1 PUSH4 0x23B872DD EQ PUSH2 0x20A7 JUMPI DUP1 PUSH4 0x24659318 EQ PUSH2 0x2089 JUMPI DUP1 PUSH4 0x2A55205A EQ PUSH2 0x1FA1 JUMPI DUP1 PUSH4 0x2D632678 EQ PUSH2 0x1B1B JUMPI DUP1 PUSH4 0x2D6B6224 EQ PUSH2 0x1F86 JUMPI DUP1 PUSH4 0x34F8F268 EQ PUSH2 0x1F6B JUMPI DUP1 PUSH4 0x3C404A9C EQ PUSH2 0xFD5 JUMPI DUP1 PUSH4 0x3CCFD60B EQ PUSH2 0x1EAF JUMPI DUP1 PUSH4 0x3F2C0D6A EQ PUSH2 0x1C36 JUMPI DUP1 PUSH4 0x40B55480 EQ PUSH2 0x1C13 JUMPI DUP1 PUSH4 0x42842E0E EQ PUSH2 0x1BE5 JUMPI DUP1 PUSH4 0x4A7887C4 EQ PUSH2 0x1BC8 JUMPI DUP1 PUSH4 0x4D853EE5 EQ PUSH2 0x1B9F JUMPI DUP1 PUSH4 0x4E8117A9 EQ PUSH2 0x1B76 JUMPI DUP1 PUSH4 0x5270C753 EQ PUSH2 0x1B59 JUMPI DUP1 PUSH4 0x5C121BC9 EQ PUSH2 0x1B20 JUMPI DUP1 PUSH4 0x611F3F10 EQ PUSH2 0x1B1B JUMPI DUP1 PUSH4 0x61D027B3 EQ PUSH2 0x1AF2 JUMPI DUP1 PUSH4 0x6352211E EQ PUSH2 0x1AC1 JUMPI DUP1 PUSH4 0x6AC6319C EQ PUSH2 0x1AA5 JUMPI DUP1 PUSH4 0x70A08231 EQ PUSH2 0x1A4F JUMPI DUP1 PUSH4 0x715018A6 EQ PUSH2 0x19E4 JUMPI DUP1 PUSH4 0x74819EF7 EQ PUSH2 0x19C8 JUMPI DUP1 PUSH4 0x76C25E6F EQ PUSH2 0x199F JUMPI DUP1 PUSH4 0x76C64C62 EQ PUSH2 0x191A JUMPI DUP1 PUSH4 0x7726C505 EQ PUSH2 0x18FF JUMPI DUP1 PUSH4 0x7BB23E3A EQ PUSH2 0x18E1 JUMPI DUP1 PUSH4 0x7D330CDD EQ PUSH2 0x186E JUMPI DUP1 PUSH4 0x7F0505F1 EQ PUSH2 0x1835 JUMPI DUP1 PUSH4 0x8539CB82 EQ PUSH2 0x1819 JUMPI DUP1 PUSH4 0x89D29C4C EQ PUSH2 0x1046 JUMPI DUP1 PUSH4 0x8CFEC4C0 EQ PUSH2 0x1028 JUMPI DUP1 PUSH4 0x8DA5CB5B EQ PUSH2 0xFF2 JUMPI DUP1 PUSH4 0x902D55A5 EQ PUSH2 0xFD5 JUMPI DUP1 PUSH4 0x9134D9C2 EQ PUSH2 0xFB0 JUMPI DUP1 PUSH4 0x95D89B41 EQ PUSH2 0xECF JUMPI DUP1 PUSH4 0xA22CB465 EQ PUSH2 0xE2D JUMPI DUP1 PUSH4 0xA2309FF8 EQ PUSH2 0xE10 JUMPI DUP1 PUSH4 0xA3ECA3ED EQ PUSH2 0xD78 JUMPI DUP1 PUSH4 0xAA0F0D7F EQ PUSH2 0xB92 JUMPI DUP1 PUSH4 0xAB13C089 EQ PUSH2 0xB53 JUMPI DUP1 PUSH4 0xB0660C77 EQ PUSH2 0xB4E JUMPI DUP1 PUSH4 0xB32395CA EQ PUSH2 0xB15 JUMPI DUP1 PUSH4 0xB4BBB18F EQ PUSH2 0x910 JUMPI DUP1 PUSH4 0xB88D4FDE EQ PUSH2 0x8A4 JUMPI DUP1 PUSH4 0xBFA41777 EQ PUSH2 0x886 JUMPI DUP1 PUSH4 0xC2CA0AC5 EQ PUSH2 0x812 JUMPI DUP1 PUSH4 0xC87B56DD EQ PUSH2 0x6F7 JUMPI DUP1 PUSH4 0xD0E8F26E EQ PUSH2 0x6D9 JUMPI DUP1 PUSH4 0xD67F8D0B EQ PUSH2 0x65B JUMPI DUP1 PUSH4 0xE0A80853 EQ PUSH2 0x5D9 JUMPI DUP1 PUSH4 0xE985E9C5 EQ PUSH2 0x58A JUMPI DUP1 PUSH4 0xEAFD4891 EQ PUSH2 0x56C JUMPI DUP1 PUSH4 0xEF39154B EQ PUSH2 0x54E JUMPI DUP1 PUSH4 0xEFD0CBF9 EQ PUSH2 0x31B JUMPI PUSH4 0xF2FDE38B EQ PUSH2 0x2EC JUMPI PUSH1 0x0 DUP1 REVERT JUMPDEST CALLVALUE PUSH2 0x318 JUMPI PUSH1 0x20 CALLDATASIZE PUSH1 0x3 NOT ADD SLT PUSH2 0x318 JUMPI PUSH2 0x315 PUSH2 0x308 PUSH2 0x26D9 JUMP JUMPDEST PUSH2 0x310 PUSH2 0x2FBD JUMP JUMPDEST PUSH2 0x2EBF JUMP JUMPDEST DUP1 RETURN JUMPDEST DUP1 REVERT JUMPDEST POP PUSH1 0x20 CALLDATASIZE PUSH1 0x3 NOT ADD SLT PUSH2 0x318 JUMPI PUSH1 0x4 CALLDATALOAD PUSH2 0x333 PUSH2 0x2F33 JUMP JUMPDEST PUSH2 0x33B PUSH2 0x2E39 JUMP JUMPDEST ISZERO PUSH2 0x509 JUMPI PUSH2 0x358 PUSH2 0x1A4 PUSH2 0x351 DUP4 DUP6 SLOAD PUSH2 0x2A08 JUMP JUMPDEST GT ISZERO PUSH2 0x2A15 JUMP JUMPDEST PUSH1 0x5 DUP2 GT PUSH2 0x4CD JUMPI CALLER DUP3 MSTORE PUSH1 0x10 PUSH1 0x20 MSTORE PUSH2 0x382 PUSH1 0x5 PUSH2 0x37B DUP4 PUSH1 0x40 DUP7 KECCAK256 SLOAD PUSH2 0x2A08 JUMP JUMPDEST GT ISZERO PUSH2 0x2A9B JUMP JUMPDEST PUSH8 0x5FC1B97136320000 SWAP1 DUP1 DUP3 MUL SWAP2 DUP3 DIV DUP2 SUB PUSH2 0x4B9 JUMPI PUSH2 0x3A4 DUP3 CALLVALUE LT ISZERO PUSH2 0x2A58 JUMP JUMPDEST CALLER DUP4 MSTORE PUSH1 0x10 PUSH1 0x20 MSTORE PUSH1 0x40 DUP4 KECCAK256 PUSH2 0x3BB DUP3 DUP3 SLOAD PUSH2 0x2A08 JUMP JUMPDEST SWAP1 SSTORE DUP3 JUMPDEST DUP2 DUP2 LT PUSH2 0x40E JUMPI POP POP DUP2 DUP2 CALLVALUE GT PUSH2 0x3E6 JUMPI JUMPDEST PUSH1 0x1 PUSH1 0x0 DUP1 MLOAD PUSH1 0x20 PUSH2 0x358B DUP4 CODECOPY DUP2 MLOAD SWAP2 MSTORE SSTORE DUP1 RETURN JUMPDEST DUP1 DUP1 DUP1 PUSH2 0x3F6 PUSH2 0x407 SWAP6 CALLVALUE PUSH2 0x2B86 JUMP JUMPDEST CALLER GAS CALL PUSH2 0x401 PUSH2 0x2B93 JUMP JUMPDEST POP PUSH2 0x2BC3 JUMP JUMPDEST CODESIZE DUP2 PUSH2 0x3D1 JUMP JUMPDEST PUSH2 0x424 PUSH2 0x41B DUP6 SLOAD PUSH2 0x2B77 JUMP JUMPDEST DUP1 DUP7 SSTORE CALLER PUSH2 0x3121 JUMP JUMPDEST PUSH1 0x6 SLOAD DUP5 SLOAD DUP6 SWAP2 PUSH1 0x1 PUSH1 0x1 PUSH1 0xA0 SHL SUB AND SWAP1 DUP2 EXTCODESIZE ISZERO PUSH2 0x4B5 JUMPI DUP3 SWAP2 PUSH1 0x64 DUP4 SWAP3 PUSH1 0x40 MLOAD SWAP5 DUP6 SWAP4 DUP5 SWAP3 PUSH4 0x445A4775 PUSH1 0xE1 SHL DUP5 MSTORE PUSH1 0x4 DUP5 ADD MSTORE CALLER PUSH1 0x24 DUP5 ADD MSTORE PUSH1 0x1 PUSH1 0x44 DUP5 ADD MSTORE GAS CALL DUP1 ISZERO PUSH2 0x4AA JUMPI PUSH2 0x492 JUMPI JUMPDEST POP SWAP1 PUSH1 0x1 SWAP2 SLOAD CALLER PUSH1 0x0 DUP1 MLOAD PUSH1 0x20 PUSH2 0x350B DUP4 CODECOPY DUP2 MLOAD SWAP2 MSTORE DUP8 DUP1 LOG3 ADD PUSH2 0x3BF JUMP JUMPDEST PUSH2 0x49B SWAP1 PUSH2 0x2721 JUMP JUMPDEST PUSH2 0x4A6 JUMPI DUP4 CODESIZE PUSH2 0x473 JUMP JUMPDEST DUP4 DUP1 REVERT JUMPDEST PUSH1 0x40 MLOAD RETURNDATASIZE DUP5 DUP3 RETURNDATACOPY RETURNDATASIZE SWAP1 REVERT JUMPDEST DUP3 DUP1 REVERT JUMPDEST PUSH4 0x4E487B71 PUSH1 0xE0 SHL DUP4 MSTORE PUSH1 0x11 PUSH1 0x4 MSTORE PUSH1 0x24 DUP4 REVERT JUMPDEST PUSH1 0x40 MLOAD PUSH3 0x461BCD PUSH1 0xE5 SHL DUP2 MSTORE PUSH1 0x20 PUSH1 0x4 DUP3 ADD MSTORE PUSH1 0x14 PUSH1 0x24 DUP3 ADD MSTORE PUSH20 0x115E18D959591CC81C1D589B1A58C81B1A5B5A5D PUSH1 0x62 SHL PUSH1 0x44 DUP3 ADD MSTORE PUSH1 0x64 SWAP1 REVERT JUMPDEST PUSH1 0x40 MLOAD PUSH3 0x461BCD PUSH1 0xE5 SHL DUP2 MSTORE PUSH1 0x20 PUSH1 0x4 DUP3 ADD MSTORE PUSH1 0x1C PUSH1 0x24 DUP3 ADD MSTORE PUSH32 0x5075626C6963206D696E74207068617365206E6F742061637469766500000000 PUSH1 0x44 DUP3 ADD MSTORE PUSH1 0x64 SWAP1 REVERT JUMPDEST POP CALLVALUE PUSH2 0x318 JUMPI DUP1 PUSH1 0x3 NOT CALLDATASIZE ADD SLT PUSH2 0x318 JUMPI PUSH1 0x20 PUSH1 0x1 SLOAD PUSH1 0x40 MLOAD SWAP1 DUP2 MSTORE RETURN JUMPDEST POP CALLVALUE PUSH2 0x318 JUMPI DUP1 PUSH1 0x3 NOT CALLDATASIZE ADD SLT PUSH2 0x318 JUMPI PUSH1 0x20 PUSH1 0xB SLOAD PUSH1 0x40 MLOAD SWAP1 DUP2 MSTORE RETURN JUMPDEST POP CALLVALUE PUSH2 0x318 JUMPI PUSH1 0x40 CALLDATASIZE PUSH1 0x3 NOT ADD SLT PUSH2 0x318 JUMPI PUSH2 0x5A4 PUSH2 0x26D9 JUMP JUMPDEST PUSH2 0x5B5 PUSH2 0x5AF PUSH2 0x26EF JUMP JUMPDEST SWAP2 PUSH2 0x28E1 JUMP JUMPDEST SWAP1 PUSH1 0x1 DUP1 PUSH1 0xA0 SHL SUB AND PUSH1 0x0 MSTORE PUSH1 0x20 MSTORE PUSH1 0x20 PUSH1 0xFF PUSH1 0x40 PUSH1 0x0 KECCAK256 SLOAD AND PUSH1 0x40 MLOAD SWAP1 ISZERO ISZERO DUP2 MSTORE RETURN JUMPDEST POP CALLVALUE PUSH2 0x318 JUMPI PUSH1 0x20 CALLDATASIZE PUSH1 0x3 NOT ADD SLT PUSH2 0x318 JUMPI PUSH1 0x4 CALLDATALOAD DUP1 ISZERO ISZERO DUP1 SWAP2 SUB PUSH2 0x656 JUMPI DUP2 SWAP1 PUSH2 0x602 PUSH2 0x2FBD JUMP JUMPDEST PUSH1 0x5 SLOAD PUSH1 0x1 PUSH1 0x1 PUSH1 0xA0 SHL SUB AND SWAP1 DUP2 EXTCODESIZE ISZERO PUSH2 0x652 JUMPI DUP3 SWAP2 PUSH1 0x24 DUP4 SWAP3 PUSH1 0x40 MLOAD SWAP5 DUP6 SWAP4 DUP5 SWAP3 PUSH4 0xE0A80853 PUSH1 0xE0 SHL DUP5 MSTORE PUSH1 0x4 DUP5 ADD MSTORE GAS CALL DUP1 ISZERO PUSH2 0x4AA JUMPI PUSH2 0x642 JUMPI POP RETURN JUMPDEST PUSH2 0x64B SWAP1 PUSH2 0x2721 JUMP JUMPDEST PUSH2 0x318 JUMPI DUP1 RETURN JUMPDEST POP POP REVERT JUMPDEST PUSH1 0x0 DUP1 REVERT JUMPDEST POP CALLVALUE PUSH2 0x318 JUMPI DUP1 PUSH1 0x3 NOT CALLDATASIZE ADD SLT PUSH2 0x318 JUMPI PUSH2 0x674 PUSH2 0x2F33 JUMP JUMPDEST PUSH1 0x6 SLOAD DUP2 SWAP1 PUSH1 0x1 PUSH1 0x1 PUSH1 0xA0 SHL SUB AND DUP1 EXTCODESIZE ISZERO PUSH2 0x6D6 JUMPI DUP2 DUP1 SWAP2 PUSH1 0x4 PUSH1 0x40 MLOAD DUP1 SWAP5 DUP2 SWAP4 PUSH4 0xD67F8D0B PUSH1 0xE0 SHL DUP4 MSTORE GAS CALL DUP1 ISZERO PUSH2 0x4AA JUMPI PUSH2 0x6C2 JUMPI JUMPDEST POP PUSH1 0x1 PUSH1 0x0 DUP1 MLOAD PUSH1 0x20 PUSH2 0x358B DUP4 CODECOPY DUP2 MLOAD SWAP2 MSTORE SSTORE DUP1 RETURN JUMPDEST PUSH2 0x6CB SWAP1 PUSH2 0x2721 JUMP JUMPDEST PUSH2 0x318 JUMPI DUP1 CODESIZE PUSH2 0x6AC JUMP JUMPDEST POP REVERT JUMPDEST POP CALLVALUE PUSH2 0x318 JUMPI DUP1 PUSH1 0x3 NOT CALLDATASIZE ADD SLT PUSH2 0x318 JUMPI PUSH1 0x20 PUSH1 0xA SLOAD PUSH1 0x40 MLOAD SWAP1 DUP2 MSTORE RETURN JUMPDEST POP CALLVALUE PUSH2 0x318 JUMPI PUSH1 0x20 DUP1 PUSH1 0x3 NOT CALLDATASIZE ADD SLT PUSH2 0x802 JUMPI PUSH1 0x5 SLOAD PUSH1 0x4 CALLDATALOAD SWAP1 DUP4 SWAP1 PUSH1 0x1 PUSH1 0x1 PUSH1 0xA0 SHL SUB SWAP1 DUP2 AND PUSH2 0x727 DUP5 PUSH2 0x2F63 JUMP JUMPDEST SWAP4 PUSH1 0x40 MLOAD DUP1 SWAP6 DUP2 SWAP5 DUP3 SWAP4 PUSH4 0x9AAFB61 PUSH1 0xE0 SHL DUP5 MSTORE PUSH1 0x4 DUP5 ADD MSTORE PUSH1 0x60 PUSH1 0x24 DUP5 ADD MSTORE PUSH2 0x753 PUSH1 0x64 DUP5 ADD PUSH2 0x2954 JUMP JUMPDEST SWAP2 AND PUSH1 0x44 DUP4 ADD MSTORE SUB SWAP2 GAS STATICCALL SWAP3 DUP4 ISZERO PUSH2 0x806 JUMPI DUP1 SWAP4 PUSH2 0x786 JUMPI JUMPDEST POP POP PUSH2 0x782 PUSH1 0x40 MLOAD SWAP3 DUP3 DUP5 SWAP4 DUP5 MSTORE DUP4 ADD SWAP1 PUSH2 0x26B4 JUMP JUMPDEST SUB SWAP1 RETURN JUMPDEST SWAP1 SWAP2 SWAP3 POP RETURNDATASIZE DUP1 DUP3 DUP5 RETURNDATACOPY PUSH2 0x799 DUP2 DUP5 PUSH2 0x276A JUMP JUMPDEST DUP3 ADD SWAP2 DUP4 DUP2 DUP5 SUB SLT PUSH2 0x802 JUMPI DUP1 MLOAD SWAP1 PUSH1 0x1 PUSH1 0x1 PUSH1 0x40 SHL SUB DUP3 GT PUSH2 0x4B5 JUMPI ADD DUP3 PUSH1 0x1F DUP3 ADD SLT ISZERO PUSH2 0x802 JUMPI DUP1 MLOAD SWAP2 PUSH2 0x7CE DUP4 PUSH2 0x278B JUMP JUMPDEST SWAP4 PUSH2 0x7DC PUSH1 0x40 MLOAD SWAP6 DUP7 PUSH2 0x276A JUMP JUMPDEST DUP4 DUP6 MSTORE DUP6 DUP5 DUP5 ADD ADD GT PUSH2 0x318 JUMPI POP SWAP1 PUSH2 0x7FA SWAP2 DUP5 DUP1 DUP6 ADD SWAP2 ADD PUSH2 0x2691 JUMP JUMPDEST SWAP1 CODESIZE DUP1 PUSH2 0x76C JUMP JUMPDEST POP DUP1 REVERT JUMPDEST PUSH1 0x40 MLOAD SWAP1 RETURNDATASIZE SWAP1 DUP3 RETURNDATACOPY RETURNDATASIZE SWAP1 REVERT JUMPDEST POP CALLVALUE PUSH2 0x318 JUMPI PUSH1 0x20 CALLDATASIZE PUSH1 0x3 NOT ADD SLT PUSH2 0x318 JUMPI DUP1 PUSH1 0x4 CALLDATALOAD PUSH2 0x830 PUSH2 0x2FBD JUMP JUMPDEST PUSH1 0x5 SLOAD PUSH1 0x1 PUSH1 0x1 PUSH1 0xA0 SHL SUB SWAP2 SWAP1 DUP3 AND PUSH2 0x848 DUP3 PUSH2 0x2F63 JUMP JUMPDEST SWAP1 DUP1 EXTCODESIZE ISZERO PUSH2 0x882 JUMPI DUP5 SWAP3 DUP4 PUSH1 0x44 SWAP3 PUSH1 0x40 MLOAD SWAP7 DUP8 SWAP6 DUP7 SWAP5 PUSH4 0x2FEDC381 PUSH1 0xE2 SHL DUP7 MSTORE PUSH1 0x4 DUP7 ADD MSTORE AND PUSH1 0x24 DUP5 ADD MSTORE GAS CALL DUP1 ISZERO PUSH2 0x4AA JUMPI PUSH2 0x642 JUMPI POP RETURN JUMPDEST DUP5 DUP1 REVERT JUMPDEST POP CALLVALUE PUSH2 0x318 JUMPI DUP1 PUSH1 0x3 NOT CALLDATASIZE ADD SLT PUSH2 0x318 JUMPI PUSH1 0x20 PUSH1 0x9 SLOAD PUSH1 0x40 MLOAD SWAP1 DUP2 MSTORE RETURN JUMPDEST POP CALLVALUE PUSH2 0x318 JUMPI PUSH1 0x80 CALLDATASIZE PUSH1 0x3 NOT ADD SLT PUSH2 0x318 JUMPI PUSH2 0x8BE PUSH2 0x26D9 JUMP JUMPDEST PUSH2 0x8C6 PUSH2 0x26EF JUMP JUMPDEST SWAP1 PUSH1 0x44 CALLDATALOAD PUSH1 0x64 CALLDATALOAD SWAP3 PUSH1 0x1 PUSH1 0x1 PUSH1 0x40 SHL SUB DUP5 GT PUSH2 0x882 JUMPI CALLDATASIZE PUSH1 0x23 DUP6 ADD SLT ISZERO PUSH2 0x882 JUMPI PUSH2 0x8FE PUSH2 0x315 SWAP5 CALLDATASIZE SWAP1 PUSH1 0x24 DUP2 PUSH1 0x4 ADD CALLDATALOAD SWAP2 ADD PUSH2 0x27A6 JUMP JUMPDEST SWAP3 PUSH2 0x90A DUP4 DUP4 DUP4 PUSH2 0x2BFF JUMP JUMPDEST CALLER PUSH2 0x33BE JUMP JUMPDEST POP CALLVALUE PUSH2 0x318 JUMPI PUSH1 0x20 CALLDATASIZE PUSH1 0x3 NOT ADD SLT PUSH2 0x318 JUMPI PUSH1 0x4 CALLDATALOAD PUSH2 0x92D PUSH2 0x2F33 JUMP JUMPDEST PUSH1 0x4 SLOAD PUSH1 0x1 PUSH1 0x1 PUSH1 0xA0 SHL SUB SWAP1 DUP2 AND CALLER SUB PUSH2 0xAD8 JUMPI PUSH2 0x949 PUSH2 0x2EA8 JUMP JUMPDEST ISZERO PUSH2 0xA93 JUMPI PUSH1 0xD SLOAD PUSH1 0x4 PUSH2 0x95D DUP5 DUP4 PUSH2 0x2A08 JUMP JUMPDEST GT PUSH2 0xA4E JUMPI DUP3 PUSH2 0x97D SWAP2 PUSH2 0x978 PUSH2 0x1A4 PUSH2 0x351 DUP5 DUP10 SLOAD PUSH2 0x2A08 JUMP JUMPDEST PUSH2 0x2A08 JUMP JUMPDEST PUSH1 0xD SSTORE DUP3 JUMPDEST DUP3 DUP2 LT PUSH2 0x9B2 JUMPI DUP4 PUSH1 0x4 PUSH1 0xD SLOAD EQ PUSH2 0x9A9 JUMPI PUSH1 0x1 PUSH1 0x0 DUP1 MLOAD PUSH1 0x20 PUSH2 0x358B DUP4 CODECOPY DUP2 MLOAD SWAP2 MSTORE SSTORE DUP1 RETURN JUMPDEST TIMESTAMP PUSH1 0xA SSTORE PUSH2 0x3D1 JUMP JUMPDEST PUSH2 0x9CC PUSH2 0x9BF DUP6 SLOAD PUSH2 0x2B77 JUMP JUMPDEST DUP1 DUP7 SSTORE DUP4 PUSH1 0x4 SLOAD AND PUSH2 0x3121 JUMP JUMPDEST DUP4 DUP3 PUSH1 0x6 SLOAD AND DUP2 SLOAD DUP5 PUSH1 0x4 SLOAD AND DUP3 EXTCODESIZE ISZERO PUSH2 0x4A6 JUMPI PUSH1 0x64 DUP5 SWAP3 DUP4 PUSH1 0x40 MLOAD SWAP6 DUP7 SWAP5 DUP6 SWAP4 PUSH4 0x445A4775 PUSH1 0xE1 SHL DUP6 MSTORE PUSH1 0x4 DUP6 ADD MSTORE PUSH1 0x24 DUP5 ADD MSTORE PUSH1 0x1 PUSH1 0x44 DUP5 ADD MSTORE GAS CALL DUP1 ISZERO PUSH2 0x4AA JUMPI PUSH2 0xA3A JUMPI JUMPDEST POP POP PUSH1 0x1 SWAP1 DUP3 PUSH1 0x4 SLOAD AND DUP6 SLOAD SWAP1 PUSH1 0x0 DUP1 MLOAD PUSH1 0x20 PUSH2 0x350B DUP4 CODECOPY DUP2 MLOAD SWAP2 MSTORE DUP8 DUP1 LOG3 ADD PUSH2 0x982 JUMP JUMPDEST PUSH2 0xA43 SWAP1 PUSH2 0x2721 JUMP JUMPDEST PUSH2 0x4A6 JUMPI DUP4 CODESIZE PUSH2 0xA15 JUMP JUMPDEST PUSH1 0x40 MLOAD PUSH3 0x461BCD PUSH1 0xE5 SHL DUP2 MSTORE PUSH1 0x20 PUSH1 0x4 DUP3 ADD MSTORE PUSH1 0x1A PUSH1 0x24 DUP3 ADD MSTORE PUSH32 0x4578636565647320666F756E646572206D696E74206C696D6974000000000000 PUSH1 0x44 DUP3 ADD MSTORE PUSH1 0x64 SWAP1 REVERT JUMPDEST PUSH1 0x40 MLOAD PUSH3 0x461BCD PUSH1 0xE5 SHL DUP2 MSTORE PUSH1 0x20 PUSH1 0x4 DUP3 ADD MSTORE PUSH1 0x1D PUSH1 0x24 DUP3 ADD MSTORE PUSH32 0x466F756E646572206D696E74207068617365206E6F7420616374697665000000 PUSH1 0x44 DUP3 ADD MSTORE PUSH1 0x64 SWAP1 REVERT JUMPDEST PUSH1 0x40 MLOAD PUSH3 0x461BCD PUSH1 0xE5 SHL DUP2 MSTORE PUSH1 0x20 PUSH1 0x4 DUP3 ADD MSTORE PUSH1 0x15 PUSH1 0x24 DUP3 ADD MSTORE PUSH21 0x13DB9B1E48199BDD5B99195C8818D85B881B5A5B9D PUSH1 0x5A SHL PUSH1 0x44 DUP3 ADD MSTORE PUSH1 0x64 SWAP1 REVERT JUMPDEST POP CALLVALUE PUSH2 0x318 JUMPI PUSH1 0x20 CALLDATASIZE PUSH1 0x3 NOT ADD SLT PUSH2 0x318 JUMPI PUSH1 0x20 SWAP1 PUSH1 0x40 SWAP1 PUSH1 0x1 PUSH1 0x1 PUSH1 0xA0 SHL SUB PUSH2 0xB3D PUSH2 0x26D9 JUMP JUMPDEST AND DUP2 MSTORE PUSH1 0xE DUP4 MSTORE KECCAK256 SLOAD PUSH1 0x40 MLOAD SWAP1 DUP2 MSTORE RETURN JUMPDEST PUSH2 0x2705 JUMP JUMPDEST POP CALLVALUE PUSH2 0x318 JUMPI DUP1 PUSH1 0x3 NOT CALLDATASIZE ADD SLT PUSH2 0x318 JUMPI PUSH2 0x782 PUSH1 0x40 MLOAD PUSH2 0xB7E DUP2 PUSH2 0xB77 DUP2 PUSH2 0x2954 JUMP JUMPDEST SUB DUP3 PUSH2 0x276A JUMP JUMPDEST PUSH1 0x40 MLOAD SWAP2 DUP3 SWAP2 PUSH1 0x20 DUP4 MSTORE PUSH1 0x20 DUP4 ADD SWAP1 PUSH2 0x26B4 JUMP JUMPDEST POP CALLVALUE PUSH2 0x318 JUMPI PUSH1 0x20 SWAP1 PUSH1 0x20 PUSH1 0x3 NOT CALLDATASIZE ADD SLT PUSH2 0x318 JUMPI PUSH1 0x1 PUSH1 0x1 PUSH1 0x40 SHL SUB PUSH1 0x4 CALLDATALOAD DUP2 DUP2 GT PUSH2 0x4B5 JUMPI CALLDATASIZE PUSH1 0x23 DUP3 ADD SLT ISZERO PUSH2 0x4B5 JUMPI DUP1 PUSH1 0x4 ADD CALLDATALOAD SWAP2 DUP3 GT PUSH2 0x4B5 JUMPI PUSH1 0x24 CALLDATASIZE PUSH1 0x24 DUP5 DUP5 ADD ADD GT PUSH2 0x4A6 JUMPI PUSH2 0xBE6 PUSH2 0x2FBD JUMP JUMPDEST DUP3 ISZERO PUSH2 0xD33 JUMPI PUSH2 0xBF7 PUSH1 0x7 SLOAD PUSH2 0x291A JUMP JUMPDEST PUSH1 0x1F DUP2 GT PUSH2 0xCCE JUMPI JUMPDEST POP DUP4 SWAP5 PUSH1 0x1F DUP5 GT PUSH1 0x1 EQ PUSH2 0xC47 JUMPI POP POP DUP3 SWAP4 DUP3 SWAP2 PUSH2 0xC33 SWAP5 SWAP3 PUSH2 0xC39 JUMPI JUMPDEST POP POP DUP2 PUSH1 0x1 SHL SWAP2 PUSH1 0x0 NOT SWAP1 PUSH1 0x3 SHL SHR NOT AND OR SWAP1 JUMP JUMPDEST PUSH1 0x7 SSTORE DUP1 RETURN JUMPDEST PUSH1 0x24 SWAP3 POP ADD ADD CALLDATALOAD CODESIZE DUP1 PUSH2 0xC1E JUMP JUMPDEST PUSH32 0xA66CC928B5EDB82AF9BD49922954155AB7B0942694BEA4CE44661D9A8736C688 SWAP3 SWAP2 PUSH1 0x1F NOT DUP6 AND SWAP2 DUP7 SWAP2 JUMPDEST DUP4 DUP4 LT PUSH2 0xCB2 JUMPI POP POP POP SWAP5 DUP4 PUSH1 0x1 SWAP6 SWAP7 LT PUSH2 0xC95 JUMPI JUMPDEST POP POP POP DUP2 SHL ADD PUSH1 0x7 SSTORE DUP1 RETURN JUMPDEST ADD PUSH1 0x24 ADD CALLDATALOAD PUSH1 0x0 NOT PUSH1 0x3 DUP5 SWAP1 SHL PUSH1 0xF8 AND SHR NOT AND SWAP1 SSTORE CODESIZE DUP1 DUP1 PUSH2 0xC89 JUMP JUMPDEST SWAP1 DUP1 PUSH1 0x1 DUP11 SWAP8 DUP5 DUP4 SWAP7 SWAP13 DUP10 ADD ADD CALLDATALOAD DUP2 SSTORE ADD SWAP7 ADD SWAP9 ADD SWAP2 SWAP1 PUSH2 0xC73 JUMP JUMPDEST PUSH1 0x7 PUSH1 0x0 MSTORE PUSH32 0xA66CC928B5EDB82AF9BD49922954155AB7B0942694BEA4CE44661D9A8736C688 PUSH1 0x1F DUP6 ADD PUSH1 0x5 SHR DUP2 ADD SWAP2 PUSH1 0x20 DUP7 LT PUSH2 0xD29 JUMPI JUMPDEST PUSH1 0x1F ADD PUSH1 0x5 SHR ADD SWAP1 JUMPDEST DUP2 DUP2 LT PUSH2 0xD1D JUMPI POP PUSH2 0xC00 JUMP JUMPDEST PUSH1 0x0 DUP2 SSTORE PUSH1 0x1 ADD PUSH2 0xD10 JUMP JUMPDEST SWAP1 SWAP2 POP DUP2 SWAP1 PUSH2 0xD07 JUMP JUMPDEST PUSH1 0x40 MLOAD PUSH3 0x461BCD PUSH1 0xE5 SHL DUP2 MSTORE PUSH1 0x20 PUSH1 0x4 DUP3 ADD MSTORE PUSH1 0x1D PUSH1 0x24 DUP3 ADD MSTORE PUSH32 0x50726572657665616C205552492063616E6E6F7420626520656D707479000000 PUSH1 0x44 DUP3 ADD MSTORE PUSH1 0x64 SWAP1 REVERT JUMPDEST POP CALLVALUE PUSH2 0x318 JUMPI DUP1 PUSH1 0x3 NOT CALLDATASIZE ADD SLT PUSH2 0x318 JUMPI PUSH2 0xD91 PUSH2 0x2FBD JUMP JUMPDEST PUSH1 0xA SLOAD DUP1 ISZERO ISZERO SWAP1 DUP2 PUSH2 0xDE5 JUMPI JUMPDEST POP ISZERO PUSH2 0xDAB JUMPI TIMESTAMP PUSH1 0xB SSTORE DUP1 RETURN JUMPDEST PUSH1 0x40 MLOAD PUSH3 0x461BCD PUSH1 0xE5 SHL DUP2 MSTORE PUSH1 0x20 PUSH1 0x4 DUP3 ADD MSTORE PUSH1 0x12 PUSH1 0x24 DUP3 ADD MSTORE PUSH18 0x11D511081B5A5B9D081B9BDD08195B991959 PUSH1 0x72 SHL PUSH1 0x44 DUP3 ADD MSTORE PUSH1 0x64 SWAP1 REVERT JUMPDEST SWAP1 POP PUSH2 0x384 DUP2 ADD DUP1 SWAP2 GT PUSH2 0xDFC JUMPI TIMESTAMP LT ISZERO CODESIZE PUSH2 0xD9E JUMP JUMPDEST PUSH4 0x4E487B71 PUSH1 0xE0 SHL DUP3 MSTORE PUSH1 0x11 PUSH1 0x4 MSTORE PUSH1 0x24 DUP3 REVERT JUMPDEST POP CALLVALUE PUSH2 0x318 JUMPI DUP1 PUSH1 0x3 NOT CALLDATASIZE ADD SLT PUSH2 0x318 JUMPI PUSH1 0x20 SWAP1 SLOAD PUSH1 0x40 MLOAD SWAP1 DUP2 MSTORE RETURN JUMPDEST POP CALLVALUE PUSH2 0x318 JUMPI PUSH1 0x40 CALLDATASIZE PUSH1 0x3 NOT ADD SLT PUSH2 0x318 JUMPI PUSH2 0xE47 PUSH2 0x26D9 JUMP JUMPDEST PUSH1 0x24 CALLDATALOAD SWAP1 DUP2 ISZERO ISZERO DUP1 SWAP3 SUB PUSH2 0x656 JUMPI PUSH1 0x1 PUSH1 0x1 PUSH1 0xA0 SHL SUB AND SWAP1 DUP2 ISZERO PUSH2 0xEB6 JUMPI PUSH2 0xE6E CALLER PUSH2 0x28E1 JUMP JUMPDEST DUP3 PUSH1 0x0 MSTORE PUSH1 0x20 MSTORE PUSH1 0x40 PUSH1 0x0 KECCAK256 PUSH1 0xFF NOT DUP2 SLOAD AND PUSH1 0xFF DUP4 AND OR SWAP1 SSTORE PUSH1 0x40 MLOAD SWAP1 DUP2 MSTORE PUSH32 0x17307EAB39AB6107E8899845AD3D59BD9653F200F220920489CA2B5937696C31 PUSH1 0x20 CALLER SWAP3 LOG3 DUP1 RETURN JUMPDEST PUSH1 0x40 MLOAD PUSH4 0xB611743 PUSH1 0xE3 SHL DUP2 MSTORE PUSH1 0x4 DUP2 ADD DUP4 SWAP1 MSTORE PUSH1 0x24 SWAP1 REVERT JUMPDEST POP CALLVALUE PUSH2 0x318 JUMPI DUP1 PUSH1 0x3 NOT CALLDATASIZE ADD SLT PUSH2 0x318 JUMPI PUSH1 0x40 MLOAD PUSH1 0x0 DUP1 MLOAD PUSH1 0x20 PUSH2 0x35EB DUP4 CODECOPY DUP2 MLOAD SWAP2 MSTORE DUP1 SLOAD DUP3 PUSH1 0x0 PUSH2 0xF00 DUP4 PUSH2 0x291A JUMP JUMPDEST SWAP3 DUP4 DUP4 MSTORE PUSH1 0x20 SWAP5 PUSH1 0x1 SWAP2 DUP7 PUSH1 0x1 DUP3 AND SWAP2 DUP3 PUSH1 0x0 EQ PUSH2 0xF8E JUMPI POP POP PUSH1 0x1 EQ PUSH2 0xF44 JUMPI JUMPDEST POP POP PUSH2 0xF30 SWAP3 POP SUB DUP4 PUSH2 0x276A JUMP JUMPDEST PUSH2 0x782 PUSH1 0x40 MLOAD SWAP3 DUP3 DUP5 SWAP4 DUP5 MSTORE DUP4 ADD SWAP1 PUSH2 0x26B4 JUMP JUMPDEST DUP6 SWAP3 POP PUSH1 0x0 MSTORE PUSH1 0x0 DUP1 MLOAD PUSH1 0x20 PUSH2 0x354B DUP4 CODECOPY DUP2 MLOAD SWAP2 MSTORE SWAP1 PUSH1 0x0 SWAP2 JUMPDEST DUP6 DUP4 LT PUSH2 0xF76 JUMPI POP POP PUSH2 0xF30 SWAP4 POP DUP3 ADD ADD DUP6 DUP1 PUSH2 0xF22 JUMP JUMPDEST DUP1 SLOAD DUP4 DUP10 ADD DUP6 ADD MSTORE DUP8 SWAP5 POP DUP7 SWAP4 SWAP1 SWAP3 ADD SWAP2 DUP2 ADD PUSH2 0xF5E JUMP JUMPDEST SWAP3 POP SWAP4 POP POP PUSH2 0xF30 SWAP5 SWAP2 POP PUSH1 0xFF NOT AND DUP3 DUP5 ADD MSTORE ISZERO ISZERO PUSH1 0x5 SHL DUP3 ADD ADD DUP6 DUP1 PUSH2 0xF22 JUMP JUMPDEST POP CALLVALUE PUSH2 0x318 JUMPI DUP1 PUSH1 0x3 NOT CALLDATASIZE ADD SLT PUSH2 0x318 JUMPI PUSH1 0x20 PUSH2 0xFCB PUSH2 0x2EA8 JUMP JUMPDEST PUSH1 0x40 MLOAD SWAP1 ISZERO ISZERO DUP2 MSTORE RETURN JUMPDEST POP CALLVALUE PUSH2 0x318 JUMPI DUP1 PUSH1 0x3 NOT CALLDATASIZE ADD SLT PUSH2 0x318 JUMPI PUSH1 0x20 PUSH1 0x40 MLOAD PUSH2 0x1A4 DUP2 MSTORE RETURN JUMPDEST POP CALLVALUE PUSH2 0x318 JUMPI DUP1 PUSH1 0x3 NOT CALLDATASIZE ADD SLT PUSH2 0x318 JUMPI PUSH1 0x0 DUP1 MLOAD PUSH1 0x20 PUSH2 0x356B DUP4 CODECOPY DUP2 MLOAD SWAP2 MSTORE SLOAD PUSH1 0x40 MLOAD PUSH1 0x1 PUSH1 0x1 PUSH1 0xA0 SHL SUB SWAP1 SWAP2 AND DUP2 MSTORE PUSH1 0x20 SWAP1 RETURN JUMPDEST POP CALLVALUE PUSH2 0x318 JUMPI DUP1 PUSH1 0x3 NOT CALLDATASIZE ADD SLT PUSH2 0x318 JUMPI PUSH1 0x20 PUSH1 0xC SLOAD PUSH1 0x40 MLOAD SWAP1 DUP2 MSTORE RETURN JUMPDEST POP CALLVALUE PUSH2 0x318 JUMPI PUSH1 0xC0 CALLDATASIZE PUSH1 0x3 NOT ADD SLT PUSH2 0x318 JUMPI PUSH1 0x44 CALLDATALOAD PUSH1 0x1 PUSH1 0x1 PUSH1 0xA0 SHL SUB DUP2 AND DUP2 SUB PUSH2 0x656 JUMPI PUSH1 0x64 CALLDATALOAD SWAP1 PUSH1 0x1 PUSH1 0x1 PUSH1 0xA0 SHL SUB DUP3 AND DUP3 SUB PUSH2 0x656 JUMPI PUSH1 0x84 CALLDATALOAD SWAP2 PUSH1 0x1 PUSH1 0x1 PUSH1 0xA0 SHL SUB DUP4 AND DUP4 SUB PUSH2 0x4A6 JUMPI PUSH1 0xA4 CALLDATALOAD PUSH1 0x1 PUSH1 0x1 PUSH1 0xA0 SHL SUB DUP2 AND DUP2 SUB PUSH2 0x656 JUMPI PUSH1 0x0 DUP1 MLOAD PUSH1 0x20 PUSH2 0x35CB DUP4 CODECOPY DUP2 MLOAD SWAP2 MSTORE SLOAD SWAP3 PUSH1 0x1 PUSH1 0x1 PUSH1 0x40 SHL SUB DUP5 AND DUP1 ISZERO SWAP1 DUP2 PUSH2 0x1809 JUMPI JUMPDEST PUSH1 0x1 EQ SWAP1 DUP2 PUSH2 0x17FF JUMPI JUMPDEST ISZERO SWAP1 DUP2 PUSH2 0x17F6 JUMPI JUMPDEST POP PUSH2 0x17E4 JUMPI PUSH1 0x1 PUSH1 0x1 PUSH1 0x1 PUSH1 0x40 SHL SUB NOT DUP6 AND OR PUSH1 0x0 DUP1 MLOAD PUSH1 0x20 PUSH2 0x35CB DUP4 CODECOPY DUP2 MLOAD SWAP2 MSTORE SSTORE PUSH1 0xFF DUP5 PUSH1 0x40 SHR AND ISZERO PUSH2 0x17B7 JUMPI JUMPDEST PUSH1 0x40 MLOAD PUSH2 0x1118 DUP2 PUSH2 0x2734 JUMP JUMPDEST PUSH1 0xF DUP2 MSTORE PUSH15 0x417065426561747347656E65736973 PUSH1 0x88 SHL PUSH1 0x20 DUP3 ADD MSTORE PUSH1 0x40 MLOAD SWAP1 PUSH2 0x1141 DUP3 PUSH2 0x2734 JUMP JUMPDEST PUSH1 0x3 DUP3 MSTORE PUSH3 0x414247 PUSH1 0xE8 SHL PUSH1 0x20 DUP4 ADD MSTORE PUSH2 0x1159 PUSH2 0x34DB JUMP JUMPDEST PUSH2 0x1161 PUSH2 0x34DB JUMP JUMPDEST DUP1 MLOAD SWAP1 PUSH1 0x1 PUSH1 0x1 PUSH1 0x40 SHL SUB DUP3 GT PUSH2 0x17A3 JUMPI PUSH2 0x118A PUSH1 0x0 DUP1 MLOAD PUSH1 0x20 PUSH2 0x352B DUP4 CODECOPY DUP2 MLOAD SWAP2 MSTORE SLOAD PUSH2 0x291A JUMP JUMPDEST PUSH1 0x1F DUP2 GT PUSH2 0x172D JUMPI JUMPDEST POP PUSH1 0x20 SWAP1 PUSH1 0x1F DUP4 GT PUSH1 0x1 EQ PUSH2 0x169E JUMPI PUSH2 0x11C3 SWAP3 SWAP2 DUP11 SWAP2 DUP4 PUSH2 0x157A JUMPI POP POP DUP2 PUSH1 0x1 SHL SWAP2 PUSH1 0x0 NOT SWAP1 PUSH1 0x3 SHL SHR NOT AND OR SWAP1 JUMP JUMPDEST PUSH1 0x0 DUP1 MLOAD PUSH1 0x20 PUSH2 0x352B DUP4 CODECOPY DUP2 MLOAD SWAP2 MSTORE SSTORE JUMPDEST DUP1 MLOAD SWAP1 PUSH1 0x1 PUSH1 0x1 PUSH1 0x40 SHL SUB DUP3 GT PUSH2 0x168A JUMPI PUSH2 0x11FD PUSH1 0x0 DUP1 MLOAD PUSH1 0x20 PUSH2 0x35EB DUP4 CODECOPY DUP2 MLOAD SWAP2 MSTORE SLOAD PUSH2 0x291A JUMP JUMPDEST PUSH1 0x1F DUP2 GT PUSH2 0x1614 JUMPI JUMPDEST POP PUSH1 0x20 SWAP1 PUSH1 0x1F DUP4 GT PUSH1 0x1 EQ PUSH2 0x1585 JUMPI PUSH2 0x1236 SWAP3 SWAP2 DUP10 SWAP2 DUP4 PUSH2 0x157A JUMPI POP POP DUP2 PUSH1 0x1 SHL SWAP2 PUSH1 0x0 NOT SWAP1 PUSH1 0x3 SHL SHR NOT AND OR SWAP1 JUMP JUMPDEST PUSH1 0x0 DUP1 MLOAD PUSH1 0x20 PUSH2 0x35EB DUP4 CODECOPY DUP2 MLOAD SWAP2 MSTORE SSTORE JUMPDEST PUSH2 0x124F PUSH2 0x34DB JUMP JUMPDEST PUSH2 0x1257 PUSH2 0x34DB JUMP JUMPDEST PUSH2 0x1260 CALLER PUSH2 0x2EBF JUMP JUMPDEST PUSH2 0x1268 PUSH2 0x34DB JUMP JUMPDEST PUSH2 0x1270 PUSH2 0x34DB JUMP JUMPDEST PUSH1 0x1 PUSH1 0x0 DUP1 MLOAD PUSH1 0x20 PUSH2 0x358B DUP4 CODECOPY DUP2 MLOAD SWAP2 MSTORE SSTORE PUSH2 0x128A PUSH2 0x34DB JUMP JUMPDEST PUSH1 0x1 PUSH1 0x1 PUSH1 0xA0 SHL SUB DUP2 AND ISZERO PUSH2 0x1535 JUMPI PUSH1 0x1 PUSH1 0x1 PUSH1 0xA0 SHL SUB DUP4 AND ISZERO PUSH2 0x14E5 JUMPI PUSH1 0x1 PUSH1 0x1 PUSH1 0xA0 SHL SUB DUP6 AND ISZERO PUSH2 0x148E JUMPI PUSH1 0x1 PUSH1 0x1 PUSH1 0xA0 SHL SUB DUP3 AND ISZERO PUSH2 0x1438 JUMPI PUSH1 0x4 DUP1 CALLDATALOAD PUSH1 0x1 SSTORE PUSH1 0x24 CALLDATALOAD PUSH1 0x2 SSTORE PUSH1 0x3 DUP1 SLOAD PUSH1 0x1 PUSH1 0x1 PUSH1 0xA0 SHL SUB NOT SWAP1 DUP2 AND PUSH1 0x1 PUSH1 0x1 PUSH1 0xA0 SHL SUB SWAP5 DUP6 AND OR SWAP1 SWAP2 SSTORE DUP2 SLOAD DUP2 AND CALLER OR SWAP1 SWAP2 SSTORE PUSH1 0x5 DUP1 SLOAD DUP3 AND SWAP5 DUP4 AND SWAP5 SWAP1 SWAP5 OR SWAP1 SWAP4 SSTORE PUSH1 0x6 DUP1 SLOAD DUP1 DUP6 AND DUP8 DUP5 AND SWAP1 DUP2 OR SWAP1 SWAP3 SSTORE PUSH1 0x8 DUP1 SLOAD SWAP1 SWAP6 AND SWAP4 SWAP1 SWAP3 AND SWAP3 SWAP1 SWAP3 OR SWAP1 SWAP3 SSTORE SWAP1 DUP5 AND SWAP1 DUP2 OR SWAP3 DUP4 ISZERO PUSH2 0x141F JUMPI PUSH1 0x40 MLOAD SWAP4 PUSH1 0x40 DUP6 ADD DUP6 DUP2 LT PUSH1 0x1 PUSH1 0x1 PUSH1 0x40 SHL SUB DUP3 GT OR PUSH2 0x1409 JUMPI PUSH1 0x40 SWAP1 DUP2 MSTORE SWAP1 DUP6 MSTORE PUSH2 0x1A4 PUSH1 0x20 SWAP1 SWAP6 ADD SWAP5 SWAP1 SWAP5 MSTORE PUSH1 0x1 PUSH1 0x1 PUSH1 0xA0 SHL SUB SWAP1 DUP2 AND SWAP2 AND OR PUSH1 0x69 PUSH1 0xA2 SHL OR PUSH32 0xDAEDC9AB023613A7CAF35E703657E986CCFAD7E3EB0AF93A2853F8D65DD86B00 SSTORE TIMESTAMP PUSH1 0x9 SSTORE SWAP1 SHR PUSH1 0xFF AND ISZERO PUSH2 0x13AF JUMPI DUP1 RETURN JUMPDEST PUSH9 0xFF0000000000000000 NOT PUSH1 0x0 DUP1 MLOAD PUSH1 0x20 PUSH2 0x35CB DUP4 CODECOPY DUP2 MLOAD SWAP2 MSTORE SLOAD AND PUSH1 0x0 DUP1 MLOAD PUSH1 0x20 PUSH2 0x35CB DUP4 CODECOPY DUP2 MLOAD SWAP2 MSTORE SSTORE PUSH32 0xC7F505B2F371AE2175EE4913F4499E1F2633A7B5936321EED1CDAEB6115181D2 PUSH1 0x20 PUSH1 0x40 MLOAD PUSH1 0x1 DUP2 MSTORE LOG1 DUP1 RETURN JUMPDEST PUSH4 0x4E487B71 PUSH1 0xE0 SHL PUSH1 0x0 MSTORE PUSH1 0x41 PUSH1 0x4 MSTORE PUSH1 0x24 PUSH1 0x0 REVERT JUMPDEST PUSH1 0x40 MLOAD PUSH4 0x5B6CC805 PUSH1 0xE1 SHL DUP2 MSTORE PUSH1 0x4 DUP2 ADD DUP7 SWAP1 MSTORE PUSH1 0x24 SWAP1 REVERT JUMPDEST PUSH1 0x40 MLOAD PUSH3 0x461BCD PUSH1 0xE5 SHL DUP2 MSTORE PUSH1 0x20 PUSH1 0x4 DUP3 ADD MSTORE PUSH1 0x28 PUSH1 0x24 DUP3 ADD MSTORE PUSH32 0x44656C65676174652072656769737472792063616E6E6F74206265207A65726F PUSH1 0x44 DUP3 ADD MSTORE PUSH8 0x2061646472657373 PUSH1 0xC0 SHL PUSH1 0x64 DUP3 ADD MSTORE PUSH1 0x84 SWAP1 REVERT JUMPDEST PUSH1 0x40 MLOAD PUSH3 0x461BCD PUSH1 0xE5 SHL DUP2 MSTORE PUSH1 0x20 PUSH1 0x4 DUP3 ADD MSTORE PUSH1 0x29 PUSH1 0x24 DUP3 ADD MSTORE PUSH32 0x526F79616C7469657320636F6E74726163742063616E6E6F74206265207A6572 PUSH1 0x44 DUP3 ADD MSTORE PUSH9 0x6F2061646472657373 PUSH1 0xB8 SHL PUSH1 0x64 DUP3 ADD MSTORE PUSH1 0x84 SWAP1 REVERT JUMPDEST PUSH1 0x40 MLOAD PUSH3 0x461BCD PUSH1 0xE5 SHL DUP2 MSTORE PUSH1 0x20 PUSH1 0x4 DUP3 ADD MSTORE PUSH1 0x22 PUSH1 0x24 DUP3 ADD MSTORE PUSH32 0x4D657461646174614C69622063616E6E6F74206265207A65726F206164647265 PUSH1 0x44 DUP3 ADD MSTORE PUSH2 0x7373 PUSH1 0xF0 SHL PUSH1 0x64 DUP3 ADD MSTORE PUSH1 0x84 SWAP1 REVERT JUMPDEST PUSH1 0x40 MLOAD PUSH3 0x461BCD PUSH1 0xE5 SHL DUP2 MSTORE PUSH1 0x20 PUSH1 0x4 DUP3 ADD MSTORE PUSH1 0x1F PUSH1 0x24 DUP3 ADD MSTORE PUSH32 0x54726561737572792063616E6E6F74206265207A65726F206164647265737300 PUSH1 0x44 DUP3 ADD MSTORE PUSH1 0x64 SWAP1 REVERT JUMPDEST ADD MLOAD SWAP1 POP CODESIZE DUP1 PUSH2 0xC1E JUMP JUMPDEST PUSH1 0x0 DUP1 MLOAD PUSH1 0x20 PUSH2 0x35EB DUP4 CODECOPY DUP2 MLOAD SWAP2 MSTORE DUP10 MSTORE DUP9 SWAP3 SWAP2 PUSH1 0x0 DUP1 MLOAD PUSH1 0x20 PUSH2 0x354B DUP4 CODECOPY DUP2 MLOAD SWAP2 MSTORE SWAP2 JUMPDEST PUSH1 0x1F NOT DUP5 AND DUP6 LT PUSH2 0x15F9 JUMPI PUSH1 0x1 SWAP5 POP DUP4 PUSH1 0x1F NOT DUP2 AND LT PUSH2 0x15E0 JUMPI JUMPDEST POP POP POP DUP2 SHL ADD PUSH1 0x0 DUP1 MLOAD PUSH1 0x20 PUSH2 0x35EB DUP4 CODECOPY DUP2 MLOAD SWAP2 MSTORE SSTORE PUSH2 0x1247 JUMP JUMPDEST ADD MLOAD PUSH1 0x0 NOT PUSH1 0xF8 DUP5 PUSH1 0x3 SHL AND SHR NOT AND SWAP1 SSTORE CODESIZE DUP1 DUP1 PUSH2 0x15C5 JUMP JUMPDEST DUP2 DUP2 ADD MLOAD DUP4 SSTORE PUSH1 0x20 SWAP5 DUP6 ADD SWAP5 PUSH1 0x1 SWAP1 SWAP4 ADD SWAP3 SWAP1 SWAP2 ADD SWAP1 PUSH2 0x15AA JUMP JUMPDEST PUSH1 0x0 DUP1 MLOAD PUSH1 0x20 PUSH2 0x35EB DUP4 CODECOPY DUP2 MLOAD SWAP2 MSTORE PUSH1 0x0 MSTORE PUSH1 0x1F DUP4 ADD PUSH1 0x5 SHR PUSH1 0x0 DUP1 MLOAD PUSH1 0x20 PUSH2 0x354B DUP4 CODECOPY DUP2 MLOAD SWAP2 MSTORE ADD PUSH1 0x20 DUP5 LT PUSH2 0x1675 JUMPI JUMPDEST PUSH1 0x1F DUP3 ADD PUSH1 0x5 SHR PUSH1 0x0 DUP1 MLOAD PUSH1 0x20 PUSH2 0x354B DUP4 CODECOPY DUP2 MLOAD SWAP2 MSTORE ADD DUP2 LT PUSH2 0x1669 JUMPI POP PUSH2 0x1206 JUMP JUMPDEST PUSH1 0x0 DUP2 SSTORE PUSH1 0x1 ADD PUSH2 0x1646 JUMP JUMPDEST POP PUSH1 0x0 DUP1 MLOAD PUSH1 0x20 PUSH2 0x354B DUP4 CODECOPY DUP2 MLOAD SWAP2 MSTORE PUSH2 0x1646 JUMP JUMPDEST PUSH4 0x4E487B71 PUSH1 0xE0 SHL DUP9 MSTORE PUSH1 0x41 PUSH1 0x4 MSTORE PUSH1 0x24 DUP9 REVERT JUMPDEST PUSH1 0x0 DUP1 MLOAD PUSH1 0x20 PUSH2 0x352B DUP4 CODECOPY DUP2 MLOAD SWAP2 MSTORE DUP11 MSTORE DUP10 SWAP3 SWAP2 PUSH1 0x0 DUP1 MLOAD PUSH1 0x20 PUSH2 0x360B DUP4 CODECOPY DUP2 MLOAD SWAP2 MSTORE SWAP2 JUMPDEST PUSH1 0x1F NOT DUP5 AND DUP6 LT PUSH2 0x1712 JUMPI PUSH1 0x1 SWAP5 POP DUP4 PUSH1 0x1F NOT DUP2 AND LT PUSH2 0x16F9 JUMPI JUMPDEST POP POP POP DUP2 SHL ADD PUSH1 0x0 DUP1 MLOAD PUSH1 0x20 PUSH2 0x352B DUP4 CODECOPY DUP2 MLOAD SWAP2 MSTORE SSTORE PUSH2 0x11D4 JUMP JUMPDEST ADD MLOAD PUSH1 0x0 NOT PUSH1 0xF8 DUP5 PUSH1 0x3 SHL AND SHR NOT AND SWAP1 SSTORE CODESIZE DUP1 DUP1 PUSH2 0x16DE JUMP JUMPDEST DUP2 DUP2 ADD MLOAD DUP4 SSTORE PUSH1 0x20 SWAP5 DUP6 ADD SWAP5 PUSH1 0x1 SWAP1 SWAP4 ADD SWAP3 SWAP1 SWAP2 ADD SWAP1 PUSH2 0x16C3 JUMP JUMPDEST PUSH1 0x0 DUP1 MLOAD PUSH1 0x20 PUSH2 0x352B DUP4 CODECOPY DUP2 MLOAD SWAP2 MSTORE PUSH1 0x0 MSTORE PUSH1 0x1F DUP4 ADD PUSH1 0x5 SHR PUSH1 0x0 DUP1 MLOAD PUSH1 0x20 PUSH2 0x360B DUP4 CODECOPY DUP2 MLOAD SWAP2 MSTORE ADD PUSH1 0x20 DUP5 LT PUSH2 0x178E JUMPI JUMPDEST PUSH1 0x1F DUP3 ADD PUSH1 0x5 SHR PUSH1 0x0 DUP1 MLOAD PUSH1 0x20 PUSH2 0x360B DUP4 CODECOPY DUP2 MLOAD SWAP2 MSTORE ADD DUP2 LT PUSH2 0x1782 JUMPI POP PUSH2 0x1193 JUMP JUMPDEST PUSH1 0x0 DUP2 SSTORE PUSH1 0x1 ADD PUSH2 0x175F JUMP JUMPDEST POP PUSH1 0x0 DUP1 MLOAD PUSH1 0x20 PUSH2 0x360B DUP4 CODECOPY DUP2 MLOAD SWAP2 MSTORE PUSH2 0x175F JUMP JUMPDEST PUSH4 0x4E487B71 PUSH1 0xE0 SHL DUP10 MSTORE PUSH1 0x41 PUSH1 0x4 MSTORE PUSH1 0x24 DUP10 REVERT JUMPDEST PUSH9 0xFFFFFFFFFFFFFFFFFF NOT DUP5 AND PUSH9 0x10000000000000001 OR PUSH1 0x0 DUP1 MLOAD PUSH1 0x20 PUSH2 0x35CB DUP4 CODECOPY DUP2 MLOAD SWAP2 MSTORE SSTORE PUSH2 0x110C JUMP JUMPDEST PUSH1 0x40 MLOAD PUSH4 0xF92EE8A9 PUSH1 0xE0 SHL DUP2 MSTORE PUSH1 0x4 SWAP1 REVERT JUMPDEST SWAP1 POP ISZERO CODESIZE PUSH2 0x10DC JUMP JUMPDEST ADDRESS EXTCODESIZE ISZERO SWAP2 POP PUSH2 0x10D4 JUMP JUMPDEST PUSH1 0x40 DUP7 SWAP1 SHR PUSH1 0xFF AND ISZERO SWAP2 POP PUSH2 0x10CA JUMP JUMPDEST POP CALLVALUE PUSH2 0x318 JUMPI DUP1 PUSH1 0x3 NOT CALLDATASIZE ADD SLT PUSH2 0x318 JUMPI PUSH1 0x20 PUSH1 0x40 MLOAD PUSH1 0x1 DUP2 MSTORE RETURN JUMPDEST POP CALLVALUE PUSH2 0x318 JUMPI PUSH1 0x20 CALLDATASIZE PUSH1 0x3 NOT ADD SLT PUSH2 0x318 JUMPI PUSH1 0x20 SWAP1 PUSH1 0x40 SWAP1 PUSH1 0x1 PUSH1 0x1 PUSH1 0xA0 SHL SUB PUSH2 0x185D PUSH2 0x26D9 JUMP JUMPDEST AND DUP2 MSTORE PUSH1 0xF DUP4 MSTORE KECCAK256 SLOAD PUSH1 0x40 MLOAD SWAP1 DUP2 MSTORE RETURN JUMPDEST POP CALLVALUE PUSH2 0x318 JUMPI DUP1 PUSH2 0x187E CALLDATASIZE PUSH2 0x27DD JUMP JUMPDEST SWAP1 PUSH2 0x1887 PUSH2 0x2FBD JUMP JUMPDEST PUSH1 0x5 SLOAD PUSH1 0x1 PUSH1 0x1 PUSH1 0xA0 SHL SUB AND SWAP2 DUP3 EXTCODESIZE ISZERO PUSH2 0x18DC JUMPI PUSH2 0x18CB SWAP3 DUP5 SWAP3 DUP4 PUSH1 0x40 MLOAD DUP1 SWAP7 DUP2 SWAP6 DUP3 SWAP5 PUSH4 0x7D330CDD PUSH1 0xE0 SHL DUP5 MSTORE PUSH1 0x4 DUP5 ADD MSTORE PUSH1 0x40 PUSH1 0x24 DUP5 ADD MSTORE PUSH1 0x44 DUP4 ADD SWAP1 PUSH2 0x26B4 JUMP JUMPDEST SUB SWAP3 GAS CALL DUP1 ISZERO PUSH2 0x4AA JUMPI PUSH2 0x642 JUMPI POP RETURN JUMPDEST POP POP POP REVERT JUMPDEST POP CALLVALUE PUSH2 0x318 JUMPI DUP1 PUSH1 0x3 NOT CALLDATASIZE ADD SLT PUSH2 0x318 JUMPI PUSH1 0x20 PUSH1 0x2 SLOAD PUSH1 0x40 MLOAD SWAP1 DUP2 MSTORE RETURN JUMPDEST POP CALLVALUE PUSH2 0x318 JUMPI DUP1 PUSH1 0x3 NOT CALLDATASIZE ADD SLT PUSH2 0x318 JUMPI PUSH1 0x20 PUSH2 0xFCB PUSH2 0x2E7D JUMP JUMPDEST POP CALLVALUE PUSH2 0x318 JUMPI DUP1 PUSH1 0x3 NOT CALLDATASIZE ADD SLT PUSH2 0x318 JUMPI PUSH2 0x1933 PUSH2 0x2FBD JUMP JUMPDEST PUSH1 0xB SLOAD DUP1 ISZERO ISZERO SWAP1 DUP2 PUSH2 0x1988 JUMPI JUMPDEST POP ISZERO PUSH2 0x194D JUMPI TIMESTAMP PUSH1 0xC SSTORE DUP1 RETURN JUMPDEST PUSH1 0x40 MLOAD PUSH3 0x461BCD PUSH1 0xE5 SHL DUP2 MSTORE PUSH1 0x20 PUSH1 0x4 DUP3 ADD MSTORE PUSH1 0x13 PUSH1 0x24 DUP3 ADD MSTORE PUSH19 0x1190D194C81B5A5B9D081B9BDD08195B991959 PUSH1 0x6A SHL PUSH1 0x44 DUP3 ADD MSTORE PUSH1 0x64 SWAP1 REVERT JUMPDEST SWAP1 POP PUSH2 0x708 DUP2 ADD DUP1 SWAP2 GT PUSH2 0xDFC JUMPI TIMESTAMP LT ISZERO CODESIZE PUSH2 0x1940 JUMP JUMPDEST POP CALLVALUE PUSH2 0x318 JUMPI DUP1 PUSH1 0x3 NOT CALLDATASIZE ADD SLT PUSH2 0x318 JUMPI PUSH1 0x6 SLOAD PUSH1 0x40 MLOAD PUSH1 0x1 PUSH1 0x1 PUSH1 0xA0 SHL SUB SWAP1 SWAP2 AND DUP2 MSTORE PUSH1 0x20 SWAP1 RETURN JUMPDEST POP CALLVALUE PUSH2 0x318 JUMPI DUP1 PUSH1 0x3 NOT CALLDATASIZE ADD SLT PUSH2 0x318 JUMPI PUSH1 0x20 PUSH1 0x40 MLOAD PUSH1 0x5 DUP2 MSTORE RETURN JUMPDEST POP CALLVALUE PUSH2 0x318 JUMPI DUP1 PUSH1 0x3 NOT CALLDATASIZE ADD SLT PUSH2 0x318 JUMPI PUSH2 0x19FD PUSH2 0x2FBD JUMP JUMPDEST PUSH1 0x0 DUP1 MLOAD PUSH1 0x20 PUSH2 0x356B DUP4 CODECOPY DUP2 MLOAD SWAP2 MSTORE DUP1 SLOAD PUSH1 0x1 PUSH1 0x1 PUSH1 0xA0 SHL SUB NOT DUP2 AND SWAP1 SWAP2 SSTORE PUSH1 0x0 SWAP1 PUSH1 0x1 PUSH1 0x1 PUSH1 0xA0 SHL SUB AND PUSH32 0x8BE0079C531659141344CD1FD0A4F28419497F9722A3DAAFE3B4186F6B6457E0 DUP3 DUP1 LOG3 DUP1 RETURN JUMPDEST POP CALLVALUE PUSH2 0x318 JUMPI PUSH1 0x20 CALLDATASIZE PUSH1 0x3 NOT ADD SLT PUSH2 0x318 JUMPI PUSH2 0x1A69 PUSH2 0x26D9 JUMP JUMPDEST SWAP1 PUSH1 0x1 PUSH1 0x1 PUSH1 0xA0 SHL SUB DUP3 AND ISZERO PUSH2 0x1A8D JUMPI PUSH1 0x20 PUSH2 0x1A84 DUP4 PUSH2 0x28A8 JUMP JUMPDEST SLOAD PUSH1 0x40 MLOAD SWAP1 DUP2 MSTORE RETURN JUMPDEST PUSH1 0x24 SWAP1 PUSH1 0x40 MLOAD SWAP1 PUSH4 0x22718AD9 PUSH1 0xE2 SHL DUP3 MSTORE PUSH1 0x4 DUP3 ADD MSTORE REVERT JUMPDEST POP CALLVALUE PUSH2 0x318 JUMPI DUP1 PUSH1 0x3 NOT CALLDATASIZE ADD SLT PUSH2 0x318 JUMPI PUSH1 0x20 PUSH1 0x40 MLOAD PUSH1 0x2A DUP2 MSTORE RETURN JUMPDEST POP CALLVALUE PUSH2 0x318 JUMPI PUSH1 0x20 CALLDATASIZE PUSH1 0x3 NOT ADD SLT PUSH2 0x318 JUMPI PUSH1 0x20 PUSH2 0x1AE0 PUSH1 0x4 CALLDATALOAD PUSH2 0x2F63 JUMP JUMPDEST PUSH1 0x40 MLOAD PUSH1 0x1 PUSH1 0x1 PUSH1 0xA0 SHL SUB SWAP1 SWAP2 AND DUP2 MSTORE RETURN JUMPDEST POP CALLVALUE PUSH2 0x318 JUMPI DUP1 PUSH1 0x3 NOT CALLDATASIZE ADD SLT PUSH2 0x318 JUMPI PUSH1 0x3 SLOAD PUSH1 0x40 MLOAD PUSH1 0x1 PUSH1 0x1 PUSH1 0xA0 SHL SUB SWAP1 SWAP2 AND DUP2 MSTORE PUSH1 0x20 SWAP1 RETURN JUMPDEST PUSH2 0x2885 JUMP JUMPDEST POP CALLVALUE PUSH2 0x318 JUMPI PUSH1 0x20 CALLDATASIZE PUSH1 0x3 NOT ADD SLT PUSH2 0x318 JUMPI PUSH1 0x20 SWAP1 PUSH1 0x40 SWAP1 PUSH1 0x1 PUSH1 0x1 PUSH1 0xA0 SHL SUB PUSH2 0x1B48 PUSH2 0x26D9 JUMP JUMPDEST AND DUP2 MSTORE PUSH1 0x10 DUP4 MSTORE KECCAK256 SLOAD PUSH1 0x40 MLOAD SWAP1 DUP2 MSTORE RETURN JUMPDEST POP CALLVALUE PUSH2 0x318 JUMPI DUP1 PUSH1 0x3 NOT CALLDATASIZE ADD SLT PUSH2 0x318 JUMPI PUSH1 0x20 PUSH1 0x40 MLOAD PUSH2 0x384 DUP2 MSTORE RETURN JUMPDEST POP CALLVALUE PUSH2 0x318 JUMPI DUP1 PUSH1 0x3 NOT CALLDATASIZE ADD SLT PUSH2 0x318 JUMPI PUSH1 0x5 SLOAD PUSH1 0x40 MLOAD PUSH1 0x1 PUSH1 0x1 PUSH1 0xA0 SHL SUB SWAP1 SWAP2 AND DUP2 MSTORE PUSH1 0x20 SWAP1 RETURN JUMPDEST POP CALLVALUE PUSH2 0x318 JUMPI DUP1 PUSH1 0x3 NOT CALLDATASIZE ADD SLT PUSH2 0x318 JUMPI PUSH1 0x4 SLOAD PUSH1 0x40 MLOAD PUSH1 0x1 PUSH1 0x1 PUSH1 0xA0 SHL SUB SWAP1 SWAP2 AND DUP2 MSTORE PUSH1 0x20 SWAP1 RETURN JUMPDEST POP CALLVALUE PUSH2 0x318 JUMPI DUP1 PUSH1 0x3 NOT CALLDATASIZE ADD SLT PUSH2 0x318 JUMPI PUSH1 0x20 PUSH1 0x40 MLOAD PUSH2 0x708 DUP2 MSTORE RETURN JUMPDEST POP CALLVALUE PUSH2 0x318 JUMPI PUSH2 0x315 PUSH2 0x1BF7 CALLDATASIZE PUSH2 0x2850 JUMP JUMPDEST SWAP1 PUSH1 0x40 MLOAD SWAP3 PUSH2 0x1C05 DUP5 PUSH2 0x274F JUMP JUMPDEST DUP6 DUP5 MSTORE PUSH2 0x90A DUP4 DUP4 DUP4 PUSH2 0x2BFF JUMP JUMPDEST POP CALLVALUE PUSH2 0x318 JUMPI DUP1 PUSH1 0x3 NOT CALLDATASIZE ADD SLT PUSH2 0x318 JUMPI PUSH1 0x20 PUSH1 0x40 MLOAD PUSH8 0x3A4965BF58A40000 DUP2 MSTORE RETURN JUMPDEST POP PUSH1 0x40 CALLDATASIZE PUSH1 0x3 NOT ADD SLT PUSH2 0x318 JUMPI PUSH2 0x1C4B PUSH2 0x26D9 JUMP JUMPDEST PUSH1 0x24 SWAP1 DUP2 CALLDATALOAD PUSH1 0x1 PUSH1 0x1 PUSH1 0x40 SHL SUB DUP2 GT PUSH2 0x4A6 JUMPI PUSH2 0x1C6C SWAP1 CALLDATASIZE SWAP1 PUSH1 0x4 ADD PUSH2 0x2820 JUMP JUMPDEST SWAP1 PUSH2 0x1C75 PUSH2 0x2F33 JUMP JUMPDEST PUSH2 0x1C7D PUSH2 0x2E7D JUMP JUMPDEST ISZERO PUSH2 0x1E6B JUMPI DUP5 SLOAD PUSH1 0x1 DUP2 ADD DUP1 SWAP2 GT PUSH2 0x1E1F JUMPI PUSH2 0x1A4 PUSH2 0x1C9D SWAP2 GT ISZERO PUSH2 0x2A15 JUMP JUMPDEST PUSH2 0x1CBB PUSH8 0x3A4965BF58A40000 SWAP4 PUSH2 0x1CB6 DUP6 CALLVALUE LT ISZERO PUSH2 0x2A58 JUMP JUMPDEST PUSH2 0x2FF6 JUMP JUMPDEST SWAP1 PUSH1 0x1 DUP1 PUSH1 0xA0 SHL SUB SWAP3 DUP4 DUP4 AND SWAP3 DUP4 DUP9 MSTORE PUSH1 0xE PUSH1 0x20 MSTORE PUSH1 0x40 DUP9 KECCAK256 SLOAD PUSH2 0x1E32 JUMPI SWAP2 PUSH2 0x1D1E SWAP2 PUSH2 0x1D19 PUSH2 0x1D23 SWAP5 PUSH1 0x40 MLOAD PUSH1 0x20 DUP2 ADD SWAP2 PUSH1 0x1 PUSH1 0x1 PUSH1 0x60 SHL SUB NOT SWAP1 PUSH1 0x60 SHL AND DUP3 MSTORE PUSH1 0x14 DUP2 MSTORE PUSH2 0x1D0A DUP2 PUSH2 0x2734 JUMP JUMPDEST MLOAD SWAP1 KECCAK256 SWAP3 PUSH1 0x1 SLOAD SWAP3 CALLDATASIZE SWAP2 PUSH2 0x2ADE JUMP JUMPDEST PUSH2 0x30CD JUMP JUMPDEST PUSH2 0x2B34 JUMP JUMPDEST DUP5 MSTORE PUSH1 0xE PUSH1 0x20 MSTORE PUSH1 0x40 DUP5 KECCAK256 DUP1 SLOAD SWAP1 PUSH1 0x1 DUP3 ADD DUP1 SWAP3 GT PUSH2 0x1E1F JUMPI SWAP1 DUP6 SWAP3 SWAP2 SSTORE PUSH2 0x1D57 PUSH2 0x1D4E DUP4 SLOAD PUSH2 0x2B77 JUMP JUMPDEST DUP1 DUP5 SSTORE CALLER PUSH2 0x3121 JUMP JUMPDEST PUSH1 0x6 SLOAD AND DUP2 SLOAD DUP2 EXTCODESIZE ISZERO PUSH2 0x4B5 JUMPI DUP3 SWAP2 PUSH1 0x64 DUP4 SWAP3 PUSH1 0x40 MLOAD SWAP5 DUP6 SWAP4 DUP5 SWAP3 PUSH4 0x445A4775 PUSH1 0xE1 SHL DUP5 MSTORE PUSH1 0x4 DUP5 ADD MSTORE CALLER DUP11 DUP5 ADD MSTORE PUSH1 0x1 PUSH1 0x44 DUP5 ADD MSTORE GAS CALL DUP1 ISZERO PUSH2 0x4AA JUMPI PUSH2 0x1E0B JUMPI JUMPDEST POP SLOAD CALLER PUSH1 0x0 DUP1 MLOAD PUSH1 0x20 PUSH2 0x350B DUP4 CODECOPY DUP2 MLOAD SWAP2 MSTORE DUP6 DUP1 LOG3 CALLVALUE GT PUSH2 0x1DCB JUMPI POP PUSH1 0x1 PUSH1 0x0 DUP1 MLOAD PUSH1 0x20 PUSH2 0x358B DUP4 CODECOPY DUP2 MLOAD SWAP2 MSTORE SSTORE DUP1 RETURN JUMPDEST PUSH8 0x3A4965BF58A3FFFF NOT CALLVALUE ADD SWAP1 CALLVALUE DUP3 GT PUSH2 0x1DF9 JUMPI POP DUP2 DUP1 DUP1 DUP1 PUSH2 0x1DF3 SWAP5 CALLER GAS CALL PUSH2 0x401 PUSH2 0x2B93 JUMP JUMPDEST CODESIZE PUSH2 0x6AC JUMP JUMPDEST PUSH4 0x4E487B71 PUSH1 0xE0 SHL DUP4 MSTORE PUSH1 0x11 PUSH1 0x4 MSTORE DUP3 REVERT JUMPDEST PUSH2 0x1E14 SWAP1 PUSH2 0x2721 JUMP JUMPDEST PUSH2 0x4B5 JUMPI DUP3 CODESIZE PUSH2 0x1D9A JUMP JUMPDEST PUSH4 0x4E487B71 PUSH1 0xE0 SHL DUP7 MSTORE PUSH1 0x11 PUSH1 0x4 MSTORE DUP5 DUP7 REVERT JUMPDEST PUSH1 0x40 MLOAD PUSH3 0x461BCD PUSH1 0xE5 SHL DUP2 MSTORE PUSH1 0x20 PUSH1 0x4 DUP3 ADD MSTORE PUSH1 0x12 DUP2 DUP10 ADD MSTORE PUSH18 0x105B1C9958591E481B5A5B9D19590811D511 PUSH1 0x72 SHL PUSH1 0x44 DUP3 ADD MSTORE PUSH1 0x64 SWAP1 REVERT JUMPDEST PUSH1 0x40 MLOAD PUSH3 0x461BCD PUSH1 0xE5 SHL DUP2 MSTORE PUSH1 0x20 PUSH1 0x4 DUP3 ADD MSTORE PUSH1 0x19 DUP2 DUP7 ADD MSTORE PUSH32 0x475444206D696E74207068617365206E6F742061637469766500000000000000 PUSH1 0x44 DUP3 ADD MSTORE PUSH1 0x64 SWAP1 REVERT JUMPDEST POP CALLVALUE PUSH2 0x318 JUMPI DUP1 PUSH1 0x3 NOT CALLDATASIZE ADD SLT PUSH2 0x318 JUMPI PUSH2 0x1EC8 PUSH2 0x2FBD JUMP JUMPDEST SELFBALANCE DUP1 ISZERO PUSH2 0x1F2F JUMPI PUSH1 0x3 SLOAD DUP3 SWAP2 DUP3 SWAP2 DUP3 SWAP2 DUP3 SWAP2 PUSH1 0x1 PUSH1 0x1 PUSH1 0xA0 SHL SUB AND GAS CALL PUSH2 0x1EED PUSH2 0x2B93 JUMP JUMPDEST POP ISZERO PUSH2 0x1EF6 JUMPI DUP1 RETURN JUMPDEST PUSH1 0x40 MLOAD PUSH3 0x461BCD PUSH1 0xE5 SHL DUP2 MSTORE PUSH1 0x20 PUSH1 0x4 DUP3 ADD MSTORE PUSH1 0x11 PUSH1 0x24 DUP3 ADD MSTORE PUSH17 0x15DA5D1A191C985DD85B0819985A5B1959 PUSH1 0x7A SHL PUSH1 0x44 DUP3 ADD MSTORE PUSH1 0x64 SWAP1 REVERT JUMPDEST PUSH1 0x40 MLOAD PUSH3 0x461BCD PUSH1 0xE5 SHL DUP2 MSTORE PUSH1 0x20 PUSH1 0x4 DUP3 ADD MSTORE PUSH1 0x14 PUSH1 0x24 DUP3 ADD MSTORE PUSH20 0x4E6F2066756E647320746F207769746864726177 PUSH1 0x60 SHL PUSH1 0x44 DUP3 ADD MSTORE PUSH1 0x64 SWAP1 REVERT JUMPDEST POP CALLVALUE PUSH2 0x318 JUMPI DUP1 PUSH1 0x3 NOT CALLDATASIZE ADD SLT PUSH2 0x318 JUMPI PUSH1 0x20 PUSH2 0xFCB PUSH2 0x2E51 JUMP JUMPDEST POP CALLVALUE PUSH2 0x318 JUMPI DUP1 PUSH1 0x3 NOT CALLDATASIZE ADD SLT PUSH2 0x318 JUMPI PUSH1 0x20 PUSH2 0xFCB PUSH2 0x2E39 JUMP JUMPDEST POP CALLVALUE PUSH2 0x318 JUMPI PUSH1 0x40 CALLDATASIZE PUSH1 0x3 NOT ADD SLT PUSH2 0x318 JUMPI PUSH1 0x4 CALLDATALOAD DUP2 MSTORE PUSH32 0xDAEDC9AB023613A7CAF35E703657E986CCFAD7E3EB0AF93A2853F8D65DD86B01 PUSH1 0x20 MSTORE PUSH1 0x40 SWAP1 KECCAK256 SLOAD PUSH1 0x1 PUSH1 0x1 PUSH1 0xA0 SHL SUB DUP1 DUP3 AND SWAP2 PUSH1 0x24 CALLDATALOAD SWAP2 PUSH1 0xA0 SWAP2 SWAP1 SWAP2 SHR SWAP1 DUP4 ISZERO PUSH2 0x2050 JUMPI JUMPDEST POP PUSH1 0x1 PUSH1 0x1 PUSH1 0x60 SHL SUB AND SWAP1 DUP2 DUP2 MUL SWAP2 DUP2 DUP4 DIV EQ SWAP1 ISZERO OR ISZERO PUSH2 0x203A JUMPI PUSH1 0x40 DUP1 MLOAD PUSH1 0x1 PUSH1 0x1 PUSH1 0xA0 SHL SUB SWAP4 SWAP1 SWAP4 AND DUP4 MSTORE PUSH2 0x2710 SWAP1 SWAP2 DIV PUSH1 0x20 DUP4 ADD MSTORE SWAP1 RETURN JUMPDEST PUSH4 0x4E487B71 PUSH1 0xE0 SHL PUSH1 0x0 MSTORE PUSH1 0x11 PUSH1 0x4 MSTORE PUSH1 0x24 PUSH1 0x0 REVERT JUMPDEST PUSH32 0xDAEDC9AB023613A7CAF35E703657E986CCFAD7E3EB0AF93A2853F8D65DD86B00 SLOAD SWAP1 DUP2 AND SWAP4 POP PUSH1 0xA0 SHR SWAP1 POP PUSH1 0x1 PUSH1 0x1 PUSH1 0x60 SHL SUB PUSH2 0x1FFF JUMP JUMPDEST POP CALLVALUE PUSH2 0x318 JUMPI DUP1 PUSH1 0x3 NOT CALLDATASIZE ADD SLT PUSH2 0x318 JUMPI PUSH1 0x20 PUSH1 0xD SLOAD PUSH1 0x40 MLOAD SWAP1 DUP2 MSTORE RETURN JUMPDEST POP CALLVALUE PUSH2 0x318 JUMPI PUSH2 0x315 PUSH2 0x20B9 CALLDATASIZE PUSH2 0x2850 JUMP JUMPDEST SWAP2 PUSH2 0x2BFF JUMP JUMPDEST POP PUSH1 0x60 CALLDATASIZE PUSH1 0x3 NOT ADD SLT PUSH2 0x318 JUMPI PUSH1 0x4 CALLDATALOAD PUSH2 0x20D7 PUSH2 0x26EF JUMP JUMPDEST SWAP1 PUSH1 0x44 DUP1 CALLDATALOAD PUSH1 0x1 PUSH1 0x1 PUSH1 0x40 SHL SUB DUP2 GT PUSH2 0x882 JUMPI PUSH2 0x20F8 SWAP1 CALLDATASIZE SWAP1 PUSH1 0x4 ADD PUSH2 0x2820 JUMP JUMPDEST SWAP1 PUSH2 0x2101 PUSH2 0x2F33 JUMP JUMPDEST PUSH2 0x2109 PUSH2 0x2E51 JUMP JUMPDEST ISZERO PUSH2 0x22F5 JUMPI PUSH2 0x211F PUSH2 0x1A4 PUSH2 0x351 DUP7 DUP10 SLOAD PUSH2 0x2A08 JUMP JUMPDEST PUSH1 0x4 DUP5 GT PUSH2 0x22BB JUMPI PUSH8 0x5FC1B97136320000 SWAP5 DUP5 DUP7 MUL SWAP6 DUP7 DIV DUP6 SUB PUSH2 0x22A7 JUMPI SWAP1 PUSH2 0x21B5 PUSH2 0x1D1E PUSH2 0x2156 DUP10 SWAP6 SWAP5 PUSH2 0x1CB6 DUP11 CALLVALUE LT ISZERO PUSH2 0x2A58 JUMP JUMPDEST SWAP3 PUSH1 0x1 DUP1 PUSH1 0xA0 SHL SUB SWAP5 PUSH2 0x1D19 DUP7 DUP7 AND SWAP6 DUP7 DUP10 MSTORE PUSH1 0xF PUSH1 0x20 MSTORE PUSH2 0x2181 PUSH1 0x4 PUSH2 0x37B DUP14 PUSH1 0x40 DUP14 KECCAK256 SLOAD PUSH2 0x2A08 JUMP JUMPDEST PUSH1 0x40 MLOAD PUSH1 0x20 DUP2 ADD SWAP2 PUSH1 0x1 PUSH1 0x1 PUSH1 0x60 SHL SUB NOT SWAP1 PUSH1 0x60 SHL AND DUP3 MSTORE PUSH1 0x14 DUP2 MSTORE PUSH2 0x21A6 DUP2 PUSH2 0x2734 JUMP JUMPDEST MLOAD SWAP1 KECCAK256 SWAP3 PUSH1 0x2 SLOAD SWAP3 CALLDATASIZE SWAP2 PUSH2 0x2ADE JUMP JUMPDEST DUP3 MSTORE PUSH1 0xF PUSH1 0x20 MSTORE PUSH1 0x40 DUP3 KECCAK256 PUSH2 0x21CB DUP6 DUP3 SLOAD PUSH2 0x2A08 JUMP JUMPDEST SWAP1 SSTORE DUP2 JUMPDEST DUP5 DUP2 LT PUSH2 0x220C JUMPI DUP3 DUP7 DUP2 DUP2 CALLVALUE GT PUSH2 0x21F5 JUMPI PUSH1 0x1 PUSH1 0x0 DUP1 MLOAD PUSH1 0x20 PUSH2 0x358B DUP4 CODECOPY DUP2 MLOAD SWAP2 MSTORE SSTORE DUP1 RETURN JUMPDEST DUP1 DUP1 DUP1 PUSH2 0x3F6 PUSH2 0x2205 SWAP6 CALLVALUE PUSH2 0x2B86 JUMP JUMPDEST DUP2 DUP2 PUSH2 0x3D1 JUMP JUMPDEST PUSH2 0x2222 PUSH2 0x2219 DUP5 SLOAD PUSH2 0x2B77 JUMP JUMPDEST DUP1 DUP6 SSTORE CALLER PUSH2 0x3121 JUMP JUMPDEST DUP2 PUSH1 0x6 SLOAD AND DUP4 SLOAD DUP2 EXTCODESIZE ISZERO PUSH2 0x882 JUMPI DUP5 SWAP2 PUSH1 0x64 DUP4 SWAP3 PUSH1 0x40 MLOAD SWAP5 DUP6 SWAP4 DUP5 SWAP3 PUSH4 0x445A4775 PUSH1 0xE1 SHL DUP5 MSTORE PUSH1 0x4 DUP5 ADD MSTORE CALLER PUSH1 0x24 DUP5 ADD MSTORE PUSH1 0x1 DUP12 DUP5 ADD MSTORE GAS CALL SWAP1 DUP2 ISZERO PUSH2 0x229C JUMPI DUP5 SWAP2 PUSH2 0x2288 JUMPI JUMPDEST POP SWAP1 PUSH1 0x1 SWAP2 SLOAD CALLER PUSH1 0x0 DUP1 MLOAD PUSH1 0x20 PUSH2 0x350B DUP4 CODECOPY DUP2 MLOAD SWAP2 MSTORE DUP7 DUP1 LOG3 ADD PUSH2 0x21CF JUMP JUMPDEST PUSH2 0x2291 SWAP1 PUSH2 0x2721 JUMP JUMPDEST PUSH2 0x4B5 JUMPI DUP3 CODESIZE PUSH2 0x2269 JUMP JUMPDEST PUSH1 0x40 MLOAD RETURNDATASIZE DUP7 DUP3 RETURNDATACOPY RETURNDATASIZE SWAP1 REVERT JUMPDEST PUSH4 0x4E487B71 PUSH1 0xE0 SHL DUP8 MSTORE PUSH1 0x11 PUSH1 0x4 MSTORE PUSH1 0x24 DUP8 REVERT JUMPDEST PUSH1 0x40 MLOAD PUSH3 0x461BCD PUSH1 0xE5 SHL DUP2 MSTORE PUSH1 0x20 PUSH1 0x4 DUP3 ADD MSTORE PUSH1 0x12 PUSH1 0x24 DUP3 ADD MSTORE PUSH18 0x115E18D959591CC81190D194C81B1A5B5A5D PUSH1 0x72 SHL PUSH1 0x44 DUP3 ADD MSTORE PUSH1 0x64 SWAP1 REVERT JUMPDEST PUSH1 0x40 MLOAD PUSH3 0x461BCD PUSH1 0xE5 SHL DUP2 MSTORE PUSH1 0x20 PUSH1 0x4 DUP3 ADD MSTORE PUSH1 0x1A PUSH1 0x24 DUP3 ADD MSTORE PUSH32 0x46434653206D696E74207068617365206E6F7420616374697665000000000000 PUSH1 0x44 DUP3 ADD MSTORE PUSH1 0x64 SWAP1 REVERT JUMPDEST POP CALLVALUE PUSH2 0x318 JUMPI DUP1 PUSH1 0x3 NOT CALLDATASIZE ADD SLT PUSH2 0x318 JUMPI PUSH1 0x8 SLOAD PUSH1 0x40 MLOAD PUSH1 0x1 PUSH1 0x1 PUSH1 0xA0 SHL SUB SWAP1 SWAP2 AND DUP2 MSTORE PUSH1 0x20 SWAP1 RETURN JUMPDEST POP CALLVALUE PUSH2 0x318 JUMPI DUP1 PUSH2 0x2373 CALLDATASIZE PUSH2 0x27DD JUMP JUMPDEST SWAP1 PUSH2 0x237C PUSH2 0x2FBD JUMP JUMPDEST PUSH1 0x5 SLOAD PUSH1 0x1 PUSH1 0x1 PUSH1 0xA0 SHL SUB AND SWAP2 DUP3 EXTCODESIZE ISZERO PUSH2 0x18DC JUMPI PUSH2 0x18CB SWAP3 DUP5 SWAP3 DUP4 PUSH1 0x40 MLOAD DUP1 SWAP7 DUP2 SWAP6 DUP3 SWAP5 PUSH4 0x3ED46B1 PUSH1 0xE2 SHL DUP5 MSTORE PUSH1 0x4 DUP5 ADD MSTORE PUSH1 0x40 PUSH1 0x24 DUP5 ADD MSTORE PUSH1 0x44 DUP4 ADD SWAP1 PUSH2 0x26B4 JUMP JUMPDEST POP CALLVALUE PUSH2 0x318 JUMPI PUSH1 0x40 CALLDATASIZE PUSH1 0x3 NOT ADD SLT PUSH2 0x318 JUMPI PUSH2 0x23DA PUSH2 0x26D9 JUMP JUMPDEST PUSH1 0x24 CALLDATALOAD PUSH2 0x23E6 DUP2 PUSH2 0x2F63 JUMP JUMPDEST CALLER ISZERO ISZERO DUP1 PUSH2 0x2496 JUMPI JUMPDEST DUP1 PUSH2 0x2476 JUMPI JUMPDEST PUSH2 0x245E JUMPI PUSH1 0x1 PUSH1 0x1 PUSH1 0xA0 SHL SUB SWAP3 DUP4 AND SWAP3 DUP3 SWAP2 DUP5 SWAP2 AND PUSH32 0x8C5BE1E5EBEC7D5BD14F71427D1E84F3DD0314C0F7B2291E5B200AC8C7C3B925 PUSH1 0x0 DUP1 LOG4 PUSH1 0x0 MSTORE PUSH1 0x0 DUP1 MLOAD PUSH1 0x20 PUSH2 0x35AB DUP4 CODECOPY DUP2 MLOAD SWAP2 MSTORE PUSH1 0x20 MSTORE PUSH1 0x40 PUSH1 0x0 KECCAK256 SWAP1 PUSH1 0x1 PUSH1 0x1 PUSH1 0x60 SHL SUB PUSH1 0xA0 SHL DUP3 SLOAD AND OR SWAP1 SSTORE DUP1 RETURN JUMPDEST PUSH1 0x40 MLOAD PUSH4 0xA9FBF51F PUSH1 0xE0 SHL DUP2 MSTORE CALLER PUSH1 0x4 DUP3 ADD MSTORE PUSH1 0x24 SWAP1 REVERT JUMPDEST POP PUSH2 0x2480 DUP2 PUSH2 0x28E1 JUMP JUMPDEST CALLER PUSH1 0x0 MSTORE PUSH1 0x20 MSTORE PUSH1 0xFF PUSH1 0x40 PUSH1 0x0 KECCAK256 SLOAD AND ISZERO PUSH2 0x23F5 JUMP JUMPDEST POP PUSH1 0x1 PUSH1 0x1 PUSH1 0xA0 SHL SUB DUP2 AND CALLER EQ ISZERO PUSH2 0x23EF JUMP JUMPDEST POP CALLVALUE PUSH2 0x318 JUMPI PUSH1 0x20 CALLDATASIZE PUSH1 0x3 NOT ADD SLT PUSH2 0x318 JUMPI PUSH1 0x20 SWAP1 PUSH1 0x4 CALLDATALOAD PUSH2 0x24CA DUP2 PUSH2 0x2F63 JUMP JUMPDEST POP DUP2 MSTORE PUSH1 0x0 DUP1 MLOAD PUSH1 0x20 PUSH2 0x35AB DUP4 CODECOPY DUP2 MLOAD SWAP2 MSTORE DUP3 MSTORE PUSH1 0x40 PUSH1 0x1 DUP1 PUSH1 0xA0 SHL SUB SWAP2 KECCAK256 SLOAD AND PUSH1 0x40 MLOAD SWAP1 DUP2 MSTORE RETURN JUMPDEST POP CALLVALUE PUSH2 0x318 JUMPI DUP1 PUSH1 0x3 NOT CALLDATASIZE ADD SLT PUSH2 0x318 JUMPI PUSH1 0x40 MLOAD PUSH1 0x0 DUP1 MLOAD PUSH1 0x20 PUSH2 0x352B DUP4 CODECOPY DUP2 MLOAD SWAP2 MSTORE DUP1 SLOAD DUP3 PUSH1 0x0 PUSH2 0x2524 DUP4 PUSH2 0x291A JUMP JUMPDEST SWAP3 DUP4 DUP4 MSTORE PUSH1 0x20 SWAP5 PUSH1 0x1 SWAP2 DUP7 PUSH1 0x1 DUP3 AND SWAP2 DUP3 PUSH1 0x0 EQ PUSH2 0xF8E JUMPI POP POP PUSH1 0x1 EQ PUSH2 0x2553 JUMPI POP POP PUSH2 0xF30 SWAP3 POP SUB DUP4 PUSH2 0x276A JUMP JUMPDEST DUP6 SWAP3 POP PUSH1 0x0 MSTORE PUSH1 0x0 DUP1 MLOAD PUSH1 0x20 PUSH2 0x360B DUP4 CODECOPY DUP2 MLOAD SWAP2 MSTORE SWAP1 PUSH1 0x0 SWAP2 JUMPDEST DUP6 DUP4 LT PUSH2 0x2585 JUMPI POP POP PUSH2 0xF30 SWAP4 POP DUP3 ADD ADD DUP6 DUP1 PUSH2 0xF22 JUMP JUMPDEST DUP1 SLOAD DUP4 DUP10 ADD DUP6 ADD MSTORE DUP8 SWAP5 POP DUP7 SWAP4 SWAP1 SWAP3 ADD SWAP2 DUP2 ADD PUSH2 0x256D JUMP JUMPDEST POP CALLVALUE PUSH2 0x318 JUMPI DUP1 PUSH1 0x3 NOT CALLDATASIZE ADD SLT PUSH2 0x318 JUMPI PUSH2 0x25B6 PUSH2 0x2F33 JUMP JUMPDEST PUSH1 0x6 SLOAD DUP2 SWAP1 PUSH1 0x1 PUSH1 0x1 PUSH1 0xA0 SHL SUB AND DUP1 EXTCODESIZE ISZERO PUSH2 0x6D6 JUMPI DUP2 SWAP1 PUSH1 0x4 PUSH1 0x40 MLOAD DUP1 SWAP5 DUP2 SWAP4 PUSH3 0x34DBC1 PUSH1 0xE5 SHL DUP4 MSTORE GAS CALL DUP1 ISZERO PUSH2 0x4AA JUMPI PUSH2 0x2601 JUMPI POP PUSH1 0x1 PUSH1 0x0 DUP1 MLOAD PUSH1 0x20 PUSH2 0x358B DUP4 CODECOPY DUP2 MLOAD SWAP2 MSTORE SSTORE DUP1 RETURN JUMPDEST PUSH2 0x1DF3 SWAP1 PUSH2 0x2721 JUMP JUMPDEST SWAP1 POP CALLVALUE PUSH2 0x802 JUMPI PUSH1 0x20 CALLDATASIZE PUSH1 0x3 NOT ADD SLT PUSH2 0x802 JUMPI PUSH1 0x4 CALLDATALOAD PUSH4 0xFFFFFFFF PUSH1 0xE0 SHL DUP2 AND DUP1 SWAP2 SUB PUSH2 0x4B5 JUMPI PUSH1 0x20 SWAP3 POP PUSH4 0x80AC58CD PUSH1 0xE0 SHL DUP2 EQ SWAP1 DUP2 ISZERO PUSH2 0x2680 JUMPI JUMPDEST DUP2 ISZERO PUSH2 0x2655 JUMPI JUMPDEST POP ISZERO ISZERO DUP2 MSTORE RETURN JUMPDEST PUSH4 0x152A902D PUSH1 0xE1 SHL DUP2 EQ SWAP2 POP DUP2 ISZERO PUSH2 0x266F JUMPI JUMPDEST POP CODESIZE PUSH2 0x264E JUMP JUMPDEST PUSH4 0x1FFC9A7 PUSH1 0xE0 SHL EQ SWAP1 POP CODESIZE PUSH2 0x2668 JUMP JUMPDEST PUSH4 0x5B5E139F PUSH1 0xE0 SHL DUP2 EQ SWAP2 POP PUSH2 0x2647 JUMP JUMPDEST PUSH1 0x0 JUMPDEST DUP4 DUP2 LT PUSH2 0x26A4 JUMPI POP POP PUSH1 0x0 SWAP2 ADD MSTORE JUMP JUMPDEST DUP2 DUP2 ADD MLOAD DUP4 DUP3 ADD MSTORE PUSH1 0x20 ADD PUSH2 0x2694 JUMP JUMPDEST SWAP1 PUSH1 0x20 SWAP2 PUSH2 0x26CD DUP2 MLOAD DUP1 SWAP3 DUP2 DUP6 MSTORE DUP6 DUP1 DUP7 ADD SWAP2 ADD PUSH2 0x2691 JUMP JUMPDEST PUSH1 0x1F ADD PUSH1 0x1F NOT AND ADD ADD SWAP1 JUMP JUMPDEST PUSH1 0x4 CALLDATALOAD SWAP1 PUSH1 0x1 PUSH1 0x1 PUSH1 0xA0 SHL SUB DUP3 AND DUP3 SUB PUSH2 0x656 JUMPI JUMP JUMPDEST PUSH1 0x24 CALLDATALOAD SWAP1 PUSH1 0x1 PUSH1 0x1 PUSH1 0xA0 SHL SUB DUP3 AND DUP3 SUB PUSH2 0x656 JUMPI JUMP JUMPDEST CALLVALUE PUSH2 0x656 JUMPI PUSH1 0x0 CALLDATASIZE PUSH1 0x3 NOT ADD SLT PUSH2 0x656 JUMPI PUSH1 0x20 PUSH1 0x40 MLOAD PUSH1 0x4 DUP2 MSTORE RETURN JUMPDEST PUSH1 0x1 PUSH1 0x1 PUSH1 0x40 SHL SUB DUP2 GT PUSH2 0x1409 JUMPI PUSH1 0x40 MSTORE JUMP JUMPDEST PUSH1 0x40 DUP2 ADD SWAP1 DUP2 LT PUSH1 0x1 PUSH1 0x1 PUSH1 0x40 SHL SUB DUP3 GT OR PUSH2 0x1409 JUMPI PUSH1 0x40 MSTORE JUMP JUMPDEST PUSH1 0x20 DUP2 ADD SWAP1 DUP2 LT PUSH1 0x1 PUSH1 0x1 PUSH1 0x40 SHL SUB DUP3 GT OR PUSH2 0x1409 JUMPI PUSH1 0x40 MSTORE JUMP JUMPDEST SWAP1 PUSH1 0x1F DUP1 NOT SWAP2 ADD AND DUP2 ADD SWAP1 DUP2 LT PUSH1 0x1 PUSH1 0x1 PUSH1 0x40 SHL SUB DUP3 GT OR PUSH2 0x1409 JUMPI PUSH1 0x40 MSTORE JUMP JUMPDEST PUSH1 0x1 PUSH1 0x1 PUSH1 0x40 SHL SUB DUP2 GT PUSH2 0x1409 JUMPI PUSH1 0x1F ADD PUSH1 0x1F NOT AND PUSH1 0x20 ADD SWAP1 JUMP JUMPDEST SWAP3 SWAP2 SWAP3 PUSH2 0x27B2 DUP3 PUSH2 0x278B JUMP JUMPDEST SWAP2 PUSH2 0x27C0 PUSH1 0x40 MLOAD SWAP4 DUP5 PUSH2 0x276A JUMP JUMPDEST DUP3 SWAP5 DUP2 DUP5 MSTORE DUP2 DUP4 ADD GT PUSH2 0x656 JUMPI DUP3 DUP2 PUSH1 0x20 SWAP4 DUP5 PUSH1 0x0 SWAP7 ADD CALLDATACOPY ADD ADD MSTORE JUMP JUMPDEST SWAP1 PUSH1 0x40 PUSH1 0x3 NOT DUP4 ADD SLT PUSH2 0x656 JUMPI PUSH1 0x4 CALLDATALOAD SWAP2 PUSH1 0x24 CALLDATALOAD SWAP1 PUSH1 0x1 PUSH1 0x1 PUSH1 0x40 SHL SUB DUP3 GT PUSH2 0x656 JUMPI DUP1 PUSH1 0x23 DUP4 ADD SLT ISZERO PUSH2 0x656 JUMPI DUP2 PUSH1 0x24 PUSH2 0x281D SWAP4 PUSH1 0x4 ADD CALLDATALOAD SWAP2 ADD PUSH2 0x27A6 JUMP JUMPDEST SWAP1 JUMP JUMPDEST SWAP2 DUP2 PUSH1 0x1F DUP5 ADD SLT ISZERO PUSH2 0x656 JUMPI DUP3 CALLDATALOAD SWAP2 PUSH1 0x1 PUSH1 0x1 PUSH1 0x40 SHL SUB DUP4 GT PUSH2 0x656 JUMPI PUSH1 0x20 DUP1 DUP6 ADD SWAP5 DUP5 PUSH1 0x5 SHL ADD ADD GT PUSH2 0x656 JUMPI JUMP JUMPDEST PUSH1 0x60 SWAP1 PUSH1 0x3 NOT ADD SLT PUSH2 0x656 JUMPI PUSH1 0x1 PUSH1 0x1 PUSH1 0xA0 SHL SUB SWAP1 PUSH1 0x4 CALLDATALOAD DUP3 DUP2 AND DUP2 SUB PUSH2 0x656 JUMPI SWAP2 PUSH1 0x24 CALLDATALOAD SWAP1 DUP2 AND DUP2 SUB PUSH2 0x656 JUMPI SWAP1 PUSH1 0x44 CALLDATALOAD SWAP1 JUMP JUMPDEST CALLVALUE PUSH2 0x656 JUMPI PUSH1 0x0 CALLDATASIZE PUSH1 0x3 NOT ADD SLT PUSH2 0x656 JUMPI PUSH1 0x20 PUSH1 0x40 MLOAD PUSH8 0x5FC1B97136320000 DUP2 MSTORE RETURN JUMPDEST PUSH1 0x1 PUSH1 0x1 PUSH1 0xA0 SHL SUB AND PUSH1 0x0 SWAP1 DUP2 MSTORE PUSH32 0x80BB2B638CC20BC4D0A60D66940F3AB4A00C1D7B313497CA82FB0B4AB0079303 PUSH1 0x20 MSTORE PUSH1 0x40 SWAP1 KECCAK256 SWAP1 JUMP JUMPDEST PUSH1 0x1 PUSH1 0x1 PUSH1 0xA0 SHL SUB AND PUSH1 0x0 SWAP1 DUP2 MSTORE PUSH32 0x80BB2B638CC20BC4D0A60D66940F3AB4A00C1D7B313497CA82FB0B4AB0079305 PUSH1 0x20 MSTORE PUSH1 0x40 SWAP1 KECCAK256 SWAP1 JUMP JUMPDEST SWAP1 PUSH1 0x1 DUP3 DUP2 SHR SWAP3 AND DUP1 ISZERO PUSH2 0x294A JUMPI JUMPDEST PUSH1 0x20 DUP4 LT EQ PUSH2 0x2934 JUMPI JUMP JUMPDEST PUSH4 0x4E487B71 PUSH1 0xE0 SHL PUSH1 0x0 MSTORE PUSH1 0x22 PUSH1 0x4 MSTORE PUSH1 0x24 PUSH1 0x0 REVERT JUMPDEST SWAP2 PUSH1 0x7F AND SWAP2 PUSH2 0x2929 JUMP JUMPDEST PUSH1 0x7 SLOAD PUSH1 0x0 SWAP3 SWAP2 PUSH2 0x2964 DUP3 PUSH2 0x291A JUMP JUMPDEST DUP1 DUP3 MSTORE SWAP2 PUSH1 0x20 SWAP1 PUSH1 0x1 SWAP1 DUP2 DUP2 AND SWAP1 DUP2 ISZERO PUSH2 0x29E3 JUMPI POP PUSH1 0x1 EQ PUSH2 0x2987 JUMPI JUMPDEST POP POP POP POP JUMP JUMPDEST SWAP3 SWAP4 SWAP5 POP PUSH1 0x7 PUSH1 0x0 MSTORE PUSH32 0xA66CC928B5EDB82AF9BD49922954155AB7B0942694BEA4CE44661D9A8736C688 SWAP3 PUSH1 0x0 SWAP4 JUMPDEST DUP6 DUP6 LT PUSH2 0x29D0 JUMPI POP POP POP PUSH1 0x20 SWAP3 POP ADD ADD SWAP1 CODESIZE DUP1 DUP1 DUP1 PUSH2 0x2981 JUMP JUMPDEST DUP1 SLOAD DUP6 DUP6 ADD DUP5 ADD MSTORE SWAP4 DUP3 ADD SWAP4 DUP2 ADD PUSH2 0x29B6 JUMP JUMPDEST SWAP3 POP POP POP PUSH1 0x20 SWAP4 SWAP5 POP PUSH1 0xFF SWAP3 SWAP2 SWAP3 NOT AND DUP4 DUP4 ADD MSTORE ISZERO ISZERO PUSH1 0x5 SHL ADD ADD SWAP1 CODESIZE DUP1 DUP1 DUP1 PUSH2 0x2981 JUMP JUMPDEST SWAP2 SWAP1 DUP3 ADD DUP1 SWAP3 GT PUSH2 0x203A JUMPI JUMP JUMPDEST ISZERO PUSH2 0x2A1C JUMPI JUMP JUMPDEST PUSH1 0x40 MLOAD PUSH3 0x461BCD PUSH1 0xE5 SHL DUP2 MSTORE PUSH1 0x20 PUSH1 0x4 DUP3 ADD MSTORE PUSH1 0x14 PUSH1 0x24 DUP3 ADD MSTORE PUSH20 0x4578636565647320746F74616C20737570706C79 PUSH1 0x60 SHL PUSH1 0x44 DUP3 ADD MSTORE PUSH1 0x64 SWAP1 REVERT JUMPDEST ISZERO PUSH2 0x2A5F JUMPI JUMP JUMPDEST PUSH1 0x40 MLOAD PUSH3 0x461BCD PUSH1 0xE5 SHL DUP2 MSTORE PUSH1 0x20 PUSH1 0x4 DUP3 ADD MSTORE PUSH1 0x14 PUSH1 0x24 DUP3 ADD MSTORE PUSH20 0x125B9CDD59999A58DA595B9D081C185E5B595B9D PUSH1 0x62 SHL PUSH1 0x44 DUP3 ADD MSTORE PUSH1 0x64 SWAP1 REVERT JUMPDEST ISZERO PUSH2 0x2AA2 JUMPI JUMP JUMPDEST PUSH1 0x40 MLOAD PUSH3 0x461BCD PUSH1 0xE5 SHL DUP2 MSTORE PUSH1 0x20 PUSH1 0x4 DUP3 ADD MSTORE PUSH1 0x14 PUSH1 0x24 DUP3 ADD MSTORE PUSH20 0x115E18D959591CC81DD85B1B195D081B1A5B5A5D PUSH1 0x62 SHL PUSH1 0x44 DUP3 ADD MSTORE PUSH1 0x64 SWAP1 REVERT JUMPDEST SWAP1 SWAP3 SWAP2 PUSH1 0x1 PUSH1 0x1 PUSH1 0x40 SHL SUB DUP5 GT PUSH2 0x1409 JUMPI DUP4 PUSH1 0x5 SHL PUSH1 0x20 SWAP3 PUSH1 0x20 PUSH1 0x40 MLOAD PUSH2 0x2B07 DUP3 DUP6 ADD DUP3 PUSH2 0x276A JUMP JUMPDEST DUP1 SWAP8 DUP2 MSTORE ADD SWAP2 DUP2 ADD SWAP3 DUP4 GT PUSH2 0x656 JUMPI SWAP1 JUMPDEST DUP3 DUP3 LT PUSH2 0x2B25 JUMPI POP POP POP POP JUMP JUMPDEST DUP2 CALLDATALOAD DUP2 MSTORE SWAP1 DUP4 ADD SWAP1 DUP4 ADD PUSH2 0x2B18 JUMP JUMPDEST ISZERO PUSH2 0x2B3B JUMPI JUMP JUMPDEST PUSH1 0x40 MLOAD PUSH3 0x461BCD PUSH1 0xE5 SHL DUP2 MSTORE PUSH1 0x20 PUSH1 0x4 DUP3 ADD MSTORE PUSH1 0x14 PUSH1 0x24 DUP3 ADD MSTORE PUSH20 0x24B73B30B634B21026B2B935B63290383937B7B3 PUSH1 0x61 SHL PUSH1 0x44 DUP3 ADD MSTORE PUSH1 0x64 SWAP1 REVERT JUMPDEST PUSH1 0x0 NOT DUP2 EQ PUSH2 0x203A JUMPI PUSH1 0x1 ADD SWAP1 JUMP JUMPDEST SWAP2 SWAP1 DUP3 SUB SWAP2 DUP3 GT PUSH2 0x203A JUMPI JUMP JUMPDEST RETURNDATASIZE ISZERO PUSH2 0x2BBE JUMPI RETURNDATASIZE SWAP1 PUSH2 0x2BA4 DUP3 PUSH2 0x278B JUMP JUMPDEST SWAP2 PUSH2 0x2BB2 PUSH1 0x40 MLOAD SWAP4 DUP5 PUSH2 0x276A JUMP JUMPDEST DUP3 MSTORE RETURNDATASIZE PUSH1 0x0 PUSH1 0x20 DUP5 ADD RETURNDATACOPY JUMP JUMPDEST PUSH1 0x60 SWAP1 JUMP JUMPDEST ISZERO PUSH2 0x2BCA JUMPI JUMP JUMPDEST PUSH1 0x40 MLOAD PUSH3 0x461BCD PUSH1 0xE5 SHL DUP2 MSTORE PUSH1 0x20 PUSH1 0x4 DUP3 ADD MSTORE PUSH1 0xD PUSH1 0x24 DUP3 ADD MSTORE PUSH13 0x1499599D5B990819985A5B1959 PUSH1 0x9A SHL PUSH1 0x44 DUP3 ADD MSTORE PUSH1 0x64 SWAP1 REVERT JUMPDEST SWAP1 SWAP2 PUSH1 0x1 PUSH1 0x1 PUSH1 0xA0 SHL SUB DUP1 DUP5 AND SWAP3 DUP4 ISZERO PUSH2 0x2E20 JUMPI PUSH1 0x0 SWAP4 DUP4 DUP6 MSTORE PUSH32 0x80BB2B638CC20BC4D0A60D66940F3AB4A00C1D7B313497CA82FB0B4AB0079302 SWAP5 DUP6 PUSH1 0x20 MSTORE PUSH1 0x40 SWAP7 DUP5 DUP9 DUP4 KECCAK256 SLOAD AND SWAP7 CALLER ISZERO ISZERO DUP1 PUSH2 0x2D84 JUMPI JUMPDEST POP PUSH2 0x2C64 DUP9 ISZERO ISZERO SWAP3 DUP4 PUSH2 0x2D45 JUMPI PUSH2 0x28A8 JUMP JUMPDEST DUP1 SLOAD PUSH1 0x1 ADD SWAP1 SSTORE DUP7 DUP4 MSTORE PUSH1 0x20 MSTORE DUP8 DUP3 KECCAK256 DUP1 SLOAD PUSH1 0x1 PUSH1 0x1 PUSH1 0xA0 SHL SUB NOT AND DUP5 OR SWAP1 SSTORE DUP8 MLOAD SWAP3 DUP7 SWAP1 DUP9 PUSH32 0xDDF252AD1BE2C89B69C2B068FC378DAA952BA7F163C4A11628F55A4DF523B3EF DUP6 DUP1 LOG4 DUP1 PUSH2 0x2D3D JUMPI JUMPDEST PUSH2 0x2CEB JUMPI JUMPDEST POP POP AND SWAP3 DUP4 DUP4 SUB PUSH2 0x2CCA JUMPI POP POP POP POP JUMP JUMPDEST PUSH1 0x64 SWAP5 POP MLOAD SWAP3 PUSH4 0x64283D7B PUSH1 0xE0 SHL DUP5 MSTORE PUSH1 0x4 DUP5 ADD MSTORE PUSH1 0x24 DUP4 ADD MSTORE PUSH1 0x44 DUP3 ADD MSTORE REVERT JUMPDEST DUP4 PUSH1 0x6 SLOAD AND DUP1 EXTCODESIZE ISZERO PUSH2 0x802 JUMPI DUP3 PUSH1 0x24 DUP2 DUP5 DUP1 SWAP5 PUSH4 0x1D46F2B9 PUSH1 0xE1 SHL DUP4 MSTORE DUP11 PUSH1 0x4 DUP5 ADD MSTORE GAS CALL SWAP1 DUP2 ISZERO PUSH2 0x2D32 JUMPI POP PUSH2 0x2D23 JUMPI JUMPDEST DUP1 PUSH2 0x2CB9 JUMP JUMPDEST PUSH2 0x2D2C SWAP1 PUSH2 0x2721 JUMP JUMPDEST CODESIZE PUSH2 0x2D1D JUMP JUMPDEST DUP8 MLOAD SWAP1 RETURNDATASIZE SWAP1 DUP3 RETURNDATACOPY RETURNDATASIZE SWAP1 REVERT JUMPDEST POP PUSH1 0x1 PUSH2 0x2CB4 JUMP JUMPDEST PUSH1 0x0 DUP10 DUP2 MSTORE PUSH1 0x0 DUP1 MLOAD PUSH1 0x20 PUSH2 0x35AB DUP4 CODECOPY DUP2 MLOAD SWAP2 MSTORE PUSH1 0x20 MSTORE PUSH1 0x40 SWAP1 KECCAK256 DUP1 SLOAD PUSH1 0x1 PUSH1 0x1 PUSH1 0xA0 SHL SUB NOT AND SWAP1 SSTORE PUSH2 0x2D77 DUP11 PUSH2 0x28A8 JUMP JUMPDEST DUP1 SLOAD PUSH1 0x0 NOT ADD SWAP1 SSTORE PUSH2 0x28A8 JUMP JUMPDEST DUP1 PUSH2 0x2DD1 JUMPI JUMPDEST ISZERO PUSH2 0x2D95 JUMPI CODESIZE PUSH2 0x2C52 JUMP JUMPDEST DUP9 DUP8 DUP10 PUSH2 0x2DB2 JUMPI PUSH1 0x24 SWAP2 MLOAD SWAP1 PUSH4 0x7E273289 PUSH1 0xE0 SHL DUP3 MSTORE PUSH1 0x4 DUP3 ADD MSTORE REVERT JUMPDEST SWAP1 MLOAD PUSH4 0x177E802F PUSH1 0xE0 SHL DUP2 MSTORE CALLER PUSH1 0x4 DUP3 ADD MSTORE PUSH1 0x24 DUP2 ADD SWAP2 SWAP1 SWAP2 MSTORE PUSH1 0x44 SWAP1 REVERT JUMPDEST POP CALLER DUP9 EQ DUP1 ISZERO PUSH2 0x2E04 JUMPI JUMPDEST DUP1 PUSH2 0x2D8A JUMPI POP DUP7 DUP4 MSTORE PUSH1 0x0 DUP1 MLOAD PUSH1 0x20 PUSH2 0x35AB DUP4 CODECOPY DUP2 MLOAD SWAP2 MSTORE PUSH1 0x20 MSTORE CALLER DUP7 DUP11 DUP6 KECCAK256 SLOAD AND EQ PUSH2 0x2D8A JUMP JUMPDEST POP PUSH2 0x2E0E DUP9 PUSH2 0x28E1 JUMP JUMPDEST CALLER DUP5 MSTORE PUSH1 0x20 MSTORE PUSH1 0xFF DUP10 DUP5 KECCAK256 SLOAD AND PUSH2 0x2DDC JUMP JUMPDEST PUSH1 0x40 MLOAD PUSH4 0x32505749 PUSH1 0xE1 SHL DUP2 MSTORE PUSH1 0x0 PUSH1 0x4 DUP3 ADD MSTORE PUSH1 0x24 SWAP1 REVERT JUMPDEST PUSH1 0xC SLOAD ISZERO ISZERO DUP1 PUSH2 0x2E46 JUMPI SWAP1 JUMP JUMPDEST POP PUSH2 0x1A4 PUSH1 0x0 SLOAD LT SWAP1 JUMP JUMPDEST PUSH1 0xB SLOAD DUP1 ISZERO ISZERO SWAP1 DUP2 PUSH2 0x2E67 JUMPI JUMPDEST POP DUP1 PUSH2 0x2E46 JUMPI SWAP1 JUMP JUMPDEST SWAP1 POP PUSH2 0x708 DUP2 ADD DUP1 SWAP2 GT PUSH2 0x203A JUMPI TIMESTAMP LT CODESIZE PUSH2 0x2E5E JUMP JUMPDEST PUSH1 0xA SLOAD DUP1 ISZERO ISZERO SWAP1 DUP2 PUSH2 0x2E92 JUMPI POP DUP1 PUSH2 0x2E46 JUMPI SWAP1 JUMP JUMPDEST SWAP1 POP PUSH2 0x384 DUP2 ADD DUP1 SWAP2 GT PUSH2 0x203A JUMPI TIMESTAMP LT CODESIZE PUSH2 0x2E5E JUMP JUMPDEST PUSH1 0x9 SLOAD ISZERO ISZERO DUP1 PUSH2 0x2EB5 JUMPI SWAP1 JUMP JUMPDEST POP PUSH1 0x4 PUSH1 0xD SLOAD LT SWAP1 JUMP JUMPDEST PUSH1 0x1 PUSH1 0x1 PUSH1 0xA0 SHL SUB SWAP1 DUP2 AND SWAP1 DUP2 ISZERO PUSH2 0x2F1A JUMPI PUSH1 0x0 DUP1 MLOAD PUSH1 0x20 PUSH2 0x356B DUP4 CODECOPY DUP2 MLOAD SWAP2 MSTORE DUP1 SLOAD PUSH1 0x1 PUSH1 0x1 PUSH1 0xA0 SHL SUB NOT DUP2 AND DUP5 OR SWAP1 SWAP2 SSTORE AND PUSH32 0x8BE0079C531659141344CD1FD0A4F28419497F9722A3DAAFE3B4186F6B6457E0 PUSH1 0x0 DUP1 LOG3 JUMP JUMPDEST PUSH1 0x40 MLOAD PUSH4 0x1E4FBDF7 PUSH1 0xE0 SHL DUP2 MSTORE PUSH1 0x0 PUSH1 0x4 DUP3 ADD MSTORE PUSH1 0x24 SWAP1 REVERT JUMPDEST PUSH1 0x0 DUP1 MLOAD PUSH1 0x20 PUSH2 0x358B DUP4 CODECOPY DUP2 MLOAD SWAP2 MSTORE PUSH1 0x2 DUP2 SLOAD EQ PUSH2 0x2F51 JUMPI PUSH1 0x2 SWAP1 SSTORE JUMP JUMPDEST PUSH1 0x40 MLOAD PUSH4 0x3EE5AEB5 PUSH1 0xE0 SHL DUP2 MSTORE PUSH1 0x4 SWAP1 REVERT JUMPDEST PUSH1 0x0 DUP2 DUP2 MSTORE PUSH32 0x80BB2B638CC20BC4D0A60D66940F3AB4A00C1D7B313497CA82FB0B4AB0079302 PUSH1 0x20 MSTORE PUSH1 0x40 SWAP1 KECCAK256 SLOAD PUSH1 0x1 PUSH1 0x1 PUSH1 0xA0 SHL SUB AND SWAP1 DUP2 ISZERO PUSH2 0x2FA5 JUMPI POP SWAP1 JUMP JUMPDEST PUSH1 0x24 SWAP1 PUSH1 0x40 MLOAD SWAP1 PUSH4 0x7E273289 PUSH1 0xE0 SHL DUP3 MSTORE PUSH1 0x4 DUP3 ADD MSTORE REVERT JUMPDEST PUSH1 0x0 DUP1 MLOAD PUSH1 0x20 PUSH2 0x356B DUP4 CODECOPY DUP2 MLOAD SWAP2 MSTORE SLOAD PUSH1 0x1 PUSH1 0x1 PUSH1 0xA0 SHL SUB AND CALLER SUB PUSH2 0x2FDE JUMPI JUMP JUMPDEST PUSH1 0x40 MLOAD PUSH4 0x118CDAA7 PUSH1 0xE0 SHL DUP2 MSTORE CALLER PUSH1 0x4 DUP3 ADD MSTORE PUSH1 0x24 SWAP1 REVERT JUMPDEST PUSH1 0x1 PUSH1 0x1 PUSH1 0xA0 SHL SUB DUP2 DUP2 AND SWAP1 DUP2 PUSH2 0x300E JUMPI POP POP POP CALLER SWAP1 JUMP JUMPDEST PUSH1 0x20 SWAP1 PUSH1 0x8 SLOAD AND SWAP2 PUSH1 0x44 PUSH1 0x40 MLOAD DUP1 SWAP5 DUP2 SWAP4 PUSH4 0x4E1CADE1 PUSH1 0xE1 SHL DUP4 MSTORE CALLER PUSH1 0x4 DUP5 ADD MSTORE PUSH1 0x24 DUP4 ADD MSTORE GAS STATICCALL SWAP1 DUP2 ISZERO PUSH2 0x30C1 JUMPI PUSH1 0x0 SWAP2 PUSH2 0x3086 JUMPI JUMPDEST POP ISZERO PUSH2 0x304E JUMPI SWAP1 JUMP JUMPDEST PUSH1 0x40 MLOAD PUSH3 0x461BCD PUSH1 0xE5 SHL DUP2 MSTORE PUSH1 0x20 PUSH1 0x4 DUP3 ADD MSTORE PUSH1 0x10 PUSH1 0x24 DUP3 ADD MSTORE PUSH16 0x496E76616C69642064656C6567617465 PUSH1 0x80 SHL PUSH1 0x44 DUP3 ADD MSTORE PUSH1 0x64 SWAP1 REVERT JUMPDEST PUSH1 0x20 DUP2 RETURNDATASIZE PUSH1 0x20 GT PUSH2 0x30B9 JUMPI JUMPDEST DUP2 PUSH2 0x309F PUSH1 0x20 SWAP4 DUP4 PUSH2 0x276A JUMP JUMPDEST DUP2 ADD SUB SLT PUSH2 0x802 JUMPI MLOAD SWAP1 DUP2 ISZERO ISZERO DUP3 SUB PUSH2 0x318 JUMPI POP CODESIZE PUSH2 0x3045 JUMP JUMPDEST RETURNDATASIZE SWAP2 POP PUSH2 0x3092 JUMP JUMPDEST PUSH1 0x40 MLOAD RETURNDATASIZE PUSH1 0x0 DUP3 RETURNDATACOPY RETURNDATASIZE SWAP1 REVERT JUMPDEST SWAP1 SWAP2 SWAP1 PUSH1 0x0 SWAP2 JUMPDEST DUP2 MLOAD DUP4 LT ISZERO PUSH2 0x311A JUMPI PUSH1 0x20 DUP1 DUP5 PUSH1 0x5 SHL DUP5 ADD ADD MLOAD SWAP2 PUSH1 0x0 DUP4 DUP3 LT PUSH1 0x0 EQ PUSH2 0x310A JUMPI POP PUSH1 0x0 MSTORE MSTORE PUSH1 0x1 PUSH1 0x40 PUSH1 0x0 KECCAK256 JUMPDEST SWAP3 ADD SWAP2 PUSH2 0x30D4 JUMP JUMPDEST SWAP1 PUSH1 0x40 SWAP3 PUSH1 0x1 SWAP5 DUP4 MSTORE MSTORE KECCAK256 PUSH2 0x3102 JUMP JUMPDEST SWAP2 POP POP EQ SWAP1 JUMP JUMPDEST PUSH1 0x40 DUP1 MLOAD SWAP3 PUSH2 0x312F DUP5 PUSH2 0x274F JUMP JUMPDEST PUSH1 0x0 DUP1 DUP6 MSTORE PUSH1 0x1 PUSH1 0x1 PUSH1 0xA0 SHL SUB SWAP5 DUP5 DUP7 AND SWAP5 DUP6 ISZERO PUSH2 0x33A6 JUMPI DUP4 DUP4 MSTORE PUSH32 0x80BB2B638CC20BC4D0A60D66940F3AB4A00C1D7B313497CA82FB0B4AB0079302 PUSH1 0x20 SWAP8 DUP2 DUP10 MSTORE DUP1 DUP8 DUP7 KECCAK256 SLOAD AND SWAP1 DUP2 ISZERO ISZERO SWAP3 DUP4 PUSH2 0x3367 JUMPI JUMPDEST PUSH2 0x318B DUP6 PUSH2 0x28A8 JUMP JUMPDEST PUSH1 0x1 DUP2 SLOAD ADD SWAP1 SSTORE DUP8 DUP8 MSTORE DUP11 MSTORE DUP8 DUP7 KECCAK256 DUP10 PUSH1 0x1 PUSH1 0x1 PUSH1 0x60 SHL SUB PUSH1 0xA0 SHL DUP3 SLOAD AND OR SWAP1 SSTORE DUP7 DUP10 DUP10 MLOAD SWAP4 PUSH32 0xDDF252AD1BE2C89B69C2B068FC378DAA952BA7F163C4A11628F55A4DF523B3EF DUP10 DUP1 LOG4 DUP3 DUP1 PUSH2 0x335F JUMPI JUMPDEST PUSH2 0x330D JUMPI JUMPDEST POP POP PUSH2 0x32F5 JUMPI EXTCODESIZE PUSH2 0x31F5 JUMPI JUMPDEST POP POP POP POP POP POP JUMP JUMPDEST DUP6 PUSH2 0x3232 SWAP2 DUP6 SWAP7 SWAP8 SWAP9 SWAP6 MLOAD DUP1 SWAP4 DUP2 SWAP3 PUSH4 0xA85BD01 PUSH1 0xE1 SHL SWAP8 DUP9 DUP5 MSTORE CALLER PUSH1 0x4 DUP6 ADD MSTORE DUP8 PUSH1 0x24 DUP6 ADD MSTORE PUSH1 0x44 DUP5 ADD MSTORE PUSH1 0x80 PUSH1 0x64 DUP5 ADD MSTORE PUSH1 0x84 DUP4 ADD SWAP1 PUSH2 0x26B4 JUMP JUMPDEST SUB DUP2 DUP6 DUP11 GAS CALL SWAP1 DUP3 SWAP1 DUP3 PUSH2 0x32B1 JUMPI JUMPDEST POP POP PUSH2 0x3279 JUMPI POP POP POP PUSH2 0x3252 PUSH2 0x2B93 JUMP JUMPDEST DUP1 MLOAD SWAP4 SWAP1 DUP5 PUSH2 0x3273 JUMPI DUP3 MLOAD PUSH4 0x32505749 PUSH1 0xE1 SHL DUP2 MSTORE PUSH1 0x4 DUP2 ADD DUP6 SWAP1 MSTORE PUSH1 0x24 SWAP1 REVERT JUMPDEST DUP5 SWAP3 POP ADD REVERT JUMPDEST SWAP2 SWAP5 POP PUSH1 0x1 PUSH1 0x1 PUSH1 0xE0 SHL SUB NOT SWAP1 SWAP2 AND SUB PUSH2 0x329A JUMPI POP POP CODESIZE DUP1 DUP1 DUP1 DUP1 DUP1 PUSH2 0x31ED JUMP JUMPDEST PUSH1 0x24 SWAP3 POP MLOAD SWAP1 PUSH4 0x32505749 PUSH1 0xE1 SHL DUP3 MSTORE PUSH1 0x4 DUP3 ADD MSTORE REVERT JUMPDEST SWAP1 SWAP2 SWAP3 POP DUP8 DUP2 DUP2 RETURNDATASIZE DUP4 GT PUSH2 0x32EE JUMPI JUMPDEST PUSH2 0x32CA DUP2 DUP4 PUSH2 0x276A JUMP JUMPDEST DUP2 ADD SUB SLT PUSH2 0x802 JUMPI MLOAD SWAP1 PUSH1 0x1 PUSH1 0x1 PUSH1 0xE0 SHL SUB NOT DUP3 AND DUP3 SUB PUSH2 0x318 JUMPI POP SWAP1 CODESIZE DUP1 PUSH2 0x3241 JUMP JUMPDEST POP RETURNDATASIZE PUSH2 0x32C0 JUMP JUMPDEST DUP5 MLOAD PUSH4 0x39E35637 PUSH1 0xE1 SHL DUP2 MSTORE PUSH1 0x4 DUP2 ADD DUP5 SWAP1 MSTORE PUSH1 0x24 SWAP1 REVERT JUMPDEST PUSH1 0x6 SLOAD AND DUP1 EXTCODESIZE ISZERO PUSH2 0x335B JUMPI DUP2 PUSH1 0x24 DUP2 DUP9 DUP1 SWAP5 PUSH4 0x1D46F2B9 PUSH1 0xE1 SHL DUP4 MSTORE DUP12 PUSH1 0x4 DUP5 ADD MSTORE GAS CALL DUP1 ISZERO PUSH2 0x3351 JUMPI PUSH2 0x3342 JUMPI JUMPDEST DUP1 PUSH2 0x31E1 JUMP JUMPDEST PUSH2 0x334B SWAP1 PUSH2 0x2721 JUMP JUMPDEST CODESIZE PUSH2 0x333C JUMP JUMPDEST DUP8 MLOAD RETURNDATASIZE DUP8 DUP3 RETURNDATACOPY RETURNDATASIZE SWAP1 REVERT JUMPDEST DUP6 DUP1 REVERT JUMPDEST POP PUSH1 0x1 PUSH2 0x31DC JUMP JUMPDEST PUSH1 0x0 DUP9 DUP2 MSTORE PUSH1 0x0 DUP1 MLOAD PUSH1 0x20 PUSH2 0x35AB DUP4 CODECOPY DUP2 MLOAD SWAP2 MSTORE PUSH1 0x20 MSTORE PUSH1 0x40 SWAP1 KECCAK256 DUP1 SLOAD PUSH1 0x1 PUSH1 0x1 PUSH1 0xA0 SHL SUB NOT AND SWAP1 SSTORE PUSH2 0x3399 DUP4 PUSH2 0x28A8 JUMP JUMPDEST DUP1 SLOAD PUSH1 0x0 NOT ADD SWAP1 SSTORE PUSH2 0x3182 JUMP JUMPDEST DUP5 MLOAD PUSH4 0x32505749 PUSH1 0xE1 SHL DUP2 MSTORE PUSH1 0x4 DUP2 ADD DUP5 SWAP1 MSTORE PUSH1 0x24 SWAP1 REVERT JUMPDEST SWAP3 SWAP4 DUP3 EXTCODESIZE PUSH2 0x33CE JUMPI JUMPDEST POP POP POP POP POP JUMP JUMPDEST PUSH2 0x3412 SWAP1 PUSH1 0x1 DUP1 PUSH1 0xA0 SHL SUB DUP1 SWAP5 AND SWAP6 PUSH1 0x40 MLOAD SWAP5 DUP6 SWAP5 DUP2 PUSH4 0xA85BD01 PUSH1 0xE1 SHL SWAP9 DUP10 DUP9 MSTORE AND PUSH1 0x4 DUP8 ADD MSTORE AND PUSH1 0x24 DUP6 ADD MSTORE PUSH1 0x44 DUP5 ADD MSTORE PUSH1 0x80 PUSH1 0x64 DUP5 ADD MSTORE PUSH1 0x84 DUP4 ADD SWAP1 PUSH2 0x26B4 JUMP JUMPDEST SUB SWAP1 PUSH1 0x20 DUP2 PUSH1 0x0 SWAP4 DUP2 DUP6 DUP9 GAS CALL SWAP1 DUP3 SWAP1 DUP3 PUSH2 0x3492 JUMPI JUMPDEST POP POP PUSH2 0x3460 JUMPI DUP3 PUSH2 0x3437 PUSH2 0x2B93 JUMP JUMPDEST DUP1 MLOAD SWAP2 SWAP1 DUP3 PUSH2 0x3459 JUMPI PUSH1 0x40 MLOAD PUSH4 0x32505749 PUSH1 0xE1 SHL DUP2 MSTORE PUSH1 0x4 DUP2 ADD DUP4 SWAP1 MSTORE PUSH1 0x24 SWAP1 REVERT JUMPDEST PUSH1 0x20 SWAP2 POP ADD REVERT JUMPDEST PUSH1 0x1 PUSH1 0x1 PUSH1 0xE0 SHL SUB NOT AND SUB PUSH2 0x347A JUMPI POP CODESIZE DUP1 DUP1 DUP1 DUP1 PUSH2 0x33C7 JUMP JUMPDEST PUSH1 0x24 SWAP1 PUSH1 0x40 MLOAD SWAP1 PUSH4 0x32505749 PUSH1 0xE1 SHL DUP3 MSTORE PUSH1 0x4 DUP3 ADD MSTORE REVERT JUMPDEST SWAP1 SWAP2 SWAP3 POP PUSH1 0x20 DUP2 RETURNDATASIZE PUSH1 0x20 GT PUSH2 0x34D3 JUMPI JUMPDEST DUP2 PUSH2 0x34AF PUSH1 0x20 SWAP4 DUP4 PUSH2 0x276A JUMP JUMPDEST DUP2 ADD SUB SLT PUSH2 0x802 JUMPI MLOAD SWAP1 PUSH1 0x1 PUSH1 0x1 PUSH1 0xE0 SHL SUB NOT DUP3 AND DUP3 SUB PUSH2 0x318 JUMPI POP SWAP1 CODESIZE DUP1 PUSH2 0x3428 JUMP JUMPDEST RETURNDATASIZE SWAP2 POP PUSH2 0x34A2 JUMP JUMPDEST PUSH1 0xFF PUSH1 0x0 DUP1 MLOAD PUSH1 0x20 PUSH2 0x35CB DUP4 CODECOPY DUP2 MLOAD SWAP2 MSTORE SLOAD PUSH1 0x40 SHR AND ISZERO PUSH2 0x34F8 JUMPI JUMP JUMPDEST PUSH1 0x40 MLOAD PUSH4 0x1AFCD79F PUSH1 0xE3 SHL DUP2 MSTORE PUSH1 0x4 SWAP1 REVERT INVALID ADDRESS CODESIZE TLOAD DUP5 JUMPDEST PREVRANDAO DUP11 CALLDATASIZE 0x25 PUSH27 0x6A1716E6AD2E1BC2CBE333CDE1E69FE849AD6511ADFE80BB2B638C 0xC2 SIGNEXTEND 0xC4 0xD0 0xA6 0xD PUSH7 0x940F3AB4A00C1D PUSH28 0x313497CA82FB0B4AB0079300F4BAD0A69248F59680A4F2B3000328CE 0xC7 BYTE COINBASE CALLVALUE SELFBALANCE 0xC9 PUSH8 0x81CFE5996DAA8C45 PUSH15 0x9016D09D72D40FDAE2FD8CEAC6B623 0x4C PUSH24 0x6214FD39C1CD1E609A0528C1993009B779B17422D0DF922 0x23 ADD DUP12 ORIGIN 0xB4 0xD1 STATICCALL CHAINID 0xE0 PUSH18 0x723D6817E2486D003BECC55F0080BB2B638C 0xC2 SIGNEXTEND 0xC4 0xD0 0xA6 0xD PUSH7 0x940F3AB4A00C1D PUSH28 0x313497CA82FB0B4AB0079304F0C57E16840DF040F15088DC2F81FE39 SHR CODECOPY 0x23 0xBE 0xC7 RETURNDATACOPY 0x23 0xA9 PUSH7 0x2EFC9C229C6A00 DUP1 0xBB 0x2B PUSH4 0x8CC20BC4 0xD0 0xA6 0xD PUSH7 0x940F3AB4A00C1D PUSH28 0x313497CA82FB0B4AB007930137C58C799B6609234B945E882912EE9A 0xD3 BLOBHASH BASEFEE LOG1 0xDF 0xAA KECCAK256 0xA9 PUSH21 0x85E1A7752BBF81A26469706673582212200591BB33 GAS MOD 0x1E KECCAK256 DUP11 DUP8 DUP6 0xA9 0xE2 0xAB 0xB1 EXTCODESIZE ADD 0xFB MSIZE BYTE SLT BLOBHASH 0x2F MSIZE 0xA8 0x23 PUSH23 0xC677DAC61064736F6C6343000818003300000000000000 "},"methodIdentifiers":{"FCFS_DURATION()":"4a7887c4","FCFS_MAX_PER_WALLET()":"b0660c77","FCFS_PRICE()":"2d632678","FOUNDER_MINT_AMOUNT()":"0ea58915","GTD_DURATION()":"5270c753","GTD_MAX_PER_WALLET()":"8539cb82","GTD_MINT_AMOUNT()":"6ac6319c","GTD_PRICE()":"40b55480","PUBLIC_MAX_PER_WALLET()":"74819ef7","PUBLIC_PRICE()":"611f3f10","ROYALTY_BASIS_POINTS()":"3c404a9c","TOTAL_SUPPLY()":"902d55a5","approve(address,uint256)":"095ea7b3","balanceOf(address)":"70a08231","claimPoolRoyalties()":"d67f8d0b","claimRoyalties()":"069b7820","delegateRegistry()":"13bfffac","fcfsMerkleRoot()":"7bb23e3a","fcfsMintStart()":"eafd4891","founder()":"4d853ee5","founderMintStart()":"bfa41777","founderMinted()":"24659318","getApproved(uint256)":"081812fc","gtdMerkleRoot()":"ef39154b","gtdMintStart()":"d0e8f26e","initialize(bytes32,bytes32,address,address,address,address)":"89d29c4c","isApprovedForAll(address,address)":"e985e9c5","isFCFSMintActive()":"34f8f268","isFounderMintActive()":"9134d9c2","isGTDMintActive()":"7726c505","isPublicMintActive()":"2d6b6224","metadataLib()":"4e8117a9","mintFCFS(uint256,address,bytes32[])":"18919d62","mintFounder(uint256)":"b4bbb18f","mintGTD(address,bytes32[])":"3f2c0d6a","mintPublic(uint256)":"efd0cbf9","mintedPerWalletFCFS(address)":"7f0505f1","mintedPerWalletGTD(address)":"b32395ca","mintedPerWalletPublic(address)":"5c121bc9","name()":"06fdde03","owner()":"8da5cb5b","ownerOf(uint256)":"6352211e","prerevealNoiseBase64()":"ab13c089","publicMintStart()":"8cfec4c0","renounceOwnership()":"715018a6","reveal(uint256)":"c2ca0ac5","royaltiesContract()":"76c25e6f","royaltyInfo(uint256,uint256)":"2a55205a","safeTransferFrom(address,address,uint256)":"42842e0e","safeTransferFrom(address,address,uint256,bytes)":"b88d4fde","setApprovalForAll(address,bool)":"a22cb465","setMixedAudioURI(uint256,string)":"0fb51ac4","setPrerevealNoiseBase64(string)":"aa0f0d7f","setRevealed(bool)":"e0a80853","setWaveformURI(uint256,string)":"7d330cdd","startFCFSMint()":"a3eca3ed","startPublicMint()":"76c64c62","supportsInterface(bytes4)":"01ffc9a7","symbol()":"95d89b41","tokenURI(uint256)":"c87b56dd","totalMinted()":"a2309ff8","transferFrom(address,address,uint256)":"23b872dd","transferOwnership(address)":"f2fde38b","treasury()":"61d027b3","withdraw()":"3ccfd60b"}}}}}