{"contracts/ApeBeatsRoyalties.sol":{"ApeBeatsRoyalties":{"abi":[{"inputs":[{"internalType":"address","name":"_treasury","type":"address"},{"internalType":"address","name":"_founder","type":"address"}],"stateMutability":"nonpayable","type":"constructor"},{"inputs":[{"internalType":"address","name":"owner","type":"address"}],"name":"OwnableInvalidOwner","type":"error"},{"inputs":[{"internalType":"address","name":"account","type":"address"}],"name":"OwnableUnauthorizedAccount","type":"error"},{"inputs":[],"name":"ReentrancyGuardReentrantCall","type":"error"},{"anonymous":false,"inputs":[{"indexed":true,"internalType":"address","name":"previousOwner","type":"address"},{"indexed":true,"internalType":"address","name":"newOwner","type":"address"}],"name":"OwnershipTransferred","type":"event"},{"anonymous":false,"inputs":[{"indexed":true,"internalType":"address","name":"claimant","type":"address"},{"indexed":false,"internalType":"uint256","name":"amount","type":"uint256"}],"name":"RoyaltiesClaimed","type":"event"},{"anonymous":false,"inputs":[{"indexed":false,"internalType":"uint256","name":"amount","type":"uint256"}],"name":"RoyaltiesPooled","type":"event"},{"anonymous":false,"inputs":[{"indexed":true,"internalType":"uint256","name":"tokenId","type":"uint256"},{"indexed":false,"internalType":"uint256","name":"amount","type":"uint256"}],"name":"RoyaltiesReceived","type":"event"},{"inputs":[],"name":"ROYALTY_WINDOW","outputs":[{"internalType":"uint256","name":"","type":"uint256"}],"stateMutability":"view","type":"function"},{"inputs":[],"name":"claimPoolRoyalties","outputs":[],"stateMutability":"nonpayable","type":"function"},{"inputs":[],"name":"claimRoyalties","outputs":[],"stateMutability":"nonpayable","type":"function"},{"inputs":[],"name":"founder","outputs":[{"internalType":"address","name":"","type":"address"}],"stateMutability":"view","type":"function"},{"inputs":[{"internalType":"uint256","name":"tokenId","type":"uint256"},{"internalType":"address","name":"minter","type":"address"},{"internalType":"uint256","name":"amountMinted","type":"uint256"}],"name":"mintAndRecord","outputs":[],"stateMutability":"nonpayable","type":"function"},{"inputs":[{"internalType":"address","name":"","type":"address"}],"name":"mintedPerWallet","outputs":[{"internalType":"uint256","name":"","type":"uint256"}],"stateMutability":"view","type":"function"},{"inputs":[{"internalType":"uint256","name":"","type":"uint256"}],"name":"originalMinters","outputs":[{"internalType":"address","name":"","type":"address"}],"stateMutability":"view","type":"function"},{"inputs":[],"name":"owner","outputs":[{"internalType":"address","name":"","type":"address"}],"stateMutability":"view","type":"function"},{"inputs":[],"name":"poolRoyalties","outputs":[{"internalType":"uint256","name":"","type":"uint256"}],"stateMutability":"view","type":"function"},{"inputs":[{"internalType":"uint256","name":"","type":"uint256"}],"name":"recentTransfers","outputs":[{"internalType":"uint256","name":"tokenId","type":"uint256"},{"internalType":"uint256","name":"timestamp","type":"uint256"}],"stateMutability":"view","type":"function"},{"inputs":[{"internalType":"uint256","name":"tokenId","type":"uint256"}],"name":"recordTransfer","outputs":[],"stateMutability":"nonpayable","type":"function"},{"inputs":[],"name":"renounceOwnership","outputs":[],"stateMutability":"nonpayable","type":"function"},{"inputs":[{"internalType":"address","name":"","type":"address"}],"name":"royaltyBalances","outputs":[{"internalType":"uint256","name":"","type":"uint256"}],"stateMutability":"view","type":"function"},{"inputs":[{"internalType":"uint256","name":"","type":"uint256"}],"name":"royaltyBalancesPerToken","outputs":[{"internalType":"uint256","name":"","type":"uint256"}],"stateMutability":"view","type":"function"},{"inputs":[{"internalType":"uint256","name":"tokenId","type":"uint256"},{"internalType":"address","name":"minter","type":"address"},{"internalType":"uint256","name":"amountMinted","type":"uint256"}],"name":"setOriginalMinter","outputs":[],"stateMutability":"nonpayable","type":"function"},{"inputs":[],"name":"totalMinted","outputs":[{"internalType":"uint256","name":"","type":"uint256"}],"stateMutability":"view","type":"function"},{"inputs":[],"name":"transferIndex","outputs":[{"internalType":"uint256","name":"","type":"uint256"}],"stateMutability":"view","type":"function"},{"inputs":[{"internalType":"address","name":"newOwner","type":"address"}],"name":"transferOwnership","outputs":[],"stateMutability":"nonpayable","type":"function"},{"inputs":[],"name":"treasury","outputs":[{"internalType":"address","name":"","type":"address"}],"stateMutability":"view","type":"function"},{"stateMutability":"payable","type":"receive"}],"evm":{"bytecode":{"linkReferences":{},"object":"60803461012d57601f610f0638819003918201601f19168301916001600160401b0383118484101761013257808492604094855283398101031261012d57610052602061004b83610148565b9201610148565b3315610114576000549060018060a01b03918260018060a01b031994338684161760005560405192823391167f8be0079c531659141344cd1fd0a4f28419497f9722a3daafe3b4186f6b6457e0600080a360018055169081156100d2575083600254161760025516906003541617600355604051610da9908161015d8239f35b62461bcd60e51b815260206004820152601f60248201527f54726561737572792063616e6e6f74206265207a65726f2061646472657373006044820152606490fd5b604051631e4fbdf760e01b815260006004820152602490fd5b600080fd5b634e487b7160e01b600052604160045260246000fd5b51906001600160a01b038216820361012d5756fe60406080815260049081361015610028575b5050361561001e57600080fd5b610026610bd8565b005b600091823560e01c8063069b7820146106965780631ebdeeab1461066f5780631efee9761461065157806333f6df8f146106195780633a602b4d146105e15780633a8de572146103ec5780634d853ee5146103c357806353234fb4146103a457806361d027b31461037b578063715018a61461032157806388b48eea146102ae5780638da5cb5b146102865780639d75170a14610248578063a2309ff81461022b578063cada1c001461020f578063d37b1f46146101ec578063d67f8d0b146101c1578063e7d0fd181461018f5763f2fde38b146101065750610011565b3461018b57602036600319011261018b5761011f610794565b90610128610d47565b6001600160a01b0391821692831561017557505082546001600160a01b0319811683178455167f8be0079c531659141344cd1fd0a4f28419497f9722a3daafe3b4186f6b6457e08380a380f35b51631e4fbdf760e01b8152908101849052602490fd5b8280fd5b503461018b57602036600319011261018b57358252600a6020908152918190205490516001600160a01b039091168152f35b83346101e957806003193601126101e9576101da610d24565b6101e26108cd565b6001805580f35b80fd5b50503461020b578160031936011261020b576020906005549051908152f35b5080fd5b50503461020b578160031936011261020b5760209051603c8152f35b503461018b578260031936011261018b5760209250549051908152f35b5082903461020b57602036600319011261020b5735906006548210156101e95750610272906107d9565b506001815491015482519182526020820152f35b50503461020b578160031936011261020b57905490516001600160a01b039091168152602090f35b50903461018b5761031c906102c2366107af565b92916102cc610d47565b6102d4610d47565b8652600a6020528186209060018060a01b031690816bffffffffffffffffffffffff60a01b8254161790558552600b60205284206103138282546108aa565b905582546108aa565b905580f35b83346101e957806003193601126101e95761033a610d47565b80546001600160a01b03198116825581906001600160a01b03167f8be0079c531659141344cd1fd0a4f28419497f9722a3daafe3b4186f6b6457e08280a380f35b50503461020b578160031936011261020b5760025490516001600160a01b039091168152602090f35b50503461020b578160031936011261020b576020906007549051908152f35b50503461020b578160031936011261020b5760035490516001600160a01b039091168152602090f35b83823461020b57602036600319011261020b57610407610d47565b61040f610829565b8135815260208101428152600691825491680100000000000000008310156105ce5761044160019384810186556107d9565b9290926105bc5751825551908201556007805460001991908281146105a9578301600755825b61046f578580f35b8354606481118015610546575b156105415782810181811161052e57610494906107d9565b50908254811561051b57906104a991066107d9565b9190916104e4578085918303610509575b505050835480156104f65782016104d0816107d9565b6104e4578781558401879055845582610467565b634e487b7160e01b8852878752602488fd5b634e487b7160e01b875260318652602487fd5b805483558101549101558683816104ba565b634e487b7160e01b895260128852602489fd5b634e487b7160e01b885260118752602488fd5b508580f35b50801580159081610558575b5061047c565b9050610596578487527ff652222313e28459528d920b65115c16c04f3efc82aaedc97be59f3f377c0d40546078810180911161052e57421188610552565b634e487b7160e01b875260328652602487fd5b634e487b7160e01b875260118652602487fd5b634e487b7160e01b8752868652602487fd5b634e487b7160e01b865260418552602486fd5b50503461020b57602036600319011261020b5760209181906001600160a01b03610609610794565b168152600b845220549051908152f35b50503461020b57602036600319011261020b5760209181906001600160a01b03610641610794565b1681526009845220549051908152f35b50903461018b5761031c90610665366107af565b92916102d4610d47565b503461018b57602036600319011261018b5760209282913581526008845220549051908152f35b50903461018b578260031936011261018b576106b0610d24565b33835260096020528083205491821561075a57338452600960205283828120558380808086335af16106e061085f565b50156107185750519081527f8fbbda19f4a70036f6f585dc4160142a8fa2a20ffb9393d23274f78de4e3988860203392a26001805580f35b6020606492519162461bcd60e51b8352820152601860248201527f4661696c656420746f2073656e6420726f79616c7469657300000000000000006044820152fd5b6020606492519162461bcd60e51b835282015260156024820152744e6f20726f79616c7469657320746f20636c61696d60581b6044820152fd5b600435906001600160a01b03821682036107aa57565b600080fd5b60609060031901126107aa57600435906024356001600160a01b03811681036107aa579060443590565b60065481101561081357600660005260011b7ff652222313e28459528d920b65115c16c04f3efc82aaedc97be59f3f377c0d3f0190600090565b634e487b7160e01b600052603260045260246000fd5b604051906040820182811067ffffffffffffffff82111761084957604052565b634e487b7160e01b600052604160045260246000fd5b3d156108a55767ffffffffffffffff903d8281116108495760405192601f8201601f19908116603f01168401908111848210176108495760405282523d6000602084013e565b606090565b919082018092116108b757565b634e487b7160e01b600052601160045260246000fd5b6004805415610b9d57600554908115610b59576019820290828204601903610b445760648092049260328102908104603203610b2f578290046000938460055560018060a01b0390858080808486600354165af161092961085f565b5015610aeb57858080809385600254165af161094361085f565b5015610aa85780600354163314908115610a9a575b50610a9457338452600b6020526040842054908115610a5157818102918183041490151715610a3e578154908115610a2b5704923381526009602052604081206109a38582546108aa565b905580808086335af16109b461085f565b50156109ea5750506040519081527f8fbbda19f4a70036f6f585dc4160142a8fa2a20ffb9393d23274f78de4e3988860203392a2565b60206040519162461bcd60e51b8352820152601b60248201527f4661696c656420746f2073656e64206d696e74657220736861726500000000006044820152fd5b634e487b7160e01b855260128352602485fd5b634e487b7160e01b845260118252602484fd5b505060206040519162461bcd60e51b8352820152601c60248201527f4e6f20746f6b656e73206d696e74656420627920636c61696d616e74000000006044820152fd5b50505050565b905060025416331438610958565b505060206040519162461bcd60e51b8352820152601d60248201527f4661696c656420746f2073656e642074726561737572792073686172650000006044820152fd5b50505060206040519162461bcd60e51b8352820152601c60248201527f4661696c656420746f2073656e6420666f756e646572207368617265000000006044820152fd5b601182634e487b7160e01b6000525260246000fd5b601190634e487b7160e01b6000525260246000fd5b60649060206040519162461bcd60e51b8352820152601a60248201527f4e6f20706f6f6c20726f79616c7469657320746f20636c61696d0000000000006044820152fd5b60649060206040519162461bcd60e51b83528201526014602482015273139bc81d1bdad95b9cc81b5a5b9d1959081e595d60621b6044820152fd5b60065480610c1d575b50610bee346005546108aa565b6005557f1d5b077db78404787d2283eb338d87091c7bea1551c6a3b35853970955fe4e806020604051348152a1565b60001981019081116108b757610c32906107d9565b506001610c3d610829565b91805483520154906020918083830152603c81018091116108b757421115610c655750610be1565b519060008281526008825260408120610c7f3482546108aa565b9055828152600a825260408120546001600160a01b03168015610cdf57816040917fe8f58c2c4663d8d9bab1fcd91c3bef339c90e81754e2d0ec7e888c5c0b56b08d9493526009835220610cd43482546108aa565b9055604051348152a2565b60405162461bcd60e51b815260048101849052601760248201527f496e76616c6964206f726967696e616c206d696e7465720000000000000000006044820152606490fd5b600260015414610d35576002600155565b604051633ee5aeb560e01b8152600490fd5b6000546001600160a01b03163303610d5b57565b60405163118cdaa760e01b8152336004820152602490fdfea26469706673582212201e61414c5aa0830c15df6bce4d9f981a36e00d7bef369c940042ab692b76242564736f6c63430008180033","opcodes":"PUSH1 0x80 CALLVALUE PUSH2 0x12D JUMPI PUSH1 0x1F PUSH2 0xF06 CODESIZE DUP2 SWAP1 SUB SWAP2 DUP3 ADD PUSH1 0x1F NOT AND DUP4 ADD SWAP2 PUSH1 0x1 PUSH1 0x1 PUSH1 0x40 SHL SUB DUP4 GT DUP5 DUP5 LT OR PUSH2 0x132 JUMPI DUP1 DUP5 SWAP3 PUSH1 0x40 SWAP5 DUP6 MSTORE DUP4 CODECOPY DUP2 ADD SUB SLT PUSH2 0x12D JUMPI PUSH2 0x52 PUSH1 0x20 PUSH2 0x4B DUP4 PUSH2 0x148 JUMP JUMPDEST SWAP3 ADD PUSH2 0x148 JUMP JUMPDEST CALLER ISZERO PUSH2 0x114 JUMPI PUSH1 0x0 SLOAD SWAP1 PUSH1 0x1 DUP1 PUSH1 0xA0 SHL SUB SWAP2 DUP3 PUSH1 0x1 DUP1 PUSH1 0xA0 SHL SUB NOT SWAP5 CALLER DUP7 DUP5 AND OR PUSH1 0x0 SSTORE PUSH1 0x40 MLOAD SWAP3 DUP3 CALLER SWAP2 AND PUSH32 0x8BE0079C531659141344CD1FD0A4F28419497F9722A3DAAFE3B4186F6B6457E0 PUSH1 0x0 DUP1 LOG3 PUSH1 0x1 DUP1 SSTORE AND SWAP1 DUP2 ISZERO PUSH2 0xD2 JUMPI POP DUP4 PUSH1 0x2 SLOAD AND OR PUSH1 0x2 SSTORE AND SWAP1 PUSH1 0x3 SLOAD AND OR PUSH1 0x3 SSTORE PUSH1 0x40 MLOAD PUSH2 0xDA9 SWAP1 DUP2 PUSH2 0x15D DUP3 CODECOPY RETURN JUMPDEST PUSH3 0x461BCD PUSH1 0xE5 SHL DUP2 MSTORE PUSH1 0x20 PUSH1 0x4 DUP3 ADD MSTORE PUSH1 0x1F PUSH1 0x24 DUP3 ADD MSTORE PUSH32 0x54726561737572792063616E6E6F74206265207A65726F206164647265737300 PUSH1 0x44 DUP3 ADD MSTORE PUSH1 0x64 SWAP1 REVERT JUMPDEST PUSH1 0x40 MLOAD PUSH4 0x1E4FBDF7 PUSH1 0xE0 SHL DUP2 MSTORE PUSH1 0x0 PUSH1 0x4 DUP3 ADD MSTORE PUSH1 0x24 SWAP1 REVERT JUMPDEST PUSH1 0x0 DUP1 REVERT JUMPDEST PUSH4 0x4E487B71 PUSH1 0xE0 SHL PUSH1 0x0 MSTORE PUSH1 0x41 PUSH1 0x4 MSTORE PUSH1 0x24 PUSH1 0x0 REVERT JUMPDEST MLOAD SWAP1 PUSH1 0x1 PUSH1 0x1 PUSH1 0xA0 SHL SUB DUP3 AND DUP3 SUB PUSH2 0x12D JUMPI JUMP INVALID PUSH1 0x40 PUSH1 0x80 DUP2 MSTORE PUSH1 0x4 SWAP1 DUP2 CALLDATASIZE LT ISZERO PUSH2 0x28 JUMPI JUMPDEST POP POP CALLDATASIZE ISZERO PUSH2 0x1E JUMPI PUSH1 0x0 DUP1 REVERT JUMPDEST PUSH2 0x26 PUSH2 0xBD8 JUMP JUMPDEST STOP JUMPDEST PUSH1 0x0 SWAP2 DUP3 CALLDATALOAD PUSH1 0xE0 SHR DUP1 PUSH4 0x69B7820 EQ PUSH2 0x696 JUMPI DUP1 PUSH4 0x1EBDEEAB EQ PUSH2 0x66F JUMPI DUP1 PUSH4 0x1EFEE976 EQ PUSH2 0x651 JUMPI DUP1 PUSH4 0x33F6DF8F EQ PUSH2 0x619 JUMPI DUP1 PUSH4 0x3A602B4D EQ PUSH2 0x5E1 JUMPI DUP1 PUSH4 0x3A8DE572 EQ PUSH2 0x3EC JUMPI DUP1 PUSH4 0x4D853EE5 EQ PUSH2 0x3C3 JUMPI DUP1 PUSH4 0x53234FB4 EQ PUSH2 0x3A4 JUMPI DUP1 PUSH4 0x61D027B3 EQ PUSH2 0x37B JUMPI DUP1 PUSH4 0x715018A6 EQ PUSH2 0x321 JUMPI DUP1 PUSH4 0x88B48EEA EQ PUSH2 0x2AE JUMPI DUP1 PUSH4 0x8DA5CB5B EQ PUSH2 0x286 JUMPI DUP1 PUSH4 0x9D75170A EQ PUSH2 0x248 JUMPI DUP1 PUSH4 0xA2309FF8 EQ PUSH2 0x22B JUMPI DUP1 PUSH4 0xCADA1C00 EQ PUSH2 0x20F JUMPI DUP1 PUSH4 0xD37B1F46 EQ PUSH2 0x1EC JUMPI DUP1 PUSH4 0xD67F8D0B EQ PUSH2 0x1C1 JUMPI DUP1 PUSH4 0xE7D0FD18 EQ PUSH2 0x18F JUMPI PUSH4 0xF2FDE38B EQ PUSH2 0x106 JUMPI POP PUSH2 0x11 JUMP JUMPDEST CALLVALUE PUSH2 0x18B JUMPI PUSH1 0x20 CALLDATASIZE PUSH1 0x3 NOT ADD SLT PUSH2 0x18B JUMPI PUSH2 0x11F PUSH2 0x794 JUMP JUMPDEST SWAP1 PUSH2 0x128 PUSH2 0xD47 JUMP JUMPDEST PUSH1 0x1 PUSH1 0x1 PUSH1 0xA0 SHL SUB SWAP2 DUP3 AND SWAP3 DUP4 ISZERO PUSH2 0x175 JUMPI POP POP DUP3 SLOAD PUSH1 0x1 PUSH1 0x1 PUSH1 0xA0 SHL SUB NOT DUP2 AND DUP4 OR DUP5 SSTORE AND PUSH32 0x8BE0079C531659141344CD1FD0A4F28419497F9722A3DAAFE3B4186F6B6457E0 DUP4 DUP1 LOG3 DUP1 RETURN JUMPDEST MLOAD PUSH4 0x1E4FBDF7 PUSH1 0xE0 SHL DUP2 MSTORE SWAP1 DUP2 ADD DUP5 SWAP1 MSTORE PUSH1 0x24 SWAP1 REVERT JUMPDEST DUP3 DUP1 REVERT JUMPDEST POP CALLVALUE PUSH2 0x18B JUMPI PUSH1 0x20 CALLDATASIZE PUSH1 0x3 NOT ADD SLT PUSH2 0x18B JUMPI CALLDATALOAD DUP3 MSTORE PUSH1 0xA PUSH1 0x20 SWAP1 DUP2 MSTORE SWAP2 DUP2 SWAP1 KECCAK256 SLOAD SWAP1 MLOAD PUSH1 0x1 PUSH1 0x1 PUSH1 0xA0 SHL SUB SWAP1 SWAP2 AND DUP2 MSTORE RETURN JUMPDEST DUP4 CALLVALUE PUSH2 0x1E9 JUMPI DUP1 PUSH1 0x3 NOT CALLDATASIZE ADD SLT PUSH2 0x1E9 JUMPI PUSH2 0x1DA PUSH2 0xD24 JUMP JUMPDEST PUSH2 0x1E2 PUSH2 0x8CD JUMP JUMPDEST PUSH1 0x1 DUP1 SSTORE DUP1 RETURN JUMPDEST DUP1 REVERT JUMPDEST POP POP CALLVALUE PUSH2 0x20B JUMPI DUP2 PUSH1 0x3 NOT CALLDATASIZE ADD SLT PUSH2 0x20B JUMPI PUSH1 0x20 SWAP1 PUSH1 0x5 SLOAD SWAP1 MLOAD SWAP1 DUP2 MSTORE RETURN JUMPDEST POP DUP1 REVERT JUMPDEST POP POP CALLVALUE PUSH2 0x20B JUMPI DUP2 PUSH1 0x3 NOT CALLDATASIZE ADD SLT PUSH2 0x20B JUMPI PUSH1 0x20 SWAP1 MLOAD PUSH1 0x3C DUP2 MSTORE RETURN JUMPDEST POP CALLVALUE PUSH2 0x18B JUMPI DUP3 PUSH1 0x3 NOT CALLDATASIZE ADD SLT PUSH2 0x18B JUMPI PUSH1 0x20 SWAP3 POP SLOAD SWAP1 MLOAD SWAP1 DUP2 MSTORE RETURN JUMPDEST POP DUP3 SWAP1 CALLVALUE PUSH2 0x20B JUMPI PUSH1 0x20 CALLDATASIZE PUSH1 0x3 NOT ADD SLT PUSH2 0x20B JUMPI CALLDATALOAD SWAP1 PUSH1 0x6 SLOAD DUP3 LT ISZERO PUSH2 0x1E9 JUMPI POP PUSH2 0x272 SWAP1 PUSH2 0x7D9 JUMP JUMPDEST POP PUSH1 0x1 DUP2 SLOAD SWAP2 ADD SLOAD DUP3 MLOAD SWAP2 DUP3 MSTORE PUSH1 0x20 DUP3 ADD MSTORE RETURN JUMPDEST POP POP CALLVALUE PUSH2 0x20B JUMPI DUP2 PUSH1 0x3 NOT CALLDATASIZE ADD SLT PUSH2 0x20B JUMPI SWAP1 SLOAD SWAP1 MLOAD PUSH1 0x1 PUSH1 0x1 PUSH1 0xA0 SHL SUB SWAP1 SWAP2 AND DUP2 MSTORE PUSH1 0x20 SWAP1 RETURN JUMPDEST POP SWAP1 CALLVALUE PUSH2 0x18B JUMPI PUSH2 0x31C SWAP1 PUSH2 0x2C2 CALLDATASIZE PUSH2 0x7AF JUMP JUMPDEST SWAP3 SWAP2 PUSH2 0x2CC PUSH2 0xD47 JUMP JUMPDEST PUSH2 0x2D4 PUSH2 0xD47 JUMP JUMPDEST DUP7 MSTORE PUSH1 0xA PUSH1 0x20 MSTORE DUP2 DUP7 KECCAK256 SWAP1 PUSH1 0x1 DUP1 PUSH1 0xA0 SHL SUB AND SWAP1 DUP2 PUSH12 0xFFFFFFFFFFFFFFFFFFFFFFFF PUSH1 0xA0 SHL DUP3 SLOAD AND OR SWAP1 SSTORE DUP6 MSTORE PUSH1 0xB PUSH1 0x20 MSTORE DUP5 KECCAK256 PUSH2 0x313 DUP3 DUP3 SLOAD PUSH2 0x8AA JUMP JUMPDEST SWAP1 SSTORE DUP3 SLOAD PUSH2 0x8AA JUMP JUMPDEST SWAP1 SSTORE DUP1 RETURN JUMPDEST DUP4 CALLVALUE PUSH2 0x1E9 JUMPI DUP1 PUSH1 0x3 NOT CALLDATASIZE ADD SLT PUSH2 0x1E9 JUMPI PUSH2 0x33A PUSH2 0xD47 JUMP JUMPDEST DUP1 SLOAD PUSH1 0x1 PUSH1 0x1 PUSH1 0xA0 SHL SUB NOT DUP2 AND DUP3 SSTORE DUP2 SWAP1 PUSH1 0x1 PUSH1 0x1 PUSH1 0xA0 SHL SUB AND PUSH32 0x8BE0079C531659141344CD1FD0A4F28419497F9722A3DAAFE3B4186F6B6457E0 DUP3 DUP1 LOG3 DUP1 RETURN JUMPDEST POP POP CALLVALUE PUSH2 0x20B JUMPI DUP2 PUSH1 0x3 NOT CALLDATASIZE ADD SLT PUSH2 0x20B JUMPI PUSH1 0x2 SLOAD SWAP1 MLOAD PUSH1 0x1 PUSH1 0x1 PUSH1 0xA0 SHL SUB SWAP1 SWAP2 AND DUP2 MSTORE PUSH1 0x20 SWAP1 RETURN JUMPDEST POP POP CALLVALUE PUSH2 0x20B JUMPI DUP2 PUSH1 0x3 NOT CALLDATASIZE ADD SLT PUSH2 0x20B JUMPI PUSH1 0x20 SWAP1 PUSH1 0x7 SLOAD SWAP1 MLOAD SWAP1 DUP2 MSTORE RETURN JUMPDEST POP POP CALLVALUE PUSH2 0x20B JUMPI DUP2 PUSH1 0x3 NOT CALLDATASIZE ADD SLT PUSH2 0x20B JUMPI PUSH1 0x3 SLOAD SWAP1 MLOAD PUSH1 0x1 PUSH1 0x1 PUSH1 0xA0 SHL SUB SWAP1 SWAP2 AND DUP2 MSTORE PUSH1 0x20 SWAP1 RETURN JUMPDEST DUP4 DUP3 CALLVALUE PUSH2 0x20B JUMPI PUSH1 0x20 CALLDATASIZE PUSH1 0x3 NOT ADD SLT PUSH2 0x20B JUMPI PUSH2 0x407 PUSH2 0xD47 JUMP JUMPDEST PUSH2 0x40F PUSH2 0x829 JUMP JUMPDEST DUP2 CALLDATALOAD DUP2 MSTORE PUSH1 0x20 DUP2 ADD TIMESTAMP DUP2 MSTORE PUSH1 0x6 SWAP2 DUP3 SLOAD SWAP2 PUSH9 0x10000000000000000 DUP4 LT ISZERO PUSH2 0x5CE JUMPI PUSH2 0x441 PUSH1 0x1 SWAP4 DUP5 DUP2 ADD DUP7 SSTORE PUSH2 0x7D9 JUMP JUMPDEST SWAP3 SWAP1 SWAP3 PUSH2 0x5BC JUMPI MLOAD DUP3 SSTORE MLOAD SWAP1 DUP3 ADD SSTORE PUSH1 0x7 DUP1 SLOAD PUSH1 0x0 NOT SWAP2 SWAP1 DUP3 DUP2 EQ PUSH2 0x5A9 JUMPI DUP4 ADD PUSH1 0x7 SSTORE DUP3 JUMPDEST PUSH2 0x46F JUMPI DUP6 DUP1 RETURN JUMPDEST DUP4 SLOAD PUSH1 0x64 DUP2 GT DUP1 ISZERO PUSH2 0x546 JUMPI JUMPDEST ISZERO PUSH2 0x541 JUMPI DUP3 DUP2 ADD DUP2 DUP2 GT PUSH2 0x52E JUMPI PUSH2 0x494 SWAP1 PUSH2 0x7D9 JUMP JUMPDEST POP SWAP1 DUP3 SLOAD DUP2 ISZERO PUSH2 0x51B JUMPI SWAP1 PUSH2 0x4A9 SWAP2 MOD PUSH2 0x7D9 JUMP JUMPDEST SWAP2 SWAP1 SWAP2 PUSH2 0x4E4 JUMPI DUP1 DUP6 SWAP2 DUP4 SUB PUSH2 0x509 JUMPI JUMPDEST POP POP POP DUP4 SLOAD DUP1 ISZERO PUSH2 0x4F6 JUMPI DUP3 ADD PUSH2 0x4D0 DUP2 PUSH2 0x7D9 JUMP JUMPDEST PUSH2 0x4E4 JUMPI DUP8 DUP2 SSTORE DUP5 ADD DUP8 SWAP1 SSTORE DUP5 SSTORE DUP3 PUSH2 0x467 JUMP JUMPDEST PUSH4 0x4E487B71 PUSH1 0xE0 SHL DUP9 MSTORE DUP8 DUP8 MSTORE PUSH1 0x24 DUP9 REVERT JUMPDEST PUSH4 0x4E487B71 PUSH1 0xE0 SHL DUP8 MSTORE PUSH1 0x31 DUP7 MSTORE PUSH1 0x24 DUP8 REVERT JUMPDEST DUP1 SLOAD DUP4 SSTORE DUP2 ADD SLOAD SWAP2 ADD SSTORE DUP7 DUP4 DUP2 PUSH2 0x4BA JUMP JUMPDEST PUSH4 0x4E487B71 PUSH1 0xE0 SHL DUP10 MSTORE PUSH1 0x12 DUP9 MSTORE PUSH1 0x24 DUP10 REVERT JUMPDEST PUSH4 0x4E487B71 PUSH1 0xE0 SHL DUP9 MSTORE PUSH1 0x11 DUP8 MSTORE PUSH1 0x24 DUP9 REVERT JUMPDEST POP DUP6 DUP1 RETURN JUMPDEST POP DUP1 ISZERO DUP1 ISZERO SWAP1 DUP2 PUSH2 0x558 JUMPI JUMPDEST POP PUSH2 0x47C JUMP JUMPDEST SWAP1 POP PUSH2 0x596 JUMPI DUP5 DUP8 MSTORE PUSH32 0xF652222313E28459528D920B65115C16C04F3EFC82AAEDC97BE59F3F377C0D40 SLOAD PUSH1 0x78 DUP2 ADD DUP1 SWAP2 GT PUSH2 0x52E JUMPI TIMESTAMP GT DUP9 PUSH2 0x552 JUMP JUMPDEST PUSH4 0x4E487B71 PUSH1 0xE0 SHL DUP8 MSTORE PUSH1 0x32 DUP7 MSTORE PUSH1 0x24 DUP8 REVERT JUMPDEST PUSH4 0x4E487B71 PUSH1 0xE0 SHL DUP8 MSTORE PUSH1 0x11 DUP7 MSTORE PUSH1 0x24 DUP8 REVERT JUMPDEST PUSH4 0x4E487B71 PUSH1 0xE0 SHL DUP8 MSTORE DUP7 DUP7 MSTORE PUSH1 0x24 DUP8 REVERT JUMPDEST PUSH4 0x4E487B71 PUSH1 0xE0 SHL DUP7 MSTORE PUSH1 0x41 DUP6 MSTORE PUSH1 0x24 DUP7 REVERT JUMPDEST POP POP CALLVALUE PUSH2 0x20B JUMPI PUSH1 0x20 CALLDATASIZE PUSH1 0x3 NOT ADD SLT PUSH2 0x20B JUMPI PUSH1 0x20 SWAP2 DUP2 SWAP1 PUSH1 0x1 PUSH1 0x1 PUSH1 0xA0 SHL SUB PUSH2 0x609 PUSH2 0x794 JUMP JUMPDEST AND DUP2 MSTORE PUSH1 0xB DUP5 MSTORE KECCAK256 SLOAD SWAP1 MLOAD SWAP1 DUP2 MSTORE RETURN JUMPDEST POP POP CALLVALUE PUSH2 0x20B JUMPI PUSH1 0x20 CALLDATASIZE PUSH1 0x3 NOT ADD SLT PUSH2 0x20B JUMPI PUSH1 0x20 SWAP2 DUP2 SWAP1 PUSH1 0x1 PUSH1 0x1 PUSH1 0xA0 SHL SUB PUSH2 0x641 PUSH2 0x794 JUMP JUMPDEST AND DUP2 MSTORE PUSH1 0x9 DUP5 MSTORE KECCAK256 SLOAD SWAP1 MLOAD SWAP1 DUP2 MSTORE RETURN JUMPDEST POP SWAP1 CALLVALUE PUSH2 0x18B JUMPI PUSH2 0x31C SWAP1 PUSH2 0x665 CALLDATASIZE PUSH2 0x7AF JUMP JUMPDEST SWAP3 SWAP2 PUSH2 0x2D4 PUSH2 0xD47 JUMP JUMPDEST POP CALLVALUE PUSH2 0x18B JUMPI PUSH1 0x20 CALLDATASIZE PUSH1 0x3 NOT ADD SLT PUSH2 0x18B JUMPI PUSH1 0x20 SWAP3 DUP3 SWAP2 CALLDATALOAD DUP2 MSTORE PUSH1 0x8 DUP5 MSTORE KECCAK256 SLOAD SWAP1 MLOAD SWAP1 DUP2 MSTORE RETURN JUMPDEST POP SWAP1 CALLVALUE PUSH2 0x18B JUMPI DUP3 PUSH1 0x3 NOT CALLDATASIZE ADD SLT PUSH2 0x18B JUMPI PUSH2 0x6B0 PUSH2 0xD24 JUMP JUMPDEST CALLER DUP4 MSTORE PUSH1 0x9 PUSH1 0x20 MSTORE DUP1 DUP4 KECCAK256 SLOAD SWAP2 DUP3 ISZERO PUSH2 0x75A JUMPI CALLER DUP5 MSTORE PUSH1 0x9 PUSH1 0x20 MSTORE DUP4 DUP3 DUP2 KECCAK256 SSTORE DUP4 DUP1 DUP1 DUP1 DUP7 CALLER GAS CALL PUSH2 0x6E0 PUSH2 0x85F JUMP JUMPDEST POP ISZERO PUSH2 0x718 JUMPI POP MLOAD SWAP1 DUP2 MSTORE PUSH32 0x8FBBDA19F4A70036F6F585DC4160142A8FA2A20FFB9393D23274F78DE4E39888 PUSH1 0x20 CALLER SWAP3 LOG2 PUSH1 0x1 DUP1 SSTORE DUP1 RETURN JUMPDEST PUSH1 0x20 PUSH1 0x64 SWAP3 MLOAD SWAP2 PUSH3 0x461BCD PUSH1 0xE5 SHL DUP4 MSTORE DUP3 ADD MSTORE PUSH1 0x18 PUSH1 0x24 DUP3 ADD MSTORE PUSH32 0x4661696C656420746F2073656E6420726F79616C746965730000000000000000 PUSH1 0x44 DUP3 ADD MSTORE REVERT JUMPDEST PUSH1 0x20 PUSH1 0x64 SWAP3 MLOAD SWAP2 PUSH3 0x461BCD PUSH1 0xE5 SHL DUP4 MSTORE DUP3 ADD MSTORE PUSH1 0x15 PUSH1 0x24 DUP3 ADD MSTORE PUSH21 0x4E6F20726F79616C7469657320746F20636C61696D PUSH1 0x58 SHL PUSH1 0x44 DUP3 ADD MSTORE REVERT JUMPDEST PUSH1 0x4 CALLDATALOAD SWAP1 PUSH1 0x1 PUSH1 0x1 PUSH1 0xA0 SHL SUB DUP3 AND DUP3 SUB PUSH2 0x7AA JUMPI JUMP JUMPDEST PUSH1 0x0 DUP1 REVERT JUMPDEST PUSH1 0x60 SWAP1 PUSH1 0x3 NOT ADD SLT PUSH2 0x7AA JUMPI PUSH1 0x4 CALLDATALOAD SWAP1 PUSH1 0x24 CALLDATALOAD PUSH1 0x1 PUSH1 0x1 PUSH1 0xA0 SHL SUB DUP2 AND DUP2 SUB PUSH2 0x7AA JUMPI SWAP1 PUSH1 0x44 CALLDATALOAD SWAP1 JUMP JUMPDEST PUSH1 0x6 SLOAD DUP2 LT ISZERO PUSH2 0x813 JUMPI PUSH1 0x6 PUSH1 0x0 MSTORE PUSH1 0x1 SHL PUSH32 0xF652222313E28459528D920B65115C16C04F3EFC82AAEDC97BE59F3F377C0D3F ADD SWAP1 PUSH1 0x0 SWAP1 JUMP JUMPDEST PUSH4 0x4E487B71 PUSH1 0xE0 SHL PUSH1 0x0 MSTORE PUSH1 0x32 PUSH1 0x4 MSTORE PUSH1 0x24 PUSH1 0x0 REVERT JUMPDEST PUSH1 0x40 MLOAD SWAP1 PUSH1 0x40 DUP3 ADD DUP3 DUP2 LT PUSH8 0xFFFFFFFFFFFFFFFF DUP3 GT OR PUSH2 0x849 JUMPI PUSH1 0x40 MSTORE JUMP JUMPDEST PUSH4 0x4E487B71 PUSH1 0xE0 SHL PUSH1 0x0 MSTORE PUSH1 0x41 PUSH1 0x4 MSTORE PUSH1 0x24 PUSH1 0x0 REVERT JUMPDEST RETURNDATASIZE ISZERO PUSH2 0x8A5 JUMPI PUSH8 0xFFFFFFFFFFFFFFFF SWAP1 RETURNDATASIZE DUP3 DUP2 GT PUSH2 0x849 JUMPI PUSH1 0x40 MLOAD SWAP3 PUSH1 0x1F DUP3 ADD PUSH1 0x1F NOT SWAP1 DUP2 AND PUSH1 0x3F ADD AND DUP5 ADD SWAP1 DUP2 GT DUP5 DUP3 LT OR PUSH2 0x849 JUMPI PUSH1 0x40 MSTORE DUP3 MSTORE RETURNDATASIZE PUSH1 0x0 PUSH1 0x20 DUP5 ADD RETURNDATACOPY JUMP JUMPDEST PUSH1 0x60 SWAP1 JUMP JUMPDEST SWAP2 SWAP1 DUP3 ADD DUP1 SWAP3 GT PUSH2 0x8B7 JUMPI JUMP JUMPDEST PUSH4 0x4E487B71 PUSH1 0xE0 SHL PUSH1 0x0 MSTORE PUSH1 0x11 PUSH1 0x4 MSTORE PUSH1 0x24 PUSH1 0x0 REVERT JUMPDEST PUSH1 0x4 DUP1 SLOAD ISZERO PUSH2 0xB9D JUMPI PUSH1 0x5 SLOAD SWAP1 DUP2 ISZERO PUSH2 0xB59 JUMPI PUSH1 0x19 DUP3 MUL SWAP1 DUP3 DUP3 DIV PUSH1 0x19 SUB PUSH2 0xB44 JUMPI PUSH1 0x64 DUP1 SWAP3 DIV SWAP3 PUSH1 0x32 DUP2 MUL SWAP1 DUP2 DIV PUSH1 0x32 SUB PUSH2 0xB2F JUMPI DUP3 SWAP1 DIV PUSH1 0x0 SWAP4 DUP5 PUSH1 0x5 SSTORE PUSH1 0x1 DUP1 PUSH1 0xA0 SHL SUB SWAP1 DUP6 DUP1 DUP1 DUP1 DUP5 DUP7 PUSH1 0x3 SLOAD AND GAS CALL PUSH2 0x929 PUSH2 0x85F JUMP JUMPDEST POP ISZERO PUSH2 0xAEB JUMPI DUP6 DUP1 DUP1 DUP1 SWAP4 DUP6 PUSH1 0x2 SLOAD AND GAS CALL PUSH2 0x943 PUSH2 0x85F JUMP JUMPDEST POP ISZERO PUSH2 0xAA8 JUMPI DUP1 PUSH1 0x3 SLOAD AND CALLER EQ SWAP1 DUP2 ISZERO PUSH2 0xA9A JUMPI JUMPDEST POP PUSH2 0xA94 JUMPI CALLER DUP5 MSTORE PUSH1 0xB PUSH1 0x20 MSTORE PUSH1 0x40 DUP5 KECCAK256 SLOAD SWAP1 DUP2 ISZERO PUSH2 0xA51 JUMPI DUP2 DUP2 MUL SWAP2 DUP2 DUP4 DIV EQ SWAP1 ISZERO OR ISZERO PUSH2 0xA3E JUMPI DUP2 SLOAD SWAP1 DUP2 ISZERO PUSH2 0xA2B JUMPI DIV SWAP3 CALLER DUP2 MSTORE PUSH1 0x9 PUSH1 0x20 MSTORE PUSH1 0x40 DUP2 KECCAK256 PUSH2 0x9A3 DUP6 DUP3 SLOAD PUSH2 0x8AA JUMP JUMPDEST SWAP1 SSTORE DUP1 DUP1 DUP1 DUP7 CALLER GAS CALL PUSH2 0x9B4 PUSH2 0x85F JUMP JUMPDEST POP ISZERO PUSH2 0x9EA JUMPI POP POP PUSH1 0x40 MLOAD SWAP1 DUP2 MSTORE PUSH32 0x8FBBDA19F4A70036F6F585DC4160142A8FA2A20FFB9393D23274F78DE4E39888 PUSH1 0x20 CALLER SWAP3 LOG2 JUMP JUMPDEST PUSH1 0x20 PUSH1 0x40 MLOAD SWAP2 PUSH3 0x461BCD PUSH1 0xE5 SHL DUP4 MSTORE DUP3 ADD MSTORE PUSH1 0x1B PUSH1 0x24 DUP3 ADD MSTORE PUSH32 0x4661696C656420746F2073656E64206D696E7465722073686172650000000000 PUSH1 0x44 DUP3 ADD MSTORE REVERT JUMPDEST PUSH4 0x4E487B71 PUSH1 0xE0 SHL DUP6 MSTORE PUSH1 0x12 DUP4 MSTORE PUSH1 0x24 DUP6 REVERT JUMPDEST PUSH4 0x4E487B71 PUSH1 0xE0 SHL DUP5 MSTORE PUSH1 0x11 DUP3 MSTORE PUSH1 0x24 DUP5 REVERT JUMPDEST POP POP PUSH1 0x20 PUSH1 0x40 MLOAD SWAP2 PUSH3 0x461BCD PUSH1 0xE5 SHL DUP4 MSTORE DUP3 ADD MSTORE PUSH1 0x1C PUSH1 0x24 DUP3 ADD MSTORE PUSH32 0x4E6F20746F6B656E73206D696E74656420627920636C61696D616E7400000000 PUSH1 0x44 DUP3 ADD MSTORE REVERT JUMPDEST POP POP POP POP JUMP JUMPDEST SWAP1 POP PUSH1 0x2 SLOAD AND CALLER EQ CODESIZE PUSH2 0x958 JUMP JUMPDEST POP POP PUSH1 0x20 PUSH1 0x40 MLOAD SWAP2 PUSH3 0x461BCD PUSH1 0xE5 SHL DUP4 MSTORE DUP3 ADD MSTORE PUSH1 0x1D PUSH1 0x24 DUP3 ADD MSTORE PUSH32 0x4661696C656420746F2073656E64207472656173757279207368617265000000 PUSH1 0x44 DUP3 ADD MSTORE REVERT JUMPDEST POP POP POP PUSH1 0x20 PUSH1 0x40 MLOAD SWAP2 PUSH3 0x461BCD PUSH1 0xE5 SHL DUP4 MSTORE DUP3 ADD MSTORE PUSH1 0x1C PUSH1 0x24 DUP3 ADD MSTORE PUSH32 0x4661696C656420746F2073656E6420666F756E64657220736861726500000000 PUSH1 0x44 DUP3 ADD MSTORE REVERT JUMPDEST PUSH1 0x11 DUP3 PUSH4 0x4E487B71 PUSH1 0xE0 SHL PUSH1 0x0 MSTORE MSTORE PUSH1 0x24 PUSH1 0x0 REVERT JUMPDEST PUSH1 0x11 SWAP1 PUSH4 0x4E487B71 PUSH1 0xE0 SHL PUSH1 0x0 MSTORE MSTORE PUSH1 0x24 PUSH1 0x0 REVERT JUMPDEST PUSH1 0x64 SWAP1 PUSH1 0x20 PUSH1 0x40 MLOAD SWAP2 PUSH3 0x461BCD PUSH1 0xE5 SHL DUP4 MSTORE DUP3 ADD MSTORE PUSH1 0x1A PUSH1 0x24 DUP3 ADD MSTORE PUSH32 0x4E6F20706F6F6C20726F79616C7469657320746F20636C61696D000000000000 PUSH1 0x44 DUP3 ADD MSTORE REVERT JUMPDEST PUSH1 0x64 SWAP1 PUSH1 0x20 PUSH1 0x40 MLOAD SWAP2 PUSH3 0x461BCD PUSH1 0xE5 SHL DUP4 MSTORE DUP3 ADD MSTORE PUSH1 0x14 PUSH1 0x24 DUP3 ADD MSTORE PUSH20 0x139BC81D1BDAD95B9CC81B5A5B9D1959081E595D PUSH1 0x62 SHL PUSH1 0x44 DUP3 ADD MSTORE REVERT JUMPDEST PUSH1 0x6 SLOAD DUP1 PUSH2 0xC1D JUMPI JUMPDEST POP PUSH2 0xBEE CALLVALUE PUSH1 0x5 SLOAD PUSH2 0x8AA JUMP JUMPDEST PUSH1 0x5 SSTORE PUSH32 0x1D5B077DB78404787D2283EB338D87091C7BEA1551C6A3B35853970955FE4E80 PUSH1 0x20 PUSH1 0x40 MLOAD CALLVALUE DUP2 MSTORE LOG1 JUMP JUMPDEST PUSH1 0x0 NOT DUP2 ADD SWAP1 DUP2 GT PUSH2 0x8B7 JUMPI PUSH2 0xC32 SWAP1 PUSH2 0x7D9 JUMP JUMPDEST POP PUSH1 0x1 PUSH2 0xC3D PUSH2 0x829 JUMP JUMPDEST SWAP2 DUP1 SLOAD DUP4 MSTORE ADD SLOAD SWAP1 PUSH1 0x20 SWAP2 DUP1 DUP4 DUP4 ADD MSTORE PUSH1 0x3C DUP2 ADD DUP1 SWAP2 GT PUSH2 0x8B7 JUMPI TIMESTAMP GT ISZERO PUSH2 0xC65 JUMPI POP PUSH2 0xBE1 JUMP JUMPDEST MLOAD SWAP1 PUSH1 0x0 DUP3 DUP2 MSTORE PUSH1 0x8 DUP3 MSTORE PUSH1 0x40 DUP2 KECCAK256 PUSH2 0xC7F CALLVALUE DUP3 SLOAD PUSH2 0x8AA JUMP JUMPDEST SWAP1 SSTORE DUP3 DUP2 MSTORE PUSH1 0xA DUP3 MSTORE PUSH1 0x40 DUP2 KECCAK256 SLOAD PUSH1 0x1 PUSH1 0x1 PUSH1 0xA0 SHL SUB AND DUP1 ISZERO PUSH2 0xCDF JUMPI DUP2 PUSH1 0x40 SWAP2 PUSH32 0xE8F58C2C4663D8D9BAB1FCD91C3BEF339C90E81754E2D0EC7E888C5C0B56B08D SWAP5 SWAP4 MSTORE PUSH1 0x9 DUP4 MSTORE KECCAK256 PUSH2 0xCD4 CALLVALUE DUP3 SLOAD PUSH2 0x8AA JUMP JUMPDEST SWAP1 SSTORE PUSH1 0x40 MLOAD CALLVALUE DUP2 MSTORE LOG2 JUMP JUMPDEST PUSH1 0x40 MLOAD PUSH3 0x461BCD PUSH1 0xE5 SHL DUP2 MSTORE PUSH1 0x4 DUP2 ADD DUP5 SWAP1 MSTORE PUSH1 0x17 PUSH1 0x24 DUP3 ADD MSTORE PUSH32 0x496E76616C6964206F726967696E616C206D696E746572000000000000000000 PUSH1 0x44 DUP3 ADD MSTORE PUSH1 0x64 SWAP1 REVERT JUMPDEST PUSH1 0x2 PUSH1 0x1 SLOAD EQ PUSH2 0xD35 JUMPI PUSH1 0x2 PUSH1 0x1 SSTORE JUMP JUMPDEST PUSH1 0x40 MLOAD PUSH4 0x3EE5AEB5 PUSH1 0xE0 SHL DUP2 MSTORE PUSH1 0x4 SWAP1 REVERT JUMPDEST PUSH1 0x0 SLOAD PUSH1 0x1 PUSH1 0x1 PUSH1 0xA0 SHL SUB AND CALLER SUB PUSH2 0xD5B JUMPI JUMP JUMPDEST PUSH1 0x40 MLOAD PUSH4 0x118CDAA7 PUSH1 0xE0 SHL DUP2 MSTORE CALLER PUSH1 0x4 DUP3 ADD MSTORE PUSH1 0x24 SWAP1 REVERT INVALID LOG2 PUSH5 0x6970667358 0x22 SLT KECCAK256 0x1E PUSH2 0x414C GAS LOG0 DUP4 0xC ISZERO 0xDF PUSH12 0xCE4D9F981A36E00D7BEF369C SWAP5 STOP TIMESTAMP 0xAB PUSH10 0x2B76242564736F6C6343 STOP ADDMOD XOR STOP CALLER "},"methodIdentifiers":{"ROYALTY_WINDOW()":"cada1c00","claimPoolRoyalties()":"d67f8d0b","claimRoyalties()":"069b7820","founder()":"4d853ee5","mintAndRecord(uint256,address,uint256)":"88b48eea","mintedPerWallet(address)":"3a602b4d","originalMinters(uint256)":"e7d0fd18","owner()":"8da5cb5b","poolRoyalties()":"d37b1f46","recentTransfers(uint256)":"9d75170a","recordTransfer(uint256)":"3a8de572","renounceOwnership()":"715018a6","royaltyBalances(address)":"33f6df8f","royaltyBalancesPerToken(uint256)":"1ebdeeab","setOriginalMinter(uint256,address,uint256)":"1efee976","totalMinted()":"a2309ff8","transferIndex()":"53234fb4","transferOwnership(address)":"f2fde38b","treasury()":"61d027b3"}}}}}