{
  "_format": "hh-sol-artifact-1",
  "contractName": "ApeBeatsGenesis",
  "sourceName": "contracts/ApeBeatsGenesis.sol",
  "abi": [
    {
      "inputs": [],
      "stateMutability": "nonpayable",
      "type": "constructor"
    },
    {
      "inputs": [
        {
          "internalType": "uint256",
          "name": "numerator",
          "type": "uint256"
        },
        {
          "internalType": "uint256",
          "name": "denominator",
          "type": "uint256"
        }
      ],
      "name": "ERC2981InvalidDefaultRoyalty",
      "type": "error"
    },
    {
      "inputs": [
        {
          "internalType": "address",
          "name": "receiver",
          "type": "address"
        }
      ],
      "name": "ERC2981InvalidDefaultRoyaltyReceiver",
      "type": "error"
    },
    {
      "inputs": [
        {
          "internalType": "uint256",
          "name": "tokenId",
          "type": "uint256"
        },
        {
          "internalType": "uint256",
          "name": "numerator",
          "type": "uint256"
        },
        {
          "internalType": "uint256",
          "name": "denominator",
          "type": "uint256"
        }
      ],
      "name": "ERC2981InvalidTokenRoyalty",
      "type": "error"
    },
    {
      "inputs": [
        {
          "internalType": "uint256",
          "name": "tokenId",
          "type": "uint256"
        },
        {
          "internalType": "address",
          "name": "receiver",
          "type": "address"
        }
      ],
      "name": "ERC2981InvalidTokenRoyaltyReceiver",
      "type": "error"
    },
    {
      "inputs": [
        {
          "internalType": "address",
          "name": "sender",
          "type": "address"
        },
        {
          "internalType": "uint256",
          "name": "tokenId",
          "type": "uint256"
        },
        {
          "internalType": "address",
          "name": "owner",
          "type": "address"
        }
      ],
      "name": "ERC721IncorrectOwner",
      "type": "error"
    },
    {
      "inputs": [
        {
          "internalType": "address",
          "name": "operator",
          "type": "address"
        },
        {
          "internalType": "uint256",
          "name": "tokenId",
          "type": "uint256"
        }
      ],
      "name": "ERC721InsufficientApproval",
      "type": "error"
    },
    {
      "inputs": [
        {
          "internalType": "address",
          "name": "approver",
          "type": "address"
        }
      ],
      "name": "ERC721InvalidApprover",
      "type": "error"
    },
    {
      "inputs": [
        {
          "internalType": "address",
          "name": "operator",
          "type": "address"
        }
      ],
      "name": "ERC721InvalidOperator",
      "type": "error"
    },
    {
      "inputs": [
        {
          "internalType": "address",
          "name": "owner",
          "type": "address"
        }
      ],
      "name": "ERC721InvalidOwner",
      "type": "error"
    },
    {
      "inputs": [
        {
          "internalType": "address",
          "name": "receiver",
          "type": "address"
        }
      ],
      "name": "ERC721InvalidReceiver",
      "type": "error"
    },
    {
      "inputs": [
        {
          "internalType": "address",
          "name": "sender",
          "type": "address"
        }
      ],
      "name": "ERC721InvalidSender",
      "type": "error"
    },
    {
      "inputs": [
        {
          "internalType": "uint256",
          "name": "tokenId",
          "type": "uint256"
        }
      ],
      "name": "ERC721NonexistentToken",
      "type": "error"
    },
    {
      "inputs": [],
      "name": "InvalidInitialization",
      "type": "error"
    },
    {
      "inputs": [],
      "name": "NotInitializing",
      "type": "error"
    },
    {
      "inputs": [
        {
          "internalType": "address",
          "name": "owner",
          "type": "address"
        }
      ],
      "name": "OwnableInvalidOwner",
      "type": "error"
    },
    {
      "inputs": [
        {
          "internalType": "address",
          "name": "account",
          "type": "address"
        }
      ],
      "name": "OwnableUnauthorizedAccount",
      "type": "error"
    },
    {
      "inputs": [],
      "name": "ReentrancyGuardReentrantCall",
      "type": "error"
    },
    {
      "anonymous": false,
      "inputs": [
        {
          "indexed": true,
          "internalType": "address",
          "name": "owner",
          "type": "address"
        },
        {
          "indexed": true,
          "internalType": "address",
          "name": "approved",
          "type": "address"
        },
        {
          "indexed": true,
          "internalType": "uint256",
          "name": "tokenId",
          "type": "uint256"
        }
      ],
      "name": "Approval",
      "type": "event"
    },
    {
      "anonymous": false,
      "inputs": [
        {
          "indexed": true,
          "internalType": "address",
          "name": "owner",
          "type": "address"
        },
        {
          "indexed": true,
          "internalType": "address",
          "name": "operator",
          "type": "address"
        },
        {
          "indexed": false,
          "internalType": "bool",
          "name": "approved",
          "type": "bool"
        }
      ],
      "name": "ApprovalForAll",
      "type": "event"
    },
    {
      "anonymous": false,
      "inputs": [
        {
          "indexed": false,
          "internalType": "uint64",
          "name": "version",
          "type": "uint64"
        }
      ],
      "name": "Initialized",
      "type": "event"
    },
    {
      "anonymous": false,
      "inputs": [
        {
          "indexed": true,
          "internalType": "address",
          "name": "to",
          "type": "address"
        },
        {
          "indexed": true,
          "internalType": "uint256",
          "name": "tokenId",
          "type": "uint256"
        }
      ],
      "name": "Minted",
      "type": "event"
    },
    {
      "anonymous": false,
      "inputs": [
        {
          "indexed": true,
          "internalType": "address",
          "name": "previousOwner",
          "type": "address"
        },
        {
          "indexed": true,
          "internalType": "address",
          "name": "newOwner",
          "type": "address"
        }
      ],
      "name": "OwnershipTransferred",
      "type": "event"
    },
    {
      "anonymous": false,
      "inputs": [
        {
          "indexed": true,
          "internalType": "address",
          "name": "from",
          "type": "address"
        },
        {
          "indexed": true,
          "internalType": "address",
          "name": "to",
          "type": "address"
        },
        {
          "indexed": true,
          "internalType": "uint256",
          "name": "tokenId",
          "type": "uint256"
        }
      ],
      "name": "Transfer",
      "type": "event"
    },
    {
      "inputs": [],
      "name": "FCFS_DURATION",
      "outputs": [
        {
          "internalType": "uint256",
          "name": "",
          "type": "uint256"
        }
      ],
      "stateMutability": "view",
      "type": "function"
    },
    {
      "inputs": [],
      "name": "FCFS_MAX_PER_WALLET",
      "outputs": [
        {
          "internalType": "uint256",
          "name": "",
          "type": "uint256"
        }
      ],
      "stateMutability": "view",
      "type": "function"
    },
    {
      "inputs": [],
      "name": "FCFS_PRICE",
      "outputs": [
        {
          "internalType": "uint256",
          "name": "",
          "type": "uint256"
        }
      ],
      "stateMutability": "view",
      "type": "function"
    },
    {
      "inputs": [],
      "name": "FOUNDER_MINT_AMOUNT",
      "outputs": [
        {
          "internalType": "uint256",
          "name": "",
          "type": "uint256"
        }
      ],
      "stateMutability": "view",
      "type": "function"
    },
    {
      "inputs": [],
      "name": "GTD_DURATION",
      "outputs": [
        {
          "internalType": "uint256",
          "name": "",
          "type": "uint256"
        }
      ],
      "stateMutability": "view",
      "type": "function"
    },
    {
      "inputs": [],
      "name": "GTD_MAX_PER_WALLET",
      "outputs": [
        {
          "internalType": "uint256",
          "name": "",
          "type": "uint256"
        }
      ],
      "stateMutability": "view",
      "type": "function"
    },
    {
      "inputs": [],
      "name": "GTD_MINT_AMOUNT",
      "outputs": [
        {
          "internalType": "uint256",
          "name": "",
          "type": "uint256"
        }
      ],
      "stateMutability": "view",
      "type": "function"
    },
    {
      "inputs": [],
      "name": "GTD_PRICE",
      "outputs": [
        {
          "internalType": "uint256",
          "name": "",
          "type": "uint256"
        }
      ],
      "stateMutability": "view",
      "type": "function"
    },
    {
      "inputs": [],
      "name": "PUBLIC_MAX_PER_WALLET",
      "outputs": [
        {
          "internalType": "uint256",
          "name": "",
          "type": "uint256"
        }
      ],
      "stateMutability": "view",
      "type": "function"
    },
    {
      "inputs": [],
      "name": "PUBLIC_PRICE",
      "outputs": [
        {
          "internalType": "uint256",
          "name": "",
          "type": "uint256"
        }
      ],
      "stateMutability": "view",
      "type": "function"
    },
    {
      "inputs": [],
      "name": "ROYALTY_BASIS_POINTS",
      "outputs": [
        {
          "internalType": "uint96",
          "name": "",
          "type": "uint96"
        }
      ],
      "stateMutability": "view",
      "type": "function"
    },
    {
      "inputs": [],
      "name": "TOTAL_SUPPLY",
      "outputs": [
        {
          "internalType": "uint256",
          "name": "",
          "type": "uint256"
        }
      ],
      "stateMutability": "view",
      "type": "function"
    },
    {
      "inputs": [
        {
          "internalType": "address",
          "name": "to",
          "type": "address"
        },
        {
          "internalType": "uint256",
          "name": "tokenId",
          "type": "uint256"
        }
      ],
      "name": "approve",
      "outputs": [],
      "stateMutability": "nonpayable",
      "type": "function"
    },
    {
      "inputs": [
        {
          "internalType": "address",
          "name": "owner",
          "type": "address"
        }
      ],
      "name": "balanceOf",
      "outputs": [
        {
          "internalType": "uint256",
          "name": "",
          "type": "uint256"
        }
      ],
      "stateMutability": "view",
      "type": "function"
    },
    {
      "inputs": [],
      "name": "claimPoolRoyalties",
      "outputs": [],
      "stateMutability": "nonpayable",
      "type": "function"
    },
    {
      "inputs": [],
      "name": "claimRoyalties",
      "outputs": [],
      "stateMutability": "nonpayable",
      "type": "function"
    },
    {
      "inputs": [],
      "name": "delegateRegistry",
      "outputs": [
        {
          "internalType": "contract IDelegateRegistry",
          "name": "",
          "type": "address"
        }
      ],
      "stateMutability": "view",
      "type": "function"
    },
    {
      "inputs": [],
      "name": "fcfsMerkleRoot",
      "outputs": [
        {
          "internalType": "bytes32",
          "name": "",
          "type": "bytes32"
        }
      ],
      "stateMutability": "view",
      "type": "function"
    },
    {
      "inputs": [],
      "name": "fcfsMintStart",
      "outputs": [
        {
          "internalType": "uint256",
          "name": "",
          "type": "uint256"
        }
      ],
      "stateMutability": "view",
      "type": "function"
    },
    {
      "inputs": [],
      "name": "founder",
      "outputs": [
        {
          "internalType": "address",
          "name": "",
          "type": "address"
        }
      ],
      "stateMutability": "view",
      "type": "function"
    },
    {
      "inputs": [],
      "name": "founderMintStart",
      "outputs": [
        {
          "internalType": "uint256",
          "name": "",
          "type": "uint256"
        }
      ],
      "stateMutability": "view",
      "type": "function"
    },
    {
      "inputs": [],
      "name": "founderMinted",
      "outputs": [
        {
          "internalType": "uint256",
          "name": "",
          "type": "uint256"
        }
      ],
      "stateMutability": "view",
      "type": "function"
    },
    {
      "inputs": [
        {
          "internalType": "uint256",
          "name": "tokenId",
          "type": "uint256"
        }
      ],
      "name": "getApproved",
      "outputs": [
        {
          "internalType": "address",
          "name": "",
          "type": "address"
        }
      ],
      "stateMutability": "view",
      "type": "function"
    },
    {
      "inputs": [],
      "name": "gtdMerkleRoot",
      "outputs": [
        {
          "internalType": "bytes32",
          "name": "",
          "type": "bytes32"
        }
      ],
      "stateMutability": "view",
      "type": "function"
    },
    {
      "inputs": [],
      "name": "gtdMintStart",
      "outputs": [
        {
          "internalType": "uint256",
          "name": "",
          "type": "uint256"
        }
      ],
      "stateMutability": "view",
      "type": "function"
    },
    {
      "inputs": [
        {
          "internalType": "bytes32",
          "name": "_gtdMerkleRoot",
          "type": "bytes32"
        },
        {
          "internalType": "bytes32",
          "name": "_fcfsMerkleRoot",
          "type": "bytes32"
        },
        {
          "internalType": "address",
          "name": "_treasury",
          "type": "address"
        },
        {
          "internalType": "address",
          "name": "_metadataLib",
          "type": "address"
        },
        {
          "internalType": "address payable",
          "name": "_royaltiesContract",
          "type": "address"
        },
        {
          "internalType": "address",
          "name": "_delegateRegistry",
          "type": "address"
        }
      ],
      "name": "initialize",
      "outputs": [],
      "stateMutability": "nonpayable",
      "type": "function"
    },
    {
      "inputs": [
        {
          "internalType": "address",
          "name": "owner",
          "type": "address"
        },
        {
          "internalType": "address",
          "name": "operator",
          "type": "address"
        }
      ],
      "name": "isApprovedForAll",
      "outputs": [
        {
          "internalType": "bool",
          "name": "",
          "type": "bool"
        }
      ],
      "stateMutability": "view",
      "type": "function"
    },
    {
      "inputs": [],
      "name": "isFCFSMintActive",
      "outputs": [
        {
          "internalType": "bool",
          "name": "",
          "type": "bool"
        }
      ],
      "stateMutability": "view",
      "type": "function"
    },
    {
      "inputs": [],
      "name": "isFounderMintActive",
      "outputs": [
        {
          "internalType": "bool",
          "name": "",
          "type": "bool"
        }
      ],
      "stateMutability": "view",
      "type": "function"
    },
    {
      "inputs": [],
      "name": "isGTDMintActive",
      "outputs": [
        {
          "internalType": "bool",
          "name": "",
          "type": "bool"
        }
      ],
      "stateMutability": "view",
      "type": "function"
    },
    {
      "inputs": [],
      "name": "isPublicMintActive",
      "outputs": [
        {
          "internalType": "bool",
          "name": "",
          "type": "bool"
        }
      ],
      "stateMutability": "view",
      "type": "function"
    },
    {
      "inputs": [],
      "name": "metadataLib",
      "outputs": [
        {
          "internalType": "contract ApeBeatsMetadataLib",
          "name": "",
          "type": "address"
        }
      ],
      "stateMutability": "view",
      "type": "function"
    },
    {
      "inputs": [
        {
          "internalType": "uint256",
          "name": "amount",
          "type": "uint256"
        },
        {
          "internalType": "address",
          "name": "vault",
          "type": "address"
        },
        {
          "internalType": "bytes32[]",
          "name": "merkleProof",
          "type": "bytes32[]"
        }
      ],
      "name": "mintFCFS",
      "outputs": [],
      "stateMutability": "payable",
      "type": "function"
    },
    {
      "inputs": [
        {
          "internalType": "uint256",
          "name": "amount",
          "type": "uint256"
        }
      ],
      "name": "mintFounder",
      "outputs": [],
      "stateMutability": "nonpayable",
      "type": "function"
    },
    {
      "inputs": [
        {
          "internalType": "address",
          "name": "vault",
          "type": "address"
        },
        {
          "internalType": "bytes32[]",
          "name": "merkleProof",
          "type": "bytes32[]"
        }
      ],
      "name": "mintGTD",
      "outputs": [],
      "stateMutability": "payable",
      "type": "function"
    },
    {
      "inputs": [
        {
          "internalType": "uint256",
          "name": "amount",
          "type": "uint256"
        }
      ],
      "name": "mintPublic",
      "outputs": [],
      "stateMutability": "payable",
      "type": "function"
    },
    {
      "inputs": [
        {
          "internalType": "address",
          "name": "",
          "type": "address"
        }
      ],
      "name": "mintedPerWalletFCFS",
      "outputs": [
        {
          "internalType": "uint256",
          "name": "",
          "type": "uint256"
        }
      ],
      "stateMutability": "view",
      "type": "function"
    },
    {
      "inputs": [
        {
          "internalType": "address",
          "name": "",
          "type": "address"
        }
      ],
      "name": "mintedPerWalletGTD",
      "outputs": [
        {
          "internalType": "uint256",
          "name": "",
          "type": "uint256"
        }
      ],
      "stateMutability": "view",
      "type": "function"
    },
    {
      "inputs": [
        {
          "internalType": "address",
          "name": "",
          "type": "address"
        }
      ],
      "name": "mintedPerWalletPublic",
      "outputs": [
        {
          "internalType": "uint256",
          "name": "",
          "type": "uint256"
        }
      ],
      "stateMutability": "view",
      "type": "function"
    },
    {
      "inputs": [],
      "name": "name",
      "outputs": [
        {
          "internalType": "string",
          "name": "",
          "type": "string"
        }
      ],
      "stateMutability": "view",
      "type": "function"
    },
    {
      "inputs": [],
      "name": "owner",
      "outputs": [
        {
          "internalType": "address",
          "name": "",
          "type": "address"
        }
      ],
      "stateMutability": "view",
      "type": "function"
    },
    {
      "inputs": [
        {
          "internalType": "uint256",
          "name": "tokenId",
          "type": "uint256"
        }
      ],
      "name": "ownerOf",
      "outputs": [
        {
          "internalType": "address",
          "name": "",
          "type": "address"
        }
      ],
      "stateMutability": "view",
      "type": "function"
    },
    {
      "inputs": [],
      "name": "prerevealNoiseBase64",
      "outputs": [
        {
          "internalType": "string",
          "name": "",
          "type": "string"
        }
      ],
      "stateMutability": "view",
      "type": "function"
    },
    {
      "inputs": [],
      "name": "publicMintStart",
      "outputs": [
        {
          "internalType": "uint256",
          "name": "",
          "type": "uint256"
        }
      ],
      "stateMutability": "view",
      "type": "function"
    },
    {
      "inputs": [],
      "name": "renounceOwnership",
      "outputs": [],
      "stateMutability": "nonpayable",
      "type": "function"
    },
    {
      "inputs": [
        {
          "internalType": "uint256",
          "name": "tokenId",
          "type": "uint256"
        }
      ],
      "name": "reveal",
      "outputs": [],
      "stateMutability": "nonpayable",
      "type": "function"
    },
    {
      "inputs": [],
      "name": "royaltiesContract",
      "outputs": [
        {
          "internalType": "contract ApeBeatsRoyalties",
          "name": "",
          "type": "address"
        }
      ],
      "stateMutability": "view",
      "type": "function"
    },
    {
      "inputs": [
        {
          "internalType": "uint256",
          "name": "tokenId",
          "type": "uint256"
        },
        {
          "internalType": "uint256",
          "name": "salePrice",
          "type": "uint256"
        }
      ],
      "name": "royaltyInfo",
      "outputs": [
        {
          "internalType": "address",
          "name": "receiver",
          "type": "address"
        },
        {
          "internalType": "uint256",
          "name": "amount",
          "type": "uint256"
        }
      ],
      "stateMutability": "view",
      "type": "function"
    },
    {
      "inputs": [
        {
          "internalType": "address",
          "name": "from",
          "type": "address"
        },
        {
          "internalType": "address",
          "name": "to",
          "type": "address"
        },
        {
          "internalType": "uint256",
          "name": "tokenId",
          "type": "uint256"
        }
      ],
      "name": "safeTransferFrom",
      "outputs": [],
      "stateMutability": "nonpayable",
      "type": "function"
    },
    {
      "inputs": [
        {
          "internalType": "address",
          "name": "from",
          "type": "address"
        },
        {
          "internalType": "address",
          "name": "to",
          "type": "address"
        },
        {
          "internalType": "uint256",
          "name": "tokenId",
          "type": "uint256"
        },
        {
          "internalType": "bytes",
          "name": "data",
          "type": "bytes"
        }
      ],
      "name": "safeTransferFrom",
      "outputs": [],
      "stateMutability": "nonpayable",
      "type": "function"
    },
    {
      "inputs": [
        {
          "internalType": "address",
          "name": "operator",
          "type": "address"
        },
        {
          "internalType": "bool",
          "name": "approved",
          "type": "bool"
        }
      ],
      "name": "setApprovalForAll",
      "outputs": [],
      "stateMutability": "nonpayable",
      "type": "function"
    },
    {
      "inputs": [
        {
          "internalType": "uint256",
          "name": "tokenId",
          "type": "uint256"
        },
        {
          "internalType": "string",
          "name": "uri",
          "type": "string"
        }
      ],
      "name": "setMixedAudioURI",
      "outputs": [],
      "stateMutability": "nonpayable",
      "type": "function"
    },
    {
      "inputs": [
        {
          "internalType": "string",
          "name": "_prerevealNoiseBase64",
          "type": "string"
        }
      ],
      "name": "setPrerevealNoiseBase64",
      "outputs": [],
      "stateMutability": "nonpayable",
      "type": "function"
    },
    {
      "inputs": [
        {
          "internalType": "bool",
          "name": "_revealed",
          "type": "bool"
        }
      ],
      "name": "setRevealed",
      "outputs": [],
      "stateMutability": "nonpayable",
      "type": "function"
    },
    {
      "inputs": [
        {
          "internalType": "uint256",
          "name": "tokenId",
          "type": "uint256"
        },
        {
          "internalType": "string",
          "name": "uri",
          "type": "string"
        }
      ],
      "name": "setWaveformURI",
      "outputs": [],
      "stateMutability": "nonpayable",
      "type": "function"
    },
    {
      "inputs": [],
      "name": "startFCFSMint",
      "outputs": [],
      "stateMutability": "nonpayable",
      "type": "function"
    },
    {
      "inputs": [],
      "name": "startPublicMint",
      "outputs": [],
      "stateMutability": "nonpayable",
      "type": "function"
    },
    {
      "inputs": [
        {
          "internalType": "bytes4",
          "name": "interfaceId",
          "type": "bytes4"
        }
      ],
      "name": "supportsInterface",
      "outputs": [
        {
          "internalType": "bool",
          "name": "",
          "type": "bool"
        }
      ],
      "stateMutability": "view",
      "type": "function"
    },
    {
      "inputs": [],
      "name": "symbol",
      "outputs": [
        {
          "internalType": "string",
          "name": "",
          "type": "string"
        }
      ],
      "stateMutability": "view",
      "type": "function"
    },
    {
      "inputs": [
        {
          "internalType": "uint256",
          "name": "tokenId",
          "type": "uint256"
        }
      ],
      "name": "tokenURI",
      "outputs": [
        {
          "internalType": "string",
          "name": "",
          "type": "string"
        }
      ],
      "stateMutability": "view",
      "type": "function"
    },
    {
      "inputs": [],
      "name": "totalMinted",
      "outputs": [
        {
          "internalType": "uint256",
          "name": "",
          "type": "uint256"
        }
      ],
      "stateMutability": "view",
      "type": "function"
    },
    {
      "inputs": [
        {
          "internalType": "address",
          "name": "from",
          "type": "address"
        },
        {
          "internalType": "address",
          "name": "to",
          "type": "address"
        },
        {
          "internalType": "uint256",
          "name": "tokenId",
          "type": "uint256"
        }
      ],
      "name": "transferFrom",
      "outputs": [],
      "stateMutability": "nonpayable",
      "type": "function"
    },
    {
      "inputs": [
        {
          "internalType": "address",
          "name": "newOwner",
          "type": "address"
        }
      ],
      "name": "transferOwnership",
      "outputs": [],
      "stateMutability": "nonpayable",
      "type": "function"
    },
    {
      "inputs": [],
      "name": "treasury",
      "outputs": [
        {
          "internalType": "address",
          "name": "",
          "type": "address"
        }
      ],
      "stateMutability": "view",
      "type": "function"
    },
    {
      "inputs": [],
      "name": "withdraw",
      "outputs": [],
      "stateMutability": "nonpayable",
      "type": "function"
    }
  ],
  "bytecode": "0x60808060405234620000bd577ff0c57e16840df040f15088dc2f81fe391c3923bec73e23a9662efc9c229c6a009081549060ff8260401c16620000ae57506001600160401b036002600160401b03198282160162000068575b6040516136609081620000c38239f35b6001600160401b031990911681179091556040519081527fc7f505b2f371ae2175ee4913f4499e1f2633a7b5936321eed1cdaeb6115181d290602090a138808062000058565b63f92ee8a960e01b8152600490fd5b600080fdfe608080604052600436101561001357600080fd5b600090813560e01c90816301ffc9a71461260a57508063069b78201461259d57806306fdde03146124f3578063081812fc146124a9578063095ea7b3146123c05780630ea5891514610b4e5780630fb51ac41461236357806313bfffac1461233a57806318919d62146120bf57806323b872dd146120a757806324659318146120895780632a55205a14611fa15780632d63267814611b1b5780632d6b622414611f8657806334f8f26814611f6b5780633c404a9c14610fd55780633ccfd60b14611eaf5780633f2c0d6a14611c3657806340b5548014611c1357806342842e0e14611be55780634a7887c414611bc85780634d853ee514611b9f5780634e8117a914611b765780635270c75314611b595780635c121bc914611b20578063611f3f1014611b1b57806361d027b314611af25780636352211e14611ac15780636ac6319c14611aa557806370a0823114611a4f578063715018a6146119e457806374819ef7146119c857806376c25e6f1461199f57806376c64c621461191a5780637726c505146118ff5780637bb23e3a146118e15780637d330cdd1461186e5780637f0505f1146118355780638539cb821461181957806389d29c4c146110465780638cfec4c0146110285780638da5cb5b14610ff2578063902d55a514610fd55780639134d9c214610fb057806395d89b4114610ecf578063a22cb46514610e2d578063a2309ff814610e10578063a3eca3ed14610d78578063aa0f0d7f14610b92578063ab13c08914610b53578063b0660c7714610b4e578063b32395ca14610b15578063b4bbb18f14610910578063b88d4fde146108a4578063bfa4177714610886578063c2ca0ac514610812578063c87b56dd146106f7578063d0e8f26e146106d9578063d67f8d0b1461065b578063e0a80853146105d9578063e985e9c51461058a578063eafd48911461056c578063ef39154b1461054e578063efd0cbf91461031b5763f2fde38b146102ec57600080fd5b34610318576020366003190112610318576103156103086126d9565b610310612fbd565b612ebf565b80f35b80fd5b50602036600319011261031857600435610333612f33565b61033b612e39565b15610509576103586101a4610351838554612a08565b1115612a15565b600581116104cd573382526010602052610382600561037b836040862054612a08565b1115612a9b565b675fc1b971363200009080820291820481036104b9576103a482341015612a58565b3383526010602052604083206103bb828254612a08565b9055825b81811061040e575050818134116103e6575b600160008051602061358b8339815191525580f35b8080806103f66104079534612b86565b335af1610401612b93565b50612bc3565b38816103d1565b61042461041b8554612b77565b80865533613121565b600654845485916001600160a01b031690813b156104b557829160648392604051948593849263445a477560e11b84526004840152336024840152600160448401525af180156104aa57610492575b5090600191543360008051602061350b8339815191528780a3016103bf565b61049b90612721565b6104a6578338610473565b8380fd5b6040513d84823e3d90fd5b8280fd5b634e487b7160e01b83526011600452602483fd5b60405162461bcd60e51b8152602060048201526014602482015273115e18d959591cc81c1d589b1a58c81b1a5b5a5d60621b6044820152606490fd5b60405162461bcd60e51b815260206004820152601c60248201527f5075626c6963206d696e74207068617365206e6f7420616374697665000000006044820152606490fd5b50346103185780600319360112610318576020600154604051908152f35b50346103185780600319360112610318576020600b54604051908152f35b5034610318576040366003190112610318576105a46126d9565b6105b56105af6126ef565b916128e1565b9060018060a01b0316600052602052602060ff604060002054166040519015158152f35b503461031857602036600319011261031857600435801515809103610656578190610602612fbd565b6005546001600160a01b031690813b1561065257829160248392604051948593849263e0a8085360e01b845260048401525af180156104aa576106425750f35b61064b90612721565b6103185780f35b5050fd5b600080fd5b5034610318578060031936011261031857610674612f33565b60065481906001600160a01b0316803b156106d65781809160046040518094819363d67f8d0b60e01b83525af180156104aa576106c2575b50600160008051602061358b8339815191525580f35b6106cb90612721565b6103185780386106ac565b50fd5b50346103185780600319360112610318576020600a54604051908152f35b503461031857602080600319360112610802576005546004359083906001600160a01b0390811661072784612f63565b936040518095819482936309aafb6160e01b845260048401526060602484015261075360648401612954565b9116604483015203915afa928315610806578093610786575b50506107826040519282849384528301906126b4565b0390f35b909192503d8082843e610799818461276a565b8201918381840312610802578051906001600160401b0382116104b5570182601f82011215610802578051916107ce8361278b565b936107dc604051958661276a565b8385528584840101116103185750906107fa91848085019101612691565b90388061076c565b5080fd5b604051903d90823e3d90fd5b50346103185760203660031901126103185780600435610830612fbd565b6005546001600160a01b039190821661084882612f63565b90803b15610882578492836044926040519687958694632fedc38160e21b865260048601521660248401525af180156104aa576106425750f35b8480fd5b50346103185780600319360112610318576020600954604051908152f35b5034610318576080366003190112610318576108be6126d9565b6108c66126ef565b90604435606435926001600160401b0384116108825736602385011215610882576108fe6103159436906024816004013591016127a6565b9261090a838383612bff565b336133be565b50346103185760203660031901126103185760043561092d612f33565b6004546001600160a01b039081163303610ad857610949612ea8565b15610a9357600d54600461095d8483612a08565b11610a4e578261097d916109786101a4610351848954612a08565b612a08565b600d55825b8281106109b257836004600d54146109a957600160008051602061358b8339815191525580f35b42600a556103d1565b6109cc6109bf8554612b77565b8086558360045416613121565b83826006541681548460045416823b156104a6576064849283604051958694859363445a477560e11b855260048501526024840152600160448401525af180156104aa57610a3a575b5050600190826004541685549060008051602061350b8339815191528780a301610982565b610a4390612721565b6104a6578338610a15565b60405162461bcd60e51b815260206004820152601a60248201527f4578636565647320666f756e646572206d696e74206c696d69740000000000006044820152606490fd5b60405162461bcd60e51b815260206004820152601d60248201527f466f756e646572206d696e74207068617365206e6f74206163746976650000006044820152606490fd5b60405162461bcd60e51b815260206004820152601560248201527413db9b1e48199bdd5b99195c8818d85b881b5a5b9d605a1b6044820152606490fd5b5034610318576020366003190112610318576020906040906001600160a01b03610b3d6126d9565b168152600e83522054604051908152f35b612705565b5034610318578060031936011261031857610782604051610b7e81610b7781612954565b038261276a565b6040519182916020835260208301906126b4565b5034610318576020906020600319360112610318576001600160401b036004358181116104b557366023820112156104b55780600401359182116104b557602436602484840101116104a657610be6612fbd565b8215610d3357610bf760075461291a565b601f8111610cce575b508394601f8411600114610c4757505082938291610c339492610c39575b50508160011b916000199060031b1c19161790565b60075580f35b602492500101353880610c1e565b7fa66cc928b5edb82af9bd49922954155ab7b0942694bea4ce44661d9a8736c6889291601f1985169186915b838310610cb25750505094836001959610610c95575b505050811b0160075580f35b0160240135600019600384901b60f8161c19169055388080610c89565b908060018a978483969c89010135815501960198019190610c73565b60076000527fa66cc928b5edb82af9bd49922954155ab7b0942694bea4ce44661d9a8736c688601f850160051c81019160208610610d29575b601f0160051c01905b818110610d1d5750610c00565b60008155600101610d10565b9091508190610d07565b60405162461bcd60e51b815260206004820152601d60248201527f50726572657665616c205552492063616e6e6f7420626520656d7074790000006044820152606490fd5b5034610318578060031936011261031857610d91612fbd565b600a548015159081610de5575b5015610dab5742600b5580f35b60405162461bcd60e51b815260206004820152601260248201527111d511081b5a5b9d081b9bdd08195b99195960721b6044820152606490fd5b90506103848101809111610dfc5742101538610d9e565b634e487b7160e01b82526011600452602482fd5b503461031857806003193601126103185760209054604051908152f35b503461031857604036600319011261031857610e476126d9565b60243590811515809203610656576001600160a01b0316908115610eb657610e6e336128e1565b82600052602052604060002060ff1981541660ff83161790556040519081527f17307eab39ab6107e8899845ad3d59bd9653f200f220920489ca2b5937696c3160203392a380f35b604051630b61174360e31b815260048101839052602490fd5b50346103185780600319360112610318576040516000805160206135eb8339815191528054826000610f008361291a565b9283835260209460019186600182169182600014610f8e575050600114610f44575b5050610f309250038361276a565b6107826040519282849384528301906126b4565b85925060005260008051602061354b833981519152906000915b858310610f76575050610f3093508201018580610f22565b80548389018501528794508693909201918101610f5e565b9250935050610f3094915060ff191682840152151560051b8201018580610f22565b50346103185780600319360112610318576020610fcb612ea8565b6040519015158152f35b503461031857806003193601126103185760206040516101a48152f35b503461031857806003193601126103185760008051602061356b833981519152546040516001600160a01b039091168152602090f35b50346103185780600319360112610318576020600c54604051908152f35b50346103185760c0366003190112610318576044356001600160a01b038116810361065657606435906001600160a01b038216820361065657608435916001600160a01b03831683036104a65760a4356001600160a01b0381168103610656576000805160206135cb83398151915254926001600160401b03841680159081611809575b60011490816117ff575b1590816117f6575b506117e45760016001600160401b03198516176000805160206135cb8339815191525560ff8460401c16156117b7575b60405161111881612734565b600f81526e417065426561747347656e6573697360881b60208201526040519061114182612734565b600382526241424760e81b60208301526111596134db565b6111616134db565b8051906001600160401b0382116117a35761118a60008051602061352b8339815191525461291a565b601f811161172d575b50602090601f831160011461169e576111c392918a918361157a5750508160011b916000199060031b1c19161790565b60008051602061352b833981519152555b8051906001600160401b03821161168a576111fd6000805160206135eb8339815191525461291a565b601f8111611614575b50602090601f831160011461158557611236929189918361157a5750508160011b916000199060031b1c19161790565b6000805160206135eb833981519152555b61124f6134db565b6112576134db565b61126033612ebf565b6112686134db565b6112706134db565b600160008051602061358b8339815191525561128a6134db565b6001600160a01b03811615611535576001600160a01b038316156114e5576001600160a01b0385161561148e576001600160a01b038216156114385760048035600155602435600255600380546001600160a01b03199081166001600160a01b0394851617909155815481163317909155600580548216948316949094179093556006805480851687841690811790925560088054909516939092169290921790925590841690811792831561141f5760405193604085018581106001600160401b038211176114095760409081529085526101a46020909501949094526001600160a01b03908116911617606960a21b177fdaedc9ab023613a7caf35e703657e986ccfad7e3eb0af93a2853f8d65dd86b005542600955901c60ff16156113af5780f35b68ff0000000000000000196000805160206135cb83398151915254166000805160206135cb833981519152557fc7f505b2f371ae2175ee4913f4499e1f2633a7b5936321eed1cdaeb6115181d2602060405160018152a180f35b634e487b7160e01b600052604160045260246000fd5b604051635b6cc80560e11b815260048101869052602490fd5b60405162461bcd60e51b815260206004820152602860248201527f44656c65676174652072656769737472792063616e6e6f74206265207a65726f604482015267206164647265737360c01b6064820152608490fd5b60405162461bcd60e51b815260206004820152602960248201527f526f79616c7469657320636f6e74726163742063616e6e6f74206265207a65726044820152686f206164647265737360b81b6064820152608490fd5b60405162461bcd60e51b815260206004820152602260248201527f4d657461646174614c69622063616e6e6f74206265207a65726f206164647265604482015261737360f01b6064820152608490fd5b60405162461bcd60e51b815260206004820152601f60248201527f54726561737572792063616e6e6f74206265207a65726f2061646472657373006044820152606490fd5b015190503880610c1e565b6000805160206135eb833981519152895288929160008051602061354b833981519152915b601f19841685106115f9576001945083601f198116106115e0575b505050811b016000805160206135eb83398151915255611247565b015160001960f88460031b161c191690553880806115c5565b818101518355602094850194600190930192909101906115aa565b6000805160206135eb833981519152600052601f830160051c60008051602061354b8339815191520160208410611675575b601f820160051c60008051602061354b8339815191520181106116695750611206565b60008155600101611646565b5060008051602061354b833981519152611646565b634e487b7160e01b88526041600452602488fd5b60008051602061352b8339815191528a5289929160008051602061360b833981519152915b601f1984168510611712576001945083601f198116106116f9575b505050811b0160008051602061352b833981519152556111d4565b015160001960f88460031b161c191690553880806116de565b818101518355602094850194600190930192909101906116c3565b60008051602061352b833981519152600052601f830160051c60008051602061360b833981519152016020841061178e575b601f820160051c60008051602061360b8339815191520181106117825750611193565b6000815560010161175f565b5060008051602061360b83398151915261175f565b634e487b7160e01b89526041600452602489fd5b68ffffffffffffffffff19841668010000000000000001176000805160206135cb8339815191525561110c565b60405163f92ee8a960e01b8152600490fd5b905015386110dc565b303b1591506110d4565b604086901c60ff161591506110ca565b5034610318578060031936011261031857602060405160018152f35b5034610318576020366003190112610318576020906040906001600160a01b0361185d6126d9565b168152600f83522054604051908152f35b5034610318578061187e366127dd565b90611887612fbd565b6005546001600160a01b031691823b156118dc576118cb92849283604051809681958294637d330cdd60e01b845260048401526040602484015260448301906126b4565b03925af180156104aa576106425750f35b505050fd5b50346103185780600319360112610318576020600254604051908152f35b50346103185780600319360112610318576020610fcb612e7d565b5034610318578060031936011261031857611933612fbd565b600b548015159081611988575b501561194d5742600c5580f35b60405162461bcd60e51b81526020600482015260136024820152721190d194c81b5a5b9d081b9bdd08195b991959606a1b6044820152606490fd5b90506107088101809111610dfc5742101538611940565b50346103185780600319360112610318576006546040516001600160a01b039091168152602090f35b5034610318578060031936011261031857602060405160058152f35b50346103185780600319360112610318576119fd612fbd565b60008051602061356b83398151915280546001600160a01b031981169091556000906001600160a01b03167f8be0079c531659141344cd1fd0a4f28419497f9722a3daafe3b4186f6b6457e08280a380f35b503461031857602036600319011261031857611a696126d9565b906001600160a01b03821615611a8d576020611a84836128a8565b54604051908152f35b602490604051906322718ad960e21b82526004820152fd5b50346103185780600319360112610318576020604051602a8152f35b5034610318576020366003190112610318576020611ae0600435612f63565b6040516001600160a01b039091168152f35b50346103185780600319360112610318576003546040516001600160a01b039091168152602090f35b612885565b5034610318576020366003190112610318576020906040906001600160a01b03611b486126d9565b168152601083522054604051908152f35b503461031857806003193601126103185760206040516103848152f35b50346103185780600319360112610318576005546040516001600160a01b039091168152602090f35b50346103185780600319360112610318576004546040516001600160a01b039091168152602090f35b503461031857806003193601126103185760206040516107088152f35b503461031857610315611bf736612850565b9060405192611c058461274f565b85845261090a838383612bff565b50346103185780600319360112610318576020604051673a4965bf58a400008152f35b50604036600319011261031857611c4b6126d9565b60249081356001600160401b0381116104a657611c6c903690600401612820565b90611c75612f33565b611c7d612e7d565b15611e6b57845460018101809111611e1f576101a4611c9d911115612a15565b611cbb673a4965bf58a4000093611cb685341015612a58565b612ff6565b9060018060a01b039283831692838852600e6020526040882054611e325791611d1e91611d19611d239460405160208101916001600160601b03199060601b16825260148152611d0a81612734565b51902092600154923691612ade565b6130cd565b612b34565b8452600e6020526040842080549060018201809211611e1f579085929155611d57611d4e8354612b77565b80845533613121565b600654168154813b156104b557829160648392604051948593849263445a477560e11b84526004840152338a840152600160448401525af180156104aa57611e0b575b50543360008051602061350b8339815191528580a33411611dcb5750600160008051602061358b8339815191525580f35b673a4965bf58a3ffff19340190348211611df9575081808080611df394335af1610401612b93565b386106ac565b634e487b7160e01b8352601160045282fd5b611e1490612721565b6104b5578238611d9a565b634e487b7160e01b865260116004528486fd5b60405162461bcd60e51b81526020600482015260128189015271105b1c9958591e481b5a5b9d19590811d51160721b6044820152606490fd5b60405162461bcd60e51b8152602060048201526019818601527f475444206d696e74207068617365206e6f7420616374697665000000000000006044820152606490fd5b5034610318578060031936011261031857611ec8612fbd565b478015611f2f5760035482918291829182916001600160a01b03165af1611eed612b93565b5015611ef65780f35b60405162461bcd60e51b815260206004820152601160248201527015da5d1a191c985dd85b0819985a5b1959607a1b6044820152606490fd5b60405162461bcd60e51b81526020600482015260146024820152734e6f2066756e647320746f20776974686472617760601b6044820152606490fd5b50346103185780600319360112610318576020610fcb612e51565b50346103185780600319360112610318576020610fcb612e39565b50346103185760403660031901126103185760043581527fdaedc9ab023613a7caf35e703657e986ccfad7e3eb0af93a2853f8d65dd86b0160205260409020546001600160a01b03808216916024359160a09190911c908315612050575b506001600160601b03169081810291818304149015171561203a57604080516001600160a01b03939093168352612710909104602083015290f35b634e487b7160e01b600052601160045260246000fd5b7fdaedc9ab023613a7caf35e703657e986ccfad7e3eb0af93a2853f8d65dd86b0054908116935060a01c90506001600160601b03611fff565b50346103185780600319360112610318576020600d54604051908152f35b5034610318576103156120b936612850565b91612bff565b506060366003190112610318576004356120d76126ef565b90604480356001600160401b038111610882576120f8903690600401612820565b90612101612f33565b612109612e51565b156122f55761211f6101a4610351868954612a08565b600484116122bb57675fc1b971363200009484860295860485036122a757906121b5611d1e612156899594611cb68a341015612a58565b9260018060a01b0394611d1986861695868952600f602052612181600461037b8d60408d2054612a08565b60405160208101916001600160601b03199060601b168252601481526121a681612734565b51902092600254923691612ade565b8252600f602052604082206121cb858254612a08565b9055815b84811061220c578286818134116121f557600160008051602061358b8339815191525580f35b8080806103f66122059534612b86565b81816103d1565b6122226122198454612b77565b80855533613121565b81600654168354813b1561088257849160648392604051948593849263445a477560e11b8452600484015233602484015260018b8401525af190811561229c578491612288575b5090600191543360008051602061350b8339815191528680a3016121cf565b61229190612721565b6104b5578238612269565b6040513d86823e3d90fd5b634e487b7160e01b87526011600452602487fd5b60405162461bcd60e51b8152602060048201526012602482015271115e18d959591cc81190d194c81b1a5b5a5d60721b6044820152606490fd5b60405162461bcd60e51b815260206004820152601a60248201527f46434653206d696e74207068617365206e6f74206163746976650000000000006044820152606490fd5b50346103185780600319360112610318576008546040516001600160a01b039091168152602090f35b50346103185780612373366127dd565b9061237c612fbd565b6005546001600160a01b031691823b156118dc576118cb928492836040518096819582946303ed46b160e21b845260048401526040602484015260448301906126b4565b5034610318576040366003190112610318576123da6126d9565b6024356123e681612f63565b33151580612496575b80612476575b61245e576001600160a01b039283169282918491167f8c5be1e5ebec7d5bd14f71427d1e84f3dd0314c0f7b2291e5b200ac8c7c3b925600080a46000526000805160206135ab8339815191526020526040600020906001600160601b0360a01b82541617905580f35b60405163a9fbf51f60e01b8152336004820152602490fd5b50612480816128e1565b3360005260205260ff60406000205416156123f5565b506001600160a01b0381163314156123ef565b5034610318576020366003190112610318576020906004356124ca81612f63565b5081526000805160206135ab8339815191528252604060018060a01b0391205416604051908152f35b503461031857806003193601126103185760405160008051602061352b83398151915280548260006125248361291a565b9283835260209460019186600182169182600014610f8e575050600114612553575050610f309250038361276a565b85925060005260008051602061360b833981519152906000915b858310612585575050610f3093508201018580610f22565b8054838901850152879450869390920191810161256d565b50346103185780600319360112610318576125b6612f33565b60065481906001600160a01b0316803b156106d65781906004604051809481936234dbc160e51b83525af180156104aa576126015750600160008051602061358b8339815191525580f35b611df390612721565b9050346108025760203660031901126108025760043563ffffffff60e01b81168091036104b557602092506380ac58cd60e01b8114908115612680575b8115612655575b5015158152f35b63152a902d60e11b81149150811561266f575b503861264e565b6301ffc9a760e01b14905038612668565b635b5e139f60e01b81149150612647565b60005b8381106126a45750506000910152565b8181015183820152602001612694565b906020916126cd81518092818552858086019101612691565b601f01601f1916010190565b600435906001600160a01b038216820361065657565b602435906001600160a01b038216820361065657565b3461065657600036600319011261065657602060405160048152f35b6001600160401b03811161140957604052565b604081019081106001600160401b0382111761140957604052565b602081019081106001600160401b0382111761140957604052565b90601f801991011681019081106001600160401b0382111761140957604052565b6001600160401b03811161140957601f01601f191660200190565b9291926127b28261278b565b916127c0604051938461276a565b829481845281830111610656578281602093846000960137010152565b9060406003198301126106565760043591602435906001600160401b03821161065657806023830112156106565781602461281d936004013591016127a6565b90565b9181601f84011215610656578235916001600160401b038311610656576020808501948460051b01011161065657565b6060906003190112610656576001600160a01b0390600435828116810361065657916024359081168103610656579060443590565b34610656576000366003190112610656576020604051675fc1b971363200008152f35b6001600160a01b031660009081527f80bb2b638cc20bc4d0a60d66940f3ab4a00c1d7b313497ca82fb0b4ab00793036020526040902090565b6001600160a01b031660009081527f80bb2b638cc20bc4d0a60d66940f3ab4a00c1d7b313497ca82fb0b4ab00793056020526040902090565b90600182811c9216801561294a575b602083101461293457565b634e487b7160e01b600052602260045260246000fd5b91607f1691612929565b600754600092916129648261291a565b808252916020906001908181169081156129e35750600114612987575b50505050565b9293945060076000527fa66cc928b5edb82af9bd49922954155ab7b0942694bea4ce44661d9a8736c688926000935b8585106129d0575050506020925001019038808080612981565b80548585018401529382019381016129b6565b92505050602093945060ff929192191683830152151560051b01019038808080612981565b9190820180921161203a57565b15612a1c57565b60405162461bcd60e51b81526020600482015260146024820152734578636565647320746f74616c20737570706c7960601b6044820152606490fd5b15612a5f57565b60405162461bcd60e51b8152602060048201526014602482015273125b9cdd59999a58da595b9d081c185e5b595b9d60621b6044820152606490fd5b15612aa257565b60405162461bcd60e51b8152602060048201526014602482015273115e18d959591cc81dd85b1b195d081b1a5b5a5d60621b6044820152606490fd5b9092916001600160401b038411611409578360051b6020926020604051612b078285018261276a565b809781520191810192831161065657905b828210612b255750505050565b81358152908301908301612b18565b15612b3b57565b60405162461bcd60e51b815260206004820152601460248201527324b73b30b634b21026b2b935b63290383937b7b360611b6044820152606490fd5b600019811461203a5760010190565b9190820391821161203a57565b3d15612bbe573d90612ba48261278b565b91612bb2604051938461276a565b82523d6000602084013e565b606090565b15612bca57565b60405162461bcd60e51b815260206004820152600d60248201526c1499599d5b990819985a5b1959609a1b6044820152606490fd5b90916001600160a01b03808416928315612e20576000938385527f80bb2b638cc20bc4d0a60d66940f3ab4a00c1d7b313497ca82fb0b4ab007930294856020526040968488832054169633151580612d84575b50612c648815159283612d45576128a8565b8054600101905586835260205287822080546001600160a01b031916841790558751928690887fddf252ad1be2c89b69c2b068fc378daa952ba7f163c4a11628f55a4df523b3ef8580a480612d3d575b612ceb575b50501692838303612cca5750505050565b6064945051926364283d7b60e01b8452600484015260248301526044820152fd5b8360065416803b156108025782602481848094631d46f2b960e11b83528a60048401525af1908115612d325750612d23575b80612cb9565b612d2c90612721565b38612d1d565b8751903d90823e3d90fd5b506001612cb4565b60008981526000805160206135ab8339815191526020526040902080546001600160a01b0319169055612d778a6128a8565b80546000190190556128a8565b80612dd1575b15612d955738612c52565b888789612db2576024915190637e27328960e01b82526004820152fd5b905163177e802f60e01b81523360048201526024810191909152604490fd5b503388148015612e04575b80612d8a57508683526000805160206135ab83398151915260205233868a8520541614612d8a565b50612e0e886128e1565b33845260205260ff8984205416612ddc565b604051633250574960e11b815260006004820152602490fd5b600c54151580612e465790565b506101a46000541090565b600b548015159081612e67575b5080612e465790565b9050610708810180911161203a57421038612e5e565b600a548015159081612e92575080612e465790565b9050610384810180911161203a57421038612e5e565b600954151580612eb55790565b506004600d541090565b6001600160a01b03908116908115612f1a5760008051602061356b83398151915280546001600160a01b031981168417909155167f8be0079c531659141344cd1fd0a4f28419497f9722a3daafe3b4186f6b6457e0600080a3565b604051631e4fbdf760e01b815260006004820152602490fd5b60008051602061358b8339815191526002815414612f515760029055565b604051633ee5aeb560e01b8152600490fd5b60008181527f80bb2b638cc20bc4d0a60d66940f3ab4a00c1d7b313497ca82fb0b4ab007930260205260409020546001600160a01b0316908115612fa5575090565b60249060405190637e27328960e01b82526004820152fd5b60008051602061356b833981519152546001600160a01b03163303612fde57565b60405163118cdaa760e01b8152336004820152602490fd5b6001600160a01b03818116908161300e575050503390565b6020906008541691604460405180948193634e1cade160e11b835233600484015260248301525afa9081156130c157600091613086575b501561304e5790565b60405162461bcd60e51b815260206004820152601060248201526f496e76616c69642064656c656761746560801b6044820152606490fd5b6020813d6020116130b9575b8161309f6020938361276a565b810103126108025751908115158203610318575038613045565b3d9150613092565b6040513d6000823e3d90fd5b9091906000915b815183101561311a576020808460051b8401015191600083821060001461310a575060005252600160406000205b9201916130d4565b9060409260019483525220613102565b9150501490565b604080519261312f8461274f565b60008085526001600160a01b03948486169485156133a6578383527f80bb2b638cc20bc4d0a60d66940f3ab4a00c1d7b313497ca82fb0b4ab0079302602097818952808786205416908115159283613367575b61318b856128a8565b600181540190558787528a52878620896001600160601b0360a01b82541617905586898951937fddf252ad1be2c89b69c2b068fc378daa952ba7f163c4a11628f55a4df523b3ef8980a4828061335f575b61330d575b50506132f5573b6131f5575b505050505050565b856132329185969798955180938192630a85bd0160e11b9788845233600485015287602485015260448401526080606484015260848301906126b4565b0381858a5af1908290826132b1575b505061327957505050613252612b93565b8051939084613273578251633250574960e11b815260048101859052602490fd5b84925001fd5b9194506001600160e01b03199091160361329a5750503880808080806131ed565b602492505190633250574960e11b82526004820152fd5b909192508781813d83116132ee575b6132ca818361276a565b810103126108025751906001600160e01b0319821682036103185750903880613241565b503d6132c0565b84516339e3563760e11b815260048101849052602490fd5b60065416803b1561335b5781602481888094631d46f2b960e11b83528b60048401525af1801561335157613342575b806131e1565b61334b90612721565b3861333c565b87513d87823e3d90fd5b8580fd5b5060016131dc565b60008881526000805160206135ab8339815191526020526040902080546001600160a01b0319169055613399836128a8565b8054600019019055613182565b8451633250574960e11b815260048101849052602490fd5b9293823b6133ce575b5050505050565b6134129060018060a01b038094169560405194859481630a85bd0160e11b9889885216600487015216602485015260448401526080606484015260848301906126b4565b03906020816000938185885af190829082613492575b50506134605782613437612b93565b805191908261345957604051633250574960e11b815260048101839052602490fd5b6020915001fd5b6001600160e01b0319160361347a575038808080806133c7565b60249060405190633250574960e11b82526004820152fd5b909192506020813d6020116134d3575b816134af6020938361276a565b810103126108025751906001600160e01b0319821682036103185750903880613428565b3d91506134a2565b60ff6000805160206135cb8339815191525460401c16156134f857565b604051631afcd79f60e31b8152600490fdfe30385c845b448a36257a6a1716e6ad2e1bc2cbe333cde1e69fe849ad6511adfe80bb2b638cc20bc4d0a60d66940f3ab4a00c1d7b313497ca82fb0b4ab0079300f4bad0a69248f59680a4f2b3000328cec71a413447c96781cfe5996daa8c456e9016d09d72d40fdae2fd8ceac6b6234c7706214fd39c1cd1e609a0528c1993009b779b17422d0df92223018b32b4d1fa46e071723d6817e2486d003becc55f0080bb2b638cc20bc4d0a60d66940f3ab4a00c1d7b313497ca82fb0b4ab0079304f0c57e16840df040f15088dc2f81fe391c3923bec73e23a9662efc9c229c6a0080bb2b638cc20bc4d0a60d66940f3ab4a00c1d7b313497ca82fb0b4ab007930137c58c799b6609234b945e882912ee9ad34948a1dfaa20a97485e1a7752bbf81a26469706673582212200591bb335a061e208a8785a9e2abb13b01fb591a12492f59a82376c677dac61064736f6c63430008180033",
  "linkReferences": {},
  "deployedLinkReferences": {}
}