{
  "_format": "hh-sol-artifact-1",
  "contractName": "ApeBeatsMetadataLib",
  "sourceName": "contracts/ApeBeatsMetadataLib.sol",
  "abi": [
    {
      "inputs": [],
      "stateMutability": "nonpayable",
      "type": "constructor"
    },
    {
      "inputs": [
        {
          "internalType": "address",
          "name": "owner",
          "type": "address"
        }
      ],
      "name": "OwnableInvalidOwner",
      "type": "error"
    },
    {
      "inputs": [
        {
          "internalType": "address",
          "name": "account",
          "type": "address"
        }
      ],
      "name": "OwnableUnauthorizedAccount",
      "type": "error"
    },
    {
      "anonymous": false,
      "inputs": [
        {
          "indexed": true,
          "internalType": "address",
          "name": "previousOwner",
          "type": "address"
        },
        {
          "indexed": true,
          "internalType": "address",
          "name": "newOwner",
          "type": "address"
        }
      ],
      "name": "OwnershipTransferred",
      "type": "event"
    },
    {
      "anonymous": false,
      "inputs": [
        {
          "indexed": true,
          "internalType": "uint256",
          "name": "tokenId",
          "type": "uint256"
        },
        {
          "indexed": false,
          "internalType": "string",
          "name": "uri",
          "type": "string"
        }
      ],
      "name": "WaveformURIUpdated",
      "type": "event"
    },
    {
      "inputs": [
        {
          "internalType": "uint256",
          "name": "",
          "type": "uint256"
        }
      ],
      "name": "COLORS",
      "outputs": [
        {
          "internalType": "string",
          "name": "",
          "type": "string"
        }
      ],
      "stateMutability": "view",
      "type": "function"
    },
    {
      "inputs": [
        {
          "internalType": "uint256",
          "name": "",
          "type": "uint256"
        }
      ],
      "name": "bassLoops",
      "outputs": [
        {
          "internalType": "string",
          "name": "",
          "type": "string"
        }
      ],
      "stateMutability": "view",
      "type": "function"
    },
    {
      "inputs": [
        {
          "internalType": "uint256",
          "name": "",
          "type": "uint256"
        }
      ],
      "name": "drumLoops",
      "outputs": [
        {
          "internalType": "string",
          "name": "",
          "type": "string"
        }
      ],
      "stateMutability": "view",
      "type": "function"
    },
    {
      "inputs": [
        {
          "internalType": "uint256",
          "name": "",
          "type": "uint256"
        }
      ],
      "name": "fxLoops",
      "outputs": [
        {
          "internalType": "string",
          "name": "",
          "type": "string"
        }
      ],
      "stateMutability": "view",
      "type": "function"
    },
    {
      "inputs": [
        {
          "internalType": "uint256",
          "name": "tokenId",
          "type": "uint256"
        },
        {
          "internalType": "string[5]",
          "name": "bassLoopsArg",
          "type": "string[5]"
        },
        {
          "internalType": "string[5]",
          "name": "drumLoopsArg",
          "type": "string[5]"
        },
        {
          "internalType": "string[5]",
          "name": "melodyLoopsArg",
          "type": "string[5]"
        },
        {
          "internalType": "string[5]",
          "name": "fxLoopsArg",
          "type": "string[5]"
        },
        {
          "components": [
            {
              "internalType": "uint8",
              "name": "bass",
              "type": "uint8"
            },
            {
              "internalType": "uint8",
              "name": "drums",
              "type": "uint8"
            },
            {
              "internalType": "uint8",
              "name": "melody",
              "type": "uint8"
            },
            {
              "internalType": "uint8",
              "name": "fx",
              "type": "uint8"
            },
            {
              "internalType": "uint8",
              "name": "colorWave",
              "type": "uint8"
            },
            {
              "internalType": "uint8",
              "name": "colorBg",
              "type": "uint8"
            }
          ],
          "internalType": "struct ApeBeatsMetadataLib.WaveData",
          "name": "data",
          "type": "tuple"
        },
        {
          "internalType": "uint256",
          "name": "rarity",
          "type": "uint256"
        },
        {
          "internalType": "string",
          "name": "mixedAudioURI",
          "type": "string"
        },
        {
          "internalType": "string",
          "name": "waveformURI",
          "type": "string"
        },
        {
          "internalType": "string[11]",
          "name": "colors",
          "type": "string[11]"
        }
      ],
      "name": "getRevealedURI",
      "outputs": [
        {
          "internalType": "string",
          "name": "",
          "type": "string"
        }
      ],
      "stateMutability": "pure",
      "type": "function"
    },
    {
      "inputs": [
        {
          "internalType": "uint256",
          "name": "tokenId",
          "type": "uint256"
        },
        {
          "internalType": "string",
          "name": "prerevealNoiseBase64",
          "type": "string"
        },
        {
          "internalType": "address",
          "name": "tokenOwner",
          "type": "address"
        }
      ],
      "name": "getTokenURI",
      "outputs": [
        {
          "internalType": "string",
          "name": "",
          "type": "string"
        }
      ],
      "stateMutability": "view",
      "type": "function"
    },
    {
      "inputs": [
        {
          "internalType": "uint256",
          "name": "",
          "type": "uint256"
        }
      ],
      "name": "melodyLoops",
      "outputs": [
        {
          "internalType": "string",
          "name": "",
          "type": "string"
        }
      ],
      "stateMutability": "view",
      "type": "function"
    },
    {
      "inputs": [
        {
          "internalType": "uint256",
          "name": "",
          "type": "uint256"
        }
      ],
      "name": "mixedAudioURIs",
      "outputs": [
        {
          "internalType": "string",
          "name": "",
          "type": "string"
        }
      ],
      "stateMutability": "view",
      "type": "function"
    },
    {
      "inputs": [],
      "name": "owner",
      "outputs": [
        {
          "internalType": "address",
          "name": "",
          "type": "address"
        }
      ],
      "stateMutability": "view",
      "type": "function"
    },
    {
      "inputs": [
        {
          "internalType": "uint256",
          "name": "",
          "type": "uint256"
        }
      ],
      "name": "rarityScore",
      "outputs": [
        {
          "internalType": "uint256",
          "name": "",
          "type": "uint256"
        }
      ],
      "stateMutability": "view",
      "type": "function"
    },
    {
      "inputs": [],
      "name": "renounceOwnership",
      "outputs": [],
      "stateMutability": "nonpayable",
      "type": "function"
    },
    {
      "inputs": [
        {
          "internalType": "uint256",
          "name": "tokenId",
          "type": "uint256"
        },
        {
          "internalType": "address",
          "name": "tokenOwner",
          "type": "address"
        }
      ],
      "name": "reveal",
      "outputs": [],
      "stateMutability": "nonpayable",
      "type": "function"
    },
    {
      "inputs": [],
      "name": "revealed",
      "outputs": [
        {
          "internalType": "bool",
          "name": "",
          "type": "bool"
        }
      ],
      "stateMutability": "view",
      "type": "function"
    },
    {
      "inputs": [
        {
          "internalType": "uint256",
          "name": "tokenId",
          "type": "uint256"
        },
        {
          "internalType": "string",
          "name": "uri",
          "type": "string"
        }
      ],
      "name": "setMixedAudioURI",
      "outputs": [],
      "stateMutability": "nonpayable",
      "type": "function"
    },
    {
      "inputs": [
        {
          "internalType": "bool",
          "name": "_revealed",
          "type": "bool"
        }
      ],
      "name": "setRevealed",
      "outputs": [],
      "stateMutability": "nonpayable",
      "type": "function"
    },
    {
      "inputs": [
        {
          "internalType": "uint256",
          "name": "tokenId",
          "type": "uint256"
        },
        {
          "internalType": "string",
          "name": "uri",
          "type": "string"
        }
      ],
      "name": "setWaveformURI",
      "outputs": [],
      "stateMutability": "nonpayable",
      "type": "function"
    },
    {
      "inputs": [
        {
          "internalType": "address",
          "name": "newOwner",
          "type": "address"
        }
      ],
      "name": "transferOwnership",
      "outputs": [],
      "stateMutability": "nonpayable",
      "type": "function"
    },
    {
      "inputs": [
        {
          "internalType": "uint256",
          "name": "",
          "type": "uint256"
        }
      ],
      "name": "waveData",
      "outputs": [
        {
          "internalType": "uint8",
          "name": "bass",
          "type": "uint8"
        },
        {
          "internalType": "uint8",
          "name": "drums",
          "type": "uint8"
        },
        {
          "internalType": "uint8",
          "name": "melody",
          "type": "uint8"
        },
        {
          "internalType": "uint8",
          "name": "fx",
          "type": "uint8"
        },
        {
          "internalType": "uint8",
          "name": "colorWave",
          "type": "uint8"
        },
        {
          "internalType": "uint8",
          "name": "colorBg",
          "type": "uint8"
        }
      ],
      "stateMutability": "view",
      "type": "function"
    },
    {
      "inputs": [
        {
          "internalType": "uint256",
          "name": "",
          "type": "uint256"
        }
      ],
      "name": "waveformURIs",
      "outputs": [
        {
          "internalType": "string",
          "name": "",
          "type": "string"
        }
      ],
      "stateMutability": "view",
      "type": "function"
    }
  ],
  "bytecode": "0x60808060405234620003a15733156200038b5760008054336001600160a01b0319821681178355906001600160a01b03167f8be0079c531659141344cd1fd0a4f28419497f9722a3daafe3b4186f6b6457e08380a36040516001600160401b039161016082018381118382101762000377576040526200007e620003a6565b9160078084526020936611a11ca319232360c91b858201528252620000a2620003a6565b818152660234646443730360cc1b8582015284830152620000c2620003a6565b818152660234330433043360cc1b858201526040830152620000e3620003a6565b8181526611a1a21ba3199960c91b85820152606083015262000104620003a6565b818152665261696e626f7760c81b85820152608083015262000125620003a6565b818152660233030303030360cc1b8582015260a083015262000146620003a6565b818152660234646303030360cc1b8582015260c083015262000167620003a6565b818152661198181818232360c91b8582015260e083015262000188620003a6565b818152660233030464630360cc1b85820152610100830152620001aa620003a6565b818152660233830303038360cc1b85820152610120830152620001cc620003a6565b908152660234646413530360cc1b8482015261014082015260159282915b600b83106200020357604051611af79081620003dd8239f35b8051805191878311620003635786546001928382811c9216801562000358575b86831014620003445790859291601f91828111620002eb575b508391861160011462000283576001959189918362000277575b5050600019600383901b1c191690841b1788555b01950192019193620001ea565b015190508b8062000256565b898952838920959190601f1983168a5b818110620002d4575091600197918488959410620002ba575b505050811b0188556200026a565b015160001960f88460031b161c191690558b8080620002ac565b828401518955978701978996938401930162000293565b9091929350898952868920600584808901821c8301938a8a106200033a575b918a97968993969594929601901c01915b8281106200032b5750506200023c565b8b81558996508791016200031b565b935082936200030a565b634e487b7160e01b88526022600452602488fd5b91607f169162000223565b634e487b7160e01b86526041600452602486fd5b634e487b7160e01b82526041600452602482fd5b631e4fbdf760e01b815260006004820152602490fd5b600080fd5b60408051919082016001600160401b03811183821017620003c657604052565b634e487b7160e01b600052604160045260246000fdfe6040610100815260048036101561001557600080fd5b600091823560e01c806309aafb6114610ae95780630fb51ac41461099c5780631e4f8beb1461097257806332dbd6091461090f5780634dfa177f146108e157806351830227146108be5780635ac93a0a146108905780636ad81c7414610862578063715018a6146108085780637d330cdd14610660578063857a6f5b146106325780638da5cb5b1461060a578063a5573bd0146105e2578063ab95081d146105b4578063ac577140146103ce578063bfb70e04146101f6578063c0aa14b6146101bd578063e0a80853146101825763f2fde38b146100f257600080fd5b3461017e57602036600319011261017e576001600160a01b0382358181169391929084900361017a576101236117f6565b831561016457505082546001600160a01b0319811683178455167f8be0079c531659141344cd1fd0a4f28419497f9722a3daafe3b4186f6b6457e08380a380f35b51631e4fbdf760e01b8152908101849052602490fd5b8480fd5b8280fd5b5050346101b95760203660031901126101b957358015158091036101b9576101a86117f6565b60ff80196020541691161760205580f35b5080fd5b50903461017e57602036600319011261017e57816101f2936101e792358152602260205220610cd0565b905191829182610c38565b0390f35b508290346101b957806003193601126101b9578235906024356001600160a01b038116908190036103ca576102349061022d6117f6565b1515610dd8565b60ff602090610245818354166110bd565b8385526022825261025883862054610c96565b6103945782518281019042825285858201523360601b60608201526054815260808101918183106001600160401b038411176103815790829160649493875281519020926102a583610b41565b806005850616835260a08201918160058087040616835260c08101826005601988040616815260e0820190836005607d89040616825261012061010084019385600b6102718b0406168552019380600b611adb8a04061685528b8d5260218a528a8d2096511665ff000000000064ff0000000063ff00000062ff000061ff008b549a5160081b16955160101b16955160181b1695518c1b16955160281b169565ffffffffffff1916171717171717905506926001840180941161036e5784526024905282205580f35b634e487b7160e01b855260118652602485fd5b634e487b7160e01b885260418952602488fd5b825162461bcd60e51b8152808701839052601060248201526f105b1c9958591e481c995d99585b195960821b6044820152606490fd5b8380fd5b50823461058e576101e036600319011261058e576001600160401b039260243584811161017e576104029036908301610d75565b906044358581116103ca5761041a9036908301610d75565b60643586811161017a576104319036908401610d75565b6084358781116105b0576104489036908501610d75565b9060c03660a31901126105b05786519261046184610b41565b60ff9560a43587811681036105ac57855260c4359680881688036105ac57602097602087015260e43581811681036105a8578a8701526101043581811681036105a85760608701526101243581811681036105a85760808701526101443590811681036105ac5760a0860152610164610184358b81116105a8576104e89036908901610bc9565b976101a4358c81116105a4576105019036908a01610bc9565b998c6101c4359d8e116101b9573660238f0112156101b9578c519d8e610160810190811083821117610591578f908f52918582019336851161058e57828d01935b8585106105675750505050506101f28c6101e78f8e8e8e8e8e8e8e8e8e359535611135565b843583811161017e5787918f8392610583913691890101610bc9565b815201940193610542565b80fd5b634e487b7160e01b845260418c52602484fd5b8a80fd5b8980fd5b8880fd5b8580fd5b50903461017e57602036600319011261017e573591600583101561058e57506101e76101f292600b01610cd0565b50903461017e57602036600319011261017e5760209282913581526024845220549051908152f35b8382346101b957816003193601126101b957905490516001600160a01b039091168152602090f35b50903461017e57602036600319011261017e573591600b83101561058e57506101e76101f292601501610cd0565b503461017e5761066f36610c64565b91909261067a6117f6565b60209061068a60ff8354166110bd565b84865260238252828620918451916001600160401b0383116107f557506106b18354610c96565b601f81116107b2575b5080601f83116001146107285750918161071794927f77f0150fb3b30f6451acdccf70cd397383911429734276985d2b689849b00c2d9694899161071d575b508160011b916000199060031b1c19161790555b5191829182610c38565b0390a280f35b9050840151386106f9565b90601f1983168489528289209289905b82821061079a575050927f77f0150fb3b30f6451acdccf70cd397383911429734276985d2b689849b00c2d96949260019282610717989610610781575b5050811b01905561070d565b86015160001960f88460031b161c191690553880610775565b80600185968294968c01518155019501930190610738565b838852818820601f840160051c8101918385106107eb575b601f0160051c01905b8181106107e057506106ba565b8881556001016107d3565b90915081906107ca565b634e487b7160e01b885260419052602487fd5b833461058e578060031936011261058e576108216117f6565b80546001600160a01b03198116825581906001600160a01b03167f8be0079c531659141344cd1fd0a4f28419497f9722a3daafe3b4186f6b6457e08280a380f35b50903461017e57602036600319011261017e573591600583101561058e57506101e76101f292600101610cd0565b50903461017e57602036600319011261017e573591600583101561058e57506101e76101f292600601610cd0565b8382346101b957816003193601126101b95760209060ff82541690519015158152f35b50903461017e57602036600319011261017e573591600583101561058e57506101e76101f292601001610cd0565b50903461017e57602036600319011261017e5760c09282913581526021602052205460ff908251928282168452828260081c166020850152828260101c1690840152818160181c166060840152818160201c16608084015260281c1660a0820152f35b50903461017e57602036600319011261017e57816101f2936101e792358152602360205220610cd0565b508290346101b9576109ad36610c64565b9390916109b86117f6565b6020926109c860ff8554166110bd565b8452602283528320918451916001600160401b038311610ad657506109ed8354610c96565b601f8111610a93575b5080601f8311600114610a315750839482939492610a26575b50508160011b916000199060031b1c191617905580f35b015190508480610a0f565b90601f198316958486528286209286905b888210610a7b57505083600195969710610a62575b505050811b01905580f35b015160001960f88460031b161c19169055848080610a57565b80600185968294968601518155019501930190610a42565b838552818520601f840160051c810191838510610acc575b601f0160051c01905b818110610ac157506109f6565b858155600101610ab4565b9091508190610aab565b634e487b7160e01b855260419052602484fd5b50903461017e57606036600319011261017e576024356001600160401b0381116103ca57610b1a9036908301610bc9565b604435939091906001600160a01b038516850361058e5750926101e7916101f29435610e1b565b60c081019081106001600160401b03821117610b5c57604052565b634e487b7160e01b600052604160045260246000fd5b60a081019081106001600160401b03821117610b5c57604052565b90601f801991011681019081106001600160401b03821117610b5c57604052565b6001600160401b038111610b5c57601f01601f191660200190565b81601f82011215610c1057803590610be082610bae565b92610bee6040519485610b8d565b82845260208383010111610c1057816000926020809301838601378301015290565b600080fd5b60005b838110610c285750506000910152565b8181015183820152602001610c18565b60409160208252610c588151809281602086015260208686019101610c15565b601f01601f1916010190565b906040600319830112610c105760043591602435906001600160401b038211610c1057610c9391600401610bc9565b90565b90600182811c92168015610cc6575b6020831014610cb057565b634e487b7160e01b600052602260045260246000fd5b91607f1691610ca5565b90604051918260008254610ce381610c96565b90818452602094600191600181169081600014610d535750600114610d14575b505050610d1292500383610b8d565b565b600090815285812095935091905b818310610d3b575050610d129350820101388080610d03565b85548884018501529485019487945091830191610d22565b92505050610d1294925060ff191682840152151560051b820101388080610d03565b9080601f83011215610c105760405191610d8e83610b72565b60a081019083838311610c105781905b838210610dad57505050505090565b81356001600160401b038111610c1057602091610dcd8784938701610bc9565b815201910190610d9e565b15610ddf57565b60405162461bcd60e51b8152602060048201526014602482015273151bdad95b88191bd95cc81b9bdd08195e1a5cdd60621b6044820152606490fd5b9291610e31906001600160a01b03161515610dd8565b60ff60205416156110b95750816000526022602052610e54604060002054610c96565b1561108057816000526023602052610e70604060002054610c96565b1561104457816000526021602052604060002060246020526040600020546022602052604060002090602360205260406000209060405193610eb185610b72565b60016000865b600582106110275750505060405193610ecf85610b72565b60066000865b6005821061100a57505050604051610eec81610b72565b600b6000825b60058210610fed5750505060405191610f0a83610b72565b60106000845b60058210610fd057505050610f71610f779160ff60405196610f3188610b41565b548181168852818160081c166020890152818160101c166040890152818160181c166060890152818160201c16608089015260281c1660a0870152610cd0565b95610cd0565b956040519761016089018981106001600160401b03821117610b5c5760405260159a60008a5b600b8210610fb2575050610c939a9b50611135565b600160208f92610fc28394610cd0565b8152019e019101909c610f9d565b600160208192610fdf86610cd0565b815201930191019091610f10565b600160208192610ffc86610cd0565b815201930191019091610ef2565b60016020819261101986610cd0565b815201930191019091610ed5565b60016020819261103686610cd0565b815201930191019091610eb7565b60405162461bcd60e51b815260206004820152601460248201527315d85d99599bdc9b48155492481b9bdd081cd95d60621b6044820152606490fd5b60405162461bcd60e51b8152602060048201526011602482015270105d591a5bc8155492481b9bdd081cd95d607a1b6044820152606490fd5b9150565b156110c457565b60405162461bcd60e51b815260206004820152601160248201527052657665616c206e6f742061637469766560781b6044820152606490fd5b90600581101561110e5760051b0190565b634e487b7160e01b600052603260045260246000fd5b90600b81101561110e5760051b0190565b90929493969897919860e05261114a90611854565b60a052825160ff1661115c90836110fd565b5196602084015160ff16611170908a6110fd565b51604085015160ff1661118390876110fd565b51606086015160ff16611196908a6110fd565b5190608087015160ff166111aa9085611124565b519260a088015160ff166111be9086611124565b51946111c98b611854565b97895160ff166111d8916110fd565b519d60208a015160ff166111eb916110fd565b519960408a015160ff166111fe916110fd565b519b60608a015160ff16611211916110fd565b51608052608089015160ff166112279082611124565b519860a0015160ff1661123991611124565b519961124490611854565b9b60405160c05260c0516020017f7b226e616d65223a22417065426561747347656e657369732023000000000000905260a0515160c051603a018160a0516020019161128f92610c15565b60c051019661088b60f21b9788603a820152603c81017f226465736372697074696f6e223a22556e6971756520617564696f2d76697375905267185b08139195088b60c21b605c820152681134b6b0b3b2911d1160b91b606482015281519182606d8301916020019161130192610c15565b0187606d820152701130b734b6b0ba34b7b72fbab936111d1160791b606f82015260e0515190608081018260e0516020019161133c92610c15565b01608081018890526f226f6e636861696e5f64617461223a7b60801b608282015267113130b9b9911d1160c11b6092820152815191611384908390609a840190602001610c15565b0186609a820152681132393ab6b9911d1160b91b609c8201528151918260a5830191602001916113b392610c15565b018560a5820152691136b2b637b23c911d1160b11b60a78201528151918260b1830191602001916113e392610c15565b018460b18201526511333c111d1160d11b60b38201528151918260b98301916020019161140f92610c15565b018360b98201526d113bb0bb32afb1b7b637b9111d1160911b60bb8201528151918260c98301916020019161144392610c15565b018260c98201526b113133afb1b7b637b9111d1160a11b60cb8201528151918260d78301916020019161147592610c15565b019060d782015269113930b934ba3c911d1160b11b60d98201528151918260e3830191602001916114a592610c15565b601160f91b60e39290910191820152611f4b60f21b60e48201527f2261747472696275746573223a5b7b2274726169745f74797065223a2242617360e68201526b399116113b30b63ab2911d1160a11b6101068201528651610112979091906115169083908a840190602001610c15565b019562089f4b60ea1b948580948180948b01526101158a017f7b2274726169745f74797065223a224472756d73222c2276616c7565223a2200905261013499815191828c8301916020019161156a92610c15565b019889015261013788017f7b2274726169745f74797065223a224d656c6f6479222c2276616c7565223a22905261015797815191828a830191602001916115b092610c15565b01968701527f7b2274726169745f74797065223a224658222c2276616c7565223a220000000061015a87015260805180516101769784926115f99083908b840190602001610c15565b01968701527f7b2274726169745f74797065223a225761766520436f6c6f72222c2276616c756101798701526332911d1160e11b610199870152805161019d96909161164d90839089840190602001610c15565b01948501527f7b2274726169745f74797065223a224261636b67726f756e6420436f6c6f72226101a08501526916113b30b63ab2911d1160b11b6101c085015280516101ca9490916116a790839087840190602001610c15565b01928301527f7b2274726169745f74797065223a225261726974792053636f7265222c2276616101cd83015265363ab2911d1160d11b6101ed83015280516101f39290916116fd90839085840190602001610c15565b019063227d5d7d60e01b9082015260c05190036101d7810160c051526101f70160c0519061172a91610b8d565b60405160608101908082106001600160401b03831117610b5c576117a391604052604081527f4142434445464748494a4b4c4d4e4f505152535455565758595a61626364656660208201527f6768696a6b6c6d6e6f707172737475767778797a303132333435363738392b2f604082015260c051611998565b610c93603d60405180937f646174613a6170706c69636174696f6e2f6a736f6e3b6261736536342c00000060208301526117e68151809260208686019101610c15565b810103601d810184520182610b8d565b6000546001600160a01b0316330361180a57565b60405163118cdaa760e01b8152336004820152602490fd5b9061182c82610bae565b6118396040519182610b8d565b828152809261184a601f1991610bae565b0190602036910137565b806000917a184f03e93ff9f4daa797ed6e38ed64bf6a1f0100000000000000008082101561198a575b506d04ee2d6d415b85acef81000000008083101561197b575b50662386f26fc100008083101561196c575b506305f5e1008083101561195d575b506127108083101561194e575b50606482101561193e575b600a80921015611934575b6001908160216118ec60018701611822565b95860101905b6118fe575b5050505090565b600019019083906f181899199a1a9b1b9c1cb0b131b232b360811b8282061a83530491821561192f579190826118f2565b6118f7565b91600101916118da565b91906064600291049101916118cf565b600491939204910191386118c4565b600891939204910191386118b7565b601091939204910191386118a8565b60209193920491019138611896565b60409350810491503861187d565b919091805115611a9b5780519260029160028501809511611a85576003948590046001600160fe1b0381168103611a85576119d89060029694961b611822565b926020840192829183518401976020890192835194600085525b8a8110611a3857505050506003939495965052510680600114611a2557600214611a1a575090565b603d90600019015390565b50603d9081600019820153600119015390565b836004919b989b019a8b51600190603f9082828260121c16870101518453828282600c1c16870101518385015382828260061c1687010151878501531684010151858201530196996119f2565b634e487b7160e01b600052601160045260246000fd5b509050604051602081018181106001600160401b03821117610b5c57604052600081529056fea2646970667358221220fa1b8f3ea164fec6d409e20a2bfc36523809516e445052cd5269cd6ea846579564736f6c63430008180033",
  "linkReferences": {},
  "deployedLinkReferences": {}
}