{
  "_format": "hh-sol-artifact-1",
  "contractName": "ApeBeatsRoyalties",
  "sourceName": "contracts/ApeBeatsRoyalties.sol",
  "abi": [
    {
      "inputs": [
        {
          "internalType": "address",
          "name": "_treasury",
          "type": "address"
        },
        {
          "internalType": "address",
          "name": "_founder",
          "type": "address"
        }
      ],
      "stateMutability": "nonpayable",
      "type": "constructor"
    },
    {
      "inputs": [
        {
          "internalType": "address",
          "name": "owner",
          "type": "address"
        }
      ],
      "name": "OwnableInvalidOwner",
      "type": "error"
    },
    {
      "inputs": [
        {
          "internalType": "address",
          "name": "account",
          "type": "address"
        }
      ],
      "name": "OwnableUnauthorizedAccount",
      "type": "error"
    },
    {
      "inputs": [],
      "name": "ReentrancyGuardReentrantCall",
      "type": "error"
    },
    {
      "anonymous": false,
      "inputs": [
        {
          "indexed": true,
          "internalType": "address",
          "name": "previousOwner",
          "type": "address"
        },
        {
          "indexed": true,
          "internalType": "address",
          "name": "newOwner",
          "type": "address"
        }
      ],
      "name": "OwnershipTransferred",
      "type": "event"
    },
    {
      "anonymous": false,
      "inputs": [
        {
          "indexed": true,
          "internalType": "address",
          "name": "claimant",
          "type": "address"
        },
        {
          "indexed": false,
          "internalType": "uint256",
          "name": "amount",
          "type": "uint256"
        }
      ],
      "name": "RoyaltiesClaimed",
      "type": "event"
    },
    {
      "anonymous": false,
      "inputs": [
        {
          "indexed": false,
          "internalType": "uint256",
          "name": "amount",
          "type": "uint256"
        }
      ],
      "name": "RoyaltiesPooled",
      "type": "event"
    },
    {
      "anonymous": false,
      "inputs": [
        {
          "indexed": true,
          "internalType": "uint256",
          "name": "tokenId",
          "type": "uint256"
        },
        {
          "indexed": false,
          "internalType": "uint256",
          "name": "amount",
          "type": "uint256"
        }
      ],
      "name": "RoyaltiesReceived",
      "type": "event"
    },
    {
      "inputs": [],
      "name": "ROYALTY_WINDOW",
      "outputs": [
        {
          "internalType": "uint256",
          "name": "",
          "type": "uint256"
        }
      ],
      "stateMutability": "view",
      "type": "function"
    },
    {
      "inputs": [],
      "name": "claimPoolRoyalties",
      "outputs": [],
      "stateMutability": "nonpayable",
      "type": "function"
    },
    {
      "inputs": [],
      "name": "claimRoyalties",
      "outputs": [],
      "stateMutability": "nonpayable",
      "type": "function"
    },
    {
      "inputs": [],
      "name": "founder",
      "outputs": [
        {
          "internalType": "address",
          "name": "",
          "type": "address"
        }
      ],
      "stateMutability": "view",
      "type": "function"
    },
    {
      "inputs": [
        {
          "internalType": "uint256",
          "name": "tokenId",
          "type": "uint256"
        },
        {
          "internalType": "address",
          "name": "minter",
          "type": "address"
        },
        {
          "internalType": "uint256",
          "name": "amountMinted",
          "type": "uint256"
        }
      ],
      "name": "mintAndRecord",
      "outputs": [],
      "stateMutability": "nonpayable",
      "type": "function"
    },
    {
      "inputs": [
        {
          "internalType": "address",
          "name": "",
          "type": "address"
        }
      ],
      "name": "mintedPerWallet",
      "outputs": [
        {
          "internalType": "uint256",
          "name": "",
          "type": "uint256"
        }
      ],
      "stateMutability": "view",
      "type": "function"
    },
    {
      "inputs": [
        {
          "internalType": "uint256",
          "name": "",
          "type": "uint256"
        }
      ],
      "name": "originalMinters",
      "outputs": [
        {
          "internalType": "address",
          "name": "",
          "type": "address"
        }
      ],
      "stateMutability": "view",
      "type": "function"
    },
    {
      "inputs": [],
      "name": "owner",
      "outputs": [
        {
          "internalType": "address",
          "name": "",
          "type": "address"
        }
      ],
      "stateMutability": "view",
      "type": "function"
    },
    {
      "inputs": [],
      "name": "poolRoyalties",
      "outputs": [
        {
          "internalType": "uint256",
          "name": "",
          "type": "uint256"
        }
      ],
      "stateMutability": "view",
      "type": "function"
    },
    {
      "inputs": [
        {
          "internalType": "uint256",
          "name": "",
          "type": "uint256"
        }
      ],
      "name": "recentTransfers",
      "outputs": [
        {
          "internalType": "uint256",
          "name": "tokenId",
          "type": "uint256"
        },
        {
          "internalType": "uint256",
          "name": "timestamp",
          "type": "uint256"
        }
      ],
      "stateMutability": "view",
      "type": "function"
    },
    {
      "inputs": [
        {
          "internalType": "uint256",
          "name": "tokenId",
          "type": "uint256"
        }
      ],
      "name": "recordTransfer",
      "outputs": [],
      "stateMutability": "nonpayable",
      "type": "function"
    },
    {
      "inputs": [],
      "name": "renounceOwnership",
      "outputs": [],
      "stateMutability": "nonpayable",
      "type": "function"
    },
    {
      "inputs": [
        {
          "internalType": "address",
          "name": "",
          "type": "address"
        }
      ],
      "name": "royaltyBalances",
      "outputs": [
        {
          "internalType": "uint256",
          "name": "",
          "type": "uint256"
        }
      ],
      "stateMutability": "view",
      "type": "function"
    },
    {
      "inputs": [
        {
          "internalType": "uint256",
          "name": "",
          "type": "uint256"
        }
      ],
      "name": "royaltyBalancesPerToken",
      "outputs": [
        {
          "internalType": "uint256",
          "name": "",
          "type": "uint256"
        }
      ],
      "stateMutability": "view",
      "type": "function"
    },
    {
      "inputs": [
        {
          "internalType": "uint256",
          "name": "tokenId",
          "type": "uint256"
        },
        {
          "internalType": "address",
          "name": "minter",
          "type": "address"
        },
        {
          "internalType": "uint256",
          "name": "amountMinted",
          "type": "uint256"
        }
      ],
      "name": "setOriginalMinter",
      "outputs": [],
      "stateMutability": "nonpayable",
      "type": "function"
    },
    {
      "inputs": [],
      "name": "totalMinted",
      "outputs": [
        {
          "internalType": "uint256",
          "name": "",
          "type": "uint256"
        }
      ],
      "stateMutability": "view",
      "type": "function"
    },
    {
      "inputs": [],
      "name": "transferIndex",
      "outputs": [
        {
          "internalType": "uint256",
          "name": "",
          "type": "uint256"
        }
      ],
      "stateMutability": "view",
      "type": "function"
    },
    {
      "inputs": [
        {
          "internalType": "address",
          "name": "newOwner",
          "type": "address"
        }
      ],
      "name": "transferOwnership",
      "outputs": [],
      "stateMutability": "nonpayable",
      "type": "function"
    },
    {
      "inputs": [],
      "name": "treasury",
      "outputs": [
        {
          "internalType": "address",
          "name": "",
          "type": "address"
        }
      ],
      "stateMutability": "view",
      "type": "function"
    },
    {
      "stateMutability": "payable",
      "type": "receive"
    }
  ],
  "bytecode": "0x60803461012d57601f610f0638819003918201601f19168301916001600160401b0383118484101761013257808492604094855283398101031261012d57610052602061004b83610148565b9201610148565b3315610114576000549060018060a01b03918260018060a01b031994338684161760005560405192823391167f8be0079c531659141344cd1fd0a4f28419497f9722a3daafe3b4186f6b6457e0600080a360018055169081156100d2575083600254161760025516906003541617600355604051610da9908161015d8239f35b62461bcd60e51b815260206004820152601f60248201527f54726561737572792063616e6e6f74206265207a65726f2061646472657373006044820152606490fd5b604051631e4fbdf760e01b815260006004820152602490fd5b600080fd5b634e487b7160e01b600052604160045260246000fd5b51906001600160a01b038216820361012d5756fe60406080815260049081361015610028575b5050361561001e57600080fd5b610026610bd8565b005b600091823560e01c8063069b7820146106965780631ebdeeab1461066f5780631efee9761461065157806333f6df8f146106195780633a602b4d146105e15780633a8de572146103ec5780634d853ee5146103c357806353234fb4146103a457806361d027b31461037b578063715018a61461032157806388b48eea146102ae5780638da5cb5b146102865780639d75170a14610248578063a2309ff81461022b578063cada1c001461020f578063d37b1f46146101ec578063d67f8d0b146101c1578063e7d0fd181461018f5763f2fde38b146101065750610011565b3461018b57602036600319011261018b5761011f610794565b90610128610d47565b6001600160a01b0391821692831561017557505082546001600160a01b0319811683178455167f8be0079c531659141344cd1fd0a4f28419497f9722a3daafe3b4186f6b6457e08380a380f35b51631e4fbdf760e01b8152908101849052602490fd5b8280fd5b503461018b57602036600319011261018b57358252600a6020908152918190205490516001600160a01b039091168152f35b83346101e957806003193601126101e9576101da610d24565b6101e26108cd565b6001805580f35b80fd5b50503461020b578160031936011261020b576020906005549051908152f35b5080fd5b50503461020b578160031936011261020b5760209051603c8152f35b503461018b578260031936011261018b5760209250549051908152f35b5082903461020b57602036600319011261020b5735906006548210156101e95750610272906107d9565b506001815491015482519182526020820152f35b50503461020b578160031936011261020b57905490516001600160a01b039091168152602090f35b50903461018b5761031c906102c2366107af565b92916102cc610d47565b6102d4610d47565b8652600a6020528186209060018060a01b031690816bffffffffffffffffffffffff60a01b8254161790558552600b60205284206103138282546108aa565b905582546108aa565b905580f35b83346101e957806003193601126101e95761033a610d47565b80546001600160a01b03198116825581906001600160a01b03167f8be0079c531659141344cd1fd0a4f28419497f9722a3daafe3b4186f6b6457e08280a380f35b50503461020b578160031936011261020b5760025490516001600160a01b039091168152602090f35b50503461020b578160031936011261020b576020906007549051908152f35b50503461020b578160031936011261020b5760035490516001600160a01b039091168152602090f35b83823461020b57602036600319011261020b57610407610d47565b61040f610829565b8135815260208101428152600691825491680100000000000000008310156105ce5761044160019384810186556107d9565b9290926105bc5751825551908201556007805460001991908281146105a9578301600755825b61046f578580f35b8354606481118015610546575b156105415782810181811161052e57610494906107d9565b50908254811561051b57906104a991066107d9565b9190916104e4578085918303610509575b505050835480156104f65782016104d0816107d9565b6104e4578781558401879055845582610467565b634e487b7160e01b8852878752602488fd5b634e487b7160e01b875260318652602487fd5b805483558101549101558683816104ba565b634e487b7160e01b895260128852602489fd5b634e487b7160e01b885260118752602488fd5b508580f35b50801580159081610558575b5061047c565b9050610596578487527ff652222313e28459528d920b65115c16c04f3efc82aaedc97be59f3f377c0d40546078810180911161052e57421188610552565b634e487b7160e01b875260328652602487fd5b634e487b7160e01b875260118652602487fd5b634e487b7160e01b8752868652602487fd5b634e487b7160e01b865260418552602486fd5b50503461020b57602036600319011261020b5760209181906001600160a01b03610609610794565b168152600b845220549051908152f35b50503461020b57602036600319011261020b5760209181906001600160a01b03610641610794565b1681526009845220549051908152f35b50903461018b5761031c90610665366107af565b92916102d4610d47565b503461018b57602036600319011261018b5760209282913581526008845220549051908152f35b50903461018b578260031936011261018b576106b0610d24565b33835260096020528083205491821561075a57338452600960205283828120558380808086335af16106e061085f565b50156107185750519081527f8fbbda19f4a70036f6f585dc4160142a8fa2a20ffb9393d23274f78de4e3988860203392a26001805580f35b6020606492519162461bcd60e51b8352820152601860248201527f4661696c656420746f2073656e6420726f79616c7469657300000000000000006044820152fd5b6020606492519162461bcd60e51b835282015260156024820152744e6f20726f79616c7469657320746f20636c61696d60581b6044820152fd5b600435906001600160a01b03821682036107aa57565b600080fd5b60609060031901126107aa57600435906024356001600160a01b03811681036107aa579060443590565b60065481101561081357600660005260011b7ff652222313e28459528d920b65115c16c04f3efc82aaedc97be59f3f377c0d3f0190600090565b634e487b7160e01b600052603260045260246000fd5b604051906040820182811067ffffffffffffffff82111761084957604052565b634e487b7160e01b600052604160045260246000fd5b3d156108a55767ffffffffffffffff903d8281116108495760405192601f8201601f19908116603f01168401908111848210176108495760405282523d6000602084013e565b606090565b919082018092116108b757565b634e487b7160e01b600052601160045260246000fd5b6004805415610b9d57600554908115610b59576019820290828204601903610b445760648092049260328102908104603203610b2f578290046000938460055560018060a01b0390858080808486600354165af161092961085f565b5015610aeb57858080809385600254165af161094361085f565b5015610aa85780600354163314908115610a9a575b50610a9457338452600b6020526040842054908115610a5157818102918183041490151715610a3e578154908115610a2b5704923381526009602052604081206109a38582546108aa565b905580808086335af16109b461085f565b50156109ea5750506040519081527f8fbbda19f4a70036f6f585dc4160142a8fa2a20ffb9393d23274f78de4e3988860203392a2565b60206040519162461bcd60e51b8352820152601b60248201527f4661696c656420746f2073656e64206d696e74657220736861726500000000006044820152fd5b634e487b7160e01b855260128352602485fd5b634e487b7160e01b845260118252602484fd5b505060206040519162461bcd60e51b8352820152601c60248201527f4e6f20746f6b656e73206d696e74656420627920636c61696d616e74000000006044820152fd5b50505050565b905060025416331438610958565b505060206040519162461bcd60e51b8352820152601d60248201527f4661696c656420746f2073656e642074726561737572792073686172650000006044820152fd5b50505060206040519162461bcd60e51b8352820152601c60248201527f4661696c656420746f2073656e6420666f756e646572207368617265000000006044820152fd5b601182634e487b7160e01b6000525260246000fd5b601190634e487b7160e01b6000525260246000fd5b60649060206040519162461bcd60e51b8352820152601a60248201527f4e6f20706f6f6c20726f79616c7469657320746f20636c61696d0000000000006044820152fd5b60649060206040519162461bcd60e51b83528201526014602482015273139bc81d1bdad95b9cc81b5a5b9d1959081e595d60621b6044820152fd5b60065480610c1d575b50610bee346005546108aa565b6005557f1d5b077db78404787d2283eb338d87091c7bea1551c6a3b35853970955fe4e806020604051348152a1565b60001981019081116108b757610c32906107d9565b506001610c3d610829565b91805483520154906020918083830152603c81018091116108b757421115610c655750610be1565b519060008281526008825260408120610c7f3482546108aa565b9055828152600a825260408120546001600160a01b03168015610cdf57816040917fe8f58c2c4663d8d9bab1fcd91c3bef339c90e81754e2d0ec7e888c5c0b56b08d9493526009835220610cd43482546108aa565b9055604051348152a2565b60405162461bcd60e51b815260048101849052601760248201527f496e76616c6964206f726967696e616c206d696e7465720000000000000000006044820152606490fd5b600260015414610d35576002600155565b604051633ee5aeb560e01b8152600490fd5b6000546001600160a01b03163303610d5b57565b60405163118cdaa760e01b8152336004820152602490fdfea26469706673582212201e61414c5aa0830c15df6bce4d9f981a36e00d7bef369c940042ab692b76242564736f6c63430008180033",
  "linkReferences": {},
  "deployedLinkReferences": {}
}